{
  "_format": "hh-sol-artifact-1",
  "contractName": "MyToken",
  "sourceName": "contracts/LucaContract.sol",
  "abi": [
    {
      "inputs": [
        {
          "internalType": "address",
          "name": "defaultAdmin",
          "type": "address"
        }
      ],
      "stateMutability": "nonpayable",
      "type": "constructor"
    },
    {
      "inputs": [],
      "name": "AccessControlBadConfirmation",
      "type": "error"
    },
    {
      "inputs": [
        {
          "internalType": "address",
          "name": "account",
          "type": "address"
        },
        {
          "internalType": "bytes32",
          "name": "neededRole",
          "type": "bytes32"
        }
      ],
      "name": "AccessControlUnauthorizedAccount",
      "type": "error"
    },
    {
      "inputs": [
        {
          "internalType": "address",
          "name": "sender",
          "type": "address"
        },
        {
          "internalType": "uint256",
          "name": "tokenId",
          "type": "uint256"
        },
        {
          "internalType": "address",
          "name": "owner",
          "type": "address"
        }
      ],
      "name": "ERC721IncorrectOwner",
      "type": "error"
    },
    {
      "inputs": [
        {
          "internalType": "address",
          "name": "operator",
          "type": "address"
        },
        {
          "internalType": "uint256",
          "name": "tokenId",
          "type": "uint256"
        }
      ],
      "name": "ERC721InsufficientApproval",
      "type": "error"
    },
    {
      "inputs": [
        {
          "internalType": "address",
          "name": "approver",
          "type": "address"
        }
      ],
      "name": "ERC721InvalidApprover",
      "type": "error"
    },
    {
      "inputs": [
        {
          "internalType": "address",
          "name": "operator",
          "type": "address"
        }
      ],
      "name": "ERC721InvalidOperator",
      "type": "error"
    },
    {
      "inputs": [
        {
          "internalType": "address",
          "name": "owner",
          "type": "address"
        }
      ],
      "name": "ERC721InvalidOwner",
      "type": "error"
    },
    {
      "inputs": [
        {
          "internalType": "address",
          "name": "receiver",
          "type": "address"
        }
      ],
      "name": "ERC721InvalidReceiver",
      "type": "error"
    },
    {
      "inputs": [
        {
          "internalType": "address",
          "name": "sender",
          "type": "address"
        }
      ],
      "name": "ERC721InvalidSender",
      "type": "error"
    },
    {
      "inputs": [
        {
          "internalType": "uint256",
          "name": "tokenId",
          "type": "uint256"
        }
      ],
      "name": "ERC721NonexistentToken",
      "type": "error"
    },
    {
      "anonymous": false,
      "inputs": [
        {
          "indexed": true,
          "internalType": "address",
          "name": "owner",
          "type": "address"
        },
        {
          "indexed": true,
          "internalType": "address",
          "name": "approved",
          "type": "address"
        },
        {
          "indexed": true,
          "internalType": "uint256",
          "name": "tokenId",
          "type": "uint256"
        }
      ],
      "name": "Approval",
      "type": "event"
    },
    {
      "anonymous": false,
      "inputs": [
        {
          "indexed": true,
          "internalType": "address",
          "name": "owner",
          "type": "address"
        },
        {
          "indexed": true,
          "internalType": "address",
          "name": "operator",
          "type": "address"
        },
        {
          "indexed": false,
          "internalType": "bool",
          "name": "approved",
          "type": "bool"
        }
      ],
      "name": "ApprovalForAll",
      "type": "event"
    },
    {
      "anonymous": false,
      "inputs": [
        {
          "indexed": false,
          "internalType": "uint256",
          "name": "_fromTokenId",
          "type": "uint256"
        },
        {
          "indexed": false,
          "internalType": "uint256",
          "name": "_toTokenId",
          "type": "uint256"
        }
      ],
      "name": "BatchMetadataUpdate",
      "type": "event"
    },
    {
      "anonymous": false,
      "inputs": [
        {
          "indexed": false,
          "internalType": "uint256",
          "name": "_tokenId",
          "type": "uint256"
        }
      ],
      "name": "MetadataUpdate",
      "type": "event"
    },
    {
      "anonymous": false,
      "inputs": [
        {
          "indexed": true,
          "internalType": "bytes32",
          "name": "role",
          "type": "bytes32"
        },
        {
          "indexed": true,
          "internalType": "bytes32",
          "name": "previousAdminRole",
          "type": "bytes32"
        },
        {
          "indexed": true,
          "internalType": "bytes32",
          "name": "newAdminRole",
          "type": "bytes32"
        }
      ],
      "name": "RoleAdminChanged",
      "type": "event"
    },
    {
      "anonymous": false,
      "inputs": [
        {
          "indexed": true,
          "internalType": "bytes32",
          "name": "role",
          "type": "bytes32"
        },
        {
          "indexed": true,
          "internalType": "address",
          "name": "account",
          "type": "address"
        },
        {
          "indexed": true,
          "internalType": "address",
          "name": "sender",
          "type": "address"
        }
      ],
      "name": "RoleGranted",
      "type": "event"
    },
    {
      "anonymous": false,
      "inputs": [
        {
          "indexed": true,
          "internalType": "bytes32",
          "name": "role",
          "type": "bytes32"
        },
        {
          "indexed": true,
          "internalType": "address",
          "name": "account",
          "type": "address"
        },
        {
          "indexed": true,
          "internalType": "address",
          "name": "sender",
          "type": "address"
        }
      ],
      "name": "RoleRevoked",
      "type": "event"
    },
    {
      "anonymous": false,
      "inputs": [
        {
          "indexed": true,
          "internalType": "address",
          "name": "from",
          "type": "address"
        },
        {
          "indexed": true,
          "internalType": "address",
          "name": "to",
          "type": "address"
        },
        {
          "indexed": true,
          "internalType": "uint256",
          "name": "tokenId",
          "type": "uint256"
        }
      ],
      "name": "Transfer",
      "type": "event"
    },
    {
      "inputs": [],
      "name": "DEFAULT_ADMIN_ROLE",
      "outputs": [
        {
          "internalType": "bytes32",
          "name": "",
          "type": "bytes32"
        }
      ],
      "stateMutability": "view",
      "type": "function"
    },
    {
      "inputs": [],
      "name": "MINTER_ROLE",
      "outputs": [
        {
          "internalType": "bytes32",
          "name": "",
          "type": "bytes32"
        }
      ],
      "stateMutability": "view",
      "type": "function"
    },
    {
      "inputs": [
        {
          "internalType": "address",
          "name": "newMinter",
          "type": "address"
        }
      ],
      "name": "addMinter",
      "outputs": [],
      "stateMutability": "nonpayable",
      "type": "function"
    },
    {
      "inputs": [
        {
          "internalType": "address",
          "name": "to",
          "type": "address"
        },
        {
          "internalType": "uint256",
          "name": "tokenId",
          "type": "uint256"
        }
      ],
      "name": "approve",
      "outputs": [],
      "stateMutability": "nonpayable",
      "type": "function"
    },
    {
      "inputs": [
        {
          "internalType": "address",
          "name": "owner",
          "type": "address"
        }
      ],
      "name": "balanceOf",
      "outputs": [
        {
          "internalType": "uint256",
          "name": "",
          "type": "uint256"
        }
      ],
      "stateMutability": "view",
      "type": "function"
    },
    {
      "inputs": [
        {
          "internalType": "uint256",
          "name": "tokenId",
          "type": "uint256"
        }
      ],
      "name": "burn",
      "outputs": [],
      "stateMutability": "nonpayable",
      "type": "function"
    },
    {
      "inputs": [
        {
          "internalType": "uint256",
          "name": "tokenId",
          "type": "uint256"
        }
      ],
      "name": "getApproved",
      "outputs": [
        {
          "internalType": "address",
          "name": "",
          "type": "address"
        }
      ],
      "stateMutability": "view",
      "type": "function"
    },
    {
      "inputs": [
        {
          "internalType": "bytes32",
          "name": "role",
          "type": "bytes32"
        }
      ],
      "name": "getRoleAdmin",
      "outputs": [
        {
          "internalType": "bytes32",
          "name": "",
          "type": "bytes32"
        }
      ],
      "stateMutability": "view",
      "type": "function"
    },
    {
      "inputs": [
        {
          "internalType": "bytes32",
          "name": "role",
          "type": "bytes32"
        },
        {
          "internalType": "address",
          "name": "account",
          "type": "address"
        }
      ],
      "name": "grantRole",
      "outputs": [],
      "stateMutability": "nonpayable",
      "type": "function"
    },
    {
      "inputs": [
        {
          "internalType": "bytes32",
          "name": "role",
          "type": "bytes32"
        },
        {
          "internalType": "address",
          "name": "account",
          "type": "address"
        }
      ],
      "name": "hasRole",
      "outputs": [
        {
          "internalType": "bool",
          "name": "",
          "type": "bool"
        }
      ],
      "stateMutability": "view",
      "type": "function"
    },
    {
      "inputs": [
        {
          "internalType": "address",
          "name": "owner",
          "type": "address"
        },
        {
          "internalType": "address",
          "name": "operator",
          "type": "address"
        }
      ],
      "name": "isApprovedForAll",
      "outputs": [
        {
          "internalType": "bool",
          "name": "",
          "type": "bool"
        }
      ],
      "stateMutability": "view",
      "type": "function"
    },
    {
      "inputs": [],
      "name": "name",
      "outputs": [
        {
          "internalType": "string",
          "name": "",
          "type": "string"
        }
      ],
      "stateMutability": "view",
      "type": "function"
    },
    {
      "inputs": [
        {
          "internalType": "uint256",
          "name": "tokenId",
          "type": "uint256"
        }
      ],
      "name": "ownerOf",
      "outputs": [
        {
          "internalType": "address",
          "name": "",
          "type": "address"
        }
      ],
      "stateMutability": "view",
      "type": "function"
    },
    {
      "inputs": [
        {
          "internalType": "bytes32",
          "name": "role",
          "type": "bytes32"
        },
        {
          "internalType": "address",
          "name": "callerConfirmation",
          "type": "address"
        }
      ],
      "name": "renounceRole",
      "outputs": [],
      "stateMutability": "nonpayable",
      "type": "function"
    },
    {
      "inputs": [
        {
          "internalType": "bytes32",
          "name": "role",
          "type": "bytes32"
        },
        {
          "internalType": "address",
          "name": "account",
          "type": "address"
        }
      ],
      "name": "revokeRole",
      "outputs": [],
      "stateMutability": "nonpayable",
      "type": "function"
    },
    {
      "inputs": [
        {
          "internalType": "address",
          "name": "to",
          "type": "address"
        },
        {
          "internalType": "string",
          "name": "uri",
          "type": "string"
        }
      ],
      "name": "safeMint",
      "outputs": [],
      "stateMutability": "nonpayable",
      "type": "function"
    },
    {
      "inputs": [
        {
          "internalType": "address",
          "name": "from",
          "type": "address"
        },
        {
          "internalType": "address",
          "name": "to",
          "type": "address"
        },
        {
          "internalType": "uint256",
          "name": "tokenId",
          "type": "uint256"
        }
      ],
      "name": "safeTransferFrom",
      "outputs": [],
      "stateMutability": "nonpayable",
      "type": "function"
    },
    {
      "inputs": [
        {
          "internalType": "address",
          "name": "from",
          "type": "address"
        },
        {
          "internalType": "address",
          "name": "to",
          "type": "address"
        },
        {
          "internalType": "uint256",
          "name": "tokenId",
          "type": "uint256"
        },
        {
          "internalType": "bytes",
          "name": "data",
          "type": "bytes"
        }
      ],
      "name": "safeTransferFrom",
      "outputs": [],
      "stateMutability": "nonpayable",
      "type": "function"
    },
    {
      "inputs": [
        {
          "internalType": "address",
          "name": "operator",
          "type": "address"
        },
        {
          "internalType": "bool",
          "name": "approved",
          "type": "bool"
        }
      ],
      "name": "setApprovalForAll",
      "outputs": [],
      "stateMutability": "nonpayable",
      "type": "function"
    },
    {
      "inputs": [
        {
          "internalType": "bytes4",
          "name": "interfaceId",
          "type": "bytes4"
        }
      ],
      "name": "supportsInterface",
      "outputs": [
        {
          "internalType": "bool",
          "name": "",
          "type": "bool"
        }
      ],
      "stateMutability": "view",
      "type": "function"
    },
    {
      "inputs": [],
      "name": "symbol",
      "outputs": [
        {
          "internalType": "string",
          "name": "",
          "type": "string"
        }
      ],
      "stateMutability": "view",
      "type": "function"
    },
    {
      "inputs": [
        {
          "internalType": "uint256",
          "name": "tokenId",
          "type": "uint256"
        }
      ],
      "name": "tokenURI",
      "outputs": [
        {
          "internalType": "string",
          "name": "",
          "type": "string"
        }
      ],
      "stateMutability": "view",
      "type": "function"
    },
    {
      "inputs": [
        {
          "internalType": "address",
          "name": "from",
          "type": "address"
        },
        {
          "internalType": "address",
          "name": "to",
          "type": "address"
        },
        {
          "internalType": "uint256",
          "name": "tokenId",
          "type": "uint256"
        }
      ],
      "name": "transferFrom",
      "outputs": [],
      "stateMutability": "nonpayable",
      "type": "function"
    },
    {
      "inputs": [
        {
          "internalType": "address",
          "name": "from",
          "type": "address"
        },
        {
          "internalType": "address",
          "name": "to",
          "type": "address"
        },
        {
          "internalType": "uint256",
          "name": "tokenId",
          "type": "uint256"
        }
      ],
      "name": "transferNFT",
      "outputs": [],
      "stateMutability": "nonpayable",
      "type": "function"
    }
  ],
  "bytecode": "0x60806040523480156200001157600080fd5b50604051620032ba380380620032ba8339818101604052810190620000379190620002c7565b6040518060400160405280600781526020017f4d79546f6b656e000000000000000000000000000000000000000000000000008152506040518060400160405280600381526020017f4d544b00000000000000000000000000000000000000000000000000000000008152508160009081620000b4919062000573565b508060019081620000c6919062000573565b505050620000de6000801b82620000e660201b60201c565b50506200065a565b6000620000fa8383620001ea60201b60201c565b620001df5760016007600085815260200190815260200160002060000160008473ffffffffffffffffffffffffffffffffffffffff1673ffffffffffffffffffffffffffffffffffffffff16815260200190815260200160002060006101000a81548160ff0219169083151502179055506200017b6200025560201b60201c565b73ffffffffffffffffffffffffffffffffffffffff168273ffffffffffffffffffffffffffffffffffffffff16847f2f8788117e7eff1d82e926ec794901d17c78024a50270940304540a733656f0d60405160405180910390a460019050620001e4565b600090505b92915050565b60006007600084815260200190815260200160002060000160008373ffffffffffffffffffffffffffffffffffffffff1673ffffffffffffffffffffffffffffffffffffffff16815260200190815260200160002060009054906101000a900460ff16905092915050565b600033905090565b600080fd5b600073ffffffffffffffffffffffffffffffffffffffff82169050919050565b60006200028f8262000262565b9050919050565b620002a18162000282565b8114620002ad57600080fd5b50565b600081519050620002c18162000296565b92915050565b600060208284031215620002e057620002df6200025d565b5b6000620002f084828501620002b0565b91505092915050565b600081519050919050565b7f4e487b7100000000000000000000000000000000000000000000000000000000600052604160045260246000fd5b7f4e487b7100000000000000000000000000000000000000000000000000000000600052602260045260246000fd5b600060028204905060018216806200037b57607f821691505b60208210810362000391576200039062000333565b5b50919050565b60008190508160005260206000209050919050565b60006020601f8301049050919050565b600082821b905092915050565b600060088302620003fb7fffffffffffffffffffffffffffffffffffffffffffffffffffffffffffffffff82620003bc565b620004078683620003bc565b95508019841693508086168417925050509392505050565b6000819050919050565b6000819050919050565b6000620004546200044e62000448846200041f565b62000429565b6200041f565b9050919050565b6000819050919050565b620004708362000433565b620004886200047f826200045b565b848454620003c9565b825550505050565b600090565b6200049f62000490565b620004ac81848462000465565b505050565b5b81811015620004d457620004c860008262000495565b600181019050620004b2565b5050565b601f8211156200052357620004ed8162000397565b620004f884620003ac565b8101602085101562000508578190505b620005206200051785620003ac565b830182620004b1565b50505b505050565b600082821c905092915050565b6000620005486000198460080262000528565b1980831691505092915050565b600062000563838362000535565b9150826002028217905092915050565b6200057e82620002f9565b67ffffffffffffffff8111156200059a576200059962000304565b5b620005a6825462000362565b620005b3828285620004d8565b600060209050601f831160018114620005eb5760008415620005d6578287015190505b620005e2858262000555565b86555062000652565b601f198416620005fb8662000397565b60005b828110156200062557848901518255600182019150602085019450602081019050620005fe565b8683101562000645578489015162000641601f89168262000535565b8355505b6001600288020188555050505b505050505050565b612c50806200066a6000396000f3fe608060405234801561001057600080fd5b50600436106101585760003560e01c806370a08231116100c3578063b88d4fde1161007c578063b88d4fde146103d3578063c87b56dd146103ef578063d204c45e1461041f578063d53913931461043b578063d547741f14610459578063e985e9c51461047557610158565b806370a08231146102ff57806391d148541461032f57806395d89b411461035f578063983b2d561461037d578063a217fddf14610399578063a22cb465146103b757610158565b80632f2ff15d116101155780632f2ff15d1461024357806336568abe1461025f57806342842e0e1461027b57806342966c68146102975780636352211e146102b357806369e9cae1146102e357610158565b806301ffc9a71461015d57806306fdde031461018d578063081812fc146101ab578063095ea7b3146101db57806323b872dd146101f7578063248a9ca314610213575b600080fd5b61017760048036038101906101729190611f46565b6104a5565b6040516101849190611f8e565b60405180910390f35b6101956104b7565b6040516101a29190612039565b60405180910390f35b6101c560048036038101906101c09190612091565b610549565b6040516101d291906120ff565b60405180910390f35b6101f560048036038101906101f09190612146565b610565565b005b610211600480360381019061020c9190612186565b61057b565b005b61022d6004803603810190610228919061220f565b61067d565b60405161023a919061224b565b60405180910390f35b61025d60048036038101906102589190612266565b61069d565b005b61027960048036038101906102749190612266565b6106bf565b005b61029560048036038101906102909190612186565b61073a565b005b6102b160048036038101906102ac9190612091565b61075a565b005b6102cd60048036038101906102c89190612091565b610771565b6040516102da91906120ff565b60405180910390f35b6102fd60048036038101906102f89190612186565b610783565b005b610319600480360381019061031491906122a6565b610809565b60405161032691906122e2565b60405180910390f35b61034960048036038101906103449190612266565b6108c3565b6040516103569190611f8e565b60405180910390f35b61036761092e565b6040516103749190612039565b60405180910390f35b610397600480360381019061039291906122a6565b6109c0565b005b6103a16109fb565b6040516103ae919061224b565b60405180910390f35b6103d160048036038101906103cc9190612329565b610a02565b005b6103ed60048036038101906103e8919061249e565b610a18565b005b61040960048036038101906104049190612091565b610a35565b6040516104169190612039565b60405180910390f35b610439600480360381019061043491906125c2565b610a47565b005b610443610aa6565b604051610450919061224b565b60405180910390f35b610473600480360381019061046e9190612266565b610aca565b005b61048f600480360381019061048a919061261e565b610aec565b60405161049c9190611f8e565b60405180910390f35b60006104b082610b80565b9050919050565b6060600080546104c69061268d565b80601f01602080910402602001604051908101604052809291908181526020018280546104f29061268d565b801561053f5780601f106105145761010080835404028352916020019161053f565b820191906000526020600020905b81548152906001019060200180831161052257829003601f168201915b5050505050905090565b600061055482610bfa565b5061055e82610c82565b9050919050565b6105778282610572610cbf565b610cc7565b5050565b600073ffffffffffffffffffffffffffffffffffffffff168273ffffffffffffffffffffffffffffffffffffffff16036105ed5760006040517f64a0ae920000000000000000000000000000000000000000000000000000000081526004016105e491906120ff565b60405180910390fd5b600061060183836105fc610cbf565b610cd9565b90508373ffffffffffffffffffffffffffffffffffffffff168173ffffffffffffffffffffffffffffffffffffffff1614610677578382826040517f64283d7b00000000000000000000000000000000000000000000000000000000815260040161066e939291906126be565b60405180910390fd5b50505050565b600060076000838152602001908152602001600020600101549050919050565b6106a68261067d565b6106af81610ef3565b6106b98383610f07565b50505050565b6106c7610cbf565b73ffffffffffffffffffffffffffffffffffffffff168173ffffffffffffffffffffffffffffffffffffffff161461072b576040517f6697b23200000000000000000000000000000000000000000000000000000000815260040160405180910390fd5b6107358282610ff9565b505050565b61075583838360405180602001604052806000815250610a18565b505050565b61076d600082610768610cbf565b610cd9565b5050565b600061077c82610bfa565b9050919050565b8273ffffffffffffffffffffffffffffffffffffffff166107a382610771565b73ffffffffffffffffffffffffffffffffffffffff16146107f9576040517f08c379a00000000000000000000000000000000000000000000000000000000081526004016107f090612741565b60405180910390fd5b61080483838361073a565b505050565b60008073ffffffffffffffffffffffffffffffffffffffff168273ffffffffffffffffffffffffffffffffffffffff160361087c5760006040517f89c62b6400000000000000000000000000000000000000000000000000000000815260040161087391906120ff565b60405180910390fd5b600360008373ffffffffffffffffffffffffffffffffffffffff1673ffffffffffffffffffffffffffffffffffffffff168152602001908152602001600020549050919050565b60006007600084815260200190815260200160002060000160008373ffffffffffffffffffffffffffffffffffffffff1673ffffffffffffffffffffffffffffffffffffffff16815260200190815260200160002060009054906101000a900460ff16905092915050565b60606001805461093d9061268d565b80601f01602080910402602001604051908101604052809291908181526020018280546109699061268d565b80156109b65780601f1061098b576101008083540402835291602001916109b6565b820191906000526020600020905b81548152906001019060200180831161099957829003601f168201915b5050505050905090565b6000801b6109cd81610ef3565b6109f77f9f2df0fed2c77648de5860a4cc508cd0818c85b8b8a1ab4ceeef8d981c8956a68361069d565b5050565b6000801b81565b610a14610a0d610cbf565b83836110ec565b5050565b610a2384848461057b565b610a2f8484848461125b565b50505050565b6060610a4082611412565b9050919050565b7f9f2df0fed2c77648de5860a4cc508cd0818c85b8b8a1ab4ceeef8d981c8956a6610a7181610ef3565b600060086000815480929190610a8690612790565b919050559050610a968482611525565b610aa08184611543565b50505050565b7f9f2df0fed2c77648de5860a4cc508cd0818c85b8b8a1ab4ceeef8d981c8956a681565b610ad38261067d565b610adc81610ef3565b610ae68383610ff9565b50505050565b6000600560008473ffffffffffffffffffffffffffffffffffffffff1673ffffffffffffffffffffffffffffffffffffffff16815260200190815260200160002060008373ffffffffffffffffffffffffffffffffffffffff1673ffffffffffffffffffffffffffffffffffffffff16815260200190815260200160002060009054906101000a900460ff16905092915050565b60007f7965db0b000000000000000000000000000000000000000000000000000000007bffffffffffffffffffffffffffffffffffffffffffffffffffffffff1916827bffffffffffffffffffffffffffffffffffffffffffffffffffffffff19161480610bf35750610bf28261159f565b5b9050919050565b600080610c0683611600565b9050600073ffffffffffffffffffffffffffffffffffffffff168173ffffffffffffffffffffffffffffffffffffffff1603610c7957826040517f7e273289000000000000000000000000000000000000000000000000000000008152600401610c7091906122e2565b60405180910390fd5b80915050919050565b60006004600083815260200190815260200160002060009054906101000a900473ffffffffffffffffffffffffffffffffffffffff169050919050565b600033905090565b610cd4838383600161163d565b505050565b600080610ce584611600565b9050600073ffffffffffffffffffffffffffffffffffffffff168373ffffffffffffffffffffffffffffffffffffffff1614610d2757610d26818486611802565b5b600073ffffffffffffffffffffffffffffffffffffffff168173ffffffffffffffffffffffffffffffffffffffff1614610db857610d6960008560008061163d565b6001600360008373ffffffffffffffffffffffffffffffffffffffff1673ffffffffffffffffffffffffffffffffffffffff168152602001908152602001600020600082825403925050819055505b600073ffffffffffffffffffffffffffffffffffffffff168573ffffffffffffffffffffffffffffffffffffffff1614610e3b576001600360008773ffffffffffffffffffffffffffffffffffffffff1673ffffffffffffffffffffffffffffffffffffffff168152602001908152602001600020600082825401925050819055505b846002600086815260200190815260200160002060006101000a81548173ffffffffffffffffffffffffffffffffffffffff021916908373ffffffffffffffffffffffffffffffffffffffff160217905550838573ffffffffffffffffffffffffffffffffffffffff168273ffffffffffffffffffffffffffffffffffffffff167fddf252ad1be2c89b69c2b068fc378daa952ba7f163c4a11628f55a4df523b3ef60405160405180910390a4809150509392505050565b610f0481610eff610cbf565b6118c6565b50565b6000610f1383836108c3565b610fee5760016007600085815260200190815260200160002060000160008473ffffffffffffffffffffffffffffffffffffffff1673ffffffffffffffffffffffffffffffffffffffff16815260200190815260200160002060006101000a81548160ff021916908315150217905550610f8b610cbf565b73ffffffffffffffffffffffffffffffffffffffff168273ffffffffffffffffffffffffffffffffffffffff16847f2f8788117e7eff1d82e926ec794901d17c78024a50270940304540a733656f0d60405160405180910390a460019050610ff3565b600090505b92915050565b600061100583836108c3565b156110e15760006007600085815260200190815260200160002060000160008473ffffffffffffffffffffffffffffffffffffffff1673ffffffffffffffffffffffffffffffffffffffff16815260200190815260200160002060006101000a81548160ff02191690831515021790555061107e610cbf565b73ffffffffffffffffffffffffffffffffffffffff168273ffffffffffffffffffffffffffffffffffffffff16847ff6391f5c32d9c69d2a47ea670b442974b53935d1edc7fd64eb21e047a839171b60405160405180910390a4600190506110e6565b600090505b92915050565b600073ffffffffffffffffffffffffffffffffffffffff168273ffffffffffffffffffffffffffffffffffffffff160361115d57816040517f5b08ba1800000000000000000000000000000000000000000000000000000000815260040161115491906120ff565b60405180910390fd5b80600560008573ffffffffffffffffffffffffffffffffffffffff1673ffffffffffffffffffffffffffffffffffffffff16815260200190815260200160002060008473ffffffffffffffffffffffffffffffffffffffff1673ffffffffffffffffffffffffffffffffffffffff16815260200190815260200160002060006101000a81548160ff0219169083151502179055508173ffffffffffffffffffffffffffffffffffffffff168373ffffffffffffffffffffffffffffffffffffffff167f17307eab39ab6107e8899845ad3d59bd9653f200f220920489ca2b5937696c318360405161124e9190611f8e565b60405180910390a3505050565b60008373ffffffffffffffffffffffffffffffffffffffff163b111561140c578273ffffffffffffffffffffffffffffffffffffffff1663150b7a0261129f610cbf565b8685856040518563ffffffff1660e01b81526004016112c1949392919061282d565b6020604051808303816000875af19250505080156112fd57506040513d601f19601f820116820180604052508101906112fa919061288e565b60015b611381573d806000811461132d576040519150601f19603f3d011682016040523d82523d6000602084013e611332565b606091505b50600081510361137957836040517f64a0ae9200000000000000000000000000000000000000000000000000000000815260040161137091906120ff565b60405180910390fd5b805181602001fd5b63150b7a0260e01b7bffffffffffffffffffffffffffffffffffffffffffffffffffffffff1916817bffffffffffffffffffffffffffffffffffffffffffffffffffffffff19161461140a57836040517f64a0ae9200000000000000000000000000000000000000000000000000000000815260040161140191906120ff565b60405180910390fd5b505b50505050565b606061141d82610bfa565b50600060066000848152602001908152602001600020805461143e9061268d565b80601f016020809104026020016040519081016040528092919081815260200182805461146a9061268d565b80156114b75780601f1061148c576101008083540402835291602001916114b7565b820191906000526020600020905b81548152906001019060200180831161149a57829003601f168201915b5050505050905060006114c8611917565b905060008151036114dd578192505050611520565b6000825111156115125780826040516020016114fa9291906128f7565b60405160208183030381529060405292505050611520565b61151b8461192e565b925050505b919050565b61153f828260405180602001604052806000815250611997565b5050565b806006600084815260200190815260200160002090816115639190612ac7565b507ff8e1a15aba9398e019f0b49df1a4fde98ee17ae345cb5f6b5e2c27f5033e8ce78260405161159391906122e2565b60405180910390a15050565b6000634906490660e01b7bffffffffffffffffffffffffffffffffffffffffffffffffffffffff1916827bffffffffffffffffffffffffffffffffffffffffffffffffffffffff191614806115f957506115f8826119b3565b5b9050919050565b60006002600083815260200190815260200160002060009054906101000a900473ffffffffffffffffffffffffffffffffffffffff169050919050565b80806116765750600073ffffffffffffffffffffffffffffffffffffffff168273ffffffffffffffffffffffffffffffffffffffff1614155b156117aa57600061168684610bfa565b9050600073ffffffffffffffffffffffffffffffffffffffff168373ffffffffffffffffffffffffffffffffffffffff16141580156116f157508273ffffffffffffffffffffffffffffffffffffffff168173ffffffffffffffffffffffffffffffffffffffff1614155b801561170457506117028184610aec565b155b1561174657826040517fa9fbf51f00000000000000000000000000000000000000000000000000000000815260040161173d91906120ff565b60405180910390fd5b81156117a857838573ffffffffffffffffffffffffffffffffffffffff168273ffffffffffffffffffffffffffffffffffffffff167f8c5be1e5ebec7d5bd14f71427d1e84f3dd0314c0f7b2291e5b200ac8c7c3b92560405160405180910390a45b505b836004600085815260200190815260200160002060006101000a81548173ffffffffffffffffffffffffffffffffffffffff021916908373ffffffffffffffffffffffffffffffffffffffff16021790555050505050565b61180d838383611a95565b6118c157600073ffffffffffffffffffffffffffffffffffffffff168373ffffffffffffffffffffffffffffffffffffffff160361188257806040517f7e27328900000000000000000000000000000000000000000000000000000000815260040161187991906122e2565b60405180910390fd5b81816040517f177e802f0000000000000000000000000000000000000000000000000000000081526004016118b8929190612b99565b60405180910390fd5b505050565b6118d082826108c3565b6119135780826040517fe2517d3f00000000000000000000000000000000000000000000000000000000815260040161190a929190612bc2565b60405180910390fd5b5050565b606060405180602001604052806000815250905090565b606061193982610bfa565b506000611944611917565b90506000815111611964576040518060200160405280600081525061198f565b8061196e84611b56565b60405160200161197f9291906128f7565b6040516020818303038152906040525b915050919050565b6119a18383611c24565b6119ae600084848461125b565b505050565b60007f80ac58cd000000000000000000000000000000000000000000000000000000007bffffffffffffffffffffffffffffffffffffffffffffffffffffffff1916827bffffffffffffffffffffffffffffffffffffffffffffffffffffffff19161480611a7e57507f5b5e139f000000000000000000000000000000000000000000000000000000007bffffffffffffffffffffffffffffffffffffffffffffffffffffffff1916827bffffffffffffffffffffffffffffffffffffffffffffffffffffffff1916145b80611a8e5750611a8d82611d1d565b5b9050919050565b60008073ffffffffffffffffffffffffffffffffffffffff168373ffffffffffffffffffffffffffffffffffffffff1614158015611b4d57508273ffffffffffffffffffffffffffffffffffffffff168473ffffffffffffffffffffffffffffffffffffffff161480611b0e5750611b0d8484610aec565b5b80611b4c57508273ffffffffffffffffffffffffffffffffffffffff16611b3483610c82565b73ffffffffffffffffffffffffffffffffffffffff16145b5b90509392505050565b606060006001611b6584611d87565b01905060008167ffffffffffffffff811115611b8457611b83612373565b5b6040519080825280601f01601f191660200182016040528015611bb65781602001600182028036833780820191505090505b509050600082602001820190505b600115611c19578080600190039150507f3031323334353637383961626364656600000000000000000000000000000000600a86061a8153600a8581611c0d57611c0c612beb565b5b04945060008503611bc4575b819350505050919050565b600073ffffffffffffffffffffffffffffffffffffffff168273ffffffffffffffffffffffffffffffffffffffff1603611c965760006040517f64a0ae92000000000000000000000000000000000000000000000000000000008152600401611c8d91906120ff565b60405180910390fd5b6000611ca483836000610cd9565b9050600073ffffffffffffffffffffffffffffffffffffffff168173ffffffffffffffffffffffffffffffffffffffff1614611d185760006040517f73c6ac6e000000000000000000000000000000000000000000000000000000008152600401611d0f91906120ff565b60405180910390fd5b505050565b60007f01ffc9a7000000000000000000000000000000000000000000000000000000007bffffffffffffffffffffffffffffffffffffffffffffffffffffffff1916827bffffffffffffffffffffffffffffffffffffffffffffffffffffffff1916149050919050565b600080600090507a184f03e93ff9f4daa797ed6e38ed64bf6a1f0100000000000000008310611de5577a184f03e93ff9f4daa797ed6e38ed64bf6a1f0100000000000000008381611ddb57611dda612beb565b5b0492506040810190505b6d04ee2d6d415b85acef81000000008310611e22576d04ee2d6d415b85acef81000000008381611e1857611e17612beb565b5b0492506020810190505b662386f26fc100008310611e5157662386f26fc100008381611e4757611e46612beb565b5b0492506010810190505b6305f5e1008310611e7a576305f5e1008381611e7057611e6f612beb565b5b0492506008810190505b6127108310611e9f576127108381611e9557611e94612beb565b5b0492506004810190505b60648310611ec25760648381611eb857611eb7612beb565b5b0492506002810190505b600a8310611ed1576001810190505b80915050919050565b6000604051905090565b600080fd5b600080fd5b60007fffffffff0000000000000000000000000000000000000000000000000000000082169050919050565b611f2381611eee565b8114611f2e57600080fd5b50565b600081359050611f4081611f1a565b92915050565b600060208284031215611f5c57611f5b611ee4565b5b6000611f6a84828501611f31565b91505092915050565b60008115159050919050565b611f8881611f73565b82525050565b6000602082019050611fa36000830184611f7f565b92915050565b600081519050919050565b600082825260208201905092915050565b60005b83811015611fe3578082015181840152602081019050611fc8565b60008484015250505050565b6000601f19601f8301169050919050565b600061200b82611fa9565b6120158185611fb4565b9350612025818560208601611fc5565b61202e81611fef565b840191505092915050565b600060208201905081810360008301526120538184612000565b905092915050565b6000819050919050565b61206e8161205b565b811461207957600080fd5b50565b60008135905061208b81612065565b92915050565b6000602082840312156120a7576120a6611ee4565b5b60006120b58482850161207c565b91505092915050565b600073ffffffffffffffffffffffffffffffffffffffff82169050919050565b60006120e9826120be565b9050919050565b6120f9816120de565b82525050565b600060208201905061211460008301846120f0565b92915050565b612123816120de565b811461212e57600080fd5b50565b6000813590506121408161211a565b92915050565b6000806040838503121561215d5761215c611ee4565b5b600061216b85828601612131565b925050602061217c8582860161207c565b9150509250929050565b60008060006060848603121561219f5761219e611ee4565b5b60006121ad86828701612131565b93505060206121be86828701612131565b92505060406121cf8682870161207c565b9150509250925092565b6000819050919050565b6121ec816121d9565b81146121f757600080fd5b50565b600081359050612209816121e3565b92915050565b60006020828403121561222557612224611ee4565b5b6000612233848285016121fa565b91505092915050565b612245816121d9565b82525050565b6000602082019050612260600083018461223c565b92915050565b6000806040838503121561227d5761227c611ee4565b5b600061228b858286016121fa565b925050602061229c85828601612131565b9150509250929050565b6000602082840312156122bc576122bb611ee4565b5b60006122ca84828501612131565b91505092915050565b6122dc8161205b565b82525050565b60006020820190506122f760008301846122d3565b92915050565b61230681611f73565b811461231157600080fd5b50565b600081359050612323816122fd565b92915050565b600080604083850312156123405761233f611ee4565b5b600061234e85828601612131565b925050602061235f85828601612314565b9150509250929050565b600080fd5b600080fd5b7f4e487b7100000000000000000000000000000000000000000000000000000000600052604160045260246000fd5b6123ab82611fef565b810181811067ffffffffffffffff821117156123ca576123c9612373565b5b80604052505050565b60006123dd611eda565b90506123e982826123a2565b919050565b600067ffffffffffffffff82111561240957612408612373565b5b61241282611fef565b9050602081019050919050565b82818337600083830152505050565b600061244161243c846123ee565b6123d3565b90508281526020810184848401111561245d5761245c61236e565b5b61246884828561241f565b509392505050565b600082601f83011261248557612484612369565b5b813561249584826020860161242e565b91505092915050565b600080600080608085870312156124b8576124b7611ee4565b5b60006124c687828801612131565b94505060206124d787828801612131565b93505060406124e88782880161207c565b925050606085013567ffffffffffffffff81111561250957612508611ee9565b5b61251587828801612470565b91505092959194509250565b600067ffffffffffffffff82111561253c5761253b612373565b5b61254582611fef565b9050602081019050919050565b600061256561256084612521565b6123d3565b9050828152602081018484840111156125815761258061236e565b5b61258c84828561241f565b509392505050565b600082601f8301126125a9576125a8612369565b5b81356125b9848260208601612552565b91505092915050565b600080604083850312156125d9576125d8611ee4565b5b60006125e785828601612131565b925050602083013567ffffffffffffffff81111561260857612607611ee9565b5b61261485828601612594565b9150509250929050565b6000806040838503121561263557612634611ee4565b5b600061264385828601612131565b925050602061265485828601612131565b9150509250929050565b7f4e487b7100000000000000000000000000000000000000000000000000000000600052602260045260246000fd5b600060028204905060018216806126a557607f821691505b6020821081036126b8576126b761265e565b5b50919050565b60006060820190506126d360008301866120f0565b6126e060208301856122d3565b6126ed60408301846120f0565b949350505050565b7f546f6b656e206e6f74206f776e65642062792074686520616464726573730000600082015250565b600061272b601e83611fb4565b9150612736826126f5565b602082019050919050565b6000602082019050818103600083015261275a8161271e565b9050919050565b7f4e487b7100000000000000000000000000000000000000000000000000000000600052601160045260246000fd5b600061279b8261205b565b91507fffffffffffffffffffffffffffffffffffffffffffffffffffffffffffffffff82036127cd576127cc612761565b5b600182019050919050565b600081519050919050565b600082825260208201905092915050565b60006127ff826127d8565b61280981856127e3565b9350612819818560208601611fc5565b61282281611fef565b840191505092915050565b600060808201905061284260008301876120f0565b61284f60208301866120f0565b61285c60408301856122d3565b818103606083015261286e81846127f4565b905095945050505050565b60008151905061288881611f1a565b92915050565b6000602082840312156128a4576128a3611ee4565b5b60006128b284828501612879565b91505092915050565b600081905092915050565b60006128d182611fa9565b6128db81856128bb565b93506128eb818560208601611fc5565b80840191505092915050565b600061290382856128c6565b915061290f82846128c6565b91508190509392505050565b60008190508160005260206000209050919050565b60006020601f8301049050919050565b600082821b905092915050565b60006008830261297d7fffffffffffffffffffffffffffffffffffffffffffffffffffffffffffffffff82612940565b6129878683612940565b95508019841693508086168417925050509392505050565b6000819050919050565b60006129c46129bf6129ba8461205b565b61299f565b61205b565b9050919050565b6000819050919050565b6129de836129a9565b6129f26129ea826129cb565b84845461294d565b825550505050565b600090565b612a076129fa565b612a128184846129d5565b505050565b5b81811015612a3657612a2b6000826129ff565b600181019050612a18565b5050565b601f821115612a7b57612a4c8161291b565b612a5584612930565b81016020851015612a64578190505b612a78612a7085612930565b830182612a17565b50505b505050565b600082821c905092915050565b6000612a9e60001984600802612a80565b1980831691505092915050565b6000612ab78383612a8d565b9150826002028217905092915050565b612ad082611fa9565b67ffffffffffffffff811115612ae957612ae8612373565b5b612af3825461268d565b612afe828285612a3a565b600060209050601f831160018114612b315760008415612b1f578287015190505b612b298582612aab565b865550612b91565b601f198416612b3f8661291b565b60005b82811015612b6757848901518255600182019150602085019450602081019050612b42565b86831015612b845784890151612b80601f891682612a8d565b8355505b6001600288020188555050505b505050505050565b6000604082019050612bae60008301856120f0565b612bbb60208301846122d3565b9392505050565b6000604082019050612bd760008301856120f0565b612be4602083018461223c565b9392505050565b7f4e487b7100000000000000000000000000000000000000000000000000000000600052601260045260246000fdfea2646970667358221220e3cd9e0450b9a4cb7449e8d2c1b46f6447d3e32fdfddd9a15fed27ca482457da64736f6c63430008140033",
  "linkReferences": {},
  "deployedLinkReferences": {}
}