{
  "_format": "hh-sol-artifact-1",
  "contractName": "ClearOriginNetwork",
  "sourceName": "contracts/ClearOriginNetwork.sol",
  "abi": [
    {
      "inputs": [
        {
          "internalType": "address",
          "name": "defaultAdmin",
          "type": "address"
        }
      ],
      "stateMutability": "nonpayable",
      "type": "constructor"
    },
    {
      "inputs": [],
      "name": "AccessControlBadConfirmation",
      "type": "error"
    },
    {
      "inputs": [
        {
          "internalType": "address",
          "name": "account",
          "type": "address"
        },
        {
          "internalType": "bytes32",
          "name": "neededRole",
          "type": "bytes32"
        }
      ],
      "name": "AccessControlUnauthorizedAccount",
      "type": "error"
    },
    {
      "inputs": [
        {
          "internalType": "address",
          "name": "sender",
          "type": "address"
        },
        {
          "internalType": "uint256",
          "name": "tokenId",
          "type": "uint256"
        },
        {
          "internalType": "address",
          "name": "owner",
          "type": "address"
        }
      ],
      "name": "ERC721IncorrectOwner",
      "type": "error"
    },
    {
      "inputs": [
        {
          "internalType": "address",
          "name": "operator",
          "type": "address"
        },
        {
          "internalType": "uint256",
          "name": "tokenId",
          "type": "uint256"
        }
      ],
      "name": "ERC721InsufficientApproval",
      "type": "error"
    },
    {
      "inputs": [
        {
          "internalType": "address",
          "name": "approver",
          "type": "address"
        }
      ],
      "name": "ERC721InvalidApprover",
      "type": "error"
    },
    {
      "inputs": [
        {
          "internalType": "address",
          "name": "operator",
          "type": "address"
        }
      ],
      "name": "ERC721InvalidOperator",
      "type": "error"
    },
    {
      "inputs": [
        {
          "internalType": "address",
          "name": "owner",
          "type": "address"
        }
      ],
      "name": "ERC721InvalidOwner",
      "type": "error"
    },
    {
      "inputs": [
        {
          "internalType": "address",
          "name": "receiver",
          "type": "address"
        }
      ],
      "name": "ERC721InvalidReceiver",
      "type": "error"
    },
    {
      "inputs": [
        {
          "internalType": "address",
          "name": "sender",
          "type": "address"
        }
      ],
      "name": "ERC721InvalidSender",
      "type": "error"
    },
    {
      "inputs": [
        {
          "internalType": "uint256",
          "name": "tokenId",
          "type": "uint256"
        }
      ],
      "name": "ERC721NonexistentToken",
      "type": "error"
    },
    {
      "anonymous": false,
      "inputs": [
        {
          "indexed": true,
          "internalType": "address",
          "name": "owner",
          "type": "address"
        },
        {
          "indexed": true,
          "internalType": "address",
          "name": "approved",
          "type": "address"
        },
        {
          "indexed": true,
          "internalType": "uint256",
          "name": "tokenId",
          "type": "uint256"
        }
      ],
      "name": "Approval",
      "type": "event"
    },
    {
      "anonymous": false,
      "inputs": [
        {
          "indexed": true,
          "internalType": "address",
          "name": "owner",
          "type": "address"
        },
        {
          "indexed": true,
          "internalType": "address",
          "name": "operator",
          "type": "address"
        },
        {
          "indexed": false,
          "internalType": "bool",
          "name": "approved",
          "type": "bool"
        }
      ],
      "name": "ApprovalForAll",
      "type": "event"
    },
    {
      "anonymous": false,
      "inputs": [
        {
          "indexed": false,
          "internalType": "uint256",
          "name": "_fromTokenId",
          "type": "uint256"
        },
        {
          "indexed": false,
          "internalType": "uint256",
          "name": "_toTokenId",
          "type": "uint256"
        }
      ],
      "name": "BatchMetadataUpdate",
      "type": "event"
    },
    {
      "anonymous": false,
      "inputs": [
        {
          "indexed": false,
          "internalType": "uint256",
          "name": "_tokenId",
          "type": "uint256"
        }
      ],
      "name": "MetadataUpdate",
      "type": "event"
    },
    {
      "anonymous": false,
      "inputs": [
        {
          "indexed": true,
          "internalType": "bytes32",
          "name": "role",
          "type": "bytes32"
        },
        {
          "indexed": true,
          "internalType": "bytes32",
          "name": "previousAdminRole",
          "type": "bytes32"
        },
        {
          "indexed": true,
          "internalType": "bytes32",
          "name": "newAdminRole",
          "type": "bytes32"
        }
      ],
      "name": "RoleAdminChanged",
      "type": "event"
    },
    {
      "anonymous": false,
      "inputs": [
        {
          "indexed": true,
          "internalType": "bytes32",
          "name": "role",
          "type": "bytes32"
        },
        {
          "indexed": true,
          "internalType": "address",
          "name": "account",
          "type": "address"
        },
        {
          "indexed": true,
          "internalType": "address",
          "name": "sender",
          "type": "address"
        }
      ],
      "name": "RoleGranted",
      "type": "event"
    },
    {
      "anonymous": false,
      "inputs": [
        {
          "indexed": true,
          "internalType": "bytes32",
          "name": "role",
          "type": "bytes32"
        },
        {
          "indexed": true,
          "internalType": "address",
          "name": "account",
          "type": "address"
        },
        {
          "indexed": true,
          "internalType": "address",
          "name": "sender",
          "type": "address"
        }
      ],
      "name": "RoleRevoked",
      "type": "event"
    },
    {
      "anonymous": false,
      "inputs": [
        {
          "indexed": true,
          "internalType": "address",
          "name": "from",
          "type": "address"
        },
        {
          "indexed": true,
          "internalType": "address",
          "name": "to",
          "type": "address"
        },
        {
          "indexed": true,
          "internalType": "uint256",
          "name": "tokenId",
          "type": "uint256"
        }
      ],
      "name": "Transfer",
      "type": "event"
    },
    {
      "inputs": [],
      "name": "COMPANY_ROLE",
      "outputs": [
        {
          "internalType": "bytes32",
          "name": "",
          "type": "bytes32"
        }
      ],
      "stateMutability": "view",
      "type": "function"
    },
    {
      "inputs": [],
      "name": "DEFAULT_ADMIN_ROLE",
      "outputs": [
        {
          "internalType": "bytes32",
          "name": "",
          "type": "bytes32"
        }
      ],
      "stateMutability": "view",
      "type": "function"
    },
    {
      "inputs": [
        {
          "internalType": "bytes32",
          "name": "_companyName",
          "type": "bytes32"
        },
        {
          "internalType": "address",
          "name": "_companyAddress",
          "type": "address"
        },
        {
          "internalType": "bytes32[]",
          "name": "_companyProducts",
          "type": "bytes32[]"
        }
      ],
      "name": "addCompany",
      "outputs": [],
      "stateMutability": "nonpayable",
      "type": "function"
    },
    {
      "inputs": [
        {
          "internalType": "address",
          "name": "_companyAddress",
          "type": "address"
        },
        {
          "internalType": "bytes32",
          "name": "_product",
          "type": "bytes32"
        }
      ],
      "name": "addProduct",
      "outputs": [],
      "stateMutability": "nonpayable",
      "type": "function"
    },
    {
      "inputs": [
        {
          "internalType": "address",
          "name": "_companyAddress",
          "type": "address"
        },
        {
          "internalType": "bytes32[]",
          "name": "_products",
          "type": "bytes32[]"
        }
      ],
      "name": "addProducts",
      "outputs": [],
      "stateMutability": "nonpayable",
      "type": "function"
    },
    {
      "inputs": [
        {
          "internalType": "address",
          "name": "to",
          "type": "address"
        },
        {
          "internalType": "uint256",
          "name": "tokenId",
          "type": "uint256"
        }
      ],
      "name": "approve",
      "outputs": [],
      "stateMutability": "nonpayable",
      "type": "function"
    },
    {
      "inputs": [
        {
          "internalType": "address",
          "name": "owner",
          "type": "address"
        }
      ],
      "name": "balanceOf",
      "outputs": [
        {
          "internalType": "uint256",
          "name": "",
          "type": "uint256"
        }
      ],
      "stateMutability": "view",
      "type": "function"
    },
    {
      "inputs": [
        {
          "internalType": "uint256",
          "name": "tokenId",
          "type": "uint256"
        }
      ],
      "name": "burn",
      "outputs": [],
      "stateMutability": "nonpayable",
      "type": "function"
    },
    {
      "inputs": [
        {
          "internalType": "uint256",
          "name": "tokenId",
          "type": "uint256"
        }
      ],
      "name": "getApproved",
      "outputs": [
        {
          "internalType": "address",
          "name": "",
          "type": "address"
        }
      ],
      "stateMutability": "view",
      "type": "function"
    },
    {
      "inputs": [],
      "name": "getCompanies",
      "outputs": [
        {
          "components": [
            {
              "internalType": "bytes32",
              "name": "companyName",
              "type": "bytes32"
            },
            {
              "internalType": "address",
              "name": "companyAddress",
              "type": "address"
            },
            {
              "internalType": "bytes32[]",
              "name": "products",
              "type": "bytes32[]"
            }
          ],
          "internalType": "struct ClearOriginNetwork.Company[]",
          "name": "",
          "type": "tuple[]"
        }
      ],
      "stateMutability": "view",
      "type": "function"
    },
    {
      "inputs": [
        {
          "internalType": "string",
          "name": "_product",
          "type": "string"
        }
      ],
      "name": "getCompaniesWithProduct",
      "outputs": [
        {
          "internalType": "address[]",
          "name": "",
          "type": "address[]"
        }
      ],
      "stateMutability": "view",
      "type": "function"
    },
    {
      "inputs": [
        {
          "internalType": "address",
          "name": "_companyAddress",
          "type": "address"
        }
      ],
      "name": "getCompanyProducts",
      "outputs": [
        {
          "internalType": "bytes32[]",
          "name": "",
          "type": "bytes32[]"
        }
      ],
      "stateMutability": "view",
      "type": "function"
    },
    {
      "inputs": [
        {
          "internalType": "bytes32",
          "name": "role",
          "type": "bytes32"
        }
      ],
      "name": "getRoleAdmin",
      "outputs": [
        {
          "internalType": "bytes32",
          "name": "",
          "type": "bytes32"
        }
      ],
      "stateMutability": "view",
      "type": "function"
    },
    {
      "inputs": [
        {
          "internalType": "bytes32",
          "name": "role",
          "type": "bytes32"
        },
        {
          "internalType": "address",
          "name": "account",
          "type": "address"
        }
      ],
      "name": "grantRole",
      "outputs": [],
      "stateMutability": "nonpayable",
      "type": "function"
    },
    {
      "inputs": [
        {
          "internalType": "address",
          "name": "_companyAddress",
          "type": "address"
        },
        {
          "internalType": "string",
          "name": "_product",
          "type": "string"
        }
      ],
      "name": "hasProduct",
      "outputs": [
        {
          "internalType": "bool",
          "name": "",
          "type": "bool"
        }
      ],
      "stateMutability": "view",
      "type": "function"
    },
    {
      "inputs": [
        {
          "internalType": "bytes32",
          "name": "role",
          "type": "bytes32"
        },
        {
          "internalType": "address",
          "name": "account",
          "type": "address"
        }
      ],
      "name": "hasRole",
      "outputs": [
        {
          "internalType": "bool",
          "name": "",
          "type": "bool"
        }
      ],
      "stateMutability": "view",
      "type": "function"
    },
    {
      "inputs": [
        {
          "internalType": "address",
          "name": "owner",
          "type": "address"
        },
        {
          "internalType": "address",
          "name": "operator",
          "type": "address"
        }
      ],
      "name": "isApprovedForAll",
      "outputs": [
        {
          "internalType": "bool",
          "name": "",
          "type": "bool"
        }
      ],
      "stateMutability": "view",
      "type": "function"
    },
    {
      "inputs": [],
      "name": "name",
      "outputs": [
        {
          "internalType": "string",
          "name": "",
          "type": "string"
        }
      ],
      "stateMutability": "view",
      "type": "function"
    },
    {
      "inputs": [
        {
          "internalType": "uint256",
          "name": "tokenId",
          "type": "uint256"
        }
      ],
      "name": "ownerOf",
      "outputs": [
        {
          "internalType": "address",
          "name": "",
          "type": "address"
        }
      ],
      "stateMutability": "view",
      "type": "function"
    },
    {
      "inputs": [
        {
          "internalType": "bytes32",
          "name": "role",
          "type": "bytes32"
        },
        {
          "internalType": "address",
          "name": "callerConfirmation",
          "type": "address"
        }
      ],
      "name": "renounceRole",
      "outputs": [],
      "stateMutability": "nonpayable",
      "type": "function"
    },
    {
      "inputs": [
        {
          "internalType": "bytes32",
          "name": "role",
          "type": "bytes32"
        },
        {
          "internalType": "address",
          "name": "account",
          "type": "address"
        }
      ],
      "name": "revokeRole",
      "outputs": [],
      "stateMutability": "nonpayable",
      "type": "function"
    },
    {
      "inputs": [
        {
          "internalType": "address",
          "name": "to",
          "type": "address"
        },
        {
          "internalType": "string",
          "name": "uri",
          "type": "string"
        }
      ],
      "name": "safeMint",
      "outputs": [],
      "stateMutability": "nonpayable",
      "type": "function"
    },
    {
      "inputs": [
        {
          "internalType": "address",
          "name": "from",
          "type": "address"
        },
        {
          "internalType": "address",
          "name": "to",
          "type": "address"
        },
        {
          "internalType": "uint256",
          "name": "tokenId",
          "type": "uint256"
        }
      ],
      "name": "safeTransferFrom",
      "outputs": [],
      "stateMutability": "nonpayable",
      "type": "function"
    },
    {
      "inputs": [
        {
          "internalType": "address",
          "name": "from",
          "type": "address"
        },
        {
          "internalType": "address",
          "name": "to",
          "type": "address"
        },
        {
          "internalType": "uint256",
          "name": "tokenId",
          "type": "uint256"
        },
        {
          "internalType": "bytes",
          "name": "data",
          "type": "bytes"
        }
      ],
      "name": "safeTransferFrom",
      "outputs": [],
      "stateMutability": "nonpayable",
      "type": "function"
    },
    {
      "inputs": [
        {
          "internalType": "address",
          "name": "operator",
          "type": "address"
        },
        {
          "internalType": "bool",
          "name": "approved",
          "type": "bool"
        }
      ],
      "name": "setApprovalForAll",
      "outputs": [],
      "stateMutability": "nonpayable",
      "type": "function"
    },
    {
      "inputs": [
        {
          "internalType": "bytes4",
          "name": "interfaceId",
          "type": "bytes4"
        }
      ],
      "name": "supportsInterface",
      "outputs": [
        {
          "internalType": "bool",
          "name": "",
          "type": "bool"
        }
      ],
      "stateMutability": "view",
      "type": "function"
    },
    {
      "inputs": [],
      "name": "symbol",
      "outputs": [
        {
          "internalType": "string",
          "name": "",
          "type": "string"
        }
      ],
      "stateMutability": "view",
      "type": "function"
    },
    {
      "inputs": [
        {
          "internalType": "uint256",
          "name": "tokenId",
          "type": "uint256"
        }
      ],
      "name": "tokenURI",
      "outputs": [
        {
          "internalType": "string",
          "name": "",
          "type": "string"
        }
      ],
      "stateMutability": "view",
      "type": "function"
    },
    {
      "inputs": [
        {
          "internalType": "address",
          "name": "from",
          "type": "address"
        },
        {
          "internalType": "address",
          "name": "to",
          "type": "address"
        },
        {
          "internalType": "uint256",
          "name": "tokenId",
          "type": "uint256"
        }
      ],
      "name": "transferFrom",
      "outputs": [],
      "stateMutability": "nonpayable",
      "type": "function"
    },
    {
      "inputs": [
        {
          "internalType": "address",
          "name": "from",
          "type": "address"
        },
        {
          "internalType": "address",
          "name": "to",
          "type": "address"
        },
        {
          "internalType": "uint256",
          "name": "tokenId",
          "type": "uint256"
        }
      ],
      "name": "transferNFT",
      "outputs": [],
      "stateMutability": "nonpayable",
      "type": "function"
    }
  ],
  "bytecode": "0x60806040523480156200001157600080fd5b50604051620041bd380380620041bd8339818101604052810190620000379190620002c7565b6040518060400160405280601281526020017f436c6561724f726967696e4e6574776f726b00000000000000000000000000008152506040518060400160405280600381526020017f434f4e00000000000000000000000000000000000000000000000000000000008152508160009081620000b4919062000573565b508060019081620000c6919062000573565b505050620000de6000801b82620000e660201b60201c565b50506200065a565b6000620000fa8383620001ea60201b60201c565b620001df5760016007600085815260200190815260200160002060000160008473ffffffffffffffffffffffffffffffffffffffff1673ffffffffffffffffffffffffffffffffffffffff16815260200190815260200160002060006101000a81548160ff0219169083151502179055506200017b6200025560201b60201c565b73ffffffffffffffffffffffffffffffffffffffff168273ffffffffffffffffffffffffffffffffffffffff16847f2f8788117e7eff1d82e926ec794901d17c78024a50270940304540a733656f0d60405160405180910390a460019050620001e4565b600090505b92915050565b60006007600084815260200190815260200160002060000160008373ffffffffffffffffffffffffffffffffffffffff1673ffffffffffffffffffffffffffffffffffffffff16815260200190815260200160002060009054906101000a900460ff16905092915050565b600033905090565b600080fd5b600073ffffffffffffffffffffffffffffffffffffffff82169050919050565b60006200028f8262000262565b9050919050565b620002a18162000282565b8114620002ad57600080fd5b50565b600081519050620002c18162000296565b92915050565b600060208284031215620002e057620002df6200025d565b5b6000620002f084828501620002b0565b91505092915050565b600081519050919050565b7f4e487b7100000000000000000000000000000000000000000000000000000000600052604160045260246000fd5b7f4e487b7100000000000000000000000000000000000000000000000000000000600052602260045260246000fd5b600060028204905060018216806200037b57607f821691505b60208210810362000391576200039062000333565b5b50919050565b60008190508160005260206000209050919050565b60006020601f8301049050919050565b600082821b905092915050565b600060088302620003fb7fffffffffffffffffffffffffffffffffffffffffffffffffffffffffffffffff82620003bc565b620004078683620003bc565b95508019841693508086168417925050509392505050565b6000819050919050565b6000819050919050565b6000620004546200044e62000448846200041f565b62000429565b6200041f565b9050919050565b6000819050919050565b620004708362000433565b620004886200047f826200045b565b848454620003c9565b825550505050565b600090565b6200049f62000490565b620004ac81848462000465565b505050565b5b81811015620004d457620004c860008262000495565b600181019050620004b2565b5050565b601f8211156200052357620004ed8162000397565b620004f884620003ac565b8101602085101562000508578190505b620005206200051785620003ac565b830182620004b1565b50505b505050565b600082821c905092915050565b6000620005486000198460080262000528565b1980831691505092915050565b600062000563838362000535565b9150826002028217905092915050565b6200057e82620002f9565b67ffffffffffffffff8111156200059a576200059962000304565b5b620005a6825462000362565b620005b3828285620004d8565b600060209050601f831160018114620005eb5760008415620005d6578287015190505b620005e2858262000555565b86555062000652565b601f198416620005fb8662000397565b60005b828110156200062557848901518255600182019150602085019450602081019050620005fe565b8683101562000645578489015162000641601f89168262000535565b8355505b6001600288020188555050505b505050505050565b613b53806200066a6000396000f3fe608060405234801561001057600080fd5b50600436106101da5760003560e01c80636352211e11610104578063a22cb465116100a2578063d547741f11610071578063d547741f14610575578063d58e7e7214610591578063e845e5d8146105ad578063e985e9c5146105dd576101da565b8063a22cb465146104f1578063b88d4fde1461050d578063c87b56dd14610529578063d204c45e14610559576101da565b80637955aab9116100de5780637955aab91461045557806391d148541461048557806395d89b41146104b5578063a217fddf146104d3576101da565b80636352211e146103d957806369e9cae11461040957806370a0823114610425576101da565b806323b872dd1161017c578063316fd1b11161014b578063316fd1b11461036957806336568abe1461038557806342842e0e146103a157806342966c68146103bd576101da565b806323b872dd146102d1578063248a9ca3146102ed5780632eb6908d1461031d5780632f2ff15d1461034d576101da565b8063095ea7b3116101b8578063095ea7b31461025d5780630c0b6691146102795780631435c3dc146102975780631c9ee11a146102b3576101da565b806301ffc9a7146101df57806306fdde031461020f578063081812fc1461022d575b600080fd5b6101f960048036038101906101f49190612848565b61060d565b6040516102069190612890565b60405180910390f35b61021761061f565b604051610224919061293b565b60405180910390f35b61024760048036038101906102429190612993565b6106b1565b6040516102549190612a01565b60405180910390f35b61027760048036038101906102729190612a48565b6106cd565b005b6102816106e3565b60405161028e9190612c71565b60405180910390f35b6102b160048036038101906102ac9190612e07565b61086f565b005b6102bb6109b8565b6040516102c89190612e85565b60405180910390f35b6102eb60048036038101906102e69190612ea0565b6109dc565b005b61030760048036038101906103029190612ef3565b610ade565b6040516103149190612e85565b60405180910390f35b61033760048036038101906103329190612f20565b610afe565b6040516103449190612fbc565b60405180910390f35b61036760048036038101906103629190612fde565b610b98565b005b610383600480360381019061037e919061301e565b610bba565b005b61039f600480360381019061039a9190612fde565b610c67565b005b6103bb60048036038101906103b69190612ea0565b610ce2565b005b6103d760048036038101906103d29190612993565b610d02565b005b6103f360048036038101906103ee9190612993565b610d19565b6040516104009190612a01565b60405180910390f35b610423600480360381019061041e9190612ea0565b610d2b565b005b61043f600480360381019061043a9190612f20565b610db1565b60405161044c9190613089565b60405180910390f35b61046f600480360381019061046a9190613159565b610e6b565b60405161047c9190613251565b60405180910390f35b61049f600480360381019061049a9190612fde565b611053565b6040516104ac9190612890565b60405180910390f35b6104bd6110be565b6040516104ca919061293b565b60405180910390f35b6104db611150565b6040516104e89190612e85565b60405180910390f35b61050b6004803603810190610506919061329f565b611157565b005b61052760048036038101906105229190613380565b61116d565b005b610543600480360381019061053e9190612993565b61118a565b604051610550919061293b565b60405180910390f35b610573600480360381019061056e9190613403565b61119c565b005b61058f600480360381019061058a9190612fde565b6111fb565b005b6105ab60048036038101906105a6919061345f565b61121d565b005b6105c760048036038101906105c29190613403565b611290565b6040516105d49190612890565b60405180910390f35b6105f760048036038101906105f2919061349f565b611384565b6040516106049190612890565b60405180910390f35b600061061882611418565b9050919050565b60606000805461062e9061350e565b80601f016020809104026020016040519081016040528092919081815260200182805461065a9061350e565b80156106a75780601f1061067c576101008083540402835291602001916106a7565b820191906000526020600020905b81548152906001019060200180831161068a57829003601f168201915b5050505050905090565b60006106bc82611492565b506106c68261151a565b9050919050565b6106df82826106da611557565b61155f565b5050565b60608060005b600a805490508110156108675760096000600a838154811061070e5761070d61353f565b5b9060005260206000200160009054906101000a900473ffffffffffffffffffffffffffffffffffffffff1673ffffffffffffffffffffffffffffffffffffffff1673ffffffffffffffffffffffffffffffffffffffff168152602001908152602001600020604051806060016040529081600082015481526020016001820160009054906101000a900473ffffffffffffffffffffffffffffffffffffffff1673ffffffffffffffffffffffffffffffffffffffff1673ffffffffffffffffffffffffffffffffffffffff1681526020016002820180548060200260200160405190810160405280929190818152602001828054801561082d57602002820191906000526020600020905b815481526020019060010190808311610819575b5050505050815250508282815181106108495761084861353f565b5b6020026020010181905250808061085f9061359d565b9150506106e9565b508091505090565b60405180606001604052808481526020018373ffffffffffffffffffffffffffffffffffffffff16815260200182815250600960008473ffffffffffffffffffffffffffffffffffffffff1673ffffffffffffffffffffffffffffffffffffffff1681526020019081526020016000206000820151816000015560208201518160010160006101000a81548173ffffffffffffffffffffffffffffffffffffffff021916908373ffffffffffffffffffffffffffffffffffffffff160217905550604082015181600201908051906020019061094c929190612772565b50905050600a829080600181540180825580915050600190039060005260206000200160009091909190916101000a81548173ffffffffffffffffffffffffffffffffffffffff021916908373ffffffffffffffffffffffffffffffffffffffff160217905550505050565b7f9e1688b53537f356172ce07f39e129155063957163c5f9462d4d9e55b228b06c81565b600073ffffffffffffffffffffffffffffffffffffffff168273ffffffffffffffffffffffffffffffffffffffff1603610a4e5760006040517f64a0ae92000000000000000000000000000000000000000000000000000000008152600401610a459190612a01565b60405180910390fd5b6000610a628383610a5d611557565b611571565b90508373ffffffffffffffffffffffffffffffffffffffff168173ffffffffffffffffffffffffffffffffffffffff1614610ad8578382826040517f64283d7b000000000000000000000000000000000000000000000000000000008152600401610acf939291906135e5565b60405180910390fd5b50505050565b600060076000838152602001908152602001600020600101549050919050565b6060600960008373ffffffffffffffffffffffffffffffffffffffff1673ffffffffffffffffffffffffffffffffffffffff168152602001908152602001600020600201805480602002602001604051908101604052809291908181526020018280548015610b8c57602002820191906000526020600020905b815481526020019060010190808311610b78575b50505050509050919050565b610ba182610ade565b610baa8161178b565b610bb4838361179f565b50505050565b6000600960008473ffffffffffffffffffffffffffffffffffffffff1673ffffffffffffffffffffffffffffffffffffffff168152602001908152602001600020905060005b8251811015610c615781600201838281518110610c2057610c1f61353f565b5b602002602001015190806001815401808255809150506001900390600052602060002001600090919091909150558080610c599061359d565b915050610c00565b50505050565b610c6f611557565b73ffffffffffffffffffffffffffffffffffffffff168173ffffffffffffffffffffffffffffffffffffffff1614610cd3576040517f6697b23200000000000000000000000000000000000000000000000000000000815260040160405180910390fd5b610cdd8282611891565b505050565b610cfd8383836040518060200160405280600081525061116d565b505050565b610d15600082610d10611557565b611571565b5050565b6000610d2482611492565b9050919050565b8273ffffffffffffffffffffffffffffffffffffffff16610d4b82610d19565b73ffffffffffffffffffffffffffffffffffffffff1614610da1576040517f08c379a0000000000000000000000000000000000000000000000000000000008152600401610d9890613668565b60405180910390fd5b610dac838383610ce2565b505050565b60008073ffffffffffffffffffffffffffffffffffffffff168273ffffffffffffffffffffffffffffffffffffffff1603610e245760006040517f89c62b64000000000000000000000000000000000000000000000000000000008152600401610e1b9190612a01565b60405180910390fd5b600360008373ffffffffffffffffffffffffffffffffffffffff1673ffffffffffffffffffffffffffffffffffffffff168152602001908152602001600020549050919050565b60606000805b600a80549050811015610eed57610ec6600a8281548110610e9557610e9461353f565b5b9060005260206000200160009054906101000a900473ffffffffffffffffffffffffffffffffffffffff1685611290565b15610eda578180610ed69061359d565b9250505b8080610ee59061359d565b915050610e71565b5060008167ffffffffffffffff811115610f0a57610f09612cc4565b5b604051908082528060200260200182016040528015610f385781602001602082028036833780820191505090505b5090506000805b600a8054905081101561104757610f94600a8281548110610f6357610f6261353f565b5b9060005260206000200160009054906101000a900473ffffffffffffffffffffffffffffffffffffffff1687611290565b1561103457600a8181548110610fad57610fac61353f565b5b9060005260206000200160009054906101000a900473ffffffffffffffffffffffffffffffffffffffff16838381518110610feb57610fea61353f565b5b602002602001019073ffffffffffffffffffffffffffffffffffffffff16908173ffffffffffffffffffffffffffffffffffffffff168152505081806110309061359d565b9250505b808061103f9061359d565b915050610f3f565b50819350505050919050565b60006007600084815260200190815260200160002060000160008373ffffffffffffffffffffffffffffffffffffffff1673ffffffffffffffffffffffffffffffffffffffff16815260200190815260200160002060009054906101000a900460ff16905092915050565b6060600180546110cd9061350e565b80601f01602080910402602001604051908101604052809291908181526020018280546110f99061350e565b80156111465780601f1061111b57610100808354040283529160200191611146565b820191906000526020600020905b81548152906001019060200180831161112957829003601f168201915b5050505050905090565b6000801b81565b611169611162611557565b8383611984565b5050565b6111788484846109dc565b61118484848484611af3565b50505050565b606061119582611caa565b9050919050565b7f9e1688b53537f356172ce07f39e129155063957163c5f9462d4d9e55b228b06c6111c68161178b565b6000600860008154809291906111db9061359d565b9190505590506111eb8482611dbd565b6111f58184611ddb565b50505050565b61120482610ade565b61120d8161178b565b6112178383611891565b50505050565b6000600960008473ffffffffffffffffffffffffffffffffffffffff1673ffffffffffffffffffffffffffffffffffffffff168152602001908152602001600020905080600201829080600181540180825580915050600190039060005260206000200160009091909190915055505050565b600080600960008573ffffffffffffffffffffffffffffffffffffffff1673ffffffffffffffffffffffffffffffffffffffff168152602001908152602001600020905060005b816002018054905081101561137757836040516020016112f791906136c4565b604051602081830303815290604052805190602001208260020182815481106113235761132261353f565b5b906000526020600020015460405160200161133e91906136fc565b60405160208183030381529060405280519060200120036113645760019250505061137e565b808061136f9061359d565b9150506112d7565b5060009150505b92915050565b6000600560008473ffffffffffffffffffffffffffffffffffffffff1673ffffffffffffffffffffffffffffffffffffffff16815260200190815260200160002060008373ffffffffffffffffffffffffffffffffffffffff1673ffffffffffffffffffffffffffffffffffffffff16815260200190815260200160002060009054906101000a900460ff16905092915050565b60007f7965db0b000000000000000000000000000000000000000000000000000000007bffffffffffffffffffffffffffffffffffffffffffffffffffffffff1916827bffffffffffffffffffffffffffffffffffffffffffffffffffffffff1916148061148b575061148a82611e37565b5b9050919050565b60008061149e83611e98565b9050600073ffffffffffffffffffffffffffffffffffffffff168173ffffffffffffffffffffffffffffffffffffffff160361151157826040517f7e2732890000000000000000000000000000000000000000000000000000000081526004016115089190613089565b60405180910390fd5b80915050919050565b60006004600083815260200190815260200160002060009054906101000a900473ffffffffffffffffffffffffffffffffffffffff169050919050565b600033905090565b61156c8383836001611ed5565b505050565b60008061157d84611e98565b9050600073ffffffffffffffffffffffffffffffffffffffff168373ffffffffffffffffffffffffffffffffffffffff16146115bf576115be81848661209a565b5b600073ffffffffffffffffffffffffffffffffffffffff168173ffffffffffffffffffffffffffffffffffffffff161461165057611601600085600080611ed5565b6001600360008373ffffffffffffffffffffffffffffffffffffffff1673ffffffffffffffffffffffffffffffffffffffff168152602001908152602001600020600082825403925050819055505b600073ffffffffffffffffffffffffffffffffffffffff168573ffffffffffffffffffffffffffffffffffffffff16146116d3576001600360008773ffffffffffffffffffffffffffffffffffffffff1673ffffffffffffffffffffffffffffffffffffffff168152602001908152602001600020600082825401925050819055505b846002600086815260200190815260200160002060006101000a81548173ffffffffffffffffffffffffffffffffffffffff021916908373ffffffffffffffffffffffffffffffffffffffff160217905550838573ffffffffffffffffffffffffffffffffffffffff168273ffffffffffffffffffffffffffffffffffffffff167fddf252ad1be2c89b69c2b068fc378daa952ba7f163c4a11628f55a4df523b3ef60405160405180910390a4809150509392505050565b61179c81611797611557565b61215e565b50565b60006117ab8383611053565b6118865760016007600085815260200190815260200160002060000160008473ffffffffffffffffffffffffffffffffffffffff1673ffffffffffffffffffffffffffffffffffffffff16815260200190815260200160002060006101000a81548160ff021916908315150217905550611823611557565b73ffffffffffffffffffffffffffffffffffffffff168273ffffffffffffffffffffffffffffffffffffffff16847f2f8788117e7eff1d82e926ec794901d17c78024a50270940304540a733656f0d60405160405180910390a46001905061188b565b600090505b92915050565b600061189d8383611053565b156119795760006007600085815260200190815260200160002060000160008473ffffffffffffffffffffffffffffffffffffffff1673ffffffffffffffffffffffffffffffffffffffff16815260200190815260200160002060006101000a81548160ff021916908315150217905550611916611557565b73ffffffffffffffffffffffffffffffffffffffff168273ffffffffffffffffffffffffffffffffffffffff16847ff6391f5c32d9c69d2a47ea670b442974b53935d1edc7fd64eb21e047a839171b60405160405180910390a46001905061197e565b600090505b92915050565b600073ffffffffffffffffffffffffffffffffffffffff168273ffffffffffffffffffffffffffffffffffffffff16036119f557816040517f5b08ba180000000000000000000000000000000000000000000000000000000081526004016119ec9190612a01565b60405180910390fd5b80600560008573ffffffffffffffffffffffffffffffffffffffff1673ffffffffffffffffffffffffffffffffffffffff16815260200190815260200160002060008473ffffffffffffffffffffffffffffffffffffffff1673ffffffffffffffffffffffffffffffffffffffff16815260200190815260200160002060006101000a81548160ff0219169083151502179055508173ffffffffffffffffffffffffffffffffffffffff168373ffffffffffffffffffffffffffffffffffffffff167f17307eab39ab6107e8899845ad3d59bd9653f200f220920489ca2b5937696c3183604051611ae69190612890565b60405180910390a3505050565b60008373ffffffffffffffffffffffffffffffffffffffff163b1115611ca4578273ffffffffffffffffffffffffffffffffffffffff1663150b7a02611b37611557565b8685856040518563ffffffff1660e01b8152600401611b59949392919061376c565b6020604051808303816000875af1925050508015611b9557506040513d601f19601f82011682018060405250810190611b9291906137cd565b60015b611c19573d8060008114611bc5576040519150601f19603f3d011682016040523d82523d6000602084013e611bca565b606091505b506000815103611c1157836040517f64a0ae92000000000000000000000000000000000000000000000000000000008152600401611c089190612a01565b60405180910390fd5b805181602001fd5b63150b7a0260e01b7bffffffffffffffffffffffffffffffffffffffffffffffffffffffff1916817bffffffffffffffffffffffffffffffffffffffffffffffffffffffff191614611ca257836040517f64a0ae92000000000000000000000000000000000000000000000000000000008152600401611c999190612a01565b60405180910390fd5b505b50505050565b6060611cb582611492565b506000600660008481526020019081526020016000208054611cd69061350e565b80601f0160208091040260200160405190810160405280929190818152602001828054611d029061350e565b8015611d4f5780601f10611d2457610100808354040283529160200191611d4f565b820191906000526020600020905b815481529060010190602001808311611d3257829003601f168201915b505050505090506000611d606121af565b90506000815103611d75578192505050611db8565b600082511115611daa578082604051602001611d929291906137fa565b60405160208183030381529060405292505050611db8565b611db3846121c6565b925050505b919050565b611dd782826040518060200160405280600081525061222f565b5050565b80600660008481526020019081526020016000209081611dfb91906139ca565b507ff8e1a15aba9398e019f0b49df1a4fde98ee17ae345cb5f6b5e2c27f5033e8ce782604051611e2b9190613089565b60405180910390a15050565b6000634906490660e01b7bffffffffffffffffffffffffffffffffffffffffffffffffffffffff1916827bffffffffffffffffffffffffffffffffffffffffffffffffffffffff19161480611e915750611e908261224b565b5b9050919050565b60006002600083815260200190815260200160002060009054906101000a900473ffffffffffffffffffffffffffffffffffffffff169050919050565b8080611f0e5750600073ffffffffffffffffffffffffffffffffffffffff168273ffffffffffffffffffffffffffffffffffffffff1614155b15612042576000611f1e84611492565b9050600073ffffffffffffffffffffffffffffffffffffffff168373ffffffffffffffffffffffffffffffffffffffff1614158015611f8957508273ffffffffffffffffffffffffffffffffffffffff168173ffffffffffffffffffffffffffffffffffffffff1614155b8015611f9c5750611f9a8184611384565b155b15611fde57826040517fa9fbf51f000000000000000000000000000000000000000000000000000000008152600401611fd59190612a01565b60405180910390fd5b811561204057838573ffffffffffffffffffffffffffffffffffffffff168273ffffffffffffffffffffffffffffffffffffffff167f8c5be1e5ebec7d5bd14f71427d1e84f3dd0314c0f7b2291e5b200ac8c7c3b92560405160405180910390a45b505b836004600085815260200190815260200160002060006101000a81548173ffffffffffffffffffffffffffffffffffffffff021916908373ffffffffffffffffffffffffffffffffffffffff16021790555050505050565b6120a583838361232d565b61215957600073ffffffffffffffffffffffffffffffffffffffff168373ffffffffffffffffffffffffffffffffffffffff160361211a57806040517f7e2732890000000000000000000000000000000000000000000000000000000081526004016121119190613089565b60405180910390fd5b81816040517f177e802f000000000000000000000000000000000000000000000000000000008152600401612150929190613a9c565b60405180910390fd5b505050565b6121688282611053565b6121ab5780826040517fe2517d3f0000000000000000000000000000000000000000000000000000000081526004016121a2929190613ac5565b60405180910390fd5b5050565b606060405180602001604052806000815250905090565b60606121d182611492565b5060006121dc6121af565b905060008151116121fc5760405180602001604052806000815250612227565b80612206846123ee565b6040516020016122179291906137fa565b6040516020818303038152906040525b915050919050565b61223983836124bc565b6122466000848484611af3565b505050565b60007f80ac58cd000000000000000000000000000000000000000000000000000000007bffffffffffffffffffffffffffffffffffffffffffffffffffffffff1916827bffffffffffffffffffffffffffffffffffffffffffffffffffffffff1916148061231657507f5b5e139f000000000000000000000000000000000000000000000000000000007bffffffffffffffffffffffffffffffffffffffffffffffffffffffff1916827bffffffffffffffffffffffffffffffffffffffffffffffffffffffff1916145b806123265750612325826125b5565b5b9050919050565b60008073ffffffffffffffffffffffffffffffffffffffff168373ffffffffffffffffffffffffffffffffffffffff16141580156123e557508273ffffffffffffffffffffffffffffffffffffffff168473ffffffffffffffffffffffffffffffffffffffff1614806123a657506123a58484611384565b5b806123e457508273ffffffffffffffffffffffffffffffffffffffff166123cc8361151a565b73ffffffffffffffffffffffffffffffffffffffff16145b5b90509392505050565b6060600060016123fd8461261f565b01905060008167ffffffffffffffff81111561241c5761241b612cc4565b5b6040519080825280601f01601f19166020018201604052801561244e5781602001600182028036833780820191505090505b509050600082602001820190505b6001156124b1578080600190039150507f3031323334353637383961626364656600000000000000000000000000000000600a86061a8153600a85816124a5576124a4613aee565b5b0494506000850361245c575b819350505050919050565b600073ffffffffffffffffffffffffffffffffffffffff168273ffffffffffffffffffffffffffffffffffffffff160361252e5760006040517f64a0ae920000000000000000000000000000000000000000000000000000000081526004016125259190612a01565b60405180910390fd5b600061253c83836000611571565b9050600073ffffffffffffffffffffffffffffffffffffffff168173ffffffffffffffffffffffffffffffffffffffff16146125b05760006040517f73c6ac6e0000000000000000000000000000000000000000000000000000000081526004016125a79190612a01565b60405180910390fd5b505050565b60007f01ffc9a7000000000000000000000000000000000000000000000000000000007bffffffffffffffffffffffffffffffffffffffffffffffffffffffff1916827bffffffffffffffffffffffffffffffffffffffffffffffffffffffff1916149050919050565b600080600090507a184f03e93ff9f4daa797ed6e38ed64bf6a1f010000000000000000831061267d577a184f03e93ff9f4daa797ed6e38ed64bf6a1f010000000000000000838161267357612672613aee565b5b0492506040810190505b6d04ee2d6d415b85acef810000000083106126ba576d04ee2d6d415b85acef810000000083816126b0576126af613aee565b5b0492506020810190505b662386f26fc1000083106126e957662386f26fc1000083816126df576126de613aee565b5b0492506010810190505b6305f5e1008310612712576305f5e100838161270857612707613aee565b5b0492506008810190505b612710831061273757612710838161272d5761272c613aee565b5b0492506004810190505b6064831061275a57606483816127505761274f613aee565b5b0492506002810190505b600a8310612769576001810190505b80915050919050565b8280548282559060005260206000209081019282156127ae579160200282015b828111156127ad578251825591602001919060010190612792565b5b5090506127bb91906127bf565b5090565b5b808211156127d85760008160009055506001016127c0565b5090565b6000604051905090565b600080fd5b600080fd5b60007fffffffff0000000000000000000000000000000000000000000000000000000082169050919050565b612825816127f0565b811461283057600080fd5b50565b6000813590506128428161281c565b92915050565b60006020828403121561285e5761285d6127e6565b5b600061286c84828501612833565b91505092915050565b60008115159050919050565b61288a81612875565b82525050565b60006020820190506128a56000830184612881565b92915050565b600081519050919050565b600082825260208201905092915050565b60005b838110156128e55780820151818401526020810190506128ca565b60008484015250505050565b6000601f19601f8301169050919050565b600061290d826128ab565b61291781856128b6565b93506129278185602086016128c7565b612930816128f1565b840191505092915050565b600060208201905081810360008301526129558184612902565b905092915050565b6000819050919050565b6129708161295d565b811461297b57600080fd5b50565b60008135905061298d81612967565b92915050565b6000602082840312156129a9576129a86127e6565b5b60006129b78482850161297e565b91505092915050565b600073ffffffffffffffffffffffffffffffffffffffff82169050919050565b60006129eb826129c0565b9050919050565b6129fb816129e0565b82525050565b6000602082019050612a1660008301846129f2565b92915050565b612a25816129e0565b8114612a3057600080fd5b50565b600081359050612a4281612a1c565b92915050565b60008060408385031215612a5f57612a5e6127e6565b5b6000612a6d85828601612a33565b9250506020612a7e8582860161297e565b9150509250929050565b600081519050919050565b600082825260208201905092915050565b6000819050602082019050919050565b6000819050919050565b612ac781612ab4565b82525050565b612ad6816129e0565b82525050565b600081519050919050565b600082825260208201905092915050565b6000819050602082019050919050565b6000612b148383612abe565b60208301905092915050565b6000602082019050919050565b6000612b3882612adc565b612b428185612ae7565b9350612b4d83612af8565b8060005b83811015612b7e578151612b658882612b08565b9750612b7083612b20565b925050600181019050612b51565b5085935050505092915050565b6000606083016000830151612ba36000860182612abe565b506020830151612bb66020860182612acd565b5060408301518482036040860152612bce8282612b2d565b9150508091505092915050565b6000612be78383612b8b565b905092915050565b6000602082019050919050565b6000612c0782612a88565b612c118185612a93565b935083602082028501612c2385612aa4565b8060005b85811015612c5f5784840389528151612c408582612bdb565b9450612c4b83612bef565b925060208a01995050600181019050612c27565b50829750879550505050505092915050565b60006020820190508181036000830152612c8b8184612bfc565b905092915050565b612c9c81612ab4565b8114612ca757600080fd5b50565b600081359050612cb981612c93565b92915050565b600080fd5b7f4e487b7100000000000000000000000000000000000000000000000000000000600052604160045260246000fd5b612cfc826128f1565b810181811067ffffffffffffffff82111715612d1b57612d1a612cc4565b5b80604052505050565b6000612d2e6127dc565b9050612d3a8282612cf3565b919050565b600067ffffffffffffffff821115612d5a57612d59612cc4565b5b602082029050602081019050919050565b600080fd5b6000612d83612d7e84612d3f565b612d24565b90508083825260208201905060208402830185811115612da657612da5612d6b565b5b835b81811015612dcf5780612dbb8882612caa565b845260208401935050602081019050612da8565b5050509392505050565b600082601f830112612dee57612ded612cbf565b5b8135612dfe848260208601612d70565b91505092915050565b600080600060608486031215612e2057612e1f6127e6565b5b6000612e2e86828701612caa565b9350506020612e3f86828701612a33565b925050604084013567ffffffffffffffff811115612e6057612e5f6127eb565b5b612e6c86828701612dd9565b9150509250925092565b612e7f81612ab4565b82525050565b6000602082019050612e9a6000830184612e76565b92915050565b600080600060608486031215612eb957612eb86127e6565b5b6000612ec786828701612a33565b9350506020612ed886828701612a33565b9250506040612ee98682870161297e565b9150509250925092565b600060208284031215612f0957612f086127e6565b5b6000612f1784828501612caa565b91505092915050565b600060208284031215612f3657612f356127e6565b5b6000612f4484828501612a33565b91505092915050565b600082825260208201905092915050565b6000612f6982612adc565b612f738185612f4d565b9350612f7e83612af8565b8060005b83811015612faf578151612f968882612b08565b9750612fa183612b20565b925050600181019050612f82565b5085935050505092915050565b60006020820190508181036000830152612fd68184612f5e565b905092915050565b60008060408385031215612ff557612ff46127e6565b5b600061300385828601612caa565b925050602061301485828601612a33565b9150509250929050565b60008060408385031215613035576130346127e6565b5b600061304385828601612a33565b925050602083013567ffffffffffffffff811115613064576130636127eb565b5b61307085828601612dd9565b9150509250929050565b6130838161295d565b82525050565b600060208201905061309e600083018461307a565b92915050565b600080fd5b600067ffffffffffffffff8211156130c4576130c3612cc4565b5b6130cd826128f1565b9050602081019050919050565b82818337600083830152505050565b60006130fc6130f7846130a9565b612d24565b905082815260208101848484011115613118576131176130a4565b5b6131238482856130da565b509392505050565b600082601f8301126131405761313f612cbf565b5b81356131508482602086016130e9565b91505092915050565b60006020828403121561316f5761316e6127e6565b5b600082013567ffffffffffffffff81111561318d5761318c6127eb565b5b6131998482850161312b565b91505092915050565b600081519050919050565b600082825260208201905092915050565b6000819050602082019050919050565b60006131da8383612acd565b60208301905092915050565b6000602082019050919050565b60006131fe826131a2565b61320881856131ad565b9350613213836131be565b8060005b8381101561324457815161322b88826131ce565b9750613236836131e6565b925050600181019050613217565b5085935050505092915050565b6000602082019050818103600083015261326b81846131f3565b905092915050565b61327c81612875565b811461328757600080fd5b50565b60008135905061329981613273565b92915050565b600080604083850312156132b6576132b56127e6565b5b60006132c485828601612a33565b92505060206132d58582860161328a565b9150509250929050565b600067ffffffffffffffff8211156132fa576132f9612cc4565b5b613303826128f1565b9050602081019050919050565b600061332361331e846132df565b612d24565b90508281526020810184848401111561333f5761333e6130a4565b5b61334a8482856130da565b509392505050565b600082601f83011261336757613366612cbf565b5b8135613377848260208601613310565b91505092915050565b6000806000806080858703121561339a576133996127e6565b5b60006133a887828801612a33565b94505060206133b987828801612a33565b93505060406133ca8782880161297e565b925050606085013567ffffffffffffffff8111156133eb576133ea6127eb565b5b6133f787828801613352565b91505092959194509250565b6000806040838503121561341a576134196127e6565b5b600061342885828601612a33565b925050602083013567ffffffffffffffff811115613449576134486127eb565b5b6134558582860161312b565b9150509250929050565b60008060408385031215613476576134756127e6565b5b600061348485828601612a33565b925050602061349585828601612caa565b9150509250929050565b600080604083850312156134b6576134b56127e6565b5b60006134c485828601612a33565b92505060206134d585828601612a33565b9150509250929050565b7f4e487b7100000000000000000000000000000000000000000000000000000000600052602260045260246000fd5b6000600282049050600182168061352657607f821691505b602082108103613539576135386134df565b5b50919050565b7f4e487b7100000000000000000000000000000000000000000000000000000000600052603260045260246000fd5b7f4e487b7100000000000000000000000000000000000000000000000000000000600052601160045260246000fd5b60006135a88261295d565b91507fffffffffffffffffffffffffffffffffffffffffffffffffffffffffffffffff82036135da576135d961356e565b5b600182019050919050565b60006060820190506135fa60008301866129f2565b613607602083018561307a565b61361460408301846129f2565b949350505050565b7f546f6b656e206e6f74206f776e65642062792074686520616464726573730000600082015250565b6000613652601e836128b6565b915061365d8261361c565b602082019050919050565b6000602082019050818103600083015261368181613645565b9050919050565b600081905092915050565b600061369e826128ab565b6136a88185613688565b93506136b88185602086016128c7565b80840191505092915050565b60006136d08284613693565b915081905092915050565b6000819050919050565b6136f66136f182612ab4565b6136db565b82525050565b600061370882846136e5565b60208201915081905092915050565b600081519050919050565b600082825260208201905092915050565b600061373e82613717565b6137488185613722565b93506137588185602086016128c7565b613761816128f1565b840191505092915050565b600060808201905061378160008301876129f2565b61378e60208301866129f2565b61379b604083018561307a565b81810360608301526137ad8184613733565b905095945050505050565b6000815190506137c78161281c565b92915050565b6000602082840312156137e3576137e26127e6565b5b60006137f1848285016137b8565b91505092915050565b60006138068285613693565b91506138128284613693565b91508190509392505050565b60008190508160005260206000209050919050565b60006020601f8301049050919050565b600082821b905092915050565b6000600883026138807fffffffffffffffffffffffffffffffffffffffffffffffffffffffffffffffff82613843565b61388a8683613843565b95508019841693508086168417925050509392505050565b6000819050919050565b60006138c76138c26138bd8461295d565b6138a2565b61295d565b9050919050565b6000819050919050565b6138e1836138ac565b6138f56138ed826138ce565b848454613850565b825550505050565b600090565b61390a6138fd565b6139158184846138d8565b505050565b5b818110156139395761392e600082613902565b60018101905061391b565b5050565b601f82111561397e5761394f8161381e565b61395884613833565b81016020851015613967578190505b61397b61397385613833565b83018261391a565b50505b505050565b600082821c905092915050565b60006139a160001984600802613983565b1980831691505092915050565b60006139ba8383613990565b9150826002028217905092915050565b6139d3826128ab565b67ffffffffffffffff8111156139ec576139eb612cc4565b5b6139f6825461350e565b613a0182828561393d565b600060209050601f831160018114613a345760008415613a22578287015190505b613a2c85826139ae565b865550613a94565b601f198416613a428661381e565b60005b82811015613a6a57848901518255600182019150602085019450602081019050613a45565b86831015613a875784890151613a83601f891682613990565b8355505b6001600288020188555050505b505050505050565b6000604082019050613ab160008301856129f2565b613abe602083018461307a565b9392505050565b6000604082019050613ada60008301856129f2565b613ae76020830184612e76565b9392505050565b7f4e487b7100000000000000000000000000000000000000000000000000000000600052601260045260246000fdfea26469706673582212201020eabd648fc6bad6dd9de3f5c08b7bc396cd9e4b693df6a6c96ae082a9b30e64736f6c63430008140033",
  "linkReferences": {},
  "deployedLinkReferences": {}
}