{
  "_format": "hh-sol-artifact-1",
  "contractName": "ClearOriginNetwork",
  "sourceName": "contracts/ClearOriginNetwork.sol",
  "abi": [
    {
      "inputs": [
        {
          "internalType": "address",
          "name": "defaultAdmin",
          "type": "address"
        }
      ],
      "stateMutability": "nonpayable",
      "type": "constructor"
    },
    {
      "inputs": [],
      "name": "AccessControlBadConfirmation",
      "type": "error"
    },
    {
      "inputs": [
        {
          "internalType": "address",
          "name": "account",
          "type": "address"
        },
        {
          "internalType": "bytes32",
          "name": "neededRole",
          "type": "bytes32"
        }
      ],
      "name": "AccessControlUnauthorizedAccount",
      "type": "error"
    },
    {
      "inputs": [
        {
          "internalType": "address",
          "name": "sender",
          "type": "address"
        },
        {
          "internalType": "uint256",
          "name": "tokenId",
          "type": "uint256"
        },
        {
          "internalType": "address",
          "name": "owner",
          "type": "address"
        }
      ],
      "name": "ERC721IncorrectOwner",
      "type": "error"
    },
    {
      "inputs": [
        {
          "internalType": "address",
          "name": "operator",
          "type": "address"
        },
        {
          "internalType": "uint256",
          "name": "tokenId",
          "type": "uint256"
        }
      ],
      "name": "ERC721InsufficientApproval",
      "type": "error"
    },
    {
      "inputs": [
        {
          "internalType": "address",
          "name": "approver",
          "type": "address"
        }
      ],
      "name": "ERC721InvalidApprover",
      "type": "error"
    },
    {
      "inputs": [
        {
          "internalType": "address",
          "name": "operator",
          "type": "address"
        }
      ],
      "name": "ERC721InvalidOperator",
      "type": "error"
    },
    {
      "inputs": [
        {
          "internalType": "address",
          "name": "owner",
          "type": "address"
        }
      ],
      "name": "ERC721InvalidOwner",
      "type": "error"
    },
    {
      "inputs": [
        {
          "internalType": "address",
          "name": "receiver",
          "type": "address"
        }
      ],
      "name": "ERC721InvalidReceiver",
      "type": "error"
    },
    {
      "inputs": [
        {
          "internalType": "address",
          "name": "sender",
          "type": "address"
        }
      ],
      "name": "ERC721InvalidSender",
      "type": "error"
    },
    {
      "inputs": [
        {
          "internalType": "uint256",
          "name": "tokenId",
          "type": "uint256"
        }
      ],
      "name": "ERC721NonexistentToken",
      "type": "error"
    },
    {
      "anonymous": false,
      "inputs": [
        {
          "indexed": true,
          "internalType": "address",
          "name": "owner",
          "type": "address"
        },
        {
          "indexed": true,
          "internalType": "address",
          "name": "approved",
          "type": "address"
        },
        {
          "indexed": true,
          "internalType": "uint256",
          "name": "tokenId",
          "type": "uint256"
        }
      ],
      "name": "Approval",
      "type": "event"
    },
    {
      "anonymous": false,
      "inputs": [
        {
          "indexed": true,
          "internalType": "address",
          "name": "owner",
          "type": "address"
        },
        {
          "indexed": true,
          "internalType": "address",
          "name": "operator",
          "type": "address"
        },
        {
          "indexed": false,
          "internalType": "bool",
          "name": "approved",
          "type": "bool"
        }
      ],
      "name": "ApprovalForAll",
      "type": "event"
    },
    {
      "anonymous": false,
      "inputs": [
        {
          "indexed": false,
          "internalType": "uint256",
          "name": "_fromTokenId",
          "type": "uint256"
        },
        {
          "indexed": false,
          "internalType": "uint256",
          "name": "_toTokenId",
          "type": "uint256"
        }
      ],
      "name": "BatchMetadataUpdate",
      "type": "event"
    },
    {
      "anonymous": false,
      "inputs": [
        {
          "indexed": false,
          "internalType": "uint256",
          "name": "_tokenId",
          "type": "uint256"
        }
      ],
      "name": "MetadataUpdate",
      "type": "event"
    },
    {
      "anonymous": false,
      "inputs": [
        {
          "indexed": true,
          "internalType": "bytes32",
          "name": "role",
          "type": "bytes32"
        },
        {
          "indexed": true,
          "internalType": "bytes32",
          "name": "previousAdminRole",
          "type": "bytes32"
        },
        {
          "indexed": true,
          "internalType": "bytes32",
          "name": "newAdminRole",
          "type": "bytes32"
        }
      ],
      "name": "RoleAdminChanged",
      "type": "event"
    },
    {
      "anonymous": false,
      "inputs": [
        {
          "indexed": true,
          "internalType": "bytes32",
          "name": "role",
          "type": "bytes32"
        },
        {
          "indexed": true,
          "internalType": "address",
          "name": "account",
          "type": "address"
        },
        {
          "indexed": true,
          "internalType": "address",
          "name": "sender",
          "type": "address"
        }
      ],
      "name": "RoleGranted",
      "type": "event"
    },
    {
      "anonymous": false,
      "inputs": [
        {
          "indexed": true,
          "internalType": "bytes32",
          "name": "role",
          "type": "bytes32"
        },
        {
          "indexed": true,
          "internalType": "address",
          "name": "account",
          "type": "address"
        },
        {
          "indexed": true,
          "internalType": "address",
          "name": "sender",
          "type": "address"
        }
      ],
      "name": "RoleRevoked",
      "type": "event"
    },
    {
      "anonymous": false,
      "inputs": [
        {
          "indexed": true,
          "internalType": "address",
          "name": "from",
          "type": "address"
        },
        {
          "indexed": true,
          "internalType": "address",
          "name": "to",
          "type": "address"
        },
        {
          "indexed": true,
          "internalType": "uint256",
          "name": "tokenId",
          "type": "uint256"
        }
      ],
      "name": "Transfer",
      "type": "event"
    },
    {
      "inputs": [],
      "name": "COMPANY_ROLE",
      "outputs": [
        {
          "internalType": "bytes32",
          "name": "",
          "type": "bytes32"
        }
      ],
      "stateMutability": "view",
      "type": "function"
    },
    {
      "inputs": [],
      "name": "DEFAULT_ADMIN_ROLE",
      "outputs": [
        {
          "internalType": "bytes32",
          "name": "",
          "type": "bytes32"
        }
      ],
      "stateMutability": "view",
      "type": "function"
    },
    {
      "inputs": [
        {
          "internalType": "bytes32",
          "name": "_companyName",
          "type": "bytes32"
        },
        {
          "internalType": "address",
          "name": "_companyAddress",
          "type": "address"
        },
        {
          "internalType": "bytes32[]",
          "name": "_companyProducts",
          "type": "bytes32[]"
        }
      ],
      "name": "addCompany",
      "outputs": [],
      "stateMutability": "nonpayable",
      "type": "function"
    },
    {
      "inputs": [
        {
          "internalType": "address",
          "name": "_companyAddress",
          "type": "address"
        },
        {
          "internalType": "bytes32",
          "name": "_product",
          "type": "bytes32"
        }
      ],
      "name": "addProduct",
      "outputs": [],
      "stateMutability": "nonpayable",
      "type": "function"
    },
    {
      "inputs": [
        {
          "internalType": "address",
          "name": "_companyAddress",
          "type": "address"
        },
        {
          "internalType": "bytes32[]",
          "name": "_products",
          "type": "bytes32[]"
        }
      ],
      "name": "addProducts",
      "outputs": [],
      "stateMutability": "nonpayable",
      "type": "function"
    },
    {
      "inputs": [
        {
          "internalType": "address",
          "name": "to",
          "type": "address"
        },
        {
          "internalType": "uint256",
          "name": "tokenId",
          "type": "uint256"
        }
      ],
      "name": "approve",
      "outputs": [],
      "stateMutability": "nonpayable",
      "type": "function"
    },
    {
      "inputs": [
        {
          "internalType": "address",
          "name": "owner",
          "type": "address"
        }
      ],
      "name": "balanceOf",
      "outputs": [
        {
          "internalType": "uint256",
          "name": "",
          "type": "uint256"
        }
      ],
      "stateMutability": "view",
      "type": "function"
    },
    {
      "inputs": [
        {
          "internalType": "uint256",
          "name": "tokenId",
          "type": "uint256"
        }
      ],
      "name": "burn",
      "outputs": [],
      "stateMutability": "nonpayable",
      "type": "function"
    },
    {
      "inputs": [
        {
          "internalType": "uint256",
          "name": "tokenId",
          "type": "uint256"
        }
      ],
      "name": "getApproved",
      "outputs": [
        {
          "internalType": "address",
          "name": "",
          "type": "address"
        }
      ],
      "stateMutability": "view",
      "type": "function"
    },
    {
      "inputs": [],
      "name": "getCompanies",
      "outputs": [
        {
          "internalType": "bytes32[]",
          "name": "",
          "type": "bytes32[]"
        },
        {
          "internalType": "address[]",
          "name": "",
          "type": "address[]"
        },
        {
          "internalType": "bytes32[][]",
          "name": "",
          "type": "bytes32[][]"
        }
      ],
      "stateMutability": "view",
      "type": "function"
    },
    {
      "inputs": [
        {
          "internalType": "string",
          "name": "_product",
          "type": "string"
        }
      ],
      "name": "getCompaniesWithProduct",
      "outputs": [
        {
          "internalType": "address[]",
          "name": "",
          "type": "address[]"
        }
      ],
      "stateMutability": "view",
      "type": "function"
    },
    {
      "inputs": [
        {
          "internalType": "address",
          "name": "_companyAddress",
          "type": "address"
        }
      ],
      "name": "getCompanyProducts",
      "outputs": [
        {
          "internalType": "bytes32[]",
          "name": "",
          "type": "bytes32[]"
        }
      ],
      "stateMutability": "view",
      "type": "function"
    },
    {
      "inputs": [
        {
          "internalType": "bytes32",
          "name": "role",
          "type": "bytes32"
        }
      ],
      "name": "getRoleAdmin",
      "outputs": [
        {
          "internalType": "bytes32",
          "name": "",
          "type": "bytes32"
        }
      ],
      "stateMutability": "view",
      "type": "function"
    },
    {
      "inputs": [
        {
          "internalType": "bytes32",
          "name": "role",
          "type": "bytes32"
        },
        {
          "internalType": "address",
          "name": "account",
          "type": "address"
        }
      ],
      "name": "grantRole",
      "outputs": [],
      "stateMutability": "nonpayable",
      "type": "function"
    },
    {
      "inputs": [
        {
          "internalType": "address",
          "name": "_companyAddress",
          "type": "address"
        },
        {
          "internalType": "string",
          "name": "_product",
          "type": "string"
        }
      ],
      "name": "hasProduct",
      "outputs": [
        {
          "internalType": "bool",
          "name": "",
          "type": "bool"
        }
      ],
      "stateMutability": "view",
      "type": "function"
    },
    {
      "inputs": [
        {
          "internalType": "bytes32",
          "name": "role",
          "type": "bytes32"
        },
        {
          "internalType": "address",
          "name": "account",
          "type": "address"
        }
      ],
      "name": "hasRole",
      "outputs": [
        {
          "internalType": "bool",
          "name": "",
          "type": "bool"
        }
      ],
      "stateMutability": "view",
      "type": "function"
    },
    {
      "inputs": [
        {
          "internalType": "address",
          "name": "owner",
          "type": "address"
        },
        {
          "internalType": "address",
          "name": "operator",
          "type": "address"
        }
      ],
      "name": "isApprovedForAll",
      "outputs": [
        {
          "internalType": "bool",
          "name": "",
          "type": "bool"
        }
      ],
      "stateMutability": "view",
      "type": "function"
    },
    {
      "inputs": [],
      "name": "name",
      "outputs": [
        {
          "internalType": "string",
          "name": "",
          "type": "string"
        }
      ],
      "stateMutability": "view",
      "type": "function"
    },
    {
      "inputs": [
        {
          "internalType": "uint256",
          "name": "tokenId",
          "type": "uint256"
        }
      ],
      "name": "ownerOf",
      "outputs": [
        {
          "internalType": "address",
          "name": "",
          "type": "address"
        }
      ],
      "stateMutability": "view",
      "type": "function"
    },
    {
      "inputs": [
        {
          "internalType": "bytes32",
          "name": "role",
          "type": "bytes32"
        },
        {
          "internalType": "address",
          "name": "callerConfirmation",
          "type": "address"
        }
      ],
      "name": "renounceRole",
      "outputs": [],
      "stateMutability": "nonpayable",
      "type": "function"
    },
    {
      "inputs": [
        {
          "internalType": "bytes32",
          "name": "role",
          "type": "bytes32"
        },
        {
          "internalType": "address",
          "name": "account",
          "type": "address"
        }
      ],
      "name": "revokeRole",
      "outputs": [],
      "stateMutability": "nonpayable",
      "type": "function"
    },
    {
      "inputs": [
        {
          "internalType": "address",
          "name": "to",
          "type": "address"
        },
        {
          "internalType": "string",
          "name": "uri",
          "type": "string"
        }
      ],
      "name": "safeMint",
      "outputs": [],
      "stateMutability": "nonpayable",
      "type": "function"
    },
    {
      "inputs": [
        {
          "internalType": "address",
          "name": "from",
          "type": "address"
        },
        {
          "internalType": "address",
          "name": "to",
          "type": "address"
        },
        {
          "internalType": "uint256",
          "name": "tokenId",
          "type": "uint256"
        }
      ],
      "name": "safeTransferFrom",
      "outputs": [],
      "stateMutability": "nonpayable",
      "type": "function"
    },
    {
      "inputs": [
        {
          "internalType": "address",
          "name": "from",
          "type": "address"
        },
        {
          "internalType": "address",
          "name": "to",
          "type": "address"
        },
        {
          "internalType": "uint256",
          "name": "tokenId",
          "type": "uint256"
        },
        {
          "internalType": "bytes",
          "name": "data",
          "type": "bytes"
        }
      ],
      "name": "safeTransferFrom",
      "outputs": [],
      "stateMutability": "nonpayable",
      "type": "function"
    },
    {
      "inputs": [
        {
          "internalType": "address",
          "name": "operator",
          "type": "address"
        },
        {
          "internalType": "bool",
          "name": "approved",
          "type": "bool"
        }
      ],
      "name": "setApprovalForAll",
      "outputs": [],
      "stateMutability": "nonpayable",
      "type": "function"
    },
    {
      "inputs": [
        {
          "internalType": "bytes4",
          "name": "interfaceId",
          "type": "bytes4"
        }
      ],
      "name": "supportsInterface",
      "outputs": [
        {
          "internalType": "bool",
          "name": "",
          "type": "bool"
        }
      ],
      "stateMutability": "view",
      "type": "function"
    },
    {
      "inputs": [],
      "name": "symbol",
      "outputs": [
        {
          "internalType": "string",
          "name": "",
          "type": "string"
        }
      ],
      "stateMutability": "view",
      "type": "function"
    },
    {
      "inputs": [
        {
          "internalType": "uint256",
          "name": "tokenId",
          "type": "uint256"
        }
      ],
      "name": "tokenURI",
      "outputs": [
        {
          "internalType": "string",
          "name": "",
          "type": "string"
        }
      ],
      "stateMutability": "view",
      "type": "function"
    },
    {
      "inputs": [
        {
          "internalType": "address",
          "name": "from",
          "type": "address"
        },
        {
          "internalType": "address",
          "name": "to",
          "type": "address"
        },
        {
          "internalType": "uint256",
          "name": "tokenId",
          "type": "uint256"
        }
      ],
      "name": "transferFrom",
      "outputs": [],
      "stateMutability": "nonpayable",
      "type": "function"
    },
    {
      "inputs": [
        {
          "internalType": "address",
          "name": "from",
          "type": "address"
        },
        {
          "internalType": "address",
          "name": "to",
          "type": "address"
        },
        {
          "internalType": "uint256",
          "name": "tokenId",
          "type": "uint256"
        }
      ],
      "name": "transferNFT",
      "outputs": [],
      "stateMutability": "nonpayable",
      "type": "function"
    }
  ],
  "bytecode": "0x60806040523480156200001157600080fd5b506040516200448c3803806200448c8339818101604052810190620000379190620002c7565b6040518060400160405280601281526020017f436c6561724f726967696e4e6574776f726b00000000000000000000000000008152506040518060400160405280600381526020017f434f4e00000000000000000000000000000000000000000000000000000000008152508160009081620000b4919062000573565b508060019081620000c6919062000573565b505050620000de6000801b82620000e660201b60201c565b50506200065a565b6000620000fa8383620001ea60201b60201c565b620001df5760016007600085815260200190815260200160002060000160008473ffffffffffffffffffffffffffffffffffffffff1673ffffffffffffffffffffffffffffffffffffffff16815260200190815260200160002060006101000a81548160ff0219169083151502179055506200017b6200025560201b60201c565b73ffffffffffffffffffffffffffffffffffffffff168273ffffffffffffffffffffffffffffffffffffffff16847f2f8788117e7eff1d82e926ec794901d17c78024a50270940304540a733656f0d60405160405180910390a460019050620001e4565b600090505b92915050565b60006007600084815260200190815260200160002060000160008373ffffffffffffffffffffffffffffffffffffffff1673ffffffffffffffffffffffffffffffffffffffff16815260200190815260200160002060009054906101000a900460ff16905092915050565b600033905090565b600080fd5b600073ffffffffffffffffffffffffffffffffffffffff82169050919050565b60006200028f8262000262565b9050919050565b620002a18162000282565b8114620002ad57600080fd5b50565b600081519050620002c18162000296565b92915050565b600060208284031215620002e057620002df6200025d565b5b6000620002f084828501620002b0565b91505092915050565b600081519050919050565b7f4e487b7100000000000000000000000000000000000000000000000000000000600052604160045260246000fd5b7f4e487b7100000000000000000000000000000000000000000000000000000000600052602260045260246000fd5b600060028204905060018216806200037b57607f821691505b60208210810362000391576200039062000333565b5b50919050565b60008190508160005260206000209050919050565b60006020601f8301049050919050565b600082821b905092915050565b600060088302620003fb7fffffffffffffffffffffffffffffffffffffffffffffffffffffffffffffffff82620003bc565b620004078683620003bc565b95508019841693508086168417925050509392505050565b6000819050919050565b6000819050919050565b6000620004546200044e62000448846200041f565b62000429565b6200041f565b9050919050565b6000819050919050565b620004708362000433565b620004886200047f826200045b565b848454620003c9565b825550505050565b600090565b6200049f62000490565b620004ac81848462000465565b505050565b5b81811015620004d457620004c860008262000495565b600181019050620004b2565b5050565b601f8211156200052357620004ed8162000397565b620004f884620003ac565b8101602085101562000508578190505b620005206200051785620003ac565b830182620004b1565b50505b505050565b600082821c905092915050565b6000620005486000198460080262000528565b1980831691505092915050565b600062000563838362000535565b9150826002028217905092915050565b6200057e82620002f9565b67ffffffffffffffff8111156200059a576200059962000304565b5b620005a6825462000362565b620005b3828285620004d8565b600060209050601f831160018114620005eb5760008415620005d6578287015190505b620005e2858262000555565b86555062000652565b601f198416620005fb8662000397565b60005b828110156200062557848901518255600182019150602085019450602081019050620005fe565b8683101562000645578489015162000641601f89168262000535565b8355505b6001600288020188555050505b505050505050565b613e22806200066a6000396000f3fe608060405234801561001057600080fd5b50600436106101da5760003560e01c80636352211e11610104578063a22cb465116100a2578063d547741f11610071578063d547741f14610577578063d58e7e7214610593578063e845e5d8146105af578063e985e9c5146105df576101da565b8063a22cb465146104f3578063b88d4fde1461050f578063c87b56dd1461052b578063d204c45e1461055b576101da565b80637955aab9116100de5780637955aab91461045757806391d148541461048757806395d89b41146104b7578063a217fddf146104d5576101da565b80636352211e146103db57806369e9cae11461040b57806370a0823114610427576101da565b806323b872dd1161017c578063316fd1b11161014b578063316fd1b11461036b57806336568abe1461038757806342842e0e146103a357806342966c68146103bf576101da565b806323b872dd146102d3578063248a9ca3146102ef5780632eb6908d1461031f5780632f2ff15d1461034f576101da565b8063095ea7b3116101b8578063095ea7b31461025d5780630c0b6691146102795780631435c3dc146102995780631c9ee11a146102b5576101da565b806301ffc9a7146101df57806306fdde031461020f578063081812fc1461022d575b600080fd5b6101f960048036038101906101f49190612aab565b61060f565b6040516102069190612af3565b60405180910390f35b610217610621565b6040516102249190612b9e565b60405180910390f35b61024760048036038101906102429190612bf6565b6106b3565b6040516102549190612c64565b60405180910390f35b61027760048036038101906102729190612cab565b6106cf565b005b6102816106e5565b60405161029093929190612fa2565b60405180910390f35b6102b360048036038101906102ae9190613162565b610a13565b005b6102bd610c1b565b6040516102ca91906131e0565b60405180910390f35b6102ed60048036038101906102e891906131fb565b610c3f565b005b6103096004803603810190610304919061324e565b610d41565b60405161031691906131e0565b60405180910390f35b6103396004803603810190610334919061327b565b610d61565b60405161034691906132a8565b60405180910390f35b610369600480360381019061036491906132ca565b610dfb565b005b6103856004803603810190610380919061330a565b610e1d565b005b6103a1600480360381019061039c91906132ca565b610eca565b005b6103bd60048036038101906103b891906131fb565b610f45565b005b6103d960048036038101906103d49190612bf6565b610f65565b005b6103f560048036038101906103f09190612bf6565b610f7c565b6040516104029190612c64565b60405180910390f35b610425600480360381019061042091906131fb565b610f8e565b005b610441600480360381019061043c919061327b565b611014565b60405161044e9190613375565b60405180910390f35b610471600480360381019061046c9190613445565b6110ce565b60405161047e919061348e565b60405180910390f35b6104a1600480360381019061049c91906132ca565b6112b6565b6040516104ae9190612af3565b60405180910390f35b6104bf611321565b6040516104cc9190612b9e565b60405180910390f35b6104dd6113b3565b6040516104ea91906131e0565b60405180910390f35b61050d600480360381019061050891906134dc565b6113ba565b005b610529600480360381019061052491906135bd565b6113d0565b005b61054560048036038101906105409190612bf6565b6113ed565b6040516105529190612b9e565b60405180910390f35b61057560048036038101906105709190613640565b6113ff565b005b610591600480360381019061058c91906132ca565b61145e565b005b6105ad60048036038101906105a8919061369c565b611480565b005b6105c960048036038101906105c49190613640565b6114f3565b6040516105d69190612af3565b60405180910390f35b6105f960048036038101906105f491906136dc565b6115e7565b6040516106069190612af3565b60405180910390f35b600061061a8261167b565b9050919050565b6060600080546106309061374b565b80601f016020809104026020016040519081016040528092919081815260200182805461065c9061374b565b80156106a95780601f1061067e576101008083540402835291602001916106a9565b820191906000526020600020905b81548152906001019060200180831161068c57829003601f168201915b5050505050905090565b60006106be826116f5565b506106c88261177d565b9050919050565b6106e182826106dc6117ba565b6117c2565b5050565b60608060606000600a8054905067ffffffffffffffff81111561070b5761070a61301f565b5b6040519080825280602002602001820160405280156107395781602001602082028036833780820191505090505b5090506000600a8054905067ffffffffffffffff81111561075d5761075c61301f565b5b60405190808252806020026020018201604052801561078b5781602001602082028036833780820191505090505b5090506000600a8054905067ffffffffffffffff8111156107af576107ae61301f565b5b6040519080825280602002602001820160405280156107e257816020015b60608152602001906001900390816107cd5790505b50905060005b600a80549050811015610a0157600060096000600a848154811061080f5761080e61377c565b5b9060005260206000200160009054906101000a900473ffffffffffffffffffffffffffffffffffffffff1673ffffffffffffffffffffffffffffffffffffffff1673ffffffffffffffffffffffffffffffffffffffff168152602001908152602001600020604051806080016040529081600082015481526020016001820160009054906101000a900473ffffffffffffffffffffffffffffffffffffffff1673ffffffffffffffffffffffffffffffffffffffff1673ffffffffffffffffffffffffffffffffffffffff1681526020016002820180548060200260200160405190810160405280929190818152602001828054801561092e57602002820191906000526020600020905b81548152602001906001019080831161091a575b505050505081526020016003820160009054906101000a900460ff1615151515815250509050806000015185838151811061096c5761096b61377c565b5b60200260200101818152505080602001518483815181106109905761098f61377c565b5b602002602001019073ffffffffffffffffffffffffffffffffffffffff16908173ffffffffffffffffffffffffffffffffffffffff168152505080604001518383815181106109e2576109e161377c565b5b60200260200101819052505080806109f9906137da565b9150506107e8565b50828282955095509550505050909192565b60001515600960008473ffffffffffffffffffffffffffffffffffffffff1673ffffffffffffffffffffffffffffffffffffffff16815260200190815260200160002060030160009054906101000a900460ff16151514610aa9576040517f08c379a0000000000000000000000000000000000000000000000000000000008152600401610aa090613894565b60405180910390fd5b60405180608001604052808481526020018373ffffffffffffffffffffffffffffffffffffffff16815260200182815260200160011515815250600960008473ffffffffffffffffffffffffffffffffffffffff1673ffffffffffffffffffffffffffffffffffffffff1681526020019081526020016000206000820151816000015560208201518160010160006101000a81548173ffffffffffffffffffffffffffffffffffffffff021916908373ffffffffffffffffffffffffffffffffffffffff1602179055506040820151816002019080519060200190610b8f9291906129d5565b5060608201518160030160006101000a81548160ff021916908315150217905550905050600a829080600181540180825580915050600190039060005260206000200160009091909190916101000a81548173ffffffffffffffffffffffffffffffffffffffff021916908373ffffffffffffffffffffffffffffffffffffffff160217905550505050565b7f9e1688b53537f356172ce07f39e129155063957163c5f9462d4d9e55b228b06c81565b600073ffffffffffffffffffffffffffffffffffffffff168273ffffffffffffffffffffffffffffffffffffffff1603610cb15760006040517f64a0ae92000000000000000000000000000000000000000000000000000000008152600401610ca89190612c64565b60405180910390fd5b6000610cc58383610cc06117ba565b6117d4565b90508373ffffffffffffffffffffffffffffffffffffffff168173ffffffffffffffffffffffffffffffffffffffff1614610d3b578382826040517f64283d7b000000000000000000000000000000000000000000000000000000008152600401610d32939291906138b4565b60405180910390fd5b50505050565b600060076000838152602001908152602001600020600101549050919050565b6060600960008373ffffffffffffffffffffffffffffffffffffffff1673ffffffffffffffffffffffffffffffffffffffff168152602001908152602001600020600201805480602002602001604051908101604052809291908181526020018280548015610def57602002820191906000526020600020905b815481526020019060010190808311610ddb575b50505050509050919050565b610e0482610d41565b610e0d816119ee565b610e178383611a02565b50505050565b6000600960008473ffffffffffffffffffffffffffffffffffffffff1673ffffffffffffffffffffffffffffffffffffffff168152602001908152602001600020905060005b8251811015610ec45781600201838281518110610e8357610e8261377c565b5b602002602001015190806001815401808255809150506001900390600052602060002001600090919091909150558080610ebc906137da565b915050610e63565b50505050565b610ed26117ba565b73ffffffffffffffffffffffffffffffffffffffff168173ffffffffffffffffffffffffffffffffffffffff1614610f36576040517f6697b23200000000000000000000000000000000000000000000000000000000815260040160405180910390fd5b610f408282611af4565b505050565b610f60838383604051806020016040528060008152506113d0565b505050565b610f78600082610f736117ba565b6117d4565b5050565b6000610f87826116f5565b9050919050565b8273ffffffffffffffffffffffffffffffffffffffff16610fae82610f7c565b73ffffffffffffffffffffffffffffffffffffffff1614611004576040517f08c379a0000000000000000000000000000000000000000000000000000000008152600401610ffb90613937565b60405180910390fd5b61100f838383610f45565b505050565b60008073ffffffffffffffffffffffffffffffffffffffff168273ffffffffffffffffffffffffffffffffffffffff16036110875760006040517f89c62b6400000000000000000000000000000000000000000000000000000000815260040161107e9190612c64565b60405180910390fd5b600360008373ffffffffffffffffffffffffffffffffffffffff1673ffffffffffffffffffffffffffffffffffffffff168152602001908152602001600020549050919050565b60606000805b600a8054905081101561115057611129600a82815481106110f8576110f761377c565b5b9060005260206000200160009054906101000a900473ffffffffffffffffffffffffffffffffffffffff16856114f3565b1561113d578180611139906137da565b9250505b8080611148906137da565b9150506110d4565b5060008167ffffffffffffffff81111561116d5761116c61301f565b5b60405190808252806020026020018201604052801561119b5781602001602082028036833780820191505090505b5090506000805b600a805490508110156112aa576111f7600a82815481106111c6576111c561377c565b5b9060005260206000200160009054906101000a900473ffffffffffffffffffffffffffffffffffffffff16876114f3565b1561129757600a81815481106112105761120f61377c565b5b9060005260206000200160009054906101000a900473ffffffffffffffffffffffffffffffffffffffff1683838151811061124e5761124d61377c565b5b602002602001019073ffffffffffffffffffffffffffffffffffffffff16908173ffffffffffffffffffffffffffffffffffffffff16815250508180611293906137da565b9250505b80806112a2906137da565b9150506111a2565b50819350505050919050565b60006007600084815260200190815260200160002060000160008373ffffffffffffffffffffffffffffffffffffffff1673ffffffffffffffffffffffffffffffffffffffff16815260200190815260200160002060009054906101000a900460ff16905092915050565b6060600180546113309061374b565b80601f016020809104026020016040519081016040528092919081815260200182805461135c9061374b565b80156113a95780601f1061137e576101008083540402835291602001916113a9565b820191906000526020600020905b81548152906001019060200180831161138c57829003601f168201915b5050505050905090565b6000801b81565b6113cc6113c56117ba565b8383611be7565b5050565b6113db848484610c3f565b6113e784848484611d56565b50505050565b60606113f882611f0d565b9050919050565b7f9e1688b53537f356172ce07f39e129155063957163c5f9462d4d9e55b228b06c611429816119ee565b60006008600081548092919061143e906137da565b91905055905061144e8482612020565b611458818461203e565b50505050565b61146782610d41565b611470816119ee565b61147a8383611af4565b50505050565b6000600960008473ffffffffffffffffffffffffffffffffffffffff1673ffffffffffffffffffffffffffffffffffffffff168152602001908152602001600020905080600201829080600181540180825580915050600190039060005260206000200160009091909190915055505050565b600080600960008573ffffffffffffffffffffffffffffffffffffffff1673ffffffffffffffffffffffffffffffffffffffff168152602001908152602001600020905060005b81600201805490508110156115da578360405160200161155a9190613993565b604051602081830303815290604052805190602001208260020182815481106115865761158561377c565b5b90600052602060002001546040516020016115a191906139cb565b60405160208183030381529060405280519060200120036115c7576001925050506115e1565b80806115d2906137da565b91505061153a565b5060009150505b92915050565b6000600560008473ffffffffffffffffffffffffffffffffffffffff1673ffffffffffffffffffffffffffffffffffffffff16815260200190815260200160002060008373ffffffffffffffffffffffffffffffffffffffff1673ffffffffffffffffffffffffffffffffffffffff16815260200190815260200160002060009054906101000a900460ff16905092915050565b60007f7965db0b000000000000000000000000000000000000000000000000000000007bffffffffffffffffffffffffffffffffffffffffffffffffffffffff1916827bffffffffffffffffffffffffffffffffffffffffffffffffffffffff191614806116ee57506116ed8261209a565b5b9050919050565b600080611701836120fb565b9050600073ffffffffffffffffffffffffffffffffffffffff168173ffffffffffffffffffffffffffffffffffffffff160361177457826040517f7e27328900000000000000000000000000000000000000000000000000000000815260040161176b9190613375565b60405180910390fd5b80915050919050565b60006004600083815260200190815260200160002060009054906101000a900473ffffffffffffffffffffffffffffffffffffffff169050919050565b600033905090565b6117cf8383836001612138565b505050565b6000806117e0846120fb565b9050600073ffffffffffffffffffffffffffffffffffffffff168373ffffffffffffffffffffffffffffffffffffffff1614611822576118218184866122fd565b5b600073ffffffffffffffffffffffffffffffffffffffff168173ffffffffffffffffffffffffffffffffffffffff16146118b357611864600085600080612138565b6001600360008373ffffffffffffffffffffffffffffffffffffffff1673ffffffffffffffffffffffffffffffffffffffff168152602001908152602001600020600082825403925050819055505b600073ffffffffffffffffffffffffffffffffffffffff168573ffffffffffffffffffffffffffffffffffffffff1614611936576001600360008773ffffffffffffffffffffffffffffffffffffffff1673ffffffffffffffffffffffffffffffffffffffff168152602001908152602001600020600082825401925050819055505b846002600086815260200190815260200160002060006101000a81548173ffffffffffffffffffffffffffffffffffffffff021916908373ffffffffffffffffffffffffffffffffffffffff160217905550838573ffffffffffffffffffffffffffffffffffffffff168273ffffffffffffffffffffffffffffffffffffffff167fddf252ad1be2c89b69c2b068fc378daa952ba7f163c4a11628f55a4df523b3ef60405160405180910390a4809150509392505050565b6119ff816119fa6117ba565b6123c1565b50565b6000611a0e83836112b6565b611ae95760016007600085815260200190815260200160002060000160008473ffffffffffffffffffffffffffffffffffffffff1673ffffffffffffffffffffffffffffffffffffffff16815260200190815260200160002060006101000a81548160ff021916908315150217905550611a866117ba565b73ffffffffffffffffffffffffffffffffffffffff168273ffffffffffffffffffffffffffffffffffffffff16847f2f8788117e7eff1d82e926ec794901d17c78024a50270940304540a733656f0d60405160405180910390a460019050611aee565b600090505b92915050565b6000611b0083836112b6565b15611bdc5760006007600085815260200190815260200160002060000160008473ffffffffffffffffffffffffffffffffffffffff1673ffffffffffffffffffffffffffffffffffffffff16815260200190815260200160002060006101000a81548160ff021916908315150217905550611b796117ba565b73ffffffffffffffffffffffffffffffffffffffff168273ffffffffffffffffffffffffffffffffffffffff16847ff6391f5c32d9c69d2a47ea670b442974b53935d1edc7fd64eb21e047a839171b60405160405180910390a460019050611be1565b600090505b92915050565b600073ffffffffffffffffffffffffffffffffffffffff168273ffffffffffffffffffffffffffffffffffffffff1603611c5857816040517f5b08ba18000000000000000000000000000000000000000000000000000000008152600401611c4f9190612c64565b60405180910390fd5b80600560008573ffffffffffffffffffffffffffffffffffffffff1673ffffffffffffffffffffffffffffffffffffffff16815260200190815260200160002060008473ffffffffffffffffffffffffffffffffffffffff1673ffffffffffffffffffffffffffffffffffffffff16815260200190815260200160002060006101000a81548160ff0219169083151502179055508173ffffffffffffffffffffffffffffffffffffffff168373ffffffffffffffffffffffffffffffffffffffff167f17307eab39ab6107e8899845ad3d59bd9653f200f220920489ca2b5937696c3183604051611d499190612af3565b60405180910390a3505050565b60008373ffffffffffffffffffffffffffffffffffffffff163b1115611f07578273ffffffffffffffffffffffffffffffffffffffff1663150b7a02611d9a6117ba565b8685856040518563ffffffff1660e01b8152600401611dbc9493929190613a3b565b6020604051808303816000875af1925050508015611df857506040513d601f19601f82011682018060405250810190611df59190613a9c565b60015b611e7c573d8060008114611e28576040519150601f19603f3d011682016040523d82523d6000602084013e611e2d565b606091505b506000815103611e7457836040517f64a0ae92000000000000000000000000000000000000000000000000000000008152600401611e6b9190612c64565b60405180910390fd5b805181602001fd5b63150b7a0260e01b7bffffffffffffffffffffffffffffffffffffffffffffffffffffffff1916817bffffffffffffffffffffffffffffffffffffffffffffffffffffffff191614611f0557836040517f64a0ae92000000000000000000000000000000000000000000000000000000008152600401611efc9190612c64565b60405180910390fd5b505b50505050565b6060611f18826116f5565b506000600660008481526020019081526020016000208054611f399061374b565b80601f0160208091040260200160405190810160405280929190818152602001828054611f659061374b565b8015611fb25780601f10611f8757610100808354040283529160200191611fb2565b820191906000526020600020905b815481529060010190602001808311611f9557829003601f168201915b505050505090506000611fc3612412565b90506000815103611fd857819250505061201b565b60008251111561200d578082604051602001611ff5929190613ac9565b6040516020818303038152906040529250505061201b565b61201684612429565b925050505b919050565b61203a828260405180602001604052806000815250612492565b5050565b8060066000848152602001908152602001600020908161205e9190613c99565b507ff8e1a15aba9398e019f0b49df1a4fde98ee17ae345cb5f6b5e2c27f5033e8ce78260405161208e9190613375565b60405180910390a15050565b6000634906490660e01b7bffffffffffffffffffffffffffffffffffffffffffffffffffffffff1916827bffffffffffffffffffffffffffffffffffffffffffffffffffffffff191614806120f457506120f3826124ae565b5b9050919050565b60006002600083815260200190815260200160002060009054906101000a900473ffffffffffffffffffffffffffffffffffffffff169050919050565b80806121715750600073ffffffffffffffffffffffffffffffffffffffff168273ffffffffffffffffffffffffffffffffffffffff1614155b156122a5576000612181846116f5565b9050600073ffffffffffffffffffffffffffffffffffffffff168373ffffffffffffffffffffffffffffffffffffffff16141580156121ec57508273ffffffffffffffffffffffffffffffffffffffff168173ffffffffffffffffffffffffffffffffffffffff1614155b80156121ff57506121fd81846115e7565b155b1561224157826040517fa9fbf51f0000000000000000000000000000000000000000000000000000000081526004016122389190612c64565b60405180910390fd5b81156122a357838573ffffffffffffffffffffffffffffffffffffffff168273ffffffffffffffffffffffffffffffffffffffff167f8c5be1e5ebec7d5bd14f71427d1e84f3dd0314c0f7b2291e5b200ac8c7c3b92560405160405180910390a45b505b836004600085815260200190815260200160002060006101000a81548173ffffffffffffffffffffffffffffffffffffffff021916908373ffffffffffffffffffffffffffffffffffffffff16021790555050505050565b612308838383612590565b6123bc57600073ffffffffffffffffffffffffffffffffffffffff168373ffffffffffffffffffffffffffffffffffffffff160361237d57806040517f7e2732890000000000000000000000000000000000000000000000000000000081526004016123749190613375565b60405180910390fd5b81816040517f177e802f0000000000000000000000000000000000000000000000000000000081526004016123b3929190613d6b565b60405180910390fd5b505050565b6123cb82826112b6565b61240e5780826040517fe2517d3f000000000000000000000000000000000000000000000000000000008152600401612405929190613d94565b60405180910390fd5b5050565b606060405180602001604052806000815250905090565b6060612434826116f5565b50600061243f612412565b9050600081511161245f576040518060200160405280600081525061248a565b8061246984612651565b60405160200161247a929190613ac9565b6040516020818303038152906040525b915050919050565b61249c838361271f565b6124a96000848484611d56565b505050565b60007f80ac58cd000000000000000000000000000000000000000000000000000000007bffffffffffffffffffffffffffffffffffffffffffffffffffffffff1916827bffffffffffffffffffffffffffffffffffffffffffffffffffffffff1916148061257957507f5b5e139f000000000000000000000000000000000000000000000000000000007bffffffffffffffffffffffffffffffffffffffffffffffffffffffff1916827bffffffffffffffffffffffffffffffffffffffffffffffffffffffff1916145b80612589575061258882612818565b5b9050919050565b60008073ffffffffffffffffffffffffffffffffffffffff168373ffffffffffffffffffffffffffffffffffffffff161415801561264857508273ffffffffffffffffffffffffffffffffffffffff168473ffffffffffffffffffffffffffffffffffffffff161480612609575061260884846115e7565b5b8061264757508273ffffffffffffffffffffffffffffffffffffffff1661262f8361177d565b73ffffffffffffffffffffffffffffffffffffffff16145b5b90509392505050565b60606000600161266084612882565b01905060008167ffffffffffffffff81111561267f5761267e61301f565b5b6040519080825280601f01601f1916602001820160405280156126b15781602001600182028036833780820191505090505b509050600082602001820190505b600115612714578080600190039150507f3031323334353637383961626364656600000000000000000000000000000000600a86061a8153600a858161270857612707613dbd565b5b049450600085036126bf575b819350505050919050565b600073ffffffffffffffffffffffffffffffffffffffff168273ffffffffffffffffffffffffffffffffffffffff16036127915760006040517f64a0ae920000000000000000000000000000000000000000000000000000000081526004016127889190612c64565b60405180910390fd5b600061279f838360006117d4565b9050600073ffffffffffffffffffffffffffffffffffffffff168173ffffffffffffffffffffffffffffffffffffffff16146128135760006040517f73c6ac6e00000000000000000000000000000000000000000000000000000000815260040161280a9190612c64565b60405180910390fd5b505050565b60007f01ffc9a7000000000000000000000000000000000000000000000000000000007bffffffffffffffffffffffffffffffffffffffffffffffffffffffff1916827bffffffffffffffffffffffffffffffffffffffffffffffffffffffff1916149050919050565b600080600090507a184f03e93ff9f4daa797ed6e38ed64bf6a1f01000000000000000083106128e0577a184f03e93ff9f4daa797ed6e38ed64bf6a1f01000000000000000083816128d6576128d5613dbd565b5b0492506040810190505b6d04ee2d6d415b85acef8100000000831061291d576d04ee2d6d415b85acef8100000000838161291357612912613dbd565b5b0492506020810190505b662386f26fc10000831061294c57662386f26fc10000838161294257612941613dbd565b5b0492506010810190505b6305f5e1008310612975576305f5e100838161296b5761296a613dbd565b5b0492506008810190505b612710831061299a5761271083816129905761298f613dbd565b5b0492506004810190505b606483106129bd57606483816129b3576129b2613dbd565b5b0492506002810190505b600a83106129cc576001810190505b80915050919050565b828054828255906000526020600020908101928215612a11579160200282015b82811115612a105782518255916020019190600101906129f5565b5b509050612a1e9190612a22565b5090565b5b80821115612a3b576000816000905550600101612a23565b5090565b6000604051905090565b600080fd5b600080fd5b60007fffffffff0000000000000000000000000000000000000000000000000000000082169050919050565b612a8881612a53565b8114612a9357600080fd5b50565b600081359050612aa581612a7f565b92915050565b600060208284031215612ac157612ac0612a49565b5b6000612acf84828501612a96565b91505092915050565b60008115159050919050565b612aed81612ad8565b82525050565b6000602082019050612b086000830184612ae4565b92915050565b600081519050919050565b600082825260208201905092915050565b60005b83811015612b48578082015181840152602081019050612b2d565b60008484015250505050565b6000601f19601f8301169050919050565b6000612b7082612b0e565b612b7a8185612b19565b9350612b8a818560208601612b2a565b612b9381612b54565b840191505092915050565b60006020820190508181036000830152612bb88184612b65565b905092915050565b6000819050919050565b612bd381612bc0565b8114612bde57600080fd5b50565b600081359050612bf081612bca565b92915050565b600060208284031215612c0c57612c0b612a49565b5b6000612c1a84828501612be1565b91505092915050565b600073ffffffffffffffffffffffffffffffffffffffff82169050919050565b6000612c4e82612c23565b9050919050565b612c5e81612c43565b82525050565b6000602082019050612c796000830184612c55565b92915050565b612c8881612c43565b8114612c9357600080fd5b50565b600081359050612ca581612c7f565b92915050565b60008060408385031215612cc257612cc1612a49565b5b6000612cd085828601612c96565b9250506020612ce185828601612be1565b9150509250929050565b600081519050919050565b600082825260208201905092915050565b6000819050602082019050919050565b6000819050919050565b612d2a81612d17565b82525050565b6000612d3c8383612d21565b60208301905092915050565b6000602082019050919050565b6000612d6082612ceb565b612d6a8185612cf6565b9350612d7583612d07565b8060005b83811015612da6578151612d8d8882612d30565b9750612d9883612d48565b925050600181019050612d79565b5085935050505092915050565b600081519050919050565b600082825260208201905092915050565b6000819050602082019050919050565b612de881612c43565b82525050565b6000612dfa8383612ddf565b60208301905092915050565b6000602082019050919050565b6000612e1e82612db3565b612e288185612dbe565b9350612e3383612dcf565b8060005b83811015612e64578151612e4b8882612dee565b9750612e5683612e06565b925050600181019050612e37565b5085935050505092915050565b600081519050919050565b600082825260208201905092915050565b6000819050602082019050919050565b600082825260208201905092915050565b6000612eb982612ceb565b612ec38185612e9d565b9350612ece83612d07565b8060005b83811015612eff578151612ee68882612d30565b9750612ef183612d48565b925050600181019050612ed2565b5085935050505092915050565b6000612f188383612eae565b905092915050565b6000602082019050919050565b6000612f3882612e71565b612f428185612e7c565b935083602082028501612f5485612e8d565b8060005b85811015612f905784840389528151612f718582612f0c565b9450612f7c83612f20565b925060208a01995050600181019050612f58565b50829750879550505050505092915050565b60006060820190508181036000830152612fbc8186612d55565b90508181036020830152612fd08185612e13565b90508181036040830152612fe48184612f2d565b9050949350505050565b612ff781612d17565b811461300257600080fd5b50565b60008135905061301481612fee565b92915050565b600080fd5b7f4e487b7100000000000000000000000000000000000000000000000000000000600052604160045260246000fd5b61305782612b54565b810181811067ffffffffffffffff821117156130765761307561301f565b5b80604052505050565b6000613089612a3f565b9050613095828261304e565b919050565b600067ffffffffffffffff8211156130b5576130b461301f565b5b602082029050602081019050919050565b600080fd5b60006130de6130d98461309a565b61307f565b90508083825260208201905060208402830185811115613101576131006130c6565b5b835b8181101561312a57806131168882613005565b845260208401935050602081019050613103565b5050509392505050565b600082601f8301126131495761314861301a565b5b81356131598482602086016130cb565b91505092915050565b60008060006060848603121561317b5761317a612a49565b5b600061318986828701613005565b935050602061319a86828701612c96565b925050604084013567ffffffffffffffff8111156131bb576131ba612a4e565b5b6131c786828701613134565b9150509250925092565b6131da81612d17565b82525050565b60006020820190506131f560008301846131d1565b92915050565b60008060006060848603121561321457613213612a49565b5b600061322286828701612c96565b935050602061323386828701612c96565b925050604061324486828701612be1565b9150509250925092565b60006020828403121561326457613263612a49565b5b600061327284828501613005565b91505092915050565b60006020828403121561329157613290612a49565b5b600061329f84828501612c96565b91505092915050565b600060208201905081810360008301526132c28184612d55565b905092915050565b600080604083850312156132e1576132e0612a49565b5b60006132ef85828601613005565b925050602061330085828601612c96565b9150509250929050565b6000806040838503121561332157613320612a49565b5b600061332f85828601612c96565b925050602083013567ffffffffffffffff8111156133505761334f612a4e565b5b61335c85828601613134565b9150509250929050565b61336f81612bc0565b82525050565b600060208201905061338a6000830184613366565b92915050565b600080fd5b600067ffffffffffffffff8211156133b0576133af61301f565b5b6133b982612b54565b9050602081019050919050565b82818337600083830152505050565b60006133e86133e384613395565b61307f565b90508281526020810184848401111561340457613403613390565b5b61340f8482856133c6565b509392505050565b600082601f83011261342c5761342b61301a565b5b813561343c8482602086016133d5565b91505092915050565b60006020828403121561345b5761345a612a49565b5b600082013567ffffffffffffffff81111561347957613478612a4e565b5b61348584828501613417565b91505092915050565b600060208201905081810360008301526134a88184612e13565b905092915050565b6134b981612ad8565b81146134c457600080fd5b50565b6000813590506134d6816134b0565b92915050565b600080604083850312156134f3576134f2612a49565b5b600061350185828601612c96565b9250506020613512858286016134c7565b9150509250929050565b600067ffffffffffffffff8211156135375761353661301f565b5b61354082612b54565b9050602081019050919050565b600061356061355b8461351c565b61307f565b90508281526020810184848401111561357c5761357b613390565b5b6135878482856133c6565b509392505050565b600082601f8301126135a4576135a361301a565b5b81356135b484826020860161354d565b91505092915050565b600080600080608085870312156135d7576135d6612a49565b5b60006135e587828801612c96565b94505060206135f687828801612c96565b935050604061360787828801612be1565b925050606085013567ffffffffffffffff81111561362857613627612a4e565b5b6136348782880161358f565b91505092959194509250565b6000806040838503121561365757613656612a49565b5b600061366585828601612c96565b925050602083013567ffffffffffffffff81111561368657613685612a4e565b5b61369285828601613417565b9150509250929050565b600080604083850312156136b3576136b2612a49565b5b60006136c185828601612c96565b92505060206136d285828601613005565b9150509250929050565b600080604083850312156136f3576136f2612a49565b5b600061370185828601612c96565b925050602061371285828601612c96565b9150509250929050565b7f4e487b7100000000000000000000000000000000000000000000000000000000600052602260045260246000fd5b6000600282049050600182168061376357607f821691505b6020821081036137765761377561371c565b5b50919050565b7f4e487b7100000000000000000000000000000000000000000000000000000000600052603260045260246000fd5b7f4e487b7100000000000000000000000000000000000000000000000000000000600052601160045260246000fd5b60006137e582612bc0565b91507fffffffffffffffffffffffffffffffffffffffffffffffffffffffffffffffff8203613817576138166137ab565b5b600182019050919050565b7f57616c6c6574206164647265737320697320616c72656164792061737369676e60008201527f6564000000000000000000000000000000000000000000000000000000000000602082015250565b600061387e602283612b19565b915061388982613822565b604082019050919050565b600060208201905081810360008301526138ad81613871565b9050919050565b60006060820190506138c96000830186612c55565b6138d66020830185613366565b6138e36040830184612c55565b949350505050565b7f546f6b656e206e6f74206f776e65642062792074686520616464726573730000600082015250565b6000613921601e83612b19565b915061392c826138eb565b602082019050919050565b6000602082019050818103600083015261395081613914565b9050919050565b600081905092915050565b600061396d82612b0e565b6139778185613957565b9350613987818560208601612b2a565b80840191505092915050565b600061399f8284613962565b915081905092915050565b6000819050919050565b6139c56139c082612d17565b6139aa565b82525050565b60006139d782846139b4565b60208201915081905092915050565b600081519050919050565b600082825260208201905092915050565b6000613a0d826139e6565b613a1781856139f1565b9350613a27818560208601612b2a565b613a3081612b54565b840191505092915050565b6000608082019050613a506000830187612c55565b613a5d6020830186612c55565b613a6a6040830185613366565b8181036060830152613a7c8184613a02565b905095945050505050565b600081519050613a9681612a7f565b92915050565b600060208284031215613ab257613ab1612a49565b5b6000613ac084828501613a87565b91505092915050565b6000613ad58285613962565b9150613ae18284613962565b91508190509392505050565b60008190508160005260206000209050919050565b60006020601f8301049050919050565b600082821b905092915050565b600060088302613b4f7fffffffffffffffffffffffffffffffffffffffffffffffffffffffffffffffff82613b12565b613b598683613b12565b95508019841693508086168417925050509392505050565b6000819050919050565b6000613b96613b91613b8c84612bc0565b613b71565b612bc0565b9050919050565b6000819050919050565b613bb083613b7b565b613bc4613bbc82613b9d565b848454613b1f565b825550505050565b600090565b613bd9613bcc565b613be4818484613ba7565b505050565b5b81811015613c0857613bfd600082613bd1565b600181019050613bea565b5050565b601f821115613c4d57613c1e81613aed565b613c2784613b02565b81016020851015613c36578190505b613c4a613c4285613b02565b830182613be9565b50505b505050565b600082821c905092915050565b6000613c7060001984600802613c52565b1980831691505092915050565b6000613c898383613c5f565b9150826002028217905092915050565b613ca282612b0e565b67ffffffffffffffff811115613cbb57613cba61301f565b5b613cc5825461374b565b613cd0828285613c0c565b600060209050601f831160018114613d035760008415613cf1578287015190505b613cfb8582613c7d565b865550613d63565b601f198416613d1186613aed565b60005b82811015613d3957848901518255600182019150602085019450602081019050613d14565b86831015613d565784890151613d52601f891682613c5f565b8355505b6001600288020188555050505b505050505050565b6000604082019050613d806000830185612c55565b613d8d6020830184613366565b9392505050565b6000604082019050613da96000830185612c55565b613db660208301846131d1565b9392505050565b7f4e487b7100000000000000000000000000000000000000000000000000000000600052601260045260246000fdfea2646970667358221220131ac192b6bbb00a823075257b039107e5b885d379e9a7ff28eef44aa804585b64736f6c63430008140033",
  "linkReferences": {},
  "deployedLinkReferences": {}
}