{
  "_format": "hh-sol-artifact-1",
  "contractName": "ClearOriginNetwork",
  "sourceName": "contracts/ClearOriginNetwork.sol",
  "abi": [
    {
      "inputs": [
        {
          "internalType": "address",
          "name": "defaultAdmin",
          "type": "address"
        }
      ],
      "stateMutability": "nonpayable",
      "type": "constructor"
    },
    {
      "inputs": [],
      "name": "AccessControlBadConfirmation",
      "type": "error"
    },
    {
      "inputs": [
        {
          "internalType": "address",
          "name": "account",
          "type": "address"
        },
        {
          "internalType": "bytes32",
          "name": "neededRole",
          "type": "bytes32"
        }
      ],
      "name": "AccessControlUnauthorizedAccount",
      "type": "error"
    },
    {
      "inputs": [],
      "name": "ERC721EnumerableForbiddenBatchMint",
      "type": "error"
    },
    {
      "inputs": [
        {
          "internalType": "address",
          "name": "sender",
          "type": "address"
        },
        {
          "internalType": "uint256",
          "name": "tokenId",
          "type": "uint256"
        },
        {
          "internalType": "address",
          "name": "owner",
          "type": "address"
        }
      ],
      "name": "ERC721IncorrectOwner",
      "type": "error"
    },
    {
      "inputs": [
        {
          "internalType": "address",
          "name": "operator",
          "type": "address"
        },
        {
          "internalType": "uint256",
          "name": "tokenId",
          "type": "uint256"
        }
      ],
      "name": "ERC721InsufficientApproval",
      "type": "error"
    },
    {
      "inputs": [
        {
          "internalType": "address",
          "name": "approver",
          "type": "address"
        }
      ],
      "name": "ERC721InvalidApprover",
      "type": "error"
    },
    {
      "inputs": [
        {
          "internalType": "address",
          "name": "operator",
          "type": "address"
        }
      ],
      "name": "ERC721InvalidOperator",
      "type": "error"
    },
    {
      "inputs": [
        {
          "internalType": "address",
          "name": "owner",
          "type": "address"
        }
      ],
      "name": "ERC721InvalidOwner",
      "type": "error"
    },
    {
      "inputs": [
        {
          "internalType": "address",
          "name": "receiver",
          "type": "address"
        }
      ],
      "name": "ERC721InvalidReceiver",
      "type": "error"
    },
    {
      "inputs": [
        {
          "internalType": "address",
          "name": "sender",
          "type": "address"
        }
      ],
      "name": "ERC721InvalidSender",
      "type": "error"
    },
    {
      "inputs": [
        {
          "internalType": "uint256",
          "name": "tokenId",
          "type": "uint256"
        }
      ],
      "name": "ERC721NonexistentToken",
      "type": "error"
    },
    {
      "inputs": [
        {
          "internalType": "address",
          "name": "owner",
          "type": "address"
        },
        {
          "internalType": "uint256",
          "name": "index",
          "type": "uint256"
        }
      ],
      "name": "ERC721OutOfBoundsIndex",
      "type": "error"
    },
    {
      "anonymous": false,
      "inputs": [
        {
          "indexed": true,
          "internalType": "address",
          "name": "owner",
          "type": "address"
        },
        {
          "indexed": true,
          "internalType": "address",
          "name": "approved",
          "type": "address"
        },
        {
          "indexed": true,
          "internalType": "uint256",
          "name": "tokenId",
          "type": "uint256"
        }
      ],
      "name": "Approval",
      "type": "event"
    },
    {
      "anonymous": false,
      "inputs": [
        {
          "indexed": true,
          "internalType": "address",
          "name": "owner",
          "type": "address"
        },
        {
          "indexed": true,
          "internalType": "address",
          "name": "operator",
          "type": "address"
        },
        {
          "indexed": false,
          "internalType": "bool",
          "name": "approved",
          "type": "bool"
        }
      ],
      "name": "ApprovalForAll",
      "type": "event"
    },
    {
      "anonymous": false,
      "inputs": [
        {
          "indexed": true,
          "internalType": "bytes32",
          "name": "role",
          "type": "bytes32"
        },
        {
          "indexed": true,
          "internalType": "bytes32",
          "name": "previousAdminRole",
          "type": "bytes32"
        },
        {
          "indexed": true,
          "internalType": "bytes32",
          "name": "newAdminRole",
          "type": "bytes32"
        }
      ],
      "name": "RoleAdminChanged",
      "type": "event"
    },
    {
      "anonymous": false,
      "inputs": [
        {
          "indexed": true,
          "internalType": "bytes32",
          "name": "role",
          "type": "bytes32"
        },
        {
          "indexed": true,
          "internalType": "address",
          "name": "account",
          "type": "address"
        },
        {
          "indexed": true,
          "internalType": "address",
          "name": "sender",
          "type": "address"
        }
      ],
      "name": "RoleGranted",
      "type": "event"
    },
    {
      "anonymous": false,
      "inputs": [
        {
          "indexed": true,
          "internalType": "bytes32",
          "name": "role",
          "type": "bytes32"
        },
        {
          "indexed": true,
          "internalType": "address",
          "name": "account",
          "type": "address"
        },
        {
          "indexed": true,
          "internalType": "address",
          "name": "sender",
          "type": "address"
        }
      ],
      "name": "RoleRevoked",
      "type": "event"
    },
    {
      "anonymous": false,
      "inputs": [
        {
          "indexed": true,
          "internalType": "address",
          "name": "from",
          "type": "address"
        },
        {
          "indexed": true,
          "internalType": "address",
          "name": "to",
          "type": "address"
        },
        {
          "indexed": true,
          "internalType": "uint256",
          "name": "tokenId",
          "type": "uint256"
        }
      ],
      "name": "Transfer",
      "type": "event"
    },
    {
      "inputs": [],
      "name": "COMPANY_ROLE",
      "outputs": [
        {
          "internalType": "bytes32",
          "name": "",
          "type": "bytes32"
        }
      ],
      "stateMutability": "view",
      "type": "function"
    },
    {
      "inputs": [],
      "name": "DEFAULT_ADMIN_ROLE",
      "outputs": [
        {
          "internalType": "bytes32",
          "name": "",
          "type": "bytes32"
        }
      ],
      "stateMutability": "view",
      "type": "function"
    },
    {
      "inputs": [
        {
          "internalType": "bytes32",
          "name": "_companyName",
          "type": "bytes32"
        },
        {
          "internalType": "address",
          "name": "_companyAddress",
          "type": "address"
        },
        {
          "internalType": "bytes32[]",
          "name": "_companyProducts",
          "type": "bytes32[]"
        }
      ],
      "name": "addCompany",
      "outputs": [],
      "stateMutability": "nonpayable",
      "type": "function"
    },
    {
      "inputs": [
        {
          "internalType": "address",
          "name": "_companyAddress",
          "type": "address"
        },
        {
          "internalType": "bytes32",
          "name": "_product",
          "type": "bytes32"
        }
      ],
      "name": "addProduct",
      "outputs": [],
      "stateMutability": "nonpayable",
      "type": "function"
    },
    {
      "inputs": [
        {
          "internalType": "address",
          "name": "_companyAddress",
          "type": "address"
        },
        {
          "internalType": "bytes32[]",
          "name": "_products",
          "type": "bytes32[]"
        }
      ],
      "name": "addProducts",
      "outputs": [],
      "stateMutability": "nonpayable",
      "type": "function"
    },
    {
      "inputs": [
        {
          "internalType": "address",
          "name": "to",
          "type": "address"
        },
        {
          "internalType": "uint256",
          "name": "tokenId",
          "type": "uint256"
        }
      ],
      "name": "approve",
      "outputs": [],
      "stateMutability": "nonpayable",
      "type": "function"
    },
    {
      "inputs": [
        {
          "internalType": "address",
          "name": "owner",
          "type": "address"
        }
      ],
      "name": "balanceOf",
      "outputs": [
        {
          "internalType": "uint256",
          "name": "",
          "type": "uint256"
        }
      ],
      "stateMutability": "view",
      "type": "function"
    },
    {
      "inputs": [
        {
          "internalType": "uint256",
          "name": "tokenId",
          "type": "uint256"
        }
      ],
      "name": "burn",
      "outputs": [],
      "stateMutability": "nonpayable",
      "type": "function"
    },
    {
      "inputs": [],
      "name": "getAdmins",
      "outputs": [
        {
          "internalType": "address[]",
          "name": "",
          "type": "address[]"
        }
      ],
      "stateMutability": "view",
      "type": "function"
    },
    {
      "inputs": [
        {
          "internalType": "uint256",
          "name": "tokenId",
          "type": "uint256"
        }
      ],
      "name": "getApproved",
      "outputs": [
        {
          "internalType": "address",
          "name": "",
          "type": "address"
        }
      ],
      "stateMutability": "view",
      "type": "function"
    },
    {
      "inputs": [],
      "name": "getCompanies",
      "outputs": [
        {
          "internalType": "bytes32[]",
          "name": "",
          "type": "bytes32[]"
        },
        {
          "internalType": "address[]",
          "name": "",
          "type": "address[]"
        },
        {
          "internalType": "bytes32[][]",
          "name": "",
          "type": "bytes32[][]"
        }
      ],
      "stateMutability": "view",
      "type": "function"
    },
    {
      "inputs": [
        {
          "internalType": "string",
          "name": "_product",
          "type": "string"
        }
      ],
      "name": "getCompaniesWithProduct",
      "outputs": [
        {
          "internalType": "address[]",
          "name": "",
          "type": "address[]"
        }
      ],
      "stateMutability": "view",
      "type": "function"
    },
    {
      "inputs": [
        {
          "internalType": "address",
          "name": "companyAddress",
          "type": "address"
        }
      ],
      "name": "getCompany",
      "outputs": [
        {
          "internalType": "bytes32",
          "name": "",
          "type": "bytes32"
        },
        {
          "internalType": "bytes32[]",
          "name": "",
          "type": "bytes32[]"
        }
      ],
      "stateMutability": "view",
      "type": "function"
    },
    {
      "inputs": [
        {
          "internalType": "address",
          "name": "_companyAddress",
          "type": "address"
        }
      ],
      "name": "getCompanyProducts",
      "outputs": [
        {
          "internalType": "bytes32[]",
          "name": "",
          "type": "bytes32[]"
        }
      ],
      "stateMutability": "view",
      "type": "function"
    },
    {
      "inputs": [
        {
          "internalType": "uint256",
          "name": "tokenId",
          "type": "uint256"
        }
      ],
      "name": "getDelivery",
      "outputs": [
        {
          "internalType": "bytes32[]",
          "name": "",
          "type": "bytes32[]"
        },
        {
          "internalType": "uint8[]",
          "name": "",
          "type": "uint8[]"
        }
      ],
      "stateMutability": "view",
      "type": "function"
    },
    {
      "inputs": [
        {
          "internalType": "bytes32",
          "name": "role",
          "type": "bytes32"
        }
      ],
      "name": "getRoleAdmin",
      "outputs": [
        {
          "internalType": "bytes32",
          "name": "",
          "type": "bytes32"
        }
      ],
      "stateMutability": "view",
      "type": "function"
    },
    {
      "inputs": [
        {
          "internalType": "bytes32",
          "name": "role",
          "type": "bytes32"
        },
        {
          "internalType": "address",
          "name": "account",
          "type": "address"
        }
      ],
      "name": "grantRole",
      "outputs": [],
      "stateMutability": "nonpayable",
      "type": "function"
    },
    {
      "inputs": [
        {
          "internalType": "address",
          "name": "_companyAddress",
          "type": "address"
        },
        {
          "internalType": "string",
          "name": "_product",
          "type": "string"
        }
      ],
      "name": "hasProduct",
      "outputs": [
        {
          "internalType": "bool",
          "name": "",
          "type": "bool"
        }
      ],
      "stateMutability": "view",
      "type": "function"
    },
    {
      "inputs": [
        {
          "internalType": "bytes32",
          "name": "role",
          "type": "bytes32"
        },
        {
          "internalType": "address",
          "name": "account",
          "type": "address"
        }
      ],
      "name": "hasRole",
      "outputs": [
        {
          "internalType": "bool",
          "name": "",
          "type": "bool"
        }
      ],
      "stateMutability": "view",
      "type": "function"
    },
    {
      "inputs": [
        {
          "internalType": "address",
          "name": "owner",
          "type": "address"
        },
        {
          "internalType": "address",
          "name": "operator",
          "type": "address"
        }
      ],
      "name": "isApprovedForAll",
      "outputs": [
        {
          "internalType": "bool",
          "name": "",
          "type": "bool"
        }
      ],
      "stateMutability": "view",
      "type": "function"
    },
    {
      "inputs": [],
      "name": "name",
      "outputs": [
        {
          "internalType": "string",
          "name": "",
          "type": "string"
        }
      ],
      "stateMutability": "view",
      "type": "function"
    },
    {
      "inputs": [
        {
          "internalType": "uint256",
          "name": "tokenId",
          "type": "uint256"
        }
      ],
      "name": "ownerOf",
      "outputs": [
        {
          "internalType": "address",
          "name": "",
          "type": "address"
        }
      ],
      "stateMutability": "view",
      "type": "function"
    },
    {
      "inputs": [
        {
          "internalType": "bytes32",
          "name": "role",
          "type": "bytes32"
        },
        {
          "internalType": "address",
          "name": "callerConfirmation",
          "type": "address"
        }
      ],
      "name": "renounceRole",
      "outputs": [],
      "stateMutability": "nonpayable",
      "type": "function"
    },
    {
      "inputs": [
        {
          "internalType": "bytes32",
          "name": "role",
          "type": "bytes32"
        },
        {
          "internalType": "address",
          "name": "account",
          "type": "address"
        }
      ],
      "name": "revokeRole",
      "outputs": [],
      "stateMutability": "nonpayable",
      "type": "function"
    },
    {
      "inputs": [
        {
          "internalType": "bytes32[]",
          "name": "_deliveryProducts",
          "type": "bytes32[]"
        },
        {
          "internalType": "uint8[]",
          "name": "numberOfItems",
          "type": "uint8[]"
        }
      ],
      "name": "safeMint",
      "outputs": [],
      "stateMutability": "nonpayable",
      "type": "function"
    },
    {
      "inputs": [
        {
          "internalType": "address",
          "name": "from",
          "type": "address"
        },
        {
          "internalType": "address",
          "name": "to",
          "type": "address"
        },
        {
          "internalType": "uint256",
          "name": "tokenId",
          "type": "uint256"
        }
      ],
      "name": "safeTransferFrom",
      "outputs": [],
      "stateMutability": "nonpayable",
      "type": "function"
    },
    {
      "inputs": [
        {
          "internalType": "address",
          "name": "from",
          "type": "address"
        },
        {
          "internalType": "address",
          "name": "to",
          "type": "address"
        },
        {
          "internalType": "uint256",
          "name": "tokenId",
          "type": "uint256"
        },
        {
          "internalType": "bytes",
          "name": "data",
          "type": "bytes"
        }
      ],
      "name": "safeTransferFrom",
      "outputs": [],
      "stateMutability": "nonpayable",
      "type": "function"
    },
    {
      "inputs": [
        {
          "internalType": "address",
          "name": "operator",
          "type": "address"
        },
        {
          "internalType": "bool",
          "name": "approved",
          "type": "bool"
        }
      ],
      "name": "setApprovalForAll",
      "outputs": [],
      "stateMutability": "nonpayable",
      "type": "function"
    },
    {
      "inputs": [
        {
          "internalType": "bytes4",
          "name": "interfaceId",
          "type": "bytes4"
        }
      ],
      "name": "supportsInterface",
      "outputs": [
        {
          "internalType": "bool",
          "name": "",
          "type": "bool"
        }
      ],
      "stateMutability": "view",
      "type": "function"
    },
    {
      "inputs": [],
      "name": "symbol",
      "outputs": [
        {
          "internalType": "string",
          "name": "",
          "type": "string"
        }
      ],
      "stateMutability": "view",
      "type": "function"
    },
    {
      "inputs": [
        {
          "internalType": "uint256",
          "name": "index",
          "type": "uint256"
        }
      ],
      "name": "tokenByIndex",
      "outputs": [
        {
          "internalType": "uint256",
          "name": "",
          "type": "uint256"
        }
      ],
      "stateMutability": "view",
      "type": "function"
    },
    {
      "inputs": [
        {
          "internalType": "address",
          "name": "owner",
          "type": "address"
        },
        {
          "internalType": "uint256",
          "name": "index",
          "type": "uint256"
        }
      ],
      "name": "tokenOfOwnerByIndex",
      "outputs": [
        {
          "internalType": "uint256",
          "name": "",
          "type": "uint256"
        }
      ],
      "stateMutability": "view",
      "type": "function"
    },
    {
      "inputs": [
        {
          "internalType": "uint256",
          "name": "tokenId",
          "type": "uint256"
        }
      ],
      "name": "tokenURI",
      "outputs": [
        {
          "internalType": "string",
          "name": "",
          "type": "string"
        }
      ],
      "stateMutability": "view",
      "type": "function"
    },
    {
      "inputs": [],
      "name": "totalSupply",
      "outputs": [
        {
          "internalType": "uint256",
          "name": "",
          "type": "uint256"
        }
      ],
      "stateMutability": "view",
      "type": "function"
    },
    {
      "inputs": [
        {
          "internalType": "address",
          "name": "from",
          "type": "address"
        },
        {
          "internalType": "address",
          "name": "to",
          "type": "address"
        },
        {
          "internalType": "uint256",
          "name": "tokenId",
          "type": "uint256"
        }
      ],
      "name": "transferFrom",
      "outputs": [],
      "stateMutability": "nonpayable",
      "type": "function"
    },
    {
      "inputs": [
        {
          "internalType": "address",
          "name": "from",
          "type": "address"
        },
        {
          "internalType": "address",
          "name": "to",
          "type": "address"
        },
        {
          "internalType": "uint256",
          "name": "tokenId",
          "type": "uint256"
        }
      ],
      "name": "transferNFT",
      "outputs": [],
      "stateMutability": "nonpayable",
      "type": "function"
    }
  ],
  "bytecode": "0x60806040523480156200001157600080fd5b506040516200506e3803806200506e83398181016040528101906200003791906200032a565b6040518060400160405280601281526020017f436c6561724f726967696e4e6574776f726b00000000000000000000000000008152506040518060400160405280600381526020017f434f4e00000000000000000000000000000000000000000000000000000000008152508160009081620000b49190620005d6565b508060019081620000c69190620005d6565b505050620000de6000801b826200014960201b60201c565b50600c819080600181540180825580915050600190039060005260206000200160009091909190916101000a81548173ffffffffffffffffffffffffffffffffffffffff021916908373ffffffffffffffffffffffffffffffffffffffff16021790555050620006bd565b60006200015d83836200024d60201b60201c565b620002425760016006600085815260200190815260200160002060000160008473ffffffffffffffffffffffffffffffffffffffff1673ffffffffffffffffffffffffffffffffffffffff16815260200190815260200160002060006101000a81548160ff021916908315150217905550620001de620002b860201b60201c565b73ffffffffffffffffffffffffffffffffffffffff168273ffffffffffffffffffffffffffffffffffffffff16847f2f8788117e7eff1d82e926ec794901d17c78024a50270940304540a733656f0d60405160405180910390a46001905062000247565b600090505b92915050565b60006006600084815260200190815260200160002060000160008373ffffffffffffffffffffffffffffffffffffffff1673ffffffffffffffffffffffffffffffffffffffff16815260200190815260200160002060009054906101000a900460ff16905092915050565b600033905090565b600080fd5b600073ffffffffffffffffffffffffffffffffffffffff82169050919050565b6000620002f282620002c5565b9050919050565b6200030481620002e5565b81146200031057600080fd5b50565b6000815190506200032481620002f9565b92915050565b600060208284031215620003435762000342620002c0565b5b6000620003538482850162000313565b91505092915050565b600081519050919050565b7f4e487b7100000000000000000000000000000000000000000000000000000000600052604160045260246000fd5b7f4e487b7100000000000000000000000000000000000000000000000000000000600052602260045260246000fd5b60006002820490506001821680620003de57607f821691505b602082108103620003f457620003f362000396565b5b50919050565b60008190508160005260206000209050919050565b60006020601f8301049050919050565b600082821b905092915050565b6000600883026200045e7fffffffffffffffffffffffffffffffffffffffffffffffffffffffffffffffff826200041f565b6200046a86836200041f565b95508019841693508086168417925050509392505050565b6000819050919050565b6000819050919050565b6000620004b7620004b1620004ab8462000482565b6200048c565b62000482565b9050919050565b6000819050919050565b620004d38362000496565b620004eb620004e282620004be565b8484546200042c565b825550505050565b600090565b62000502620004f3565b6200050f818484620004c8565b505050565b5b8181101562000537576200052b600082620004f8565b60018101905062000515565b5050565b601f82111562000586576200055081620003fa565b6200055b846200040f565b810160208510156200056b578190505b620005836200057a856200040f565b83018262000514565b50505b505050565b600082821c905092915050565b6000620005ab600019846008026200058b565b1980831691505092915050565b6000620005c6838362000598565b9150826002028217905092915050565b620005e1826200035c565b67ffffffffffffffff811115620005fd57620005fc62000367565b5b620006098254620003c5565b620006168282856200053b565b600060209050601f8311600181146200064e576000841562000639578287015190505b620006458582620005b8565b865550620006b5565b601f1984166200065e86620003fa565b60005b82811015620006885784890151825560018201915060208501945060208101905062000661565b86831015620006a85784890151620006a4601f89168262000598565b8355505b6001600288020188555050505b505050505050565b6149a180620006cd6000396000f3fe608060405234801561001057600080fd5b506004361061021c5760003560e01c80634f6ccce711610125578063a217fddf116100ad578063d547741f1161007c578063d547741f14610686578063d58e7e72146106a2578063de8211a9146106be578063e845e5d8146106ef578063e985e9c51461071f5761021c565b8063a217fddf14610600578063a22cb4651461061e578063b88d4fde1461063a578063c87b56dd146106565761021c565b806369fcba8f116100f457806369fcba8f1461053657806370a08231146105525780637955aab91461058257806391d14854146105b257806395d89b41146105e25761021c565b80634f6ccce71461048957806362bc56e6146104b95780636352211e146104ea57806369e9cae11461051a5761021c565b8063248a9ca3116101a8578063316fd1b111610177578063316fd1b1146103fb57806331ae450b1461041757806336568abe1461043557806342842e0e1461045157806342966c681461046d5761021c565b8063248a9ca31461034f5780632eb6908d1461037f5780632f2ff15d146103af5780632f745c59146103cb5761021c565b80630c0b6691116101ef5780630c0b6691146102bb5780631435c3dc146102db57806318160ddd146102f75780631c9ee11a1461031557806323b872dd146103335761021c565b806301ffc9a71461022157806306fdde0314610251578063081812fc1461026f578063095ea7b31461029f575b600080fd5b61023b6004803603810190610236919061351a565b61074f565b6040516102489190613562565b60405180910390f35b610259610761565b604051610266919061360d565b60405180910390f35b61028960048036038101906102849190613665565b6107f3565b60405161029691906136d3565b60405180910390f35b6102b960048036038101906102b4919061371a565b61080f565b005b6102c3610825565b6040516102d293929190613a11565b60405180910390f35b6102f560048036038101906102f09190613bd1565b610b53565b005b6102ff610d94565b60405161030c9190613c4f565b60405180910390f35b61031d610da1565b60405161032a9190613c79565b60405180910390f35b61034d60048036038101906103489190613c94565b610dc5565b005b61036960048036038101906103649190613ce7565b610ec7565b6040516103769190613c79565b60405180910390f35b61039960048036038101906103949190613d14565b610ee7565b6040516103a69190613d41565b60405180910390f35b6103c960048036038101906103c49190613d63565b610f81565b005b6103e560048036038101906103e0919061371a565b610fa3565b6040516103f29190613c4f565b60405180910390f35b61041560048036038101906104109190613da3565b61104c565b005b61041f6110f9565b60405161042c9190613dff565b60405180910390f35b61044f600480360381019061044a9190613d63565b611187565b005b61046b60048036038101906104669190613c94565b611202565b005b61048760048036038101906104829190613665565b611222565b005b6104a3600480360381019061049e9190613665565b611239565b6040516104b09190613c4f565b60405180910390f35b6104d360048036038101906104ce9190613d14565b6112af565b6040516104e1929190613e21565b60405180910390f35b61050460048036038101906104ff9190613665565b61147e565b60405161051191906136d3565b60405180910390f35b610534600480360381019061052f9190613c94565b611490565b005b610550600480360381019061054b9190613f4d565b611516565b005b61056c60048036038101906105679190613d14565b611640565b6040516105799190613c4f565b60405180910390f35b61059c6004803603810190610597919061407a565b6116fa565b6040516105a99190613dff565b60405180910390f35b6105cc60048036038101906105c79190613d63565b6118e2565b6040516105d99190613562565b60405180910390f35b6105ea61194d565b6040516105f7919061360d565b60405180910390f35b6106086119df565b6040516106159190613c79565b60405180910390f35b610638600480360381019061063391906140ef565b6119e6565b005b610654600480360381019061064f91906141d0565b6119fc565b005b610670600480360381019061066b9190613665565b611a19565b60405161067d919061360d565b60405180910390f35b6106a0600480360381019061069b9190613d63565b611a82565b005b6106bc60048036038101906106b79190614253565b611aa4565b005b6106d860048036038101906106d39190613665565b611b17565b6040516106e6929190614351565b60405180910390f35b61070960048036038101906107049190614388565b611ce8565b6040516107169190613562565b60405180910390f35b610739600480360381019061073491906143e4565b611ddc565b6040516107469190613562565b60405180910390f35b600061075a82611e70565b9050919050565b60606000805461077090614453565b80601f016020809104026020016040519081016040528092919081815260200182805461079c90614453565b80156107e95780601f106107be576101008083540402835291602001916107e9565b820191906000526020600020905b8154815290600101906020018083116107cc57829003601f168201915b5050505050905090565b60006107fe82611eea565b5061080882611f72565b9050919050565b610821828261081c611faf565b611fb7565b5050565b60608060606000600f8054905067ffffffffffffffff81111561084b5761084a613a8e565b5b6040519080825280602002602001820160405280156108795781602001602082028036833780820191505090505b5090506000600f8054905067ffffffffffffffff81111561089d5761089c613a8e565b5b6040519080825280602002602001820160405280156108cb5781602001602082028036833780820191505090505b5090506000600f8054905067ffffffffffffffff8111156108ef576108ee613a8e565b5b60405190808252806020026020018201604052801561092257816020015b606081526020019060019003908161090d5790505b50905060005b600f80549050811015610b41576000600d6000600f848154811061094f5761094e614484565b5b9060005260206000200160009054906101000a900473ffffffffffffffffffffffffffffffffffffffff1673ffffffffffffffffffffffffffffffffffffffff1673ffffffffffffffffffffffffffffffffffffffff168152602001908152602001600020604051806080016040529081600082015481526020016001820160009054906101000a900473ffffffffffffffffffffffffffffffffffffffff1673ffffffffffffffffffffffffffffffffffffffff1673ffffffffffffffffffffffffffffffffffffffff16815260200160028201805480602002602001604051908101604052809291908181526020018280548015610a6e57602002820191906000526020600020905b815481526020019060010190808311610a5a575b505050505081526020016003820160009054906101000a900460ff16151515158152505090508060000151858381518110610aac57610aab614484565b5b6020026020010181815250508060200151848381518110610ad057610acf614484565b5b602002602001019073ffffffffffffffffffffffffffffffffffffffff16908173ffffffffffffffffffffffffffffffffffffffff16815250508060400151838381518110610b2257610b21614484565b5b6020026020010181905250508080610b39906144e2565b915050610928565b50828282955095509550505050909192565b6000801b610b6081611fc9565b60001515600d60008573ffffffffffffffffffffffffffffffffffffffff1673ffffffffffffffffffffffffffffffffffffffff16815260200190815260200160002060030160009054906101000a900460ff16151514610bf6576040517f08c379a0000000000000000000000000000000000000000000000000000000008152600401610bed9061459c565b60405180910390fd5b60405180608001604052808581526020018473ffffffffffffffffffffffffffffffffffffffff16815260200183815260200160011515815250600d60008573ffffffffffffffffffffffffffffffffffffffff1673ffffffffffffffffffffffffffffffffffffffff1681526020019081526020016000206000820151816000015560208201518160010160006101000a81548173ffffffffffffffffffffffffffffffffffffffff021916908373ffffffffffffffffffffffffffffffffffffffff1602179055506040820151816002019080519060200190610cdc929190613444565b5060608201518160030160006101000a81548160ff021916908315150217905550905050610d2a7f9e1688b53537f356172ce07f39e129155063957163c5f9462d4d9e55b228b06c84611fdd565b50600f839080600181540180825580915050600190039060005260206000200160009091909190916101000a81548173ffffffffffffffffffffffffffffffffffffffff021916908373ffffffffffffffffffffffffffffffffffffffff16021790555050505050565b6000600980549050905090565b7f9e1688b53537f356172ce07f39e129155063957163c5f9462d4d9e55b228b06c81565b600073ffffffffffffffffffffffffffffffffffffffff168273ffffffffffffffffffffffffffffffffffffffff1603610e375760006040517f64a0ae92000000000000000000000000000000000000000000000000000000008152600401610e2e91906136d3565b60405180910390fd5b6000610e4b8383610e46611faf565b6120cf565b90508373ffffffffffffffffffffffffffffffffffffffff168173ffffffffffffffffffffffffffffffffffffffff1614610ec1578382826040517f64283d7b000000000000000000000000000000000000000000000000000000008152600401610eb8939291906145bc565b60405180910390fd5b50505050565b600060066000838152602001908152602001600020600101549050919050565b6060600d60008373ffffffffffffffffffffffffffffffffffffffff1673ffffffffffffffffffffffffffffffffffffffff168152602001908152602001600020600201805480602002602001604051908101604052809291908181526020018280548015610f7557602002820191906000526020600020905b815481526020019060010190808311610f61575b50505050509050919050565b610f8a82610ec7565b610f9381611fc9565b610f9d8383611fdd565b50505050565b6000610fae83611640565b8210610ff35782826040517fa57d13dc000000000000000000000000000000000000000000000000000000008152600401610fea9291906145f3565b60405180910390fd5b600760008473ffffffffffffffffffffffffffffffffffffffff1673ffffffffffffffffffffffffffffffffffffffff168152602001908152602001600020600083815260200190815260200160002054905092915050565b6000600d60008473ffffffffffffffffffffffffffffffffffffffff1673ffffffffffffffffffffffffffffffffffffffff168152602001908152602001600020905060005b82518110156110f357816002018382815181106110b2576110b1614484565b5b6020026020010151908060018154018082558091505060019003906000526020600020016000909190919091505580806110eb906144e2565b915050611092565b50505050565b6060600c80548060200260200160405190810160405280929190818152602001828054801561117d57602002820191906000526020600020905b8160009054906101000a900473ffffffffffffffffffffffffffffffffffffffff1673ffffffffffffffffffffffffffffffffffffffff1681526020019060010190808311611133575b5050505050905090565b61118f611faf565b73ffffffffffffffffffffffffffffffffffffffff168173ffffffffffffffffffffffffffffffffffffffff16146111f3576040517f6697b23200000000000000000000000000000000000000000000000000000000815260040160405180910390fd5b6111fd82826120e5565b505050565b61121d838383604051806020016040528060008152506119fc565b505050565b611235600082611230611faf565b6120cf565b5050565b6000611243610d94565b8210611289576000826040517fa57d13dc0000000000000000000000000000000000000000000000000000000081526004016112809291906145f3565b60405180910390fd5b6009828154811061129d5761129c614484565b5b90600052602060002001549050919050565b6000606060011515600d60008573ffffffffffffffffffffffffffffffffffffffff1673ffffffffffffffffffffffffffffffffffffffff16815260200190815260200160002060030160009054906101000a900460ff16151514611349576040517f08c379a00000000000000000000000000000000000000000000000000000000081526004016113409061468e565b60405180910390fd5b6000600d60008573ffffffffffffffffffffffffffffffffffffffff1673ffffffffffffffffffffffffffffffffffffffff168152602001908152602001600020604051806080016040529081600082015481526020016001820160009054906101000a900473ffffffffffffffffffffffffffffffffffffffff1673ffffffffffffffffffffffffffffffffffffffff1673ffffffffffffffffffffffffffffffffffffffff1681526020016002820180548060200260200160405190810160405280929190818152602001828054801561144457602002820191906000526020600020905b815481526020019060010190808311611430575b505050505081526020016003820160009054906101000a900460ff1615151515815250509050806000015181604001519250925050915091565b600061148982611eea565b9050919050565b8273ffffffffffffffffffffffffffffffffffffffff166114b08261147e565b73ffffffffffffffffffffffffffffffffffffffff1614611506576040517f08c379a00000000000000000000000000000000000000000000000000000000081526004016114fd906146fa565b60405180910390fd5b611511838383611202565b505050565b7f9e1688b53537f356172ce07f39e129155063957163c5f9462d4d9e55b228b06c61154081611fc9565b6000600b6000815480929190611555906144e2565b91905055905061156533826121d8565b60005b845181101561163957600e600083815260200190815260200160002060405180604001604052808784815181106115a2576115a1614484565b5b602002602001015181526020018684815181106115c2576115c1614484565b5b602002602001015160ff1681525090806001815401808255809150506001900390600052602060002090600202016000909190919091506000820151816000015560208201518160010160006101000a81548160ff021916908360ff16021790555050508080611631906144e2565b915050611568565b5050505050565b60008073ffffffffffffffffffffffffffffffffffffffff168273ffffffffffffffffffffffffffffffffffffffff16036116b35760006040517f89c62b640000000000000000000000000000000000000000000000000000000081526004016116aa91906136d3565b60405180910390fd5b600360008373ffffffffffffffffffffffffffffffffffffffff1673ffffffffffffffffffffffffffffffffffffffff168152602001908152602001600020549050919050565b60606000805b600f8054905081101561177c57611755600f828154811061172457611723614484565b5b9060005260206000200160009054906101000a900473ffffffffffffffffffffffffffffffffffffffff1685611ce8565b15611769578180611765906144e2565b9250505b8080611774906144e2565b915050611700565b5060008167ffffffffffffffff81111561179957611798613a8e565b5b6040519080825280602002602001820160405280156117c75781602001602082028036833780820191505090505b5090506000805b600f805490508110156118d657611823600f82815481106117f2576117f1614484565b5b9060005260206000200160009054906101000a900473ffffffffffffffffffffffffffffffffffffffff1687611ce8565b156118c357600f818154811061183c5761183b614484565b5b9060005260206000200160009054906101000a900473ffffffffffffffffffffffffffffffffffffffff1683838151811061187a57611879614484565b5b602002602001019073ffffffffffffffffffffffffffffffffffffffff16908173ffffffffffffffffffffffffffffffffffffffff168152505081806118bf906144e2565b9250505b80806118ce906144e2565b9150506117ce565b50819350505050919050565b60006006600084815260200190815260200160002060000160008373ffffffffffffffffffffffffffffffffffffffff1673ffffffffffffffffffffffffffffffffffffffff16815260200190815260200160002060009054906101000a900460ff16905092915050565b60606001805461195c90614453565b80601f016020809104026020016040519081016040528092919081815260200182805461198890614453565b80156119d55780601f106119aa576101008083540402835291602001916119d5565b820191906000526020600020905b8154815290600101906020018083116119b857829003601f168201915b5050505050905090565b6000801b81565b6119f86119f1611faf565b83836121f6565b5050565b611a07848484610dc5565b611a1384848484612365565b50505050565b6060611a2482611eea565b506000611a2f61251c565b90506000815111611a4f5760405180602001604052806000815250611a7a565b80611a5984612533565b604051602001611a6a929190614756565b6040516020818303038152906040525b915050919050565b611a8b82610ec7565b611a9481611fc9565b611a9e83836120e5565b50505050565b6000600d60008473ffffffffffffffffffffffffffffffffffffffff1673ffffffffffffffffffffffffffffffffffffffff168152602001908152602001600020905080600201829080600181540180825580915050600190039060005260206000200160009091909190915055505050565b6060806000600e6000858152602001908152602001600020805480602002602001604051908101604052809291908181526020016000905b82821015611ba85783829060005260206000209060020201604051806040016040529081600082015481526020016001820160009054906101000a900460ff1660ff1660ff168152505081526020019060010190611b4f565b5050505090506000815167ffffffffffffffff811115611bcb57611bca613a8e565b5b604051908082528060200260200182016040528015611bf95781602001602082028036833780820191505090505b5090506000825167ffffffffffffffff811115611c1957611c18613a8e565b5b604051908082528060200260200182016040528015611c475781602001602082028036833780820191505090505b50905060005b8351811015611cd9576000848281518110611c6b57611c6a614484565b5b602002602001015190508060000151848381518110611c8d57611c8c614484565b5b6020026020010181815250508060200151838381518110611cb157611cb0614484565b5b602002602001019060ff16908160ff1681525050508080611cd1906144e2565b915050611c4d565b50818194509450505050915091565b600080600d60008573ffffffffffffffffffffffffffffffffffffffff1673ffffffffffffffffffffffffffffffffffffffff168152602001908152602001600020905060005b8160020180549050811015611dcf5783604051602001611d4f919061477a565b60405160208183030381529060405280519060200120826002018281548110611d7b57611d7a614484565b5b9060005260206000200154604051602001611d9691906147b2565b6040516020818303038152906040528051906020012003611dbc57600192505050611dd6565b8080611dc7906144e2565b915050611d2f565b5060009150505b92915050565b6000600560008473ffffffffffffffffffffffffffffffffffffffff1673ffffffffffffffffffffffffffffffffffffffff16815260200190815260200160002060008373ffffffffffffffffffffffffffffffffffffffff1673ffffffffffffffffffffffffffffffffffffffff16815260200190815260200160002060009054906101000a900460ff16905092915050565b60007f780e9d63000000000000000000000000000000000000000000000000000000007bffffffffffffffffffffffffffffffffffffffffffffffffffffffff1916827bffffffffffffffffffffffffffffffffffffffffffffffffffffffff19161480611ee35750611ee282612601565b5b9050919050565b600080611ef68361267b565b9050600073ffffffffffffffffffffffffffffffffffffffff168173ffffffffffffffffffffffffffffffffffffffff1603611f6957826040517f7e273289000000000000000000000000000000000000000000000000000000008152600401611f609190613c4f565b60405180910390fd5b80915050919050565b60006004600083815260200190815260200160002060009054906101000a900473ffffffffffffffffffffffffffffffffffffffff169050919050565b600033905090565b611fc483838360016126b8565b505050565b611fda81611fd5611faf565b61287d565b50565b6000611fe983836118e2565b6120c45760016006600085815260200190815260200160002060000160008473ffffffffffffffffffffffffffffffffffffffff1673ffffffffffffffffffffffffffffffffffffffff16815260200190815260200160002060006101000a81548160ff021916908315150217905550612061611faf565b73ffffffffffffffffffffffffffffffffffffffff168273ffffffffffffffffffffffffffffffffffffffff16847f2f8788117e7eff1d82e926ec794901d17c78024a50270940304540a733656f0d60405160405180910390a4600190506120c9565b600090505b92915050565b60006120dc8484846128ce565b90509392505050565b60006120f183836118e2565b156121cd5760006006600085815260200190815260200160002060000160008473ffffffffffffffffffffffffffffffffffffffff1673ffffffffffffffffffffffffffffffffffffffff16815260200190815260200160002060006101000a81548160ff02191690831515021790555061216a611faf565b73ffffffffffffffffffffffffffffffffffffffff168273ffffffffffffffffffffffffffffffffffffffff16847ff6391f5c32d9c69d2a47ea670b442974b53935d1edc7fd64eb21e047a839171b60405160405180910390a4600190506121d2565b600090505b92915050565b6121f28282604051806020016040528060008152506129eb565b5050565b600073ffffffffffffffffffffffffffffffffffffffff168273ffffffffffffffffffffffffffffffffffffffff160361226757816040517f5b08ba1800000000000000000000000000000000000000000000000000000000815260040161225e91906136d3565b60405180910390fd5b80600560008573ffffffffffffffffffffffffffffffffffffffff1673ffffffffffffffffffffffffffffffffffffffff16815260200190815260200160002060008473ffffffffffffffffffffffffffffffffffffffff1673ffffffffffffffffffffffffffffffffffffffff16815260200190815260200160002060006101000a81548160ff0219169083151502179055508173ffffffffffffffffffffffffffffffffffffffff168373ffffffffffffffffffffffffffffffffffffffff167f17307eab39ab6107e8899845ad3d59bd9653f200f220920489ca2b5937696c31836040516123589190613562565b60405180910390a3505050565b60008373ffffffffffffffffffffffffffffffffffffffff163b1115612516578273ffffffffffffffffffffffffffffffffffffffff1663150b7a026123a9611faf565b8685856040518563ffffffff1660e01b81526004016123cb9493929190614822565b6020604051808303816000875af192505050801561240757506040513d601f19601f820116820180604052508101906124049190614883565b60015b61248b573d8060008114612437576040519150601f19603f3d011682016040523d82523d6000602084013e61243c565b606091505b50600081510361248357836040517f64a0ae9200000000000000000000000000000000000000000000000000000000815260040161247a91906136d3565b60405180910390fd5b805181602001fd5b63150b7a0260e01b7bffffffffffffffffffffffffffffffffffffffffffffffffffffffff1916817bffffffffffffffffffffffffffffffffffffffffffffffffffffffff19161461251457836040517f64a0ae9200000000000000000000000000000000000000000000000000000000815260040161250b91906136d3565b60405180910390fd5b505b50505050565b606060405180602001604052806000815250905090565b60606000600161254284612a07565b01905060008167ffffffffffffffff81111561256157612560613a8e565b5b6040519080825280601f01601f1916602001820160405280156125935781602001600182028036833780820191505090505b509050600082602001820190505b6001156125f6578080600190039150507f3031323334353637383961626364656600000000000000000000000000000000600a86061a8153600a85816125ea576125e96148b0565b5b049450600085036125a1575b819350505050919050565b60007f7965db0b000000000000000000000000000000000000000000000000000000007bffffffffffffffffffffffffffffffffffffffffffffffffffffffff1916827bffffffffffffffffffffffffffffffffffffffffffffffffffffffff19161480612674575061267382612b5a565b5b9050919050565b60006002600083815260200190815260200160002060009054906101000a900473ffffffffffffffffffffffffffffffffffffffff169050919050565b80806126f15750600073ffffffffffffffffffffffffffffffffffffffff168273ffffffffffffffffffffffffffffffffffffffff1614155b1561282557600061270184611eea565b9050600073ffffffffffffffffffffffffffffffffffffffff168373ffffffffffffffffffffffffffffffffffffffff161415801561276c57508273ffffffffffffffffffffffffffffffffffffffff168173ffffffffffffffffffffffffffffffffffffffff1614155b801561277f575061277d8184611ddc565b155b156127c157826040517fa9fbf51f0000000000000000000000000000000000000000000000000000000081526004016127b891906136d3565b60405180910390fd5b811561282357838573ffffffffffffffffffffffffffffffffffffffff168273ffffffffffffffffffffffffffffffffffffffff167f8c5be1e5ebec7d5bd14f71427d1e84f3dd0314c0f7b2291e5b200ac8c7c3b92560405160405180910390a45b505b836004600085815260200190815260200160002060006101000a81548173ffffffffffffffffffffffffffffffffffffffff021916908373ffffffffffffffffffffffffffffffffffffffff16021790555050505050565b61288782826118e2565b6128ca5780826040517fe2517d3f0000000000000000000000000000000000000000000000000000000081526004016128c19291906148df565b60405180910390fd5b5050565b6000806128dc858585612c3c565b9050600073ffffffffffffffffffffffffffffffffffffffff168173ffffffffffffffffffffffffffffffffffffffff16036129205761291b84612e56565b61295f565b8473ffffffffffffffffffffffffffffffffffffffff168173ffffffffffffffffffffffffffffffffffffffff161461295e5761295d8185612e9f565b5b5b600073ffffffffffffffffffffffffffffffffffffffff168573ffffffffffffffffffffffffffffffffffffffff16036129a15761299c84613000565b6129e0565b8473ffffffffffffffffffffffffffffffffffffffff168173ffffffffffffffffffffffffffffffffffffffff16146129df576129de85856130d1565b5b5b809150509392505050565b6129f5838361315c565b612a026000848484612365565b505050565b600080600090507a184f03e93ff9f4daa797ed6e38ed64bf6a1f0100000000000000008310612a65577a184f03e93ff9f4daa797ed6e38ed64bf6a1f0100000000000000008381612a5b57612a5a6148b0565b5b0492506040810190505b6d04ee2d6d415b85acef81000000008310612aa2576d04ee2d6d415b85acef81000000008381612a9857612a976148b0565b5b0492506020810190505b662386f26fc100008310612ad157662386f26fc100008381612ac757612ac66148b0565b5b0492506010810190505b6305f5e1008310612afa576305f5e1008381612af057612aef6148b0565b5b0492506008810190505b6127108310612b1f576127108381612b1557612b146148b0565b5b0492506004810190505b60648310612b425760648381612b3857612b376148b0565b5b0492506002810190505b600a8310612b51576001810190505b80915050919050565b60007f80ac58cd000000000000000000000000000000000000000000000000000000007bffffffffffffffffffffffffffffffffffffffffffffffffffffffff1916827bffffffffffffffffffffffffffffffffffffffffffffffffffffffff19161480612c2557507f5b5e139f000000000000000000000000000000000000000000000000000000007bffffffffffffffffffffffffffffffffffffffffffffffffffffffff1916827bffffffffffffffffffffffffffffffffffffffffffffffffffffffff1916145b80612c355750612c3482613255565b5b9050919050565b600080612c488461267b565b9050600073ffffffffffffffffffffffffffffffffffffffff168373ffffffffffffffffffffffffffffffffffffffff1614612c8a57612c898184866132bf565b5b600073ffffffffffffffffffffffffffffffffffffffff168173ffffffffffffffffffffffffffffffffffffffff1614612d1b57612ccc6000856000806126b8565b6001600360008373ffffffffffffffffffffffffffffffffffffffff1673ffffffffffffffffffffffffffffffffffffffff168152602001908152602001600020600082825403925050819055505b600073ffffffffffffffffffffffffffffffffffffffff168573ffffffffffffffffffffffffffffffffffffffff1614612d9e576001600360008773ffffffffffffffffffffffffffffffffffffffff1673ffffffffffffffffffffffffffffffffffffffff168152602001908152602001600020600082825401925050819055505b846002600086815260200190815260200160002060006101000a81548173ffffffffffffffffffffffffffffffffffffffff021916908373ffffffffffffffffffffffffffffffffffffffff160217905550838573ffffffffffffffffffffffffffffffffffffffff168273ffffffffffffffffffffffffffffffffffffffff167fddf252ad1be2c89b69c2b068fc378daa952ba7f163c4a11628f55a4df523b3ef60405160405180910390a4809150509392505050565b600980549050600a600083815260200190815260200160002081905550600981908060018154018082558091505060019003906000526020600020016000909190919091505550565b6000612eaa83611640565b9050600060086000848152602001908152602001600020549050818114612f8f576000600760008673ffffffffffffffffffffffffffffffffffffffff1673ffffffffffffffffffffffffffffffffffffffff168152602001908152602001600020600084815260200190815260200160002054905080600760008773ffffffffffffffffffffffffffffffffffffffff1673ffffffffffffffffffffffffffffffffffffffff168152602001908152602001600020600084815260200190815260200160002081905550816008600083815260200190815260200160002081905550505b6008600084815260200190815260200160002060009055600760008573ffffffffffffffffffffffffffffffffffffffff1673ffffffffffffffffffffffffffffffffffffffff16815260200190815260200160002060008381526020019081526020016000206000905550505050565b600060016009805490506130149190614908565b90506000600a600084815260200190815260200160002054905060006009838154811061304457613043614484565b5b90600052602060002001549050806009838154811061306657613065614484565b5b906000526020600020018190555081600a600083815260200190815260200160002081905550600a60008581526020019081526020016000206000905560098054806130b5576130b461493c565b5b6001900381819060005260206000200160009055905550505050565b600060016130de84611640565b6130e89190614908565b905081600760008573ffffffffffffffffffffffffffffffffffffffff1673ffffffffffffffffffffffffffffffffffffffff168152602001908152602001600020600083815260200190815260200160002081905550806008600084815260200190815260200160002081905550505050565b600073ffffffffffffffffffffffffffffffffffffffff168273ffffffffffffffffffffffffffffffffffffffff16036131ce5760006040517f64a0ae920000000000000000000000000000000000000000000000000000000081526004016131c591906136d3565b60405180910390fd5b60006131dc838360006120cf565b9050600073ffffffffffffffffffffffffffffffffffffffff168173ffffffffffffffffffffffffffffffffffffffff16146132505760006040517f73c6ac6e00000000000000000000000000000000000000000000000000000000815260040161324791906136d3565b60405180910390fd5b505050565b60007f01ffc9a7000000000000000000000000000000000000000000000000000000007bffffffffffffffffffffffffffffffffffffffffffffffffffffffff1916827bffffffffffffffffffffffffffffffffffffffffffffffffffffffff1916149050919050565b6132ca838383613383565b61337e57600073ffffffffffffffffffffffffffffffffffffffff168373ffffffffffffffffffffffffffffffffffffffff160361333f57806040517f7e2732890000000000000000000000000000000000000000000000000000000081526004016133369190613c4f565b60405180910390fd5b81816040517f177e802f0000000000000000000000000000000000000000000000000000000081526004016133759291906145f3565b60405180910390fd5b505050565b60008073ffffffffffffffffffffffffffffffffffffffff168373ffffffffffffffffffffffffffffffffffffffff161415801561343b57508273ffffffffffffffffffffffffffffffffffffffff168473ffffffffffffffffffffffffffffffffffffffff1614806133fc57506133fb8484611ddc565b5b8061343a57508273ffffffffffffffffffffffffffffffffffffffff1661342283611f72565b73ffffffffffffffffffffffffffffffffffffffff16145b5b90509392505050565b828054828255906000526020600020908101928215613480579160200282015b8281111561347f578251825591602001919060010190613464565b5b50905061348d9190613491565b5090565b5b808211156134aa576000816000905550600101613492565b5090565b6000604051905090565b600080fd5b600080fd5b60007fffffffff0000000000000000000000000000000000000000000000000000000082169050919050565b6134f7816134c2565b811461350257600080fd5b50565b600081359050613514816134ee565b92915050565b6000602082840312156135305761352f6134b8565b5b600061353e84828501613505565b91505092915050565b60008115159050919050565b61355c81613547565b82525050565b60006020820190506135776000830184613553565b92915050565b600081519050919050565b600082825260208201905092915050565b60005b838110156135b757808201518184015260208101905061359c565b60008484015250505050565b6000601f19601f8301169050919050565b60006135df8261357d565b6135e98185613588565b93506135f9818560208601613599565b613602816135c3565b840191505092915050565b6000602082019050818103600083015261362781846135d4565b905092915050565b6000819050919050565b6136428161362f565b811461364d57600080fd5b50565b60008135905061365f81613639565b92915050565b60006020828403121561367b5761367a6134b8565b5b600061368984828501613650565b91505092915050565b600073ffffffffffffffffffffffffffffffffffffffff82169050919050565b60006136bd82613692565b9050919050565b6136cd816136b2565b82525050565b60006020820190506136e860008301846136c4565b92915050565b6136f7816136b2565b811461370257600080fd5b50565b600081359050613714816136ee565b92915050565b60008060408385031215613731576137306134b8565b5b600061373f85828601613705565b925050602061375085828601613650565b9150509250929050565b600081519050919050565b600082825260208201905092915050565b6000819050602082019050919050565b6000819050919050565b61379981613786565b82525050565b60006137ab8383613790565b60208301905092915050565b6000602082019050919050565b60006137cf8261375a565b6137d98185613765565b93506137e483613776565b8060005b838110156138155781516137fc888261379f565b9750613807836137b7565b9250506001810190506137e8565b5085935050505092915050565b600081519050919050565b600082825260208201905092915050565b6000819050602082019050919050565b613857816136b2565b82525050565b6000613869838361384e565b60208301905092915050565b6000602082019050919050565b600061388d82613822565b613897818561382d565b93506138a28361383e565b8060005b838110156138d35781516138ba888261385d565b97506138c583613875565b9250506001810190506138a6565b5085935050505092915050565b600081519050919050565b600082825260208201905092915050565b6000819050602082019050919050565b600082825260208201905092915050565b60006139288261375a565b613932818561390c565b935061393d83613776565b8060005b8381101561396e578151613955888261379f565b9750613960836137b7565b925050600181019050613941565b5085935050505092915050565b6000613987838361391d565b905092915050565b6000602082019050919050565b60006139a7826138e0565b6139b181856138eb565b9350836020820285016139c3856138fc565b8060005b858110156139ff57848403895281516139e0858261397b565b94506139eb8361398f565b925060208a019950506001810190506139c7565b50829750879550505050505092915050565b60006060820190508181036000830152613a2b81866137c4565b90508181036020830152613a3f8185613882565b90508181036040830152613a53818461399c565b9050949350505050565b613a6681613786565b8114613a7157600080fd5b50565b600081359050613a8381613a5d565b92915050565b600080fd5b7f4e487b7100000000000000000000000000000000000000000000000000000000600052604160045260246000fd5b613ac6826135c3565b810181811067ffffffffffffffff82111715613ae557613ae4613a8e565b5b80604052505050565b6000613af86134ae565b9050613b048282613abd565b919050565b600067ffffffffffffffff821115613b2457613b23613a8e565b5b602082029050602081019050919050565b600080fd5b6000613b4d613b4884613b09565b613aee565b90508083825260208201905060208402830185811115613b7057613b6f613b35565b5b835b81811015613b995780613b858882613a74565b845260208401935050602081019050613b72565b5050509392505050565b600082601f830112613bb857613bb7613a89565b5b8135613bc8848260208601613b3a565b91505092915050565b600080600060608486031215613bea57613be96134b8565b5b6000613bf886828701613a74565b9350506020613c0986828701613705565b925050604084013567ffffffffffffffff811115613c2a57613c296134bd565b5b613c3686828701613ba3565b9150509250925092565b613c498161362f565b82525050565b6000602082019050613c646000830184613c40565b92915050565b613c7381613786565b82525050565b6000602082019050613c8e6000830184613c6a565b92915050565b600080600060608486031215613cad57613cac6134b8565b5b6000613cbb86828701613705565b9350506020613ccc86828701613705565b9250506040613cdd86828701613650565b9150509250925092565b600060208284031215613cfd57613cfc6134b8565b5b6000613d0b84828501613a74565b91505092915050565b600060208284031215613d2a57613d296134b8565b5b6000613d3884828501613705565b91505092915050565b60006020820190508181036000830152613d5b81846137c4565b905092915050565b60008060408385031215613d7a57613d796134b8565b5b6000613d8885828601613a74565b9250506020613d9985828601613705565b9150509250929050565b60008060408385031215613dba57613db96134b8565b5b6000613dc885828601613705565b925050602083013567ffffffffffffffff811115613de957613de86134bd565b5b613df585828601613ba3565b9150509250929050565b60006020820190508181036000830152613e198184613882565b905092915050565b6000604082019050613e366000830185613c6a565b8181036020830152613e4881846137c4565b90509392505050565b600067ffffffffffffffff821115613e6c57613e6b613a8e565b5b602082029050602081019050919050565b600060ff82169050919050565b613e9381613e7d565b8114613e9e57600080fd5b50565b600081359050613eb081613e8a565b92915050565b6000613ec9613ec484613e51565b613aee565b90508083825260208201905060208402830185811115613eec57613eeb613b35565b5b835b81811015613f155780613f018882613ea1565b845260208401935050602081019050613eee565b5050509392505050565b600082601f830112613f3457613f33613a89565b5b8135613f44848260208601613eb6565b91505092915050565b60008060408385031215613f6457613f636134b8565b5b600083013567ffffffffffffffff811115613f8257613f816134bd565b5b613f8e85828601613ba3565b925050602083013567ffffffffffffffff811115613faf57613fae6134bd565b5b613fbb85828601613f1f565b9150509250929050565b600080fd5b600067ffffffffffffffff821115613fe557613fe4613a8e565b5b613fee826135c3565b9050602081019050919050565b82818337600083830152505050565b600061401d61401884613fca565b613aee565b90508281526020810184848401111561403957614038613fc5565b5b614044848285613ffb565b509392505050565b600082601f83011261406157614060613a89565b5b813561407184826020860161400a565b91505092915050565b6000602082840312156140905761408f6134b8565b5b600082013567ffffffffffffffff8111156140ae576140ad6134bd565b5b6140ba8482850161404c565b91505092915050565b6140cc81613547565b81146140d757600080fd5b50565b6000813590506140e9816140c3565b92915050565b60008060408385031215614106576141056134b8565b5b600061411485828601613705565b9250506020614125858286016140da565b9150509250929050565b600067ffffffffffffffff82111561414a57614149613a8e565b5b614153826135c3565b9050602081019050919050565b600061417361416e8461412f565b613aee565b90508281526020810184848401111561418f5761418e613fc5565b5b61419a848285613ffb565b509392505050565b600082601f8301126141b7576141b6613a89565b5b81356141c7848260208601614160565b91505092915050565b600080600080608085870312156141ea576141e96134b8565b5b60006141f887828801613705565b945050602061420987828801613705565b935050604061421a87828801613650565b925050606085013567ffffffffffffffff81111561423b5761423a6134bd565b5b614247878288016141a2565b91505092959194509250565b6000806040838503121561426a576142696134b8565b5b600061427885828601613705565b925050602061428985828601613a74565b9150509250929050565b600081519050919050565b600082825260208201905092915050565b6000819050602082019050919050565b6142c881613e7d565b82525050565b60006142da83836142bf565b60208301905092915050565b6000602082019050919050565b60006142fe82614293565b614308818561429e565b9350614313836142af565b8060005b8381101561434457815161432b88826142ce565b9750614336836142e6565b925050600181019050614317565b5085935050505092915050565b6000604082019050818103600083015261436b81856137c4565b9050818103602083015261437f81846142f3565b90509392505050565b6000806040838503121561439f5761439e6134b8565b5b60006143ad85828601613705565b925050602083013567ffffffffffffffff8111156143ce576143cd6134bd565b5b6143da8582860161404c565b9150509250929050565b600080604083850312156143fb576143fa6134b8565b5b600061440985828601613705565b925050602061441a85828601613705565b9150509250929050565b7f4e487b7100000000000000000000000000000000000000000000000000000000600052602260045260246000fd5b6000600282049050600182168061446b57607f821691505b60208210810361447e5761447d614424565b5b50919050565b7f4e487b7100000000000000000000000000000000000000000000000000000000600052603260045260246000fd5b7f4e487b7100000000000000000000000000000000000000000000000000000000600052601160045260246000fd5b60006144ed8261362f565b91507fffffffffffffffffffffffffffffffffffffffffffffffffffffffffffffffff820361451f5761451e6144b3565b5b600182019050919050565b7f57616c6c6574206164647265737320697320616c72656164792061737369676e60008201527f6564000000000000000000000000000000000000000000000000000000000000602082015250565b6000614586602283613588565b91506145918261452a565b604082019050919050565b600060208201905081810360008301526145b581614579565b9050919050565b60006060820190506145d160008301866136c4565b6145de6020830185613c40565b6145eb60408301846136c4565b949350505050565b600060408201905061460860008301856136c4565b6146156020830184613c40565b9392505050565b7f4e6f20436f6d70616e792077697468207468652072657175657374656420776160008201527f6c6c657420616464726573730000000000000000000000000000000000000000602082015250565b6000614678602c83613588565b91506146838261461c565b604082019050919050565b600060208201905081810360008301526146a78161466b565b9050919050565b7f546f6b656e206e6f74206f776e65642062792074686520616464726573730000600082015250565b60006146e4601e83613588565b91506146ef826146ae565b602082019050919050565b60006020820190508181036000830152614713816146d7565b9050919050565b600081905092915050565b60006147308261357d565b61473a818561471a565b935061474a818560208601613599565b80840191505092915050565b60006147628285614725565b915061476e8284614725565b91508190509392505050565b60006147868284614725565b915081905092915050565b6000819050919050565b6147ac6147a782613786565b614791565b82525050565b60006147be828461479b565b60208201915081905092915050565b600081519050919050565b600082825260208201905092915050565b60006147f4826147cd565b6147fe81856147d8565b935061480e818560208601613599565b614817816135c3565b840191505092915050565b600060808201905061483760008301876136c4565b61484460208301866136c4565b6148516040830185613c40565b818103606083015261486381846147e9565b905095945050505050565b60008151905061487d816134ee565b92915050565b600060208284031215614899576148986134b8565b5b60006148a78482850161486e565b91505092915050565b7f4e487b7100000000000000000000000000000000000000000000000000000000600052601260045260246000fd5b60006040820190506148f460008301856136c4565b6149016020830184613c6a565b9392505050565b60006149138261362f565b915061491e8361362f565b9250828203905081811115614936576149356144b3565b5b92915050565b7f4e487b7100000000000000000000000000000000000000000000000000000000600052603160045260246000fdfea264697066735822122098b76ca9d1c7dd044e89662da552c418617a136837b32273b849a267ed70cd4064736f6c63430008140033",
  "linkReferences": {},
  "deployedLinkReferences": {}
}