{
  "_format": "hh-sol-artifact-1",
  "contractName": "ClearOriginNetwork",
  "sourceName": "contracts/ClearOriginNetwork.sol",
  "abi": [
    {
      "inputs": [
        {
          "internalType": "address",
          "name": "defaultAdmin",
          "type": "address"
        }
      ],
      "stateMutability": "nonpayable",
      "type": "constructor"
    },
    {
      "inputs": [],
      "name": "AccessControlBadConfirmation",
      "type": "error"
    },
    {
      "inputs": [
        {
          "internalType": "address",
          "name": "account",
          "type": "address"
        },
        {
          "internalType": "bytes32",
          "name": "neededRole",
          "type": "bytes32"
        }
      ],
      "name": "AccessControlUnauthorizedAccount",
      "type": "error"
    },
    {
      "inputs": [],
      "name": "ERC721EnumerableForbiddenBatchMint",
      "type": "error"
    },
    {
      "inputs": [
        {
          "internalType": "address",
          "name": "sender",
          "type": "address"
        },
        {
          "internalType": "uint256",
          "name": "tokenId",
          "type": "uint256"
        },
        {
          "internalType": "address",
          "name": "owner",
          "type": "address"
        }
      ],
      "name": "ERC721IncorrectOwner",
      "type": "error"
    },
    {
      "inputs": [
        {
          "internalType": "address",
          "name": "operator",
          "type": "address"
        },
        {
          "internalType": "uint256",
          "name": "tokenId",
          "type": "uint256"
        }
      ],
      "name": "ERC721InsufficientApproval",
      "type": "error"
    },
    {
      "inputs": [
        {
          "internalType": "address",
          "name": "approver",
          "type": "address"
        }
      ],
      "name": "ERC721InvalidApprover",
      "type": "error"
    },
    {
      "inputs": [
        {
          "internalType": "address",
          "name": "operator",
          "type": "address"
        }
      ],
      "name": "ERC721InvalidOperator",
      "type": "error"
    },
    {
      "inputs": [
        {
          "internalType": "address",
          "name": "owner",
          "type": "address"
        }
      ],
      "name": "ERC721InvalidOwner",
      "type": "error"
    },
    {
      "inputs": [
        {
          "internalType": "address",
          "name": "receiver",
          "type": "address"
        }
      ],
      "name": "ERC721InvalidReceiver",
      "type": "error"
    },
    {
      "inputs": [
        {
          "internalType": "address",
          "name": "sender",
          "type": "address"
        }
      ],
      "name": "ERC721InvalidSender",
      "type": "error"
    },
    {
      "inputs": [
        {
          "internalType": "uint256",
          "name": "tokenId",
          "type": "uint256"
        }
      ],
      "name": "ERC721NonexistentToken",
      "type": "error"
    },
    {
      "inputs": [
        {
          "internalType": "address",
          "name": "owner",
          "type": "address"
        },
        {
          "internalType": "uint256",
          "name": "index",
          "type": "uint256"
        }
      ],
      "name": "ERC721OutOfBoundsIndex",
      "type": "error"
    },
    {
      "anonymous": false,
      "inputs": [
        {
          "indexed": true,
          "internalType": "address",
          "name": "owner",
          "type": "address"
        },
        {
          "indexed": true,
          "internalType": "address",
          "name": "approved",
          "type": "address"
        },
        {
          "indexed": true,
          "internalType": "uint256",
          "name": "tokenId",
          "type": "uint256"
        }
      ],
      "name": "Approval",
      "type": "event"
    },
    {
      "anonymous": false,
      "inputs": [
        {
          "indexed": true,
          "internalType": "address",
          "name": "owner",
          "type": "address"
        },
        {
          "indexed": true,
          "internalType": "address",
          "name": "operator",
          "type": "address"
        },
        {
          "indexed": false,
          "internalType": "bool",
          "name": "approved",
          "type": "bool"
        }
      ],
      "name": "ApprovalForAll",
      "type": "event"
    },
    {
      "anonymous": false,
      "inputs": [
        {
          "indexed": false,
          "internalType": "uint256",
          "name": "_fromTokenId",
          "type": "uint256"
        },
        {
          "indexed": false,
          "internalType": "uint256",
          "name": "_toTokenId",
          "type": "uint256"
        }
      ],
      "name": "BatchMetadataUpdate",
      "type": "event"
    },
    {
      "anonymous": false,
      "inputs": [
        {
          "indexed": false,
          "internalType": "uint256",
          "name": "_tokenId",
          "type": "uint256"
        }
      ],
      "name": "MetadataUpdate",
      "type": "event"
    },
    {
      "anonymous": false,
      "inputs": [
        {
          "indexed": true,
          "internalType": "bytes32",
          "name": "role",
          "type": "bytes32"
        },
        {
          "indexed": true,
          "internalType": "bytes32",
          "name": "previousAdminRole",
          "type": "bytes32"
        },
        {
          "indexed": true,
          "internalType": "bytes32",
          "name": "newAdminRole",
          "type": "bytes32"
        }
      ],
      "name": "RoleAdminChanged",
      "type": "event"
    },
    {
      "anonymous": false,
      "inputs": [
        {
          "indexed": true,
          "internalType": "bytes32",
          "name": "role",
          "type": "bytes32"
        },
        {
          "indexed": true,
          "internalType": "address",
          "name": "account",
          "type": "address"
        },
        {
          "indexed": true,
          "internalType": "address",
          "name": "sender",
          "type": "address"
        }
      ],
      "name": "RoleGranted",
      "type": "event"
    },
    {
      "anonymous": false,
      "inputs": [
        {
          "indexed": true,
          "internalType": "bytes32",
          "name": "role",
          "type": "bytes32"
        },
        {
          "indexed": true,
          "internalType": "address",
          "name": "account",
          "type": "address"
        },
        {
          "indexed": true,
          "internalType": "address",
          "name": "sender",
          "type": "address"
        }
      ],
      "name": "RoleRevoked",
      "type": "event"
    },
    {
      "anonymous": false,
      "inputs": [
        {
          "indexed": true,
          "internalType": "address",
          "name": "from",
          "type": "address"
        },
        {
          "indexed": true,
          "internalType": "address",
          "name": "to",
          "type": "address"
        },
        {
          "indexed": true,
          "internalType": "uint256",
          "name": "tokenId",
          "type": "uint256"
        }
      ],
      "name": "Transfer",
      "type": "event"
    },
    {
      "inputs": [],
      "name": "COMPANY_ROLE",
      "outputs": [
        {
          "internalType": "bytes32",
          "name": "",
          "type": "bytes32"
        }
      ],
      "stateMutability": "view",
      "type": "function"
    },
    {
      "inputs": [],
      "name": "DEFAULT_ADMIN_ROLE",
      "outputs": [
        {
          "internalType": "bytes32",
          "name": "",
          "type": "bytes32"
        }
      ],
      "stateMutability": "view",
      "type": "function"
    },
    {
      "inputs": [
        {
          "internalType": "bytes32",
          "name": "_companyName",
          "type": "bytes32"
        },
        {
          "internalType": "address",
          "name": "_companyAddress",
          "type": "address"
        },
        {
          "internalType": "bytes32[]",
          "name": "_companyProducts",
          "type": "bytes32[]"
        }
      ],
      "name": "addCompany",
      "outputs": [],
      "stateMutability": "nonpayable",
      "type": "function"
    },
    {
      "inputs": [
        {
          "internalType": "address",
          "name": "_companyAddress",
          "type": "address"
        },
        {
          "internalType": "bytes32",
          "name": "_product",
          "type": "bytes32"
        }
      ],
      "name": "addProduct",
      "outputs": [],
      "stateMutability": "nonpayable",
      "type": "function"
    },
    {
      "inputs": [
        {
          "internalType": "address",
          "name": "_companyAddress",
          "type": "address"
        },
        {
          "internalType": "bytes32[]",
          "name": "_products",
          "type": "bytes32[]"
        }
      ],
      "name": "addProducts",
      "outputs": [],
      "stateMutability": "nonpayable",
      "type": "function"
    },
    {
      "inputs": [
        {
          "internalType": "address",
          "name": "to",
          "type": "address"
        },
        {
          "internalType": "uint256",
          "name": "tokenId",
          "type": "uint256"
        }
      ],
      "name": "approve",
      "outputs": [],
      "stateMutability": "nonpayable",
      "type": "function"
    },
    {
      "inputs": [
        {
          "internalType": "address",
          "name": "owner",
          "type": "address"
        }
      ],
      "name": "balanceOf",
      "outputs": [
        {
          "internalType": "uint256",
          "name": "",
          "type": "uint256"
        }
      ],
      "stateMutability": "view",
      "type": "function"
    },
    {
      "inputs": [
        {
          "internalType": "uint256",
          "name": "tokenId",
          "type": "uint256"
        }
      ],
      "name": "burn",
      "outputs": [],
      "stateMutability": "nonpayable",
      "type": "function"
    },
    {
      "inputs": [],
      "name": "getAdmins",
      "outputs": [
        {
          "internalType": "address[]",
          "name": "",
          "type": "address[]"
        }
      ],
      "stateMutability": "view",
      "type": "function"
    },
    {
      "inputs": [
        {
          "internalType": "uint256",
          "name": "tokenId",
          "type": "uint256"
        }
      ],
      "name": "getApproved",
      "outputs": [
        {
          "internalType": "address",
          "name": "",
          "type": "address"
        }
      ],
      "stateMutability": "view",
      "type": "function"
    },
    {
      "inputs": [],
      "name": "getCompanies",
      "outputs": [
        {
          "internalType": "bytes32[]",
          "name": "",
          "type": "bytes32[]"
        },
        {
          "internalType": "address[]",
          "name": "",
          "type": "address[]"
        },
        {
          "internalType": "bytes32[][]",
          "name": "",
          "type": "bytes32[][]"
        }
      ],
      "stateMutability": "view",
      "type": "function"
    },
    {
      "inputs": [
        {
          "internalType": "string",
          "name": "_product",
          "type": "string"
        }
      ],
      "name": "getCompaniesWithProduct",
      "outputs": [
        {
          "internalType": "address[]",
          "name": "",
          "type": "address[]"
        }
      ],
      "stateMutability": "view",
      "type": "function"
    },
    {
      "inputs": [
        {
          "internalType": "address",
          "name": "companyAddress",
          "type": "address"
        }
      ],
      "name": "getCompany",
      "outputs": [
        {
          "internalType": "bytes32",
          "name": "",
          "type": "bytes32"
        },
        {
          "internalType": "bytes32[]",
          "name": "",
          "type": "bytes32[]"
        }
      ],
      "stateMutability": "view",
      "type": "function"
    },
    {
      "inputs": [
        {
          "internalType": "address",
          "name": "_companyAddress",
          "type": "address"
        }
      ],
      "name": "getCompanyProducts",
      "outputs": [
        {
          "internalType": "bytes32[]",
          "name": "",
          "type": "bytes32[]"
        }
      ],
      "stateMutability": "view",
      "type": "function"
    },
    {
      "inputs": [
        {
          "internalType": "uint256",
          "name": "tokenId",
          "type": "uint256"
        }
      ],
      "name": "getDelivery",
      "outputs": [
        {
          "internalType": "bytes32[]",
          "name": "",
          "type": "bytes32[]"
        },
        {
          "internalType": "uint8[]",
          "name": "",
          "type": "uint8[]"
        }
      ],
      "stateMutability": "view",
      "type": "function"
    },
    {
      "inputs": [
        {
          "internalType": "bytes32",
          "name": "role",
          "type": "bytes32"
        }
      ],
      "name": "getRoleAdmin",
      "outputs": [
        {
          "internalType": "bytes32",
          "name": "",
          "type": "bytes32"
        }
      ],
      "stateMutability": "view",
      "type": "function"
    },
    {
      "inputs": [
        {
          "internalType": "bytes32",
          "name": "role",
          "type": "bytes32"
        },
        {
          "internalType": "address",
          "name": "account",
          "type": "address"
        }
      ],
      "name": "grantRole",
      "outputs": [],
      "stateMutability": "nonpayable",
      "type": "function"
    },
    {
      "inputs": [
        {
          "internalType": "address",
          "name": "_companyAddress",
          "type": "address"
        },
        {
          "internalType": "string",
          "name": "_product",
          "type": "string"
        }
      ],
      "name": "hasProduct",
      "outputs": [
        {
          "internalType": "bool",
          "name": "",
          "type": "bool"
        }
      ],
      "stateMutability": "view",
      "type": "function"
    },
    {
      "inputs": [
        {
          "internalType": "bytes32",
          "name": "role",
          "type": "bytes32"
        },
        {
          "internalType": "address",
          "name": "account",
          "type": "address"
        }
      ],
      "name": "hasRole",
      "outputs": [
        {
          "internalType": "bool",
          "name": "",
          "type": "bool"
        }
      ],
      "stateMutability": "view",
      "type": "function"
    },
    {
      "inputs": [
        {
          "internalType": "address",
          "name": "owner",
          "type": "address"
        },
        {
          "internalType": "address",
          "name": "operator",
          "type": "address"
        }
      ],
      "name": "isApprovedForAll",
      "outputs": [
        {
          "internalType": "bool",
          "name": "",
          "type": "bool"
        }
      ],
      "stateMutability": "view",
      "type": "function"
    },
    {
      "inputs": [],
      "name": "name",
      "outputs": [
        {
          "internalType": "string",
          "name": "",
          "type": "string"
        }
      ],
      "stateMutability": "view",
      "type": "function"
    },
    {
      "inputs": [
        {
          "internalType": "uint256",
          "name": "tokenId",
          "type": "uint256"
        }
      ],
      "name": "ownerOf",
      "outputs": [
        {
          "internalType": "address",
          "name": "",
          "type": "address"
        }
      ],
      "stateMutability": "view",
      "type": "function"
    },
    {
      "inputs": [
        {
          "internalType": "bytes32",
          "name": "role",
          "type": "bytes32"
        },
        {
          "internalType": "address",
          "name": "callerConfirmation",
          "type": "address"
        }
      ],
      "name": "renounceRole",
      "outputs": [],
      "stateMutability": "nonpayable",
      "type": "function"
    },
    {
      "inputs": [
        {
          "internalType": "bytes32",
          "name": "role",
          "type": "bytes32"
        },
        {
          "internalType": "address",
          "name": "account",
          "type": "address"
        }
      ],
      "name": "revokeRole",
      "outputs": [],
      "stateMutability": "nonpayable",
      "type": "function"
    },
    {
      "inputs": [
        {
          "internalType": "bytes32[]",
          "name": "_deliveryProducts",
          "type": "bytes32[]"
        },
        {
          "internalType": "uint8[]",
          "name": "numberOfItems",
          "type": "uint8[]"
        }
      ],
      "name": "safeMint",
      "outputs": [],
      "stateMutability": "nonpayable",
      "type": "function"
    },
    {
      "inputs": [
        {
          "internalType": "address",
          "name": "from",
          "type": "address"
        },
        {
          "internalType": "address",
          "name": "to",
          "type": "address"
        },
        {
          "internalType": "uint256",
          "name": "tokenId",
          "type": "uint256"
        }
      ],
      "name": "safeTransferFrom",
      "outputs": [],
      "stateMutability": "nonpayable",
      "type": "function"
    },
    {
      "inputs": [
        {
          "internalType": "address",
          "name": "from",
          "type": "address"
        },
        {
          "internalType": "address",
          "name": "to",
          "type": "address"
        },
        {
          "internalType": "uint256",
          "name": "tokenId",
          "type": "uint256"
        },
        {
          "internalType": "bytes",
          "name": "data",
          "type": "bytes"
        }
      ],
      "name": "safeTransferFrom",
      "outputs": [],
      "stateMutability": "nonpayable",
      "type": "function"
    },
    {
      "inputs": [
        {
          "internalType": "address",
          "name": "operator",
          "type": "address"
        },
        {
          "internalType": "bool",
          "name": "approved",
          "type": "bool"
        }
      ],
      "name": "setApprovalForAll",
      "outputs": [],
      "stateMutability": "nonpayable",
      "type": "function"
    },
    {
      "inputs": [
        {
          "internalType": "bytes4",
          "name": "interfaceId",
          "type": "bytes4"
        }
      ],
      "name": "supportsInterface",
      "outputs": [
        {
          "internalType": "bool",
          "name": "",
          "type": "bool"
        }
      ],
      "stateMutability": "view",
      "type": "function"
    },
    {
      "inputs": [],
      "name": "symbol",
      "outputs": [
        {
          "internalType": "string",
          "name": "",
          "type": "string"
        }
      ],
      "stateMutability": "view",
      "type": "function"
    },
    {
      "inputs": [
        {
          "internalType": "uint256",
          "name": "index",
          "type": "uint256"
        }
      ],
      "name": "tokenByIndex",
      "outputs": [
        {
          "internalType": "uint256",
          "name": "",
          "type": "uint256"
        }
      ],
      "stateMutability": "view",
      "type": "function"
    },
    {
      "inputs": [
        {
          "internalType": "address",
          "name": "owner",
          "type": "address"
        },
        {
          "internalType": "uint256",
          "name": "index",
          "type": "uint256"
        }
      ],
      "name": "tokenOfOwnerByIndex",
      "outputs": [
        {
          "internalType": "uint256",
          "name": "",
          "type": "uint256"
        }
      ],
      "stateMutability": "view",
      "type": "function"
    },
    {
      "inputs": [
        {
          "internalType": "uint256",
          "name": "tokenId",
          "type": "uint256"
        }
      ],
      "name": "tokenURI",
      "outputs": [
        {
          "internalType": "string",
          "name": "",
          "type": "string"
        }
      ],
      "stateMutability": "view",
      "type": "function"
    },
    {
      "inputs": [],
      "name": "totalSupply",
      "outputs": [
        {
          "internalType": "uint256",
          "name": "",
          "type": "uint256"
        }
      ],
      "stateMutability": "view",
      "type": "function"
    },
    {
      "inputs": [
        {
          "internalType": "address",
          "name": "from",
          "type": "address"
        },
        {
          "internalType": "address",
          "name": "to",
          "type": "address"
        },
        {
          "internalType": "uint256",
          "name": "tokenId",
          "type": "uint256"
        }
      ],
      "name": "transferFrom",
      "outputs": [],
      "stateMutability": "nonpayable",
      "type": "function"
    },
    {
      "inputs": [
        {
          "internalType": "address",
          "name": "from",
          "type": "address"
        },
        {
          "internalType": "address",
          "name": "to",
          "type": "address"
        },
        {
          "internalType": "uint256",
          "name": "tokenId",
          "type": "uint256"
        }
      ],
      "name": "transferNFT",
      "outputs": [],
      "stateMutability": "nonpayable",
      "type": "function"
    }
  ],
  "bytecode": "0x60806040523480156200001157600080fd5b50604051620051f4380380620051f483398181016040528101906200003791906200032a565b6040518060400160405280601281526020017f436c6561724f726967696e4e6574776f726b00000000000000000000000000008152506040518060400160405280600381526020017f434f4e00000000000000000000000000000000000000000000000000000000008152508160009081620000b49190620005d6565b508060019081620000c69190620005d6565b505050620000de6000801b826200014960201b60201c565b50600d819080600181540180825580915050600190039060005260206000200160009091909190916101000a81548173ffffffffffffffffffffffffffffffffffffffff021916908373ffffffffffffffffffffffffffffffffffffffff16021790555050620006bd565b60006200015d83836200024d60201b60201c565b620002425760016007600085815260200190815260200160002060000160008473ffffffffffffffffffffffffffffffffffffffff1673ffffffffffffffffffffffffffffffffffffffff16815260200190815260200160002060006101000a81548160ff021916908315150217905550620001de620002b860201b60201c565b73ffffffffffffffffffffffffffffffffffffffff168273ffffffffffffffffffffffffffffffffffffffff16847f2f8788117e7eff1d82e926ec794901d17c78024a50270940304540a733656f0d60405160405180910390a46001905062000247565b600090505b92915050565b60006007600084815260200190815260200160002060000160008373ffffffffffffffffffffffffffffffffffffffff1673ffffffffffffffffffffffffffffffffffffffff16815260200190815260200160002060009054906101000a900460ff16905092915050565b600033905090565b600080fd5b600073ffffffffffffffffffffffffffffffffffffffff82169050919050565b6000620002f282620002c5565b9050919050565b6200030481620002e5565b81146200031057600080fd5b50565b6000815190506200032481620002f9565b92915050565b600060208284031215620003435762000342620002c0565b5b6000620003538482850162000313565b91505092915050565b600081519050919050565b7f4e487b7100000000000000000000000000000000000000000000000000000000600052604160045260246000fd5b7f4e487b7100000000000000000000000000000000000000000000000000000000600052602260045260246000fd5b60006002820490506001821680620003de57607f821691505b602082108103620003f457620003f362000396565b5b50919050565b60008190508160005260206000209050919050565b60006020601f8301049050919050565b600082821b905092915050565b6000600883026200045e7fffffffffffffffffffffffffffffffffffffffffffffffffffffffffffffffff826200041f565b6200046a86836200041f565b95508019841693508086168417925050509392505050565b6000819050919050565b6000819050919050565b6000620004b7620004b1620004ab8462000482565b6200048c565b62000482565b9050919050565b6000819050919050565b620004d38362000496565b620004eb620004e282620004be565b8484546200042c565b825550505050565b600090565b62000502620004f3565b6200050f818484620004c8565b505050565b5b8181101562000537576200052b600082620004f8565b60018101905062000515565b5050565b601f82111562000586576200055081620003fa565b6200055b846200040f565b810160208510156200056b578190505b620005836200057a856200040f565b83018262000514565b50505b505050565b600082821c905092915050565b6000620005ab600019846008026200058b565b1980831691505092915050565b6000620005c6838362000598565b9150826002028217905092915050565b620005e1826200035c565b67ffffffffffffffff811115620005fd57620005fc62000367565b5b620006098254620003c5565b620006168282856200053b565b600060209050601f8311600181146200064e576000841562000639578287015190505b620006458582620005b8565b865550620006b5565b601f1984166200065e86620003fa565b60005b82811015620006885784890151825560018201915060208501945060208101905062000661565b86831015620006a85784890151620006a4601f89168262000598565b8355505b6001600288020188555050505b505050505050565b614b2780620006cd6000396000f3fe608060405234801561001057600080fd5b506004361061021c5760003560e01c80634f6ccce711610125578063a217fddf116100ad578063d547741f1161007c578063d547741f14610686578063d58e7e72146106a2578063de8211a9146106be578063e845e5d8146106ef578063e985e9c51461071f5761021c565b8063a217fddf14610600578063a22cb4651461061e578063b88d4fde1461063a578063c87b56dd146106565761021c565b806369fcba8f116100f457806369fcba8f1461053657806370a08231146105525780637955aab91461058257806391d14854146105b257806395d89b41146105e25761021c565b80634f6ccce71461048957806362bc56e6146104b95780636352211e146104ea57806369e9cae11461051a5761021c565b8063248a9ca3116101a8578063316fd1b111610177578063316fd1b1146103fb57806331ae450b1461041757806336568abe1461043557806342842e0e1461045157806342966c681461046d5761021c565b8063248a9ca31461034f5780632eb6908d1461037f5780632f2ff15d146103af5780632f745c59146103cb5761021c565b80630c0b6691116101ef5780630c0b6691146102bb5780631435c3dc146102db57806318160ddd146102f75780631c9ee11a1461031557806323b872dd146103335761021c565b806301ffc9a71461022157806306fdde0314610251578063081812fc1461026f578063095ea7b31461029f575b600080fd5b61023b600480360381019061023691906136a0565b61074f565b60405161024891906136e8565b60405180910390f35b610259610761565b6040516102669190613793565b60405180910390f35b610289600480360381019061028491906137eb565b6107f3565b6040516102969190613859565b60405180910390f35b6102b960048036038101906102b491906138a0565b61080f565b005b6102c3610825565b6040516102d293929190613b97565b60405180910390f35b6102f560048036038101906102f09190613d57565b610b53565b005b6102ff610d94565b60405161030c9190613dd5565b60405180910390f35b61031d610da1565b60405161032a9190613dff565b60405180910390f35b61034d60048036038101906103489190613e1a565b610dc5565b005b61036960048036038101906103649190613e6d565b610ec7565b6040516103769190613dff565b60405180910390f35b61039960048036038101906103949190613e9a565b610ee7565b6040516103a69190613ec7565b60405180910390f35b6103c960048036038101906103c49190613ee9565b610f81565b005b6103e560048036038101906103e091906138a0565b610fa3565b6040516103f29190613dd5565b60405180910390f35b61041560048036038101906104109190613f29565b61104c565b005b61041f6110f9565b60405161042c9190613f85565b60405180910390f35b61044f600480360381019061044a9190613ee9565b611187565b005b61046b60048036038101906104669190613e1a565b611202565b005b610487600480360381019061048291906137eb565b611222565b005b6104a3600480360381019061049e91906137eb565b611239565b6040516104b09190613dd5565b60405180910390f35b6104d360048036038101906104ce9190613e9a565b6112af565b6040516104e1929190613fa7565b60405180910390f35b61050460048036038101906104ff91906137eb565b61147e565b6040516105119190613859565b60405180910390f35b610534600480360381019061052f9190613e1a565b611490565b005b610550600480360381019061054b91906140d3565b611516565b005b61056c60048036038101906105679190613e9a565b611640565b6040516105799190613dd5565b60405180910390f35b61059c60048036038101906105979190614200565b6116fa565b6040516105a99190613f85565b60405180910390f35b6105cc60048036038101906105c79190613ee9565b6118e2565b6040516105d991906136e8565b60405180910390f35b6105ea61194d565b6040516105f79190613793565b60405180910390f35b6106086119df565b6040516106159190613dff565b60405180910390f35b61063860048036038101906106339190614275565b6119e6565b005b610654600480360381019061064f9190614356565b6119fc565b005b610670600480360381019061066b91906137eb565b611a19565b60405161067d9190613793565b60405180910390f35b6106a0600480360381019061069b9190613ee9565b611a2b565b005b6106bc60048036038101906106b791906143d9565b611a4d565b005b6106d860048036038101906106d391906137eb565b611ac0565b6040516106e69291906144d7565b60405180910390f35b6107096004803603810190610704919061450e565b611c91565b60405161071691906136e8565b60405180910390f35b6107396004803603810190610734919061456a565b611d85565b60405161074691906136e8565b60405180910390f35b600061075a82611e19565b9050919050565b606060008054610770906145d9565b80601f016020809104026020016040519081016040528092919081815260200182805461079c906145d9565b80156107e95780601f106107be576101008083540402835291602001916107e9565b820191906000526020600020905b8154815290600101906020018083116107cc57829003601f168201915b5050505050905090565b60006107fe82611e93565b5061080882611f1b565b9050919050565b610821828261081c611f58565b611f60565b5050565b6060806060600060108054905067ffffffffffffffff81111561084b5761084a613c14565b5b6040519080825280602002602001820160405280156108795781602001602082028036833780820191505090505b509050600060108054905067ffffffffffffffff81111561089d5761089c613c14565b5b6040519080825280602002602001820160405280156108cb5781602001602082028036833780820191505090505b509050600060108054905067ffffffffffffffff8111156108ef576108ee613c14565b5b60405190808252806020026020018201604052801561092257816020015b606081526020019060019003908161090d5790505b50905060005b601080549050811015610b41576000600e60006010848154811061094f5761094e61460a565b5b9060005260206000200160009054906101000a900473ffffffffffffffffffffffffffffffffffffffff1673ffffffffffffffffffffffffffffffffffffffff1673ffffffffffffffffffffffffffffffffffffffff168152602001908152602001600020604051806080016040529081600082015481526020016001820160009054906101000a900473ffffffffffffffffffffffffffffffffffffffff1673ffffffffffffffffffffffffffffffffffffffff1673ffffffffffffffffffffffffffffffffffffffff16815260200160028201805480602002602001604051908101604052809291908181526020018280548015610a6e57602002820191906000526020600020905b815481526020019060010190808311610a5a575b505050505081526020016003820160009054906101000a900460ff16151515158152505090508060000151858381518110610aac57610aab61460a565b5b6020026020010181815250508060200151848381518110610ad057610acf61460a565b5b602002602001019073ffffffffffffffffffffffffffffffffffffffff16908173ffffffffffffffffffffffffffffffffffffffff16815250508060400151838381518110610b2257610b2161460a565b5b6020026020010181905250508080610b3990614668565b915050610928565b50828282955095509550505050909192565b6000801b610b6081611f72565b60001515600e60008573ffffffffffffffffffffffffffffffffffffffff1673ffffffffffffffffffffffffffffffffffffffff16815260200190815260200160002060030160009054906101000a900460ff16151514610bf6576040517f08c379a0000000000000000000000000000000000000000000000000000000008152600401610bed90614722565b60405180910390fd5b60405180608001604052808581526020018473ffffffffffffffffffffffffffffffffffffffff16815260200183815260200160011515815250600e60008573ffffffffffffffffffffffffffffffffffffffff1673ffffffffffffffffffffffffffffffffffffffff1681526020019081526020016000206000820151816000015560208201518160010160006101000a81548173ffffffffffffffffffffffffffffffffffffffff021916908373ffffffffffffffffffffffffffffffffffffffff1602179055506040820151816002019080519060200190610cdc9291906135ca565b5060608201518160030160006101000a81548160ff021916908315150217905550905050610d2a7f9e1688b53537f356172ce07f39e129155063957163c5f9462d4d9e55b228b06c84611f86565b506010839080600181540180825580915050600190039060005260206000200160009091909190916101000a81548173ffffffffffffffffffffffffffffffffffffffff021916908373ffffffffffffffffffffffffffffffffffffffff16021790555050505050565b6000600a80549050905090565b7f9e1688b53537f356172ce07f39e129155063957163c5f9462d4d9e55b228b06c81565b600073ffffffffffffffffffffffffffffffffffffffff168273ffffffffffffffffffffffffffffffffffffffff1603610e375760006040517f64a0ae92000000000000000000000000000000000000000000000000000000008152600401610e2e9190613859565b60405180910390fd5b6000610e4b8383610e46611f58565b612078565b90508373ffffffffffffffffffffffffffffffffffffffff168173ffffffffffffffffffffffffffffffffffffffff1614610ec1578382826040517f64283d7b000000000000000000000000000000000000000000000000000000008152600401610eb893929190614742565b60405180910390fd5b50505050565b600060076000838152602001908152602001600020600101549050919050565b6060600e60008373ffffffffffffffffffffffffffffffffffffffff1673ffffffffffffffffffffffffffffffffffffffff168152602001908152602001600020600201805480602002602001604051908101604052809291908181526020018280548015610f7557602002820191906000526020600020905b815481526020019060010190808311610f61575b50505050509050919050565b610f8a82610ec7565b610f9381611f72565b610f9d8383611f86565b50505050565b6000610fae83611640565b8210610ff35782826040517fa57d13dc000000000000000000000000000000000000000000000000000000008152600401610fea929190614779565b60405180910390fd5b600860008473ffffffffffffffffffffffffffffffffffffffff1673ffffffffffffffffffffffffffffffffffffffff168152602001908152602001600020600083815260200190815260200160002054905092915050565b6000600e60008473ffffffffffffffffffffffffffffffffffffffff1673ffffffffffffffffffffffffffffffffffffffff168152602001908152602001600020905060005b82518110156110f357816002018382815181106110b2576110b161460a565b5b6020026020010151908060018154018082558091505060019003906000526020600020016000909190919091505580806110eb90614668565b915050611092565b50505050565b6060600d80548060200260200160405190810160405280929190818152602001828054801561117d57602002820191906000526020600020905b8160009054906101000a900473ffffffffffffffffffffffffffffffffffffffff1673ffffffffffffffffffffffffffffffffffffffff1681526020019060010190808311611133575b5050505050905090565b61118f611f58565b73ffffffffffffffffffffffffffffffffffffffff168173ffffffffffffffffffffffffffffffffffffffff16146111f3576040517f6697b23200000000000000000000000000000000000000000000000000000000815260040160405180910390fd5b6111fd828261208e565b505050565b61121d838383604051806020016040528060008152506119fc565b505050565b611235600082611230611f58565b612078565b5050565b6000611243610d94565b8210611289576000826040517fa57d13dc000000000000000000000000000000000000000000000000000000008152600401611280929190614779565b60405180910390fd5b600a828154811061129d5761129c61460a565b5b90600052602060002001549050919050565b6000606060011515600e60008573ffffffffffffffffffffffffffffffffffffffff1673ffffffffffffffffffffffffffffffffffffffff16815260200190815260200160002060030160009054906101000a900460ff16151514611349576040517f08c379a000000000000000000000000000000000000000000000000000000000815260040161134090614814565b60405180910390fd5b6000600e60008573ffffffffffffffffffffffffffffffffffffffff1673ffffffffffffffffffffffffffffffffffffffff168152602001908152602001600020604051806080016040529081600082015481526020016001820160009054906101000a900473ffffffffffffffffffffffffffffffffffffffff1673ffffffffffffffffffffffffffffffffffffffff1673ffffffffffffffffffffffffffffffffffffffff1681526020016002820180548060200260200160405190810160405280929190818152602001828054801561144457602002820191906000526020600020905b815481526020019060010190808311611430575b505050505081526020016003820160009054906101000a900460ff1615151515815250509050806000015181604001519250925050915091565b600061148982611e93565b9050919050565b8273ffffffffffffffffffffffffffffffffffffffff166114b08261147e565b73ffffffffffffffffffffffffffffffffffffffff1614611506576040517f08c379a00000000000000000000000000000000000000000000000000000000081526004016114fd90614880565b60405180910390fd5b611511838383611202565b505050565b7f9e1688b53537f356172ce07f39e129155063957163c5f9462d4d9e55b228b06c61154081611f72565b6000600c600081548092919061155590614668565b9190505590506115653382612181565b60005b845181101561163957600f600083815260200190815260200160002060405180604001604052808784815181106115a2576115a161460a565b5b602002602001015181526020018684815181106115c2576115c161460a565b5b602002602001015160ff1681525090806001815401808255809150506001900390600052602060002090600202016000909190919091506000820151816000015560208201518160010160006101000a81548160ff021916908360ff1602179055505050808061163190614668565b915050611568565b5050505050565b60008073ffffffffffffffffffffffffffffffffffffffff168273ffffffffffffffffffffffffffffffffffffffff16036116b35760006040517f89c62b640000000000000000000000000000000000000000000000000000000081526004016116aa9190613859565b60405180910390fd5b600360008373ffffffffffffffffffffffffffffffffffffffff1673ffffffffffffffffffffffffffffffffffffffff168152602001908152602001600020549050919050565b60606000805b60108054905081101561177c57611755601082815481106117245761172361460a565b5b9060005260206000200160009054906101000a900473ffffffffffffffffffffffffffffffffffffffff1685611c91565b1561176957818061176590614668565b9250505b808061177490614668565b915050611700565b5060008167ffffffffffffffff81111561179957611798613c14565b5b6040519080825280602002602001820160405280156117c75781602001602082028036833780820191505090505b5090506000805b6010805490508110156118d657611823601082815481106117f2576117f161460a565b5b9060005260206000200160009054906101000a900473ffffffffffffffffffffffffffffffffffffffff1687611c91565b156118c3576010818154811061183c5761183b61460a565b5b9060005260206000200160009054906101000a900473ffffffffffffffffffffffffffffffffffffffff1683838151811061187a5761187961460a565b5b602002602001019073ffffffffffffffffffffffffffffffffffffffff16908173ffffffffffffffffffffffffffffffffffffffff168152505081806118bf90614668565b9250505b80806118ce90614668565b9150506117ce565b50819350505050919050565b60006007600084815260200190815260200160002060000160008373ffffffffffffffffffffffffffffffffffffffff1673ffffffffffffffffffffffffffffffffffffffff16815260200190815260200160002060009054906101000a900460ff16905092915050565b60606001805461195c906145d9565b80601f0160208091040260200160405190810160405280929190818152602001828054611988906145d9565b80156119d55780601f106119aa576101008083540402835291602001916119d5565b820191906000526020600020905b8154815290600101906020018083116119b857829003601f168201915b5050505050905090565b6000801b81565b6119f86119f1611f58565b838361219f565b5050565b611a07848484610dc5565b611a138484848461230e565b50505050565b6060611a24826124c5565b9050919050565b611a3482610ec7565b611a3d81611f72565b611a47838361208e565b50505050565b6000600e60008473ffffffffffffffffffffffffffffffffffffffff1673ffffffffffffffffffffffffffffffffffffffff168152602001908152602001600020905080600201829080600181540180825580915050600190039060005260206000200160009091909190915055505050565b6060806000600f6000858152602001908152602001600020805480602002602001604051908101604052809291908181526020016000905b82821015611b515783829060005260206000209060020201604051806040016040529081600082015481526020016001820160009054906101000a900460ff1660ff1660ff168152505081526020019060010190611af8565b5050505090506000815167ffffffffffffffff811115611b7457611b73613c14565b5b604051908082528060200260200182016040528015611ba25781602001602082028036833780820191505090505b5090506000825167ffffffffffffffff811115611bc257611bc1613c14565b5b604051908082528060200260200182016040528015611bf05781602001602082028036833780820191505090505b50905060005b8351811015611c82576000848281518110611c1457611c1361460a565b5b602002602001015190508060000151848381518110611c3657611c3561460a565b5b6020026020010181815250508060200151838381518110611c5a57611c5961460a565b5b602002602001019060ff16908160ff1681525050508080611c7a90614668565b915050611bf6565b50818194509450505050915091565b600080600e60008573ffffffffffffffffffffffffffffffffffffffff1673ffffffffffffffffffffffffffffffffffffffff168152602001908152602001600020905060005b8160020180549050811015611d785783604051602001611cf891906148dc565b60405160208183030381529060405280519060200120826002018281548110611d2457611d2361460a565b5b9060005260206000200154604051602001611d3f9190614914565b6040516020818303038152906040528051906020012003611d6557600192505050611d7f565b8080611d7090614668565b915050611cd8565b5060009150505b92915050565b6000600560008473ffffffffffffffffffffffffffffffffffffffff1673ffffffffffffffffffffffffffffffffffffffff16815260200190815260200160002060008373ffffffffffffffffffffffffffffffffffffffff1673ffffffffffffffffffffffffffffffffffffffff16815260200190815260200160002060009054906101000a900460ff16905092915050565b60007f780e9d63000000000000000000000000000000000000000000000000000000007bffffffffffffffffffffffffffffffffffffffffffffffffffffffff1916827bffffffffffffffffffffffffffffffffffffffffffffffffffffffff19161480611e8c5750611e8b826125d8565b5b9050919050565b600080611e9f83612652565b9050600073ffffffffffffffffffffffffffffffffffffffff168173ffffffffffffffffffffffffffffffffffffffff1603611f1257826040517f7e273289000000000000000000000000000000000000000000000000000000008152600401611f099190613dd5565b60405180910390fd5b80915050919050565b60006004600083815260200190815260200160002060009054906101000a900473ffffffffffffffffffffffffffffffffffffffff169050919050565b600033905090565b611f6d838383600161268f565b505050565b611f8381611f7e611f58565b612854565b50565b6000611f9283836118e2565b61206d5760016007600085815260200190815260200160002060000160008473ffffffffffffffffffffffffffffffffffffffff1673ffffffffffffffffffffffffffffffffffffffff16815260200190815260200160002060006101000a81548160ff02191690831515021790555061200a611f58565b73ffffffffffffffffffffffffffffffffffffffff168273ffffffffffffffffffffffffffffffffffffffff16847f2f8788117e7eff1d82e926ec794901d17c78024a50270940304540a733656f0d60405160405180910390a460019050612072565b600090505b92915050565b60006120858484846128a5565b90509392505050565b600061209a83836118e2565b156121765760006007600085815260200190815260200160002060000160008473ffffffffffffffffffffffffffffffffffffffff1673ffffffffffffffffffffffffffffffffffffffff16815260200190815260200160002060006101000a81548160ff021916908315150217905550612113611f58565b73ffffffffffffffffffffffffffffffffffffffff168273ffffffffffffffffffffffffffffffffffffffff16847ff6391f5c32d9c69d2a47ea670b442974b53935d1edc7fd64eb21e047a839171b60405160405180910390a46001905061217b565b600090505b92915050565b61219b8282604051806020016040528060008152506129c2565b5050565b600073ffffffffffffffffffffffffffffffffffffffff168273ffffffffffffffffffffffffffffffffffffffff160361221057816040517f5b08ba180000000000000000000000000000000000000000000000000000000081526004016122079190613859565b60405180910390fd5b80600560008573ffffffffffffffffffffffffffffffffffffffff1673ffffffffffffffffffffffffffffffffffffffff16815260200190815260200160002060008473ffffffffffffffffffffffffffffffffffffffff1673ffffffffffffffffffffffffffffffffffffffff16815260200190815260200160002060006101000a81548160ff0219169083151502179055508173ffffffffffffffffffffffffffffffffffffffff168373ffffffffffffffffffffffffffffffffffffffff167f17307eab39ab6107e8899845ad3d59bd9653f200f220920489ca2b5937696c318360405161230191906136e8565b60405180910390a3505050565b60008373ffffffffffffffffffffffffffffffffffffffff163b11156124bf578273ffffffffffffffffffffffffffffffffffffffff1663150b7a02612352611f58565b8685856040518563ffffffff1660e01b81526004016123749493929190614984565b6020604051808303816000875af19250505080156123b057506040513d601f19601f820116820180604052508101906123ad91906149e5565b60015b612434573d80600081146123e0576040519150601f19603f3d011682016040523d82523d6000602084013e6123e5565b606091505b50600081510361242c57836040517f64a0ae920000000000000000000000000000000000000000000000000000000081526004016124239190613859565b60405180910390fd5b805181602001fd5b63150b7a0260e01b7bffffffffffffffffffffffffffffffffffffffffffffffffffffffff1916817bffffffffffffffffffffffffffffffffffffffffffffffffffffffff1916146124bd57836040517f64a0ae920000000000000000000000000000000000000000000000000000000081526004016124b49190613859565b60405180910390fd5b505b50505050565b60606124d082611e93565b5060006006600084815260200190815260200160002080546124f1906145d9565b80601f016020809104026020016040519081016040528092919081815260200182805461251d906145d9565b801561256a5780601f1061253f5761010080835404028352916020019161256a565b820191906000526020600020905b81548152906001019060200180831161254d57829003601f168201915b50505050509050600061257b6129de565b905060008151036125905781925050506125d3565b6000825111156125c55780826040516020016125ad929190614a12565b604051602081830303815290604052925050506125d3565b6125ce846129f5565b925050505b919050565b60007f7965db0b000000000000000000000000000000000000000000000000000000007bffffffffffffffffffffffffffffffffffffffffffffffffffffffff1916827bffffffffffffffffffffffffffffffffffffffffffffffffffffffff1916148061264b575061264a82612a5e565b5b9050919050565b60006002600083815260200190815260200160002060009054906101000a900473ffffffffffffffffffffffffffffffffffffffff169050919050565b80806126c85750600073ffffffffffffffffffffffffffffffffffffffff168273ffffffffffffffffffffffffffffffffffffffff1614155b156127fc5760006126d884611e93565b9050600073ffffffffffffffffffffffffffffffffffffffff168373ffffffffffffffffffffffffffffffffffffffff161415801561274357508273ffffffffffffffffffffffffffffffffffffffff168173ffffffffffffffffffffffffffffffffffffffff1614155b801561275657506127548184611d85565b155b1561279857826040517fa9fbf51f00000000000000000000000000000000000000000000000000000000815260040161278f9190613859565b60405180910390fd5b81156127fa57838573ffffffffffffffffffffffffffffffffffffffff168273ffffffffffffffffffffffffffffffffffffffff167f8c5be1e5ebec7d5bd14f71427d1e84f3dd0314c0f7b2291e5b200ac8c7c3b92560405160405180910390a45b505b836004600085815260200190815260200160002060006101000a81548173ffffffffffffffffffffffffffffffffffffffff021916908373ffffffffffffffffffffffffffffffffffffffff16021790555050505050565b61285e82826118e2565b6128a15780826040517fe2517d3f000000000000000000000000000000000000000000000000000000008152600401612898929190614a36565b60405180910390fd5b5050565b6000806128b3858585612abf565b9050600073ffffffffffffffffffffffffffffffffffffffff168173ffffffffffffffffffffffffffffffffffffffff16036128f7576128f284612cd9565b612936565b8473ffffffffffffffffffffffffffffffffffffffff168173ffffffffffffffffffffffffffffffffffffffff1614612935576129348185612d22565b5b5b600073ffffffffffffffffffffffffffffffffffffffff168573ffffffffffffffffffffffffffffffffffffffff16036129785761297384612e83565b6129b7565b8473ffffffffffffffffffffffffffffffffffffffff168173ffffffffffffffffffffffffffffffffffffffff16146129b6576129b58585612f54565b5b5b809150509392505050565b6129cc8383612fdf565b6129d9600084848461230e565b505050565b606060405180602001604052806000815250905090565b6060612a0082611e93565b506000612a0b6129de565b90506000815111612a2b5760405180602001604052806000815250612a56565b80612a35846130d8565b604051602001612a46929190614a12565b6040516020818303038152906040525b915050919050565b6000634906490660e01b7bffffffffffffffffffffffffffffffffffffffffffffffffffffffff1916827bffffffffffffffffffffffffffffffffffffffffffffffffffffffff19161480612ab85750612ab7826131a6565b5b9050919050565b600080612acb84612652565b9050600073ffffffffffffffffffffffffffffffffffffffff168373ffffffffffffffffffffffffffffffffffffffff1614612b0d57612b0c818486613288565b5b600073ffffffffffffffffffffffffffffffffffffffff168173ffffffffffffffffffffffffffffffffffffffff1614612b9e57612b4f60008560008061268f565b6001600360008373ffffffffffffffffffffffffffffffffffffffff1673ffffffffffffffffffffffffffffffffffffffff168152602001908152602001600020600082825403925050819055505b600073ffffffffffffffffffffffffffffffffffffffff168573ffffffffffffffffffffffffffffffffffffffff1614612c21576001600360008773ffffffffffffffffffffffffffffffffffffffff1673ffffffffffffffffffffffffffffffffffffffff168152602001908152602001600020600082825401925050819055505b846002600086815260200190815260200160002060006101000a81548173ffffffffffffffffffffffffffffffffffffffff021916908373ffffffffffffffffffffffffffffffffffffffff160217905550838573ffffffffffffffffffffffffffffffffffffffff168273ffffffffffffffffffffffffffffffffffffffff167fddf252ad1be2c89b69c2b068fc378daa952ba7f163c4a11628f55a4df523b3ef60405160405180910390a4809150509392505050565b600a80549050600b600083815260200190815260200160002081905550600a81908060018154018082558091505060019003906000526020600020016000909190919091505550565b6000612d2d83611640565b9050600060096000848152602001908152602001600020549050818114612e12576000600860008673ffffffffffffffffffffffffffffffffffffffff1673ffffffffffffffffffffffffffffffffffffffff168152602001908152602001600020600084815260200190815260200160002054905080600860008773ffffffffffffffffffffffffffffffffffffffff1673ffffffffffffffffffffffffffffffffffffffff168152602001908152602001600020600084815260200190815260200160002081905550816009600083815260200190815260200160002081905550505b6009600084815260200190815260200160002060009055600860008573ffffffffffffffffffffffffffffffffffffffff1673ffffffffffffffffffffffffffffffffffffffff16815260200190815260200160002060008381526020019081526020016000206000905550505050565b60006001600a80549050612e979190614a5f565b90506000600b60008481526020019081526020016000205490506000600a8381548110612ec757612ec661460a565b5b9060005260206000200154905080600a8381548110612ee957612ee861460a565b5b906000526020600020018190555081600b600083815260200190815260200160002081905550600b600085815260200190815260200160002060009055600a805480612f3857612f37614a93565b5b6001900381819060005260206000200160009055905550505050565b60006001612f6184611640565b612f6b9190614a5f565b905081600860008573ffffffffffffffffffffffffffffffffffffffff1673ffffffffffffffffffffffffffffffffffffffff168152602001908152602001600020600083815260200190815260200160002081905550806009600084815260200190815260200160002081905550505050565b600073ffffffffffffffffffffffffffffffffffffffff168273ffffffffffffffffffffffffffffffffffffffff16036130515760006040517f64a0ae920000000000000000000000000000000000000000000000000000000081526004016130489190613859565b60405180910390fd5b600061305f83836000612078565b9050600073ffffffffffffffffffffffffffffffffffffffff168173ffffffffffffffffffffffffffffffffffffffff16146130d35760006040517f73c6ac6e0000000000000000000000000000000000000000000000000000000081526004016130ca9190613859565b60405180910390fd5b505050565b6060600060016130e78461334c565b01905060008167ffffffffffffffff81111561310657613105613c14565b5b6040519080825280601f01601f1916602001820160405280156131385781602001600182028036833780820191505090505b509050600082602001820190505b60011561319b578080600190039150507f3031323334353637383961626364656600000000000000000000000000000000600a86061a8153600a858161318f5761318e614ac2565b5b04945060008503613146575b819350505050919050565b60007f80ac58cd000000000000000000000000000000000000000000000000000000007bffffffffffffffffffffffffffffffffffffffffffffffffffffffff1916827bffffffffffffffffffffffffffffffffffffffffffffffffffffffff1916148061327157507f5b5e139f000000000000000000000000000000000000000000000000000000007bffffffffffffffffffffffffffffffffffffffffffffffffffffffff1916827bffffffffffffffffffffffffffffffffffffffffffffffffffffffff1916145b8061328157506132808261349f565b5b9050919050565b613293838383613509565b61334757600073ffffffffffffffffffffffffffffffffffffffff168373ffffffffffffffffffffffffffffffffffffffff160361330857806040517f7e2732890000000000000000000000000000000000000000000000000000000081526004016132ff9190613dd5565b60405180910390fd5b81816040517f177e802f00000000000000000000000000000000000000000000000000000000815260040161333e929190614779565b60405180910390fd5b505050565b600080600090507a184f03e93ff9f4daa797ed6e38ed64bf6a1f01000000000000000083106133aa577a184f03e93ff9f4daa797ed6e38ed64bf6a1f01000000000000000083816133a05761339f614ac2565b5b0492506040810190505b6d04ee2d6d415b85acef810000000083106133e7576d04ee2d6d415b85acef810000000083816133dd576133dc614ac2565b5b0492506020810190505b662386f26fc10000831061341657662386f26fc10000838161340c5761340b614ac2565b5b0492506010810190505b6305f5e100831061343f576305f5e100838161343557613434614ac2565b5b0492506008810190505b612710831061346457612710838161345a57613459614ac2565b5b0492506004810190505b60648310613487576064838161347d5761347c614ac2565b5b0492506002810190505b600a8310613496576001810190505b80915050919050565b60007f01ffc9a7000000000000000000000000000000000000000000000000000000007bffffffffffffffffffffffffffffffffffffffffffffffffffffffff1916827bffffffffffffffffffffffffffffffffffffffffffffffffffffffff1916149050919050565b60008073ffffffffffffffffffffffffffffffffffffffff168373ffffffffffffffffffffffffffffffffffffffff16141580156135c157508273ffffffffffffffffffffffffffffffffffffffff168473ffffffffffffffffffffffffffffffffffffffff16148061358257506135818484611d85565b5b806135c057508273ffffffffffffffffffffffffffffffffffffffff166135a883611f1b565b73ffffffffffffffffffffffffffffffffffffffff16145b5b90509392505050565b828054828255906000526020600020908101928215613606579160200282015b828111156136055782518255916020019190600101906135ea565b5b5090506136139190613617565b5090565b5b80821115613630576000816000905550600101613618565b5090565b6000604051905090565b600080fd5b600080fd5b60007fffffffff0000000000000000000000000000000000000000000000000000000082169050919050565b61367d81613648565b811461368857600080fd5b50565b60008135905061369a81613674565b92915050565b6000602082840312156136b6576136b561363e565b5b60006136c48482850161368b565b91505092915050565b60008115159050919050565b6136e2816136cd565b82525050565b60006020820190506136fd60008301846136d9565b92915050565b600081519050919050565b600082825260208201905092915050565b60005b8381101561373d578082015181840152602081019050613722565b60008484015250505050565b6000601f19601f8301169050919050565b600061376582613703565b61376f818561370e565b935061377f81856020860161371f565b61378881613749565b840191505092915050565b600060208201905081810360008301526137ad818461375a565b905092915050565b6000819050919050565b6137c8816137b5565b81146137d357600080fd5b50565b6000813590506137e5816137bf565b92915050565b6000602082840312156138015761380061363e565b5b600061380f848285016137d6565b91505092915050565b600073ffffffffffffffffffffffffffffffffffffffff82169050919050565b600061384382613818565b9050919050565b61385381613838565b82525050565b600060208201905061386e600083018461384a565b92915050565b61387d81613838565b811461388857600080fd5b50565b60008135905061389a81613874565b92915050565b600080604083850312156138b7576138b661363e565b5b60006138c58582860161388b565b92505060206138d6858286016137d6565b9150509250929050565b600081519050919050565b600082825260208201905092915050565b6000819050602082019050919050565b6000819050919050565b61391f8161390c565b82525050565b60006139318383613916565b60208301905092915050565b6000602082019050919050565b6000613955826138e0565b61395f81856138eb565b935061396a836138fc565b8060005b8381101561399b5781516139828882613925565b975061398d8361393d565b92505060018101905061396e565b5085935050505092915050565b600081519050919050565b600082825260208201905092915050565b6000819050602082019050919050565b6139dd81613838565b82525050565b60006139ef83836139d4565b60208301905092915050565b6000602082019050919050565b6000613a13826139a8565b613a1d81856139b3565b9350613a28836139c4565b8060005b83811015613a59578151613a4088826139e3565b9750613a4b836139fb565b925050600181019050613a2c565b5085935050505092915050565b600081519050919050565b600082825260208201905092915050565b6000819050602082019050919050565b600082825260208201905092915050565b6000613aae826138e0565b613ab88185613a92565b9350613ac3836138fc565b8060005b83811015613af4578151613adb8882613925565b9750613ae68361393d565b925050600181019050613ac7565b5085935050505092915050565b6000613b0d8383613aa3565b905092915050565b6000602082019050919050565b6000613b2d82613a66565b613b378185613a71565b935083602082028501613b4985613a82565b8060005b85811015613b855784840389528151613b668582613b01565b9450613b7183613b15565b925060208a01995050600181019050613b4d565b50829750879550505050505092915050565b60006060820190508181036000830152613bb1818661394a565b90508181036020830152613bc58185613a08565b90508181036040830152613bd98184613b22565b9050949350505050565b613bec8161390c565b8114613bf757600080fd5b50565b600081359050613c0981613be3565b92915050565b600080fd5b7f4e487b7100000000000000000000000000000000000000000000000000000000600052604160045260246000fd5b613c4c82613749565b810181811067ffffffffffffffff82111715613c6b57613c6a613c14565b5b80604052505050565b6000613c7e613634565b9050613c8a8282613c43565b919050565b600067ffffffffffffffff821115613caa57613ca9613c14565b5b602082029050602081019050919050565b600080fd5b6000613cd3613cce84613c8f565b613c74565b90508083825260208201905060208402830185811115613cf657613cf5613cbb565b5b835b81811015613d1f5780613d0b8882613bfa565b845260208401935050602081019050613cf8565b5050509392505050565b600082601f830112613d3e57613d3d613c0f565b5b8135613d4e848260208601613cc0565b91505092915050565b600080600060608486031215613d7057613d6f61363e565b5b6000613d7e86828701613bfa565b9350506020613d8f8682870161388b565b925050604084013567ffffffffffffffff811115613db057613daf613643565b5b613dbc86828701613d29565b9150509250925092565b613dcf816137b5565b82525050565b6000602082019050613dea6000830184613dc6565b92915050565b613df98161390c565b82525050565b6000602082019050613e146000830184613df0565b92915050565b600080600060608486031215613e3357613e3261363e565b5b6000613e418682870161388b565b9350506020613e528682870161388b565b9250506040613e63868287016137d6565b9150509250925092565b600060208284031215613e8357613e8261363e565b5b6000613e9184828501613bfa565b91505092915050565b600060208284031215613eb057613eaf61363e565b5b6000613ebe8482850161388b565b91505092915050565b60006020820190508181036000830152613ee1818461394a565b905092915050565b60008060408385031215613f0057613eff61363e565b5b6000613f0e85828601613bfa565b9250506020613f1f8582860161388b565b9150509250929050565b60008060408385031215613f4057613f3f61363e565b5b6000613f4e8582860161388b565b925050602083013567ffffffffffffffff811115613f6f57613f6e613643565b5b613f7b85828601613d29565b9150509250929050565b60006020820190508181036000830152613f9f8184613a08565b905092915050565b6000604082019050613fbc6000830185613df0565b8181036020830152613fce818461394a565b90509392505050565b600067ffffffffffffffff821115613ff257613ff1613c14565b5b602082029050602081019050919050565b600060ff82169050919050565b61401981614003565b811461402457600080fd5b50565b60008135905061403681614010565b92915050565b600061404f61404a84613fd7565b613c74565b9050808382526020820190506020840283018581111561407257614071613cbb565b5b835b8181101561409b57806140878882614027565b845260208401935050602081019050614074565b5050509392505050565b600082601f8301126140ba576140b9613c0f565b5b81356140ca84826020860161403c565b91505092915050565b600080604083850312156140ea576140e961363e565b5b600083013567ffffffffffffffff81111561410857614107613643565b5b61411485828601613d29565b925050602083013567ffffffffffffffff81111561413557614134613643565b5b614141858286016140a5565b9150509250929050565b600080fd5b600067ffffffffffffffff82111561416b5761416a613c14565b5b61417482613749565b9050602081019050919050565b82818337600083830152505050565b60006141a361419e84614150565b613c74565b9050828152602081018484840111156141bf576141be61414b565b5b6141ca848285614181565b509392505050565b600082601f8301126141e7576141e6613c0f565b5b81356141f7848260208601614190565b91505092915050565b6000602082840312156142165761421561363e565b5b600082013567ffffffffffffffff81111561423457614233613643565b5b614240848285016141d2565b91505092915050565b614252816136cd565b811461425d57600080fd5b50565b60008135905061426f81614249565b92915050565b6000806040838503121561428c5761428b61363e565b5b600061429a8582860161388b565b92505060206142ab85828601614260565b9150509250929050565b600067ffffffffffffffff8211156142d0576142cf613c14565b5b6142d982613749565b9050602081019050919050565b60006142f96142f4846142b5565b613c74565b9050828152602081018484840111156143155761431461414b565b5b614320848285614181565b509392505050565b600082601f83011261433d5761433c613c0f565b5b813561434d8482602086016142e6565b91505092915050565b600080600080608085870312156143705761436f61363e565b5b600061437e8782880161388b565b945050602061438f8782880161388b565b93505060406143a0878288016137d6565b925050606085013567ffffffffffffffff8111156143c1576143c0613643565b5b6143cd87828801614328565b91505092959194509250565b600080604083850312156143f0576143ef61363e565b5b60006143fe8582860161388b565b925050602061440f85828601613bfa565b9150509250929050565b600081519050919050565b600082825260208201905092915050565b6000819050602082019050919050565b61444e81614003565b82525050565b60006144608383614445565b60208301905092915050565b6000602082019050919050565b600061448482614419565b61448e8185614424565b935061449983614435565b8060005b838110156144ca5781516144b18882614454565b97506144bc8361446c565b92505060018101905061449d565b5085935050505092915050565b600060408201905081810360008301526144f1818561394a565b905081810360208301526145058184614479565b90509392505050565b600080604083850312156145255761452461363e565b5b60006145338582860161388b565b925050602083013567ffffffffffffffff81111561455457614553613643565b5b614560858286016141d2565b9150509250929050565b600080604083850312156145815761458061363e565b5b600061458f8582860161388b565b92505060206145a08582860161388b565b9150509250929050565b7f4e487b7100000000000000000000000000000000000000000000000000000000600052602260045260246000fd5b600060028204905060018216806145f157607f821691505b602082108103614604576146036145aa565b5b50919050565b7f4e487b7100000000000000000000000000000000000000000000000000000000600052603260045260246000fd5b7f4e487b7100000000000000000000000000000000000000000000000000000000600052601160045260246000fd5b6000614673826137b5565b91507fffffffffffffffffffffffffffffffffffffffffffffffffffffffffffffffff82036146a5576146a4614639565b5b600182019050919050565b7f57616c6c6574206164647265737320697320616c72656164792061737369676e60008201527f6564000000000000000000000000000000000000000000000000000000000000602082015250565b600061470c60228361370e565b9150614717826146b0565b604082019050919050565b6000602082019050818103600083015261473b816146ff565b9050919050565b6000606082019050614757600083018661384a565b6147646020830185613dc6565b614771604083018461384a565b949350505050565b600060408201905061478e600083018561384a565b61479b6020830184613dc6565b9392505050565b7f4e6f20436f6d70616e792077697468207468652072657175657374656420776160008201527f6c6c657420616464726573730000000000000000000000000000000000000000602082015250565b60006147fe602c8361370e565b9150614809826147a2565b604082019050919050565b6000602082019050818103600083015261482d816147f1565b9050919050565b7f546f6b656e206e6f74206f776e65642062792074686520616464726573730000600082015250565b600061486a601e8361370e565b915061487582614834565b602082019050919050565b600060208201905081810360008301526148998161485d565b9050919050565b600081905092915050565b60006148b682613703565b6148c081856148a0565b93506148d081856020860161371f565b80840191505092915050565b60006148e882846148ab565b915081905092915050565b6000819050919050565b61490e6149098261390c565b6148f3565b82525050565b600061492082846148fd565b60208201915081905092915050565b600081519050919050565b600082825260208201905092915050565b60006149568261492f565b614960818561493a565b935061497081856020860161371f565b61497981613749565b840191505092915050565b6000608082019050614999600083018761384a565b6149a6602083018661384a565b6149b36040830185613dc6565b81810360608301526149c5818461494b565b905095945050505050565b6000815190506149df81613674565b92915050565b6000602082840312156149fb576149fa61363e565b5b6000614a09848285016149d0565b91505092915050565b6000614a1e82856148ab565b9150614a2a82846148ab565b91508190509392505050565b6000604082019050614a4b600083018561384a565b614a586020830184613df0565b9392505050565b6000614a6a826137b5565b9150614a75836137b5565b9250828203905081811115614a8d57614a8c614639565b5b92915050565b7f4e487b7100000000000000000000000000000000000000000000000000000000600052603160045260246000fd5b7f4e487b7100000000000000000000000000000000000000000000000000000000600052601260045260246000fdfea2646970667358221220a24d0c3346fb56a1e6b4923be5068f7522e730e43682f6603c69b4a30d5cfd1464736f6c63430008140033",
  "linkReferences": {},
  "deployedLinkReferences": {}
}