{
  "_format": "hh-sol-artifact-1",
  "contractName": "ClearOriginNetwork",
  "sourceName": "contracts/ClearOriginNetwork.sol",
  "abi": [
    {
      "inputs": [
        {
          "internalType": "address",
          "name": "defaultAdmin",
          "type": "address"
        }
      ],
      "stateMutability": "nonpayable",
      "type": "constructor"
    },
    {
      "inputs": [],
      "name": "AccessControlBadConfirmation",
      "type": "error"
    },
    {
      "inputs": [
        {
          "internalType": "address",
          "name": "account",
          "type": "address"
        },
        {
          "internalType": "bytes32",
          "name": "neededRole",
          "type": "bytes32"
        }
      ],
      "name": "AccessControlUnauthorizedAccount",
      "type": "error"
    },
    {
      "inputs": [],
      "name": "ERC721EnumerableForbiddenBatchMint",
      "type": "error"
    },
    {
      "inputs": [
        {
          "internalType": "address",
          "name": "sender",
          "type": "address"
        },
        {
          "internalType": "uint256",
          "name": "tokenId",
          "type": "uint256"
        },
        {
          "internalType": "address",
          "name": "owner",
          "type": "address"
        }
      ],
      "name": "ERC721IncorrectOwner",
      "type": "error"
    },
    {
      "inputs": [
        {
          "internalType": "address",
          "name": "operator",
          "type": "address"
        },
        {
          "internalType": "uint256",
          "name": "tokenId",
          "type": "uint256"
        }
      ],
      "name": "ERC721InsufficientApproval",
      "type": "error"
    },
    {
      "inputs": [
        {
          "internalType": "address",
          "name": "approver",
          "type": "address"
        }
      ],
      "name": "ERC721InvalidApprover",
      "type": "error"
    },
    {
      "inputs": [
        {
          "internalType": "address",
          "name": "operator",
          "type": "address"
        }
      ],
      "name": "ERC721InvalidOperator",
      "type": "error"
    },
    {
      "inputs": [
        {
          "internalType": "address",
          "name": "owner",
          "type": "address"
        }
      ],
      "name": "ERC721InvalidOwner",
      "type": "error"
    },
    {
      "inputs": [
        {
          "internalType": "address",
          "name": "receiver",
          "type": "address"
        }
      ],
      "name": "ERC721InvalidReceiver",
      "type": "error"
    },
    {
      "inputs": [
        {
          "internalType": "address",
          "name": "sender",
          "type": "address"
        }
      ],
      "name": "ERC721InvalidSender",
      "type": "error"
    },
    {
      "inputs": [
        {
          "internalType": "uint256",
          "name": "tokenId",
          "type": "uint256"
        }
      ],
      "name": "ERC721NonexistentToken",
      "type": "error"
    },
    {
      "inputs": [
        {
          "internalType": "address",
          "name": "owner",
          "type": "address"
        },
        {
          "internalType": "uint256",
          "name": "index",
          "type": "uint256"
        }
      ],
      "name": "ERC721OutOfBoundsIndex",
      "type": "error"
    },
    {
      "anonymous": false,
      "inputs": [
        {
          "indexed": true,
          "internalType": "address",
          "name": "owner",
          "type": "address"
        },
        {
          "indexed": true,
          "internalType": "address",
          "name": "approved",
          "type": "address"
        },
        {
          "indexed": true,
          "internalType": "uint256",
          "name": "tokenId",
          "type": "uint256"
        }
      ],
      "name": "Approval",
      "type": "event"
    },
    {
      "anonymous": false,
      "inputs": [
        {
          "indexed": true,
          "internalType": "address",
          "name": "owner",
          "type": "address"
        },
        {
          "indexed": true,
          "internalType": "address",
          "name": "operator",
          "type": "address"
        },
        {
          "indexed": false,
          "internalType": "bool",
          "name": "approved",
          "type": "bool"
        }
      ],
      "name": "ApprovalForAll",
      "type": "event"
    },
    {
      "anonymous": false,
      "inputs": [
        {
          "indexed": false,
          "internalType": "uint256",
          "name": "_fromTokenId",
          "type": "uint256"
        },
        {
          "indexed": false,
          "internalType": "uint256",
          "name": "_toTokenId",
          "type": "uint256"
        }
      ],
      "name": "BatchMetadataUpdate",
      "type": "event"
    },
    {
      "anonymous": false,
      "inputs": [
        {
          "indexed": false,
          "internalType": "uint256",
          "name": "_tokenId",
          "type": "uint256"
        }
      ],
      "name": "MetadataUpdate",
      "type": "event"
    },
    {
      "anonymous": false,
      "inputs": [
        {
          "indexed": true,
          "internalType": "bytes32",
          "name": "role",
          "type": "bytes32"
        },
        {
          "indexed": true,
          "internalType": "bytes32",
          "name": "previousAdminRole",
          "type": "bytes32"
        },
        {
          "indexed": true,
          "internalType": "bytes32",
          "name": "newAdminRole",
          "type": "bytes32"
        }
      ],
      "name": "RoleAdminChanged",
      "type": "event"
    },
    {
      "anonymous": false,
      "inputs": [
        {
          "indexed": true,
          "internalType": "bytes32",
          "name": "role",
          "type": "bytes32"
        },
        {
          "indexed": true,
          "internalType": "address",
          "name": "account",
          "type": "address"
        },
        {
          "indexed": true,
          "internalType": "address",
          "name": "sender",
          "type": "address"
        }
      ],
      "name": "RoleGranted",
      "type": "event"
    },
    {
      "anonymous": false,
      "inputs": [
        {
          "indexed": true,
          "internalType": "bytes32",
          "name": "role",
          "type": "bytes32"
        },
        {
          "indexed": true,
          "internalType": "address",
          "name": "account",
          "type": "address"
        },
        {
          "indexed": true,
          "internalType": "address",
          "name": "sender",
          "type": "address"
        }
      ],
      "name": "RoleRevoked",
      "type": "event"
    },
    {
      "anonymous": false,
      "inputs": [
        {
          "indexed": true,
          "internalType": "address",
          "name": "from",
          "type": "address"
        },
        {
          "indexed": true,
          "internalType": "address",
          "name": "to",
          "type": "address"
        },
        {
          "indexed": true,
          "internalType": "uint256",
          "name": "tokenId",
          "type": "uint256"
        }
      ],
      "name": "Transfer",
      "type": "event"
    },
    {
      "inputs": [],
      "name": "COMPANY_ROLE",
      "outputs": [
        {
          "internalType": "bytes32",
          "name": "",
          "type": "bytes32"
        }
      ],
      "stateMutability": "view",
      "type": "function"
    },
    {
      "inputs": [],
      "name": "DEFAULT_ADMIN_ROLE",
      "outputs": [
        {
          "internalType": "bytes32",
          "name": "",
          "type": "bytes32"
        }
      ],
      "stateMutability": "view",
      "type": "function"
    },
    {
      "inputs": [
        {
          "internalType": "bytes32",
          "name": "_companyName",
          "type": "bytes32"
        },
        {
          "internalType": "address",
          "name": "_companyAddress",
          "type": "address"
        },
        {
          "internalType": "bytes32[]",
          "name": "_companyProducts",
          "type": "bytes32[]"
        }
      ],
      "name": "addCompany",
      "outputs": [],
      "stateMutability": "nonpayable",
      "type": "function"
    },
    {
      "inputs": [
        {
          "internalType": "address",
          "name": "_companyAddress",
          "type": "address"
        },
        {
          "internalType": "bytes32",
          "name": "_product",
          "type": "bytes32"
        }
      ],
      "name": "addProduct",
      "outputs": [],
      "stateMutability": "nonpayable",
      "type": "function"
    },
    {
      "inputs": [
        {
          "internalType": "address",
          "name": "_companyAddress",
          "type": "address"
        },
        {
          "internalType": "bytes32[]",
          "name": "_products",
          "type": "bytes32[]"
        }
      ],
      "name": "addProducts",
      "outputs": [],
      "stateMutability": "nonpayable",
      "type": "function"
    },
    {
      "inputs": [
        {
          "internalType": "address",
          "name": "to",
          "type": "address"
        },
        {
          "internalType": "uint256",
          "name": "tokenId",
          "type": "uint256"
        }
      ],
      "name": "approve",
      "outputs": [],
      "stateMutability": "nonpayable",
      "type": "function"
    },
    {
      "inputs": [
        {
          "internalType": "address",
          "name": "owner",
          "type": "address"
        }
      ],
      "name": "balanceOf",
      "outputs": [
        {
          "internalType": "uint256",
          "name": "",
          "type": "uint256"
        }
      ],
      "stateMutability": "view",
      "type": "function"
    },
    {
      "inputs": [
        {
          "internalType": "uint256",
          "name": "tokenId",
          "type": "uint256"
        }
      ],
      "name": "burn",
      "outputs": [],
      "stateMutability": "nonpayable",
      "type": "function"
    },
    {
      "inputs": [
        {
          "internalType": "uint256",
          "name": "tokenId",
          "type": "uint256"
        }
      ],
      "name": "getApproved",
      "outputs": [
        {
          "internalType": "address",
          "name": "",
          "type": "address"
        }
      ],
      "stateMutability": "view",
      "type": "function"
    },
    {
      "inputs": [],
      "name": "getCompanies",
      "outputs": [
        {
          "internalType": "bytes32[]",
          "name": "",
          "type": "bytes32[]"
        },
        {
          "internalType": "address[]",
          "name": "",
          "type": "address[]"
        },
        {
          "internalType": "bytes32[][]",
          "name": "",
          "type": "bytes32[][]"
        }
      ],
      "stateMutability": "view",
      "type": "function"
    },
    {
      "inputs": [
        {
          "internalType": "string",
          "name": "_product",
          "type": "string"
        }
      ],
      "name": "getCompaniesWithProduct",
      "outputs": [
        {
          "internalType": "address[]",
          "name": "",
          "type": "address[]"
        }
      ],
      "stateMutability": "view",
      "type": "function"
    },
    {
      "inputs": [
        {
          "internalType": "address",
          "name": "companyAddress",
          "type": "address"
        }
      ],
      "name": "getCompany",
      "outputs": [
        {
          "internalType": "bytes32",
          "name": "",
          "type": "bytes32"
        },
        {
          "internalType": "bytes32[]",
          "name": "",
          "type": "bytes32[]"
        }
      ],
      "stateMutability": "view",
      "type": "function"
    },
    {
      "inputs": [
        {
          "internalType": "address",
          "name": "_companyAddress",
          "type": "address"
        }
      ],
      "name": "getCompanyProducts",
      "outputs": [
        {
          "internalType": "bytes32[]",
          "name": "",
          "type": "bytes32[]"
        }
      ],
      "stateMutability": "view",
      "type": "function"
    },
    {
      "inputs": [
        {
          "internalType": "uint256",
          "name": "tokenId",
          "type": "uint256"
        }
      ],
      "name": "getDelivery",
      "outputs": [
        {
          "internalType": "bytes32[]",
          "name": "",
          "type": "bytes32[]"
        },
        {
          "internalType": "uint8[]",
          "name": "",
          "type": "uint8[]"
        }
      ],
      "stateMutability": "view",
      "type": "function"
    },
    {
      "inputs": [
        {
          "internalType": "bytes32",
          "name": "role",
          "type": "bytes32"
        }
      ],
      "name": "getRoleAdmin",
      "outputs": [
        {
          "internalType": "bytes32",
          "name": "",
          "type": "bytes32"
        }
      ],
      "stateMutability": "view",
      "type": "function"
    },
    {
      "inputs": [
        {
          "internalType": "bytes32",
          "name": "role",
          "type": "bytes32"
        },
        {
          "internalType": "address",
          "name": "account",
          "type": "address"
        }
      ],
      "name": "grantRole",
      "outputs": [],
      "stateMutability": "nonpayable",
      "type": "function"
    },
    {
      "inputs": [
        {
          "internalType": "address",
          "name": "_companyAddress",
          "type": "address"
        },
        {
          "internalType": "string",
          "name": "_product",
          "type": "string"
        }
      ],
      "name": "hasProduct",
      "outputs": [
        {
          "internalType": "bool",
          "name": "",
          "type": "bool"
        }
      ],
      "stateMutability": "view",
      "type": "function"
    },
    {
      "inputs": [
        {
          "internalType": "bytes32",
          "name": "role",
          "type": "bytes32"
        },
        {
          "internalType": "address",
          "name": "account",
          "type": "address"
        }
      ],
      "name": "hasRole",
      "outputs": [
        {
          "internalType": "bool",
          "name": "",
          "type": "bool"
        }
      ],
      "stateMutability": "view",
      "type": "function"
    },
    {
      "inputs": [
        {
          "internalType": "address",
          "name": "owner",
          "type": "address"
        },
        {
          "internalType": "address",
          "name": "operator",
          "type": "address"
        }
      ],
      "name": "isApprovedForAll",
      "outputs": [
        {
          "internalType": "bool",
          "name": "",
          "type": "bool"
        }
      ],
      "stateMutability": "view",
      "type": "function"
    },
    {
      "inputs": [],
      "name": "name",
      "outputs": [
        {
          "internalType": "string",
          "name": "",
          "type": "string"
        }
      ],
      "stateMutability": "view",
      "type": "function"
    },
    {
      "inputs": [
        {
          "internalType": "uint256",
          "name": "tokenId",
          "type": "uint256"
        }
      ],
      "name": "ownerOf",
      "outputs": [
        {
          "internalType": "address",
          "name": "",
          "type": "address"
        }
      ],
      "stateMutability": "view",
      "type": "function"
    },
    {
      "inputs": [
        {
          "internalType": "bytes32",
          "name": "role",
          "type": "bytes32"
        },
        {
          "internalType": "address",
          "name": "callerConfirmation",
          "type": "address"
        }
      ],
      "name": "renounceRole",
      "outputs": [],
      "stateMutability": "nonpayable",
      "type": "function"
    },
    {
      "inputs": [
        {
          "internalType": "bytes32",
          "name": "role",
          "type": "bytes32"
        },
        {
          "internalType": "address",
          "name": "account",
          "type": "address"
        }
      ],
      "name": "revokeRole",
      "outputs": [],
      "stateMutability": "nonpayable",
      "type": "function"
    },
    {
      "inputs": [
        {
          "internalType": "bytes32[]",
          "name": "_deliveryProducts",
          "type": "bytes32[]"
        },
        {
          "internalType": "uint8[]",
          "name": "numberOfItems",
          "type": "uint8[]"
        }
      ],
      "name": "safeMint",
      "outputs": [],
      "stateMutability": "nonpayable",
      "type": "function"
    },
    {
      "inputs": [
        {
          "internalType": "address",
          "name": "from",
          "type": "address"
        },
        {
          "internalType": "address",
          "name": "to",
          "type": "address"
        },
        {
          "internalType": "uint256",
          "name": "tokenId",
          "type": "uint256"
        }
      ],
      "name": "safeTransferFrom",
      "outputs": [],
      "stateMutability": "nonpayable",
      "type": "function"
    },
    {
      "inputs": [
        {
          "internalType": "address",
          "name": "from",
          "type": "address"
        },
        {
          "internalType": "address",
          "name": "to",
          "type": "address"
        },
        {
          "internalType": "uint256",
          "name": "tokenId",
          "type": "uint256"
        },
        {
          "internalType": "bytes",
          "name": "data",
          "type": "bytes"
        }
      ],
      "name": "safeTransferFrom",
      "outputs": [],
      "stateMutability": "nonpayable",
      "type": "function"
    },
    {
      "inputs": [
        {
          "internalType": "address",
          "name": "operator",
          "type": "address"
        },
        {
          "internalType": "bool",
          "name": "approved",
          "type": "bool"
        }
      ],
      "name": "setApprovalForAll",
      "outputs": [],
      "stateMutability": "nonpayable",
      "type": "function"
    },
    {
      "inputs": [
        {
          "internalType": "bytes4",
          "name": "interfaceId",
          "type": "bytes4"
        }
      ],
      "name": "supportsInterface",
      "outputs": [
        {
          "internalType": "bool",
          "name": "",
          "type": "bool"
        }
      ],
      "stateMutability": "view",
      "type": "function"
    },
    {
      "inputs": [],
      "name": "symbol",
      "outputs": [
        {
          "internalType": "string",
          "name": "",
          "type": "string"
        }
      ],
      "stateMutability": "view",
      "type": "function"
    },
    {
      "inputs": [
        {
          "internalType": "uint256",
          "name": "index",
          "type": "uint256"
        }
      ],
      "name": "tokenByIndex",
      "outputs": [
        {
          "internalType": "uint256",
          "name": "",
          "type": "uint256"
        }
      ],
      "stateMutability": "view",
      "type": "function"
    },
    {
      "inputs": [
        {
          "internalType": "address",
          "name": "owner",
          "type": "address"
        },
        {
          "internalType": "uint256",
          "name": "index",
          "type": "uint256"
        }
      ],
      "name": "tokenOfOwnerByIndex",
      "outputs": [
        {
          "internalType": "uint256",
          "name": "",
          "type": "uint256"
        }
      ],
      "stateMutability": "view",
      "type": "function"
    },
    {
      "inputs": [
        {
          "internalType": "uint256",
          "name": "tokenId",
          "type": "uint256"
        }
      ],
      "name": "tokenURI",
      "outputs": [
        {
          "internalType": "string",
          "name": "",
          "type": "string"
        }
      ],
      "stateMutability": "view",
      "type": "function"
    },
    {
      "inputs": [],
      "name": "totalSupply",
      "outputs": [
        {
          "internalType": "uint256",
          "name": "",
          "type": "uint256"
        }
      ],
      "stateMutability": "view",
      "type": "function"
    },
    {
      "inputs": [
        {
          "internalType": "address",
          "name": "from",
          "type": "address"
        },
        {
          "internalType": "address",
          "name": "to",
          "type": "address"
        },
        {
          "internalType": "uint256",
          "name": "tokenId",
          "type": "uint256"
        }
      ],
      "name": "transferFrom",
      "outputs": [],
      "stateMutability": "nonpayable",
      "type": "function"
    },
    {
      "inputs": [
        {
          "internalType": "address",
          "name": "from",
          "type": "address"
        },
        {
          "internalType": "address",
          "name": "to",
          "type": "address"
        },
        {
          "internalType": "uint256",
          "name": "tokenId",
          "type": "uint256"
        }
      ],
      "name": "transferNFT",
      "outputs": [],
      "stateMutability": "nonpayable",
      "type": "function"
    }
  ],
  "bytecode": "0x60806040523480156200001157600080fd5b5060405162005076380380620050768339818101604052810190620000379190620002c7565b6040518060400160405280601281526020017f436c6561724f726967696e4e6574776f726b00000000000000000000000000008152506040518060400160405280600381526020017f434f4e00000000000000000000000000000000000000000000000000000000008152508160009081620000b4919062000573565b508060019081620000c6919062000573565b505050620000de6000801b82620000e660201b60201c565b50506200065a565b6000620000fa8383620001ea60201b60201c565b620001df5760016007600085815260200190815260200160002060000160008473ffffffffffffffffffffffffffffffffffffffff1673ffffffffffffffffffffffffffffffffffffffff16815260200190815260200160002060006101000a81548160ff0219169083151502179055506200017b6200025560201b60201c565b73ffffffffffffffffffffffffffffffffffffffff168273ffffffffffffffffffffffffffffffffffffffff16847f2f8788117e7eff1d82e926ec794901d17c78024a50270940304540a733656f0d60405160405180910390a460019050620001e4565b600090505b92915050565b60006007600084815260200190815260200160002060000160008373ffffffffffffffffffffffffffffffffffffffff1673ffffffffffffffffffffffffffffffffffffffff16815260200190815260200160002060009054906101000a900460ff16905092915050565b600033905090565b600080fd5b600073ffffffffffffffffffffffffffffffffffffffff82169050919050565b60006200028f8262000262565b9050919050565b620002a18162000282565b8114620002ad57600080fd5b50565b600081519050620002c18162000296565b92915050565b600060208284031215620002e057620002df6200025d565b5b6000620002f084828501620002b0565b91505092915050565b600081519050919050565b7f4e487b7100000000000000000000000000000000000000000000000000000000600052604160045260246000fd5b7f4e487b7100000000000000000000000000000000000000000000000000000000600052602260045260246000fd5b600060028204905060018216806200037b57607f821691505b60208210810362000391576200039062000333565b5b50919050565b60008190508160005260206000209050919050565b60006020601f8301049050919050565b600082821b905092915050565b600060088302620003fb7fffffffffffffffffffffffffffffffffffffffffffffffffffffffffffffffff82620003bc565b620004078683620003bc565b95508019841693508086168417925050509392505050565b6000819050919050565b6000819050919050565b6000620004546200044e62000448846200041f565b62000429565b6200041f565b9050919050565b6000819050919050565b620004708362000433565b620004886200047f826200045b565b848454620003c9565b825550505050565b600090565b6200049f62000490565b620004ac81848462000465565b505050565b5b81811015620004d457620004c860008262000495565b600181019050620004b2565b5050565b601f8211156200052357620004ed8162000397565b620004f884620003ac565b8101602085101562000508578190505b620005206200051785620003ac565b830182620004b1565b50505b505050565b600082821c905092915050565b6000620005486000198460080262000528565b1980831691505092915050565b600062000563838362000535565b9150826002028217905092915050565b6200057e82620002f9565b67ffffffffffffffff8111156200059a576200059962000304565b5b620005a6825462000362565b620005b3828285620004d8565b600060209050601f831160018114620005eb5760008415620005d6578287015190505b620005e2858262000555565b86555062000652565b601f198416620005fb8662000397565b60005b828110156200062557848901518255600182019150602085019450602081019050620005fe565b8683101562000645578489015162000641601f89168262000535565b8355505b6001600288020188555050505b505050505050565b614a0c806200066a6000396000f3fe608060405234801561001057600080fd5b50600436106102115760003560e01c80634f6ccce711610125578063a217fddf116100ad578063d547741f1161007c578063d547741f1461065d578063d58e7e7214610679578063de8211a914610695578063e845e5d8146106c6578063e985e9c5146106f657610211565b8063a217fddf146105d7578063a22cb465146105f5578063b88d4fde14610611578063c87b56dd1461062d57610211565b806369fcba8f116100f457806369fcba8f1461050d57806370a08231146105295780637955aab91461055957806391d148541461058957806395d89b41146105b957610211565b80634f6ccce71461046057806362bc56e6146104905780636352211e146104c157806369e9cae1146104f157610211565b806323b872dd116101a85780632f745c59116101775780632f745c59146103c0578063316fd1b1146103f057806336568abe1461040c57806342842e0e1461042857806342966c681461044457610211565b806323b872dd14610328578063248a9ca3146103445780632eb6908d146103745780632f2ff15d146103a457610211565b80630c0b6691116101e45780630c0b6691146102b05780631435c3dc146102d057806318160ddd146102ec5780631c9ee11a1461030a57610211565b806301ffc9a71461021657806306fdde0314610246578063081812fc14610264578063095ea7b314610294575b600080fd5b610230600480360381019061022b9190613585565b610726565b60405161023d91906135cd565b60405180910390f35b61024e610738565b60405161025b9190613678565b60405180910390f35b61027e600480360381019061027991906136d0565b6107ca565b60405161028b919061373e565b60405180910390f35b6102ae60048036038101906102a99190613785565b6107e6565b005b6102b86107fc565b6040516102c793929190613a7c565b60405180910390f35b6102ea60048036038101906102e59190613c3c565b610b2a565b005b6102f4610d32565b6040516103019190613cba565b60405180910390f35b610312610d3f565b60405161031f9190613ce4565b60405180910390f35b610342600480360381019061033d9190613cff565b610d63565b005b61035e60048036038101906103599190613d52565b610e65565b60405161036b9190613ce4565b60405180910390f35b61038e60048036038101906103899190613d7f565b610e85565b60405161039b9190613dac565b60405180910390f35b6103be60048036038101906103b99190613dce565b610f1f565b005b6103da60048036038101906103d59190613785565b610f41565b6040516103e79190613cba565b60405180910390f35b61040a60048036038101906104059190613e0e565b610fea565b005b61042660048036038101906104219190613dce565b611097565b005b610442600480360381019061043d9190613cff565b611112565b005b61045e600480360381019061045991906136d0565b611132565b005b61047a600480360381019061047591906136d0565b611149565b6040516104879190613cba565b60405180910390f35b6104aa60048036038101906104a59190613d7f565b6111bf565b6040516104b8929190613e6a565b60405180910390f35b6104db60048036038101906104d691906136d0565b61138e565b6040516104e8919061373e565b60405180910390f35b61050b60048036038101906105069190613cff565b6113a0565b005b61052760048036038101906105229190613f96565b611426565b005b610543600480360381019061053e9190613d7f565b611525565b6040516105509190613cba565b60405180910390f35b610573600480360381019061056e91906140c3565b6115df565b604051610580919061410c565b60405180910390f35b6105a3600480360381019061059e9190613dce565b6117c7565b6040516105b091906135cd565b60405180910390f35b6105c1611832565b6040516105ce9190613678565b60405180910390f35b6105df6118c4565b6040516105ec9190613ce4565b60405180910390f35b61060f600480360381019061060a919061415a565b6118cb565b005b61062b6004803603810190610626919061423b565b6118e1565b005b610647600480360381019061064291906136d0565b6118fe565b6040516106549190613678565b60405180910390f35b61067760048036038101906106729190613dce565b611910565b005b610693600480360381019061068e91906142be565b611932565b005b6106af60048036038101906106aa91906136d0565b6119a5565b6040516106bd9291906143bc565b60405180910390f35b6106e060048036038101906106db91906143f3565b611b76565b6040516106ed91906135cd565b60405180910390f35b610710600480360381019061070b919061444f565b611c6a565b60405161071d91906135cd565b60405180910390f35b600061073182611cfe565b9050919050565b606060008054610747906144be565b80601f0160208091040260200160405190810160405280929190818152602001828054610773906144be565b80156107c05780601f10610795576101008083540402835291602001916107c0565b820191906000526020600020905b8154815290600101906020018083116107a357829003601f168201915b5050505050905090565b60006107d582611d78565b506107df82611e00565b9050919050565b6107f882826107f3611e3d565b611e45565b5050565b60608060606000600f8054905067ffffffffffffffff81111561082257610821613af9565b5b6040519080825280602002602001820160405280156108505781602001602082028036833780820191505090505b5090506000600f8054905067ffffffffffffffff81111561087457610873613af9565b5b6040519080825280602002602001820160405280156108a25781602001602082028036833780820191505090505b5090506000600f8054905067ffffffffffffffff8111156108c6576108c5613af9565b5b6040519080825280602002602001820160405280156108f957816020015b60608152602001906001900390816108e45790505b50905060005b600f80549050811015610b18576000600d6000600f8481548110610926576109256144ef565b5b9060005260206000200160009054906101000a900473ffffffffffffffffffffffffffffffffffffffff1673ffffffffffffffffffffffffffffffffffffffff1673ffffffffffffffffffffffffffffffffffffffff168152602001908152602001600020604051806080016040529081600082015481526020016001820160009054906101000a900473ffffffffffffffffffffffffffffffffffffffff1673ffffffffffffffffffffffffffffffffffffffff1673ffffffffffffffffffffffffffffffffffffffff16815260200160028201805480602002602001604051908101604052809291908181526020018280548015610a4557602002820191906000526020600020905b815481526020019060010190808311610a31575b505050505081526020016003820160009054906101000a900460ff16151515158152505090508060000151858381518110610a8357610a826144ef565b5b6020026020010181815250508060200151848381518110610aa757610aa66144ef565b5b602002602001019073ffffffffffffffffffffffffffffffffffffffff16908173ffffffffffffffffffffffffffffffffffffffff16815250508060400151838381518110610af957610af86144ef565b5b6020026020010181905250508080610b109061454d565b9150506108ff565b50828282955095509550505050909192565b60001515600d60008473ffffffffffffffffffffffffffffffffffffffff1673ffffffffffffffffffffffffffffffffffffffff16815260200190815260200160002060030160009054906101000a900460ff16151514610bc0576040517f08c379a0000000000000000000000000000000000000000000000000000000008152600401610bb790614607565b60405180910390fd5b60405180608001604052808481526020018373ffffffffffffffffffffffffffffffffffffffff16815260200182815260200160011515815250600d60008473ffffffffffffffffffffffffffffffffffffffff1673ffffffffffffffffffffffffffffffffffffffff1681526020019081526020016000206000820151816000015560208201518160010160006101000a81548173ffffffffffffffffffffffffffffffffffffffff021916908373ffffffffffffffffffffffffffffffffffffffff1602179055506040820151816002019080519060200190610ca69291906134af565b5060608201518160030160006101000a81548160ff021916908315150217905550905050600f829080600181540180825580915050600190039060005260206000200160009091909190916101000a81548173ffffffffffffffffffffffffffffffffffffffff021916908373ffffffffffffffffffffffffffffffffffffffff160217905550505050565b6000600a80549050905090565b7f9e1688b53537f356172ce07f39e129155063957163c5f9462d4d9e55b228b06c81565b600073ffffffffffffffffffffffffffffffffffffffff168273ffffffffffffffffffffffffffffffffffffffff1603610dd55760006040517f64a0ae92000000000000000000000000000000000000000000000000000000008152600401610dcc919061373e565b60405180910390fd5b6000610de98383610de4611e3d565b611e57565b90508373ffffffffffffffffffffffffffffffffffffffff168173ffffffffffffffffffffffffffffffffffffffff1614610e5f578382826040517f64283d7b000000000000000000000000000000000000000000000000000000008152600401610e5693929190614627565b60405180910390fd5b50505050565b600060076000838152602001908152602001600020600101549050919050565b6060600d60008373ffffffffffffffffffffffffffffffffffffffff1673ffffffffffffffffffffffffffffffffffffffff168152602001908152602001600020600201805480602002602001604051908101604052809291908181526020018280548015610f1357602002820191906000526020600020905b815481526020019060010190808311610eff575b50505050509050919050565b610f2882610e65565b610f3181611e6d565b610f3b8383611e81565b50505050565b6000610f4c83611525565b8210610f915782826040517fa57d13dc000000000000000000000000000000000000000000000000000000008152600401610f8892919061465e565b60405180910390fd5b600860008473ffffffffffffffffffffffffffffffffffffffff1673ffffffffffffffffffffffffffffffffffffffff168152602001908152602001600020600083815260200190815260200160002054905092915050565b6000600d60008473ffffffffffffffffffffffffffffffffffffffff1673ffffffffffffffffffffffffffffffffffffffff168152602001908152602001600020905060005b825181101561109157816002018382815181106110505761104f6144ef565b5b6020026020010151908060018154018082558091505060019003906000526020600020016000909190919091505580806110899061454d565b915050611030565b50505050565b61109f611e3d565b73ffffffffffffffffffffffffffffffffffffffff168173ffffffffffffffffffffffffffffffffffffffff1614611103576040517f6697b23200000000000000000000000000000000000000000000000000000000815260040160405180910390fd5b61110d8282611f73565b505050565b61112d838383604051806020016040528060008152506118e1565b505050565b611145600082611140611e3d565b611e57565b5050565b6000611153610d32565b8210611199576000826040517fa57d13dc00000000000000000000000000000000000000000000000000000000815260040161119092919061465e565b60405180910390fd5b600a82815481106111ad576111ac6144ef565b5b90600052602060002001549050919050565b6000606060011515600d60008573ffffffffffffffffffffffffffffffffffffffff1673ffffffffffffffffffffffffffffffffffffffff16815260200190815260200160002060030160009054906101000a900460ff16151514611259576040517f08c379a0000000000000000000000000000000000000000000000000000000008152600401611250906146f9565b60405180910390fd5b6000600d60008573ffffffffffffffffffffffffffffffffffffffff1673ffffffffffffffffffffffffffffffffffffffff168152602001908152602001600020604051806080016040529081600082015481526020016001820160009054906101000a900473ffffffffffffffffffffffffffffffffffffffff1673ffffffffffffffffffffffffffffffffffffffff1673ffffffffffffffffffffffffffffffffffffffff1681526020016002820180548060200260200160405190810160405280929190818152602001828054801561135457602002820191906000526020600020905b815481526020019060010190808311611340575b505050505081526020016003820160009054906101000a900460ff1615151515815250509050806000015181604001519250925050915091565b600061139982611d78565b9050919050565b8273ffffffffffffffffffffffffffffffffffffffff166113c08261138e565b73ffffffffffffffffffffffffffffffffffffffff1614611416576040517f08c379a000000000000000000000000000000000000000000000000000000000815260040161140d90614765565b60405180910390fd5b611421838383611112565b505050565b6000600c600081548092919061143b9061454d565b91905055905061144b3382612066565b60005b835181101561151f57600e60008381526020019081526020016000206040518060400160405280868481518110611488576114876144ef565b5b602002602001015181526020018584815181106114a8576114a76144ef565b5b602002602001015160ff1681525090806001815401808255809150506001900390600052602060002090600202016000909190919091506000820151816000015560208201518160010160006101000a81548160ff021916908360ff160217905550505080806115179061454d565b91505061144e565b50505050565b60008073ffffffffffffffffffffffffffffffffffffffff168273ffffffffffffffffffffffffffffffffffffffff16036115985760006040517f89c62b6400000000000000000000000000000000000000000000000000000000815260040161158f919061373e565b60405180910390fd5b600360008373ffffffffffffffffffffffffffffffffffffffff1673ffffffffffffffffffffffffffffffffffffffff168152602001908152602001600020549050919050565b60606000805b600f805490508110156116615761163a600f8281548110611609576116086144ef565b5b9060005260206000200160009054906101000a900473ffffffffffffffffffffffffffffffffffffffff1685611b76565b1561164e57818061164a9061454d565b9250505b80806116599061454d565b9150506115e5565b5060008167ffffffffffffffff81111561167e5761167d613af9565b5b6040519080825280602002602001820160405280156116ac5781602001602082028036833780820191505090505b5090506000805b600f805490508110156117bb57611708600f82815481106116d7576116d66144ef565b5b9060005260206000200160009054906101000a900473ffffffffffffffffffffffffffffffffffffffff1687611b76565b156117a857600f8181548110611721576117206144ef565b5b9060005260206000200160009054906101000a900473ffffffffffffffffffffffffffffffffffffffff1683838151811061175f5761175e6144ef565b5b602002602001019073ffffffffffffffffffffffffffffffffffffffff16908173ffffffffffffffffffffffffffffffffffffffff168152505081806117a49061454d565b9250505b80806117b39061454d565b9150506116b3565b50819350505050919050565b60006007600084815260200190815260200160002060000160008373ffffffffffffffffffffffffffffffffffffffff1673ffffffffffffffffffffffffffffffffffffffff16815260200190815260200160002060009054906101000a900460ff16905092915050565b606060018054611841906144be565b80601f016020809104026020016040519081016040528092919081815260200182805461186d906144be565b80156118ba5780601f1061188f576101008083540402835291602001916118ba565b820191906000526020600020905b81548152906001019060200180831161189d57829003601f168201915b5050505050905090565b6000801b81565b6118dd6118d6611e3d565b8383612084565b5050565b6118ec848484610d63565b6118f8848484846121f3565b50505050565b6060611909826123aa565b9050919050565b61191982610e65565b61192281611e6d565b61192c8383611f73565b50505050565b6000600d60008473ffffffffffffffffffffffffffffffffffffffff1673ffffffffffffffffffffffffffffffffffffffff168152602001908152602001600020905080600201829080600181540180825580915050600190039060005260206000200160009091909190915055505050565b6060806000600e6000858152602001908152602001600020805480602002602001604051908101604052809291908181526020016000905b82821015611a365783829060005260206000209060020201604051806040016040529081600082015481526020016001820160009054906101000a900460ff1660ff1660ff1681525050815260200190600101906119dd565b5050505090506000815167ffffffffffffffff811115611a5957611a58613af9565b5b604051908082528060200260200182016040528015611a875781602001602082028036833780820191505090505b5090506000825167ffffffffffffffff811115611aa757611aa6613af9565b5b604051908082528060200260200182016040528015611ad55781602001602082028036833780820191505090505b50905060005b8351811015611b67576000848281518110611af957611af86144ef565b5b602002602001015190508060000151848381518110611b1b57611b1a6144ef565b5b6020026020010181815250508060200151838381518110611b3f57611b3e6144ef565b5b602002602001019060ff16908160ff1681525050508080611b5f9061454d565b915050611adb565b50818194509450505050915091565b600080600d60008573ffffffffffffffffffffffffffffffffffffffff1673ffffffffffffffffffffffffffffffffffffffff168152602001908152602001600020905060005b8160020180549050811015611c5d5783604051602001611bdd91906147c1565b60405160208183030381529060405280519060200120826002018281548110611c0957611c086144ef565b5b9060005260206000200154604051602001611c2491906147f9565b6040516020818303038152906040528051906020012003611c4a57600192505050611c64565b8080611c559061454d565b915050611bbd565b5060009150505b92915050565b6000600560008473ffffffffffffffffffffffffffffffffffffffff1673ffffffffffffffffffffffffffffffffffffffff16815260200190815260200160002060008373ffffffffffffffffffffffffffffffffffffffff1673ffffffffffffffffffffffffffffffffffffffff16815260200190815260200160002060009054906101000a900460ff16905092915050565b60007f780e9d63000000000000000000000000000000000000000000000000000000007bffffffffffffffffffffffffffffffffffffffffffffffffffffffff1916827bffffffffffffffffffffffffffffffffffffffffffffffffffffffff19161480611d715750611d70826124bd565b5b9050919050565b600080611d8483612537565b9050600073ffffffffffffffffffffffffffffffffffffffff168173ffffffffffffffffffffffffffffffffffffffff1603611df757826040517f7e273289000000000000000000000000000000000000000000000000000000008152600401611dee9190613cba565b60405180910390fd5b80915050919050565b60006004600083815260200190815260200160002060009054906101000a900473ffffffffffffffffffffffffffffffffffffffff169050919050565b600033905090565b611e528383836001612574565b505050565b6000611e64848484612739565b90509392505050565b611e7e81611e79611e3d565b612856565b50565b6000611e8d83836117c7565b611f685760016007600085815260200190815260200160002060000160008473ffffffffffffffffffffffffffffffffffffffff1673ffffffffffffffffffffffffffffffffffffffff16815260200190815260200160002060006101000a81548160ff021916908315150217905550611f05611e3d565b73ffffffffffffffffffffffffffffffffffffffff168273ffffffffffffffffffffffffffffffffffffffff16847f2f8788117e7eff1d82e926ec794901d17c78024a50270940304540a733656f0d60405160405180910390a460019050611f6d565b600090505b92915050565b6000611f7f83836117c7565b1561205b5760006007600085815260200190815260200160002060000160008473ffffffffffffffffffffffffffffffffffffffff1673ffffffffffffffffffffffffffffffffffffffff16815260200190815260200160002060006101000a81548160ff021916908315150217905550611ff8611e3d565b73ffffffffffffffffffffffffffffffffffffffff168273ffffffffffffffffffffffffffffffffffffffff16847ff6391f5c32d9c69d2a47ea670b442974b53935d1edc7fd64eb21e047a839171b60405160405180910390a460019050612060565b600090505b92915050565b6120808282604051806020016040528060008152506128a7565b5050565b600073ffffffffffffffffffffffffffffffffffffffff168273ffffffffffffffffffffffffffffffffffffffff16036120f557816040517f5b08ba180000000000000000000000000000000000000000000000000000000081526004016120ec919061373e565b60405180910390fd5b80600560008573ffffffffffffffffffffffffffffffffffffffff1673ffffffffffffffffffffffffffffffffffffffff16815260200190815260200160002060008473ffffffffffffffffffffffffffffffffffffffff1673ffffffffffffffffffffffffffffffffffffffff16815260200190815260200160002060006101000a81548160ff0219169083151502179055508173ffffffffffffffffffffffffffffffffffffffff168373ffffffffffffffffffffffffffffffffffffffff167f17307eab39ab6107e8899845ad3d59bd9653f200f220920489ca2b5937696c31836040516121e691906135cd565b60405180910390a3505050565b60008373ffffffffffffffffffffffffffffffffffffffff163b11156123a4578273ffffffffffffffffffffffffffffffffffffffff1663150b7a02612237611e3d565b8685856040518563ffffffff1660e01b81526004016122599493929190614869565b6020604051808303816000875af192505050801561229557506040513d601f19601f8201168201806040525081019061229291906148ca565b60015b612319573d80600081146122c5576040519150601f19603f3d011682016040523d82523d6000602084013e6122ca565b606091505b50600081510361231157836040517f64a0ae92000000000000000000000000000000000000000000000000000000008152600401612308919061373e565b60405180910390fd5b805181602001fd5b63150b7a0260e01b7bffffffffffffffffffffffffffffffffffffffffffffffffffffffff1916817bffffffffffffffffffffffffffffffffffffffffffffffffffffffff1916146123a257836040517f64a0ae92000000000000000000000000000000000000000000000000000000008152600401612399919061373e565b60405180910390fd5b505b50505050565b60606123b582611d78565b5060006006600084815260200190815260200160002080546123d6906144be565b80601f0160208091040260200160405190810160405280929190818152602001828054612402906144be565b801561244f5780601f106124245761010080835404028352916020019161244f565b820191906000526020600020905b81548152906001019060200180831161243257829003601f168201915b5050505050905060006124606128c3565b905060008151036124755781925050506124b8565b6000825111156124aa5780826040516020016124929291906148f7565b604051602081830303815290604052925050506124b8565b6124b3846128da565b925050505b919050565b60007f7965db0b000000000000000000000000000000000000000000000000000000007bffffffffffffffffffffffffffffffffffffffffffffffffffffffff1916827bffffffffffffffffffffffffffffffffffffffffffffffffffffffff19161480612530575061252f82612943565b5b9050919050565b60006002600083815260200190815260200160002060009054906101000a900473ffffffffffffffffffffffffffffffffffffffff169050919050565b80806125ad5750600073ffffffffffffffffffffffffffffffffffffffff168273ffffffffffffffffffffffffffffffffffffffff1614155b156126e15760006125bd84611d78565b9050600073ffffffffffffffffffffffffffffffffffffffff168373ffffffffffffffffffffffffffffffffffffffff161415801561262857508273ffffffffffffffffffffffffffffffffffffffff168173ffffffffffffffffffffffffffffffffffffffff1614155b801561263b57506126398184611c6a565b155b1561267d57826040517fa9fbf51f000000000000000000000000000000000000000000000000000000008152600401612674919061373e565b60405180910390fd5b81156126df57838573ffffffffffffffffffffffffffffffffffffffff168273ffffffffffffffffffffffffffffffffffffffff167f8c5be1e5ebec7d5bd14f71427d1e84f3dd0314c0f7b2291e5b200ac8c7c3b92560405160405180910390a45b505b836004600085815260200190815260200160002060006101000a81548173ffffffffffffffffffffffffffffffffffffffff021916908373ffffffffffffffffffffffffffffffffffffffff16021790555050505050565b6000806127478585856129a4565b9050600073ffffffffffffffffffffffffffffffffffffffff168173ffffffffffffffffffffffffffffffffffffffff160361278b5761278684612bbe565b6127ca565b8473ffffffffffffffffffffffffffffffffffffffff168173ffffffffffffffffffffffffffffffffffffffff16146127c9576127c88185612c07565b5b5b600073ffffffffffffffffffffffffffffffffffffffff168573ffffffffffffffffffffffffffffffffffffffff160361280c5761280784612d68565b61284b565b8473ffffffffffffffffffffffffffffffffffffffff168173ffffffffffffffffffffffffffffffffffffffff161461284a576128498585612e39565b5b5b809150509392505050565b61286082826117c7565b6128a35780826040517fe2517d3f00000000000000000000000000000000000000000000000000000000815260040161289a92919061491b565b60405180910390fd5b5050565b6128b18383612ec4565b6128be60008484846121f3565b505050565b606060405180602001604052806000815250905090565b60606128e582611d78565b5060006128f06128c3565b90506000815111612910576040518060200160405280600081525061293b565b8061291a84612fbd565b60405160200161292b9291906148f7565b6040516020818303038152906040525b915050919050565b6000634906490660e01b7bffffffffffffffffffffffffffffffffffffffffffffffffffffffff1916827bffffffffffffffffffffffffffffffffffffffffffffffffffffffff1916148061299d575061299c8261308b565b5b9050919050565b6000806129b084612537565b9050600073ffffffffffffffffffffffffffffffffffffffff168373ffffffffffffffffffffffffffffffffffffffff16146129f2576129f181848661316d565b5b600073ffffffffffffffffffffffffffffffffffffffff168173ffffffffffffffffffffffffffffffffffffffff1614612a8357612a34600085600080612574565b6001600360008373ffffffffffffffffffffffffffffffffffffffff1673ffffffffffffffffffffffffffffffffffffffff168152602001908152602001600020600082825403925050819055505b600073ffffffffffffffffffffffffffffffffffffffff168573ffffffffffffffffffffffffffffffffffffffff1614612b06576001600360008773ffffffffffffffffffffffffffffffffffffffff1673ffffffffffffffffffffffffffffffffffffffff168152602001908152602001600020600082825401925050819055505b846002600086815260200190815260200160002060006101000a81548173ffffffffffffffffffffffffffffffffffffffff021916908373ffffffffffffffffffffffffffffffffffffffff160217905550838573ffffffffffffffffffffffffffffffffffffffff168273ffffffffffffffffffffffffffffffffffffffff167fddf252ad1be2c89b69c2b068fc378daa952ba7f163c4a11628f55a4df523b3ef60405160405180910390a4809150509392505050565b600a80549050600b600083815260200190815260200160002081905550600a81908060018154018082558091505060019003906000526020600020016000909190919091505550565b6000612c1283611525565b9050600060096000848152602001908152602001600020549050818114612cf7576000600860008673ffffffffffffffffffffffffffffffffffffffff1673ffffffffffffffffffffffffffffffffffffffff168152602001908152602001600020600084815260200190815260200160002054905080600860008773ffffffffffffffffffffffffffffffffffffffff1673ffffffffffffffffffffffffffffffffffffffff168152602001908152602001600020600084815260200190815260200160002081905550816009600083815260200190815260200160002081905550505b6009600084815260200190815260200160002060009055600860008573ffffffffffffffffffffffffffffffffffffffff1673ffffffffffffffffffffffffffffffffffffffff16815260200190815260200160002060008381526020019081526020016000206000905550505050565b60006001600a80549050612d7c9190614944565b90506000600b60008481526020019081526020016000205490506000600a8381548110612dac57612dab6144ef565b5b9060005260206000200154905080600a8381548110612dce57612dcd6144ef565b5b906000526020600020018190555081600b600083815260200190815260200160002081905550600b600085815260200190815260200160002060009055600a805480612e1d57612e1c614978565b5b6001900381819060005260206000200160009055905550505050565b60006001612e4684611525565b612e509190614944565b905081600860008573ffffffffffffffffffffffffffffffffffffffff1673ffffffffffffffffffffffffffffffffffffffff168152602001908152602001600020600083815260200190815260200160002081905550806009600084815260200190815260200160002081905550505050565b600073ffffffffffffffffffffffffffffffffffffffff168273ffffffffffffffffffffffffffffffffffffffff1603612f365760006040517f64a0ae92000000000000000000000000000000000000000000000000000000008152600401612f2d919061373e565b60405180910390fd5b6000612f4483836000611e57565b9050600073ffffffffffffffffffffffffffffffffffffffff168173ffffffffffffffffffffffffffffffffffffffff1614612fb85760006040517f73c6ac6e000000000000000000000000000000000000000000000000000000008152600401612faf919061373e565b60405180910390fd5b505050565b606060006001612fcc84613231565b01905060008167ffffffffffffffff811115612feb57612fea613af9565b5b6040519080825280601f01601f19166020018201604052801561301d5781602001600182028036833780820191505090505b509050600082602001820190505b600115613080578080600190039150507f3031323334353637383961626364656600000000000000000000000000000000600a86061a8153600a8581613074576130736149a7565b5b0494506000850361302b575b819350505050919050565b60007f80ac58cd000000000000000000000000000000000000000000000000000000007bffffffffffffffffffffffffffffffffffffffffffffffffffffffff1916827bffffffffffffffffffffffffffffffffffffffffffffffffffffffff1916148061315657507f5b5e139f000000000000000000000000000000000000000000000000000000007bffffffffffffffffffffffffffffffffffffffffffffffffffffffff1916827bffffffffffffffffffffffffffffffffffffffffffffffffffffffff1916145b80613166575061316582613384565b5b9050919050565b6131788383836133ee565b61322c57600073ffffffffffffffffffffffffffffffffffffffff168373ffffffffffffffffffffffffffffffffffffffff16036131ed57806040517f7e2732890000000000000000000000000000000000000000000000000000000081526004016131e49190613cba565b60405180910390fd5b81816040517f177e802f00000000000000000000000000000000000000000000000000000000815260040161322392919061465e565b60405180910390fd5b505050565b600080600090507a184f03e93ff9f4daa797ed6e38ed64bf6a1f010000000000000000831061328f577a184f03e93ff9f4daa797ed6e38ed64bf6a1f0100000000000000008381613285576132846149a7565b5b0492506040810190505b6d04ee2d6d415b85acef810000000083106132cc576d04ee2d6d415b85acef810000000083816132c2576132c16149a7565b5b0492506020810190505b662386f26fc1000083106132fb57662386f26fc1000083816132f1576132f06149a7565b5b0492506010810190505b6305f5e1008310613324576305f5e100838161331a576133196149a7565b5b0492506008810190505b612710831061334957612710838161333f5761333e6149a7565b5b0492506004810190505b6064831061336c5760648381613362576133616149a7565b5b0492506002810190505b600a831061337b576001810190505b80915050919050565b60007f01ffc9a7000000000000000000000000000000000000000000000000000000007bffffffffffffffffffffffffffffffffffffffffffffffffffffffff1916827bffffffffffffffffffffffffffffffffffffffffffffffffffffffff1916149050919050565b60008073ffffffffffffffffffffffffffffffffffffffff168373ffffffffffffffffffffffffffffffffffffffff16141580156134a657508273ffffffffffffffffffffffffffffffffffffffff168473ffffffffffffffffffffffffffffffffffffffff16148061346757506134668484611c6a565b5b806134a557508273ffffffffffffffffffffffffffffffffffffffff1661348d83611e00565b73ffffffffffffffffffffffffffffffffffffffff16145b5b90509392505050565b8280548282559060005260206000209081019282156134eb579160200282015b828111156134ea5782518255916020019190600101906134cf565b5b5090506134f891906134fc565b5090565b5b808211156135155760008160009055506001016134fd565b5090565b6000604051905090565b600080fd5b600080fd5b60007fffffffff0000000000000000000000000000000000000000000000000000000082169050919050565b6135628161352d565b811461356d57600080fd5b50565b60008135905061357f81613559565b92915050565b60006020828403121561359b5761359a613523565b5b60006135a984828501613570565b91505092915050565b60008115159050919050565b6135c7816135b2565b82525050565b60006020820190506135e260008301846135be565b92915050565b600081519050919050565b600082825260208201905092915050565b60005b83811015613622578082015181840152602081019050613607565b60008484015250505050565b6000601f19601f8301169050919050565b600061364a826135e8565b61365481856135f3565b9350613664818560208601613604565b61366d8161362e565b840191505092915050565b60006020820190508181036000830152613692818461363f565b905092915050565b6000819050919050565b6136ad8161369a565b81146136b857600080fd5b50565b6000813590506136ca816136a4565b92915050565b6000602082840312156136e6576136e5613523565b5b60006136f4848285016136bb565b91505092915050565b600073ffffffffffffffffffffffffffffffffffffffff82169050919050565b6000613728826136fd565b9050919050565b6137388161371d565b82525050565b6000602082019050613753600083018461372f565b92915050565b6137628161371d565b811461376d57600080fd5b50565b60008135905061377f81613759565b92915050565b6000806040838503121561379c5761379b613523565b5b60006137aa85828601613770565b92505060206137bb858286016136bb565b9150509250929050565b600081519050919050565b600082825260208201905092915050565b6000819050602082019050919050565b6000819050919050565b613804816137f1565b82525050565b600061381683836137fb565b60208301905092915050565b6000602082019050919050565b600061383a826137c5565b61384481856137d0565b935061384f836137e1565b8060005b83811015613880578151613867888261380a565b975061387283613822565b925050600181019050613853565b5085935050505092915050565b600081519050919050565b600082825260208201905092915050565b6000819050602082019050919050565b6138c28161371d565b82525050565b60006138d483836138b9565b60208301905092915050565b6000602082019050919050565b60006138f88261388d565b6139028185613898565b935061390d836138a9565b8060005b8381101561393e57815161392588826138c8565b9750613930836138e0565b925050600181019050613911565b5085935050505092915050565b600081519050919050565b600082825260208201905092915050565b6000819050602082019050919050565b600082825260208201905092915050565b6000613993826137c5565b61399d8185613977565b93506139a8836137e1565b8060005b838110156139d95781516139c0888261380a565b97506139cb83613822565b9250506001810190506139ac565b5085935050505092915050565b60006139f28383613988565b905092915050565b6000602082019050919050565b6000613a128261394b565b613a1c8185613956565b935083602082028501613a2e85613967565b8060005b85811015613a6a5784840389528151613a4b85826139e6565b9450613a56836139fa565b925060208a01995050600181019050613a32565b50829750879550505050505092915050565b60006060820190508181036000830152613a96818661382f565b90508181036020830152613aaa81856138ed565b90508181036040830152613abe8184613a07565b9050949350505050565b613ad1816137f1565b8114613adc57600080fd5b50565b600081359050613aee81613ac8565b92915050565b600080fd5b7f4e487b7100000000000000000000000000000000000000000000000000000000600052604160045260246000fd5b613b318261362e565b810181811067ffffffffffffffff82111715613b5057613b4f613af9565b5b80604052505050565b6000613b63613519565b9050613b6f8282613b28565b919050565b600067ffffffffffffffff821115613b8f57613b8e613af9565b5b602082029050602081019050919050565b600080fd5b6000613bb8613bb384613b74565b613b59565b90508083825260208201905060208402830185811115613bdb57613bda613ba0565b5b835b81811015613c045780613bf08882613adf565b845260208401935050602081019050613bdd565b5050509392505050565b600082601f830112613c2357613c22613af4565b5b8135613c33848260208601613ba5565b91505092915050565b600080600060608486031215613c5557613c54613523565b5b6000613c6386828701613adf565b9350506020613c7486828701613770565b925050604084013567ffffffffffffffff811115613c9557613c94613528565b5b613ca186828701613c0e565b9150509250925092565b613cb48161369a565b82525050565b6000602082019050613ccf6000830184613cab565b92915050565b613cde816137f1565b82525050565b6000602082019050613cf96000830184613cd5565b92915050565b600080600060608486031215613d1857613d17613523565b5b6000613d2686828701613770565b9350506020613d3786828701613770565b9250506040613d48868287016136bb565b9150509250925092565b600060208284031215613d6857613d67613523565b5b6000613d7684828501613adf565b91505092915050565b600060208284031215613d9557613d94613523565b5b6000613da384828501613770565b91505092915050565b60006020820190508181036000830152613dc6818461382f565b905092915050565b60008060408385031215613de557613de4613523565b5b6000613df385828601613adf565b9250506020613e0485828601613770565b9150509250929050565b60008060408385031215613e2557613e24613523565b5b6000613e3385828601613770565b925050602083013567ffffffffffffffff811115613e5457613e53613528565b5b613e6085828601613c0e565b9150509250929050565b6000604082019050613e7f6000830185613cd5565b8181036020830152613e91818461382f565b90509392505050565b600067ffffffffffffffff821115613eb557613eb4613af9565b5b602082029050602081019050919050565b600060ff82169050919050565b613edc81613ec6565b8114613ee757600080fd5b50565b600081359050613ef981613ed3565b92915050565b6000613f12613f0d84613e9a565b613b59565b90508083825260208201905060208402830185811115613f3557613f34613ba0565b5b835b81811015613f5e5780613f4a8882613eea565b845260208401935050602081019050613f37565b5050509392505050565b600082601f830112613f7d57613f7c613af4565b5b8135613f8d848260208601613eff565b91505092915050565b60008060408385031215613fad57613fac613523565b5b600083013567ffffffffffffffff811115613fcb57613fca613528565b5b613fd785828601613c0e565b925050602083013567ffffffffffffffff811115613ff857613ff7613528565b5b61400485828601613f68565b9150509250929050565b600080fd5b600067ffffffffffffffff82111561402e5761402d613af9565b5b6140378261362e565b9050602081019050919050565b82818337600083830152505050565b600061406661406184614013565b613b59565b9050828152602081018484840111156140825761408161400e565b5b61408d848285614044565b509392505050565b600082601f8301126140aa576140a9613af4565b5b81356140ba848260208601614053565b91505092915050565b6000602082840312156140d9576140d8613523565b5b600082013567ffffffffffffffff8111156140f7576140f6613528565b5b61410384828501614095565b91505092915050565b6000602082019050818103600083015261412681846138ed565b905092915050565b614137816135b2565b811461414257600080fd5b50565b6000813590506141548161412e565b92915050565b6000806040838503121561417157614170613523565b5b600061417f85828601613770565b925050602061419085828601614145565b9150509250929050565b600067ffffffffffffffff8211156141b5576141b4613af9565b5b6141be8261362e565b9050602081019050919050565b60006141de6141d98461419a565b613b59565b9050828152602081018484840111156141fa576141f961400e565b5b614205848285614044565b509392505050565b600082601f83011261422257614221613af4565b5b81356142328482602086016141cb565b91505092915050565b6000806000806080858703121561425557614254613523565b5b600061426387828801613770565b945050602061427487828801613770565b9350506040614285878288016136bb565b925050606085013567ffffffffffffffff8111156142a6576142a5613528565b5b6142b28782880161420d565b91505092959194509250565b600080604083850312156142d5576142d4613523565b5b60006142e385828601613770565b92505060206142f485828601613adf565b9150509250929050565b600081519050919050565b600082825260208201905092915050565b6000819050602082019050919050565b61433381613ec6565b82525050565b6000614345838361432a565b60208301905092915050565b6000602082019050919050565b6000614369826142fe565b6143738185614309565b935061437e8361431a565b8060005b838110156143af5781516143968882614339565b97506143a183614351565b925050600181019050614382565b5085935050505092915050565b600060408201905081810360008301526143d6818561382f565b905081810360208301526143ea818461435e565b90509392505050565b6000806040838503121561440a57614409613523565b5b600061441885828601613770565b925050602083013567ffffffffffffffff81111561443957614438613528565b5b61444585828601614095565b9150509250929050565b6000806040838503121561446657614465613523565b5b600061447485828601613770565b925050602061448585828601613770565b9150509250929050565b7f4e487b7100000000000000000000000000000000000000000000000000000000600052602260045260246000fd5b600060028204905060018216806144d657607f821691505b6020821081036144e9576144e861448f565b5b50919050565b7f4e487b7100000000000000000000000000000000000000000000000000000000600052603260045260246000fd5b7f4e487b7100000000000000000000000000000000000000000000000000000000600052601160045260246000fd5b60006145588261369a565b91507fffffffffffffffffffffffffffffffffffffffffffffffffffffffffffffffff820361458a5761458961451e565b5b600182019050919050565b7f57616c6c6574206164647265737320697320616c72656164792061737369676e60008201527f6564000000000000000000000000000000000000000000000000000000000000602082015250565b60006145f16022836135f3565b91506145fc82614595565b604082019050919050565b60006020820190508181036000830152614620816145e4565b9050919050565b600060608201905061463c600083018661372f565b6146496020830185613cab565b614656604083018461372f565b949350505050565b6000604082019050614673600083018561372f565b6146806020830184613cab565b9392505050565b7f4e6f20436f6d70616e792077697468207468652072657175657374656420776160008201527f6c6c657420616464726573730000000000000000000000000000000000000000602082015250565b60006146e3602c836135f3565b91506146ee82614687565b604082019050919050565b60006020820190508181036000830152614712816146d6565b9050919050565b7f546f6b656e206e6f74206f776e65642062792074686520616464726573730000600082015250565b600061474f601e836135f3565b915061475a82614719565b602082019050919050565b6000602082019050818103600083015261477e81614742565b9050919050565b600081905092915050565b600061479b826135e8565b6147a58185614785565b93506147b5818560208601613604565b80840191505092915050565b60006147cd8284614790565b915081905092915050565b6000819050919050565b6147f36147ee826137f1565b6147d8565b82525050565b600061480582846147e2565b60208201915081905092915050565b600081519050919050565b600082825260208201905092915050565b600061483b82614814565b614845818561481f565b9350614855818560208601613604565b61485e8161362e565b840191505092915050565b600060808201905061487e600083018761372f565b61488b602083018661372f565b6148986040830185613cab565b81810360608301526148aa8184614830565b905095945050505050565b6000815190506148c481613559565b92915050565b6000602082840312156148e0576148df613523565b5b60006148ee848285016148b5565b91505092915050565b60006149038285614790565b915061490f8284614790565b91508190509392505050565b6000604082019050614930600083018561372f565b61493d6020830184613cd5565b9392505050565b600061494f8261369a565b915061495a8361369a565b92508282039050818111156149725761497161451e565b5b92915050565b7f4e487b7100000000000000000000000000000000000000000000000000000000600052603160045260246000fd5b7f4e487b7100000000000000000000000000000000000000000000000000000000600052601260045260246000fdfea26469706673582212208a9159a753c15b49582ee08024bda377a9e14b0d909538aa692a02bce6c7d09364736f6c63430008140033",
  "linkReferences": {},
  "deployedLinkReferences": {}
}