{
  "_format": "hh-sol-artifact-1",
  "contractName": "ClearOriginNetwork",
  "sourceName": "contracts/ClearOriginNetwork.sol",
  "abi": [
    {
      "inputs": [
        {
          "internalType": "address",
          "name": "defaultAdmin",
          "type": "address"
        }
      ],
      "stateMutability": "nonpayable",
      "type": "constructor"
    },
    {
      "inputs": [],
      "name": "AccessControlBadConfirmation",
      "type": "error"
    },
    {
      "inputs": [
        {
          "internalType": "address",
          "name": "account",
          "type": "address"
        },
        {
          "internalType": "bytes32",
          "name": "neededRole",
          "type": "bytes32"
        }
      ],
      "name": "AccessControlUnauthorizedAccount",
      "type": "error"
    },
    {
      "inputs": [
        {
          "internalType": "address",
          "name": "sender",
          "type": "address"
        },
        {
          "internalType": "uint256",
          "name": "tokenId",
          "type": "uint256"
        },
        {
          "internalType": "address",
          "name": "owner",
          "type": "address"
        }
      ],
      "name": "ERC721IncorrectOwner",
      "type": "error"
    },
    {
      "inputs": [
        {
          "internalType": "address",
          "name": "operator",
          "type": "address"
        },
        {
          "internalType": "uint256",
          "name": "tokenId",
          "type": "uint256"
        }
      ],
      "name": "ERC721InsufficientApproval",
      "type": "error"
    },
    {
      "inputs": [
        {
          "internalType": "address",
          "name": "approver",
          "type": "address"
        }
      ],
      "name": "ERC721InvalidApprover",
      "type": "error"
    },
    {
      "inputs": [
        {
          "internalType": "address",
          "name": "operator",
          "type": "address"
        }
      ],
      "name": "ERC721InvalidOperator",
      "type": "error"
    },
    {
      "inputs": [
        {
          "internalType": "address",
          "name": "owner",
          "type": "address"
        }
      ],
      "name": "ERC721InvalidOwner",
      "type": "error"
    },
    {
      "inputs": [
        {
          "internalType": "address",
          "name": "receiver",
          "type": "address"
        }
      ],
      "name": "ERC721InvalidReceiver",
      "type": "error"
    },
    {
      "inputs": [
        {
          "internalType": "address",
          "name": "sender",
          "type": "address"
        }
      ],
      "name": "ERC721InvalidSender",
      "type": "error"
    },
    {
      "inputs": [
        {
          "internalType": "uint256",
          "name": "tokenId",
          "type": "uint256"
        }
      ],
      "name": "ERC721NonexistentToken",
      "type": "error"
    },
    {
      "anonymous": false,
      "inputs": [
        {
          "indexed": true,
          "internalType": "address",
          "name": "owner",
          "type": "address"
        },
        {
          "indexed": true,
          "internalType": "address",
          "name": "approved",
          "type": "address"
        },
        {
          "indexed": true,
          "internalType": "uint256",
          "name": "tokenId",
          "type": "uint256"
        }
      ],
      "name": "Approval",
      "type": "event"
    },
    {
      "anonymous": false,
      "inputs": [
        {
          "indexed": true,
          "internalType": "address",
          "name": "owner",
          "type": "address"
        },
        {
          "indexed": true,
          "internalType": "address",
          "name": "operator",
          "type": "address"
        },
        {
          "indexed": false,
          "internalType": "bool",
          "name": "approved",
          "type": "bool"
        }
      ],
      "name": "ApprovalForAll",
      "type": "event"
    },
    {
      "anonymous": false,
      "inputs": [
        {
          "indexed": false,
          "internalType": "uint256",
          "name": "_fromTokenId",
          "type": "uint256"
        },
        {
          "indexed": false,
          "internalType": "uint256",
          "name": "_toTokenId",
          "type": "uint256"
        }
      ],
      "name": "BatchMetadataUpdate",
      "type": "event"
    },
    {
      "anonymous": false,
      "inputs": [
        {
          "indexed": false,
          "internalType": "uint256",
          "name": "_tokenId",
          "type": "uint256"
        }
      ],
      "name": "MetadataUpdate",
      "type": "event"
    },
    {
      "anonymous": false,
      "inputs": [
        {
          "indexed": true,
          "internalType": "bytes32",
          "name": "role",
          "type": "bytes32"
        },
        {
          "indexed": true,
          "internalType": "bytes32",
          "name": "previousAdminRole",
          "type": "bytes32"
        },
        {
          "indexed": true,
          "internalType": "bytes32",
          "name": "newAdminRole",
          "type": "bytes32"
        }
      ],
      "name": "RoleAdminChanged",
      "type": "event"
    },
    {
      "anonymous": false,
      "inputs": [
        {
          "indexed": true,
          "internalType": "bytes32",
          "name": "role",
          "type": "bytes32"
        },
        {
          "indexed": true,
          "internalType": "address",
          "name": "account",
          "type": "address"
        },
        {
          "indexed": true,
          "internalType": "address",
          "name": "sender",
          "type": "address"
        }
      ],
      "name": "RoleGranted",
      "type": "event"
    },
    {
      "anonymous": false,
      "inputs": [
        {
          "indexed": true,
          "internalType": "bytes32",
          "name": "role",
          "type": "bytes32"
        },
        {
          "indexed": true,
          "internalType": "address",
          "name": "account",
          "type": "address"
        },
        {
          "indexed": true,
          "internalType": "address",
          "name": "sender",
          "type": "address"
        }
      ],
      "name": "RoleRevoked",
      "type": "event"
    },
    {
      "anonymous": false,
      "inputs": [
        {
          "indexed": true,
          "internalType": "address",
          "name": "from",
          "type": "address"
        },
        {
          "indexed": true,
          "internalType": "address",
          "name": "to",
          "type": "address"
        },
        {
          "indexed": true,
          "internalType": "uint256",
          "name": "tokenId",
          "type": "uint256"
        }
      ],
      "name": "Transfer",
      "type": "event"
    },
    {
      "inputs": [],
      "name": "COMPANY_ROLE",
      "outputs": [
        {
          "internalType": "bytes32",
          "name": "",
          "type": "bytes32"
        }
      ],
      "stateMutability": "view",
      "type": "function"
    },
    {
      "inputs": [],
      "name": "DEFAULT_ADMIN_ROLE",
      "outputs": [
        {
          "internalType": "bytes32",
          "name": "",
          "type": "bytes32"
        }
      ],
      "stateMutability": "view",
      "type": "function"
    },
    {
      "inputs": [
        {
          "internalType": "address",
          "name": "_newCompany",
          "type": "address"
        }
      ],
      "name": "addCompany",
      "outputs": [],
      "stateMutability": "nonpayable",
      "type": "function"
    },
    {
      "inputs": [
        {
          "internalType": "address",
          "name": "to",
          "type": "address"
        },
        {
          "internalType": "uint256",
          "name": "tokenId",
          "type": "uint256"
        }
      ],
      "name": "approve",
      "outputs": [],
      "stateMutability": "nonpayable",
      "type": "function"
    },
    {
      "inputs": [
        {
          "internalType": "address",
          "name": "owner",
          "type": "address"
        }
      ],
      "name": "balanceOf",
      "outputs": [
        {
          "internalType": "uint256",
          "name": "",
          "type": "uint256"
        }
      ],
      "stateMutability": "view",
      "type": "function"
    },
    {
      "inputs": [
        {
          "internalType": "uint256",
          "name": "tokenId",
          "type": "uint256"
        }
      ],
      "name": "burn",
      "outputs": [],
      "stateMutability": "nonpayable",
      "type": "function"
    },
    {
      "inputs": [
        {
          "internalType": "uint256",
          "name": "",
          "type": "uint256"
        }
      ],
      "name": "companies",
      "outputs": [
        {
          "internalType": "address",
          "name": "",
          "type": "address"
        }
      ],
      "stateMutability": "view",
      "type": "function"
    },
    {
      "inputs": [
        {
          "internalType": "uint256",
          "name": "tokenId",
          "type": "uint256"
        }
      ],
      "name": "getApproved",
      "outputs": [
        {
          "internalType": "address",
          "name": "",
          "type": "address"
        }
      ],
      "stateMutability": "view",
      "type": "function"
    },
    {
      "inputs": [],
      "name": "getCompanies",
      "outputs": [
        {
          "internalType": "address[]",
          "name": "",
          "type": "address[]"
        }
      ],
      "stateMutability": "view",
      "type": "function"
    },
    {
      "inputs": [
        {
          "internalType": "bytes32",
          "name": "role",
          "type": "bytes32"
        }
      ],
      "name": "getRoleAdmin",
      "outputs": [
        {
          "internalType": "bytes32",
          "name": "",
          "type": "bytes32"
        }
      ],
      "stateMutability": "view",
      "type": "function"
    },
    {
      "inputs": [
        {
          "internalType": "bytes32",
          "name": "role",
          "type": "bytes32"
        },
        {
          "internalType": "address",
          "name": "account",
          "type": "address"
        }
      ],
      "name": "grantRole",
      "outputs": [],
      "stateMutability": "nonpayable",
      "type": "function"
    },
    {
      "inputs": [
        {
          "internalType": "bytes32",
          "name": "role",
          "type": "bytes32"
        },
        {
          "internalType": "address",
          "name": "account",
          "type": "address"
        }
      ],
      "name": "hasRole",
      "outputs": [
        {
          "internalType": "bool",
          "name": "",
          "type": "bool"
        }
      ],
      "stateMutability": "view",
      "type": "function"
    },
    {
      "inputs": [
        {
          "internalType": "address",
          "name": "owner",
          "type": "address"
        },
        {
          "internalType": "address",
          "name": "operator",
          "type": "address"
        }
      ],
      "name": "isApprovedForAll",
      "outputs": [
        {
          "internalType": "bool",
          "name": "",
          "type": "bool"
        }
      ],
      "stateMutability": "view",
      "type": "function"
    },
    {
      "inputs": [],
      "name": "name",
      "outputs": [
        {
          "internalType": "string",
          "name": "",
          "type": "string"
        }
      ],
      "stateMutability": "view",
      "type": "function"
    },
    {
      "inputs": [
        {
          "internalType": "uint256",
          "name": "tokenId",
          "type": "uint256"
        }
      ],
      "name": "ownerOf",
      "outputs": [
        {
          "internalType": "address",
          "name": "",
          "type": "address"
        }
      ],
      "stateMutability": "view",
      "type": "function"
    },
    {
      "inputs": [
        {
          "internalType": "bytes32",
          "name": "role",
          "type": "bytes32"
        },
        {
          "internalType": "address",
          "name": "callerConfirmation",
          "type": "address"
        }
      ],
      "name": "renounceRole",
      "outputs": [],
      "stateMutability": "nonpayable",
      "type": "function"
    },
    {
      "inputs": [
        {
          "internalType": "bytes32",
          "name": "role",
          "type": "bytes32"
        },
        {
          "internalType": "address",
          "name": "account",
          "type": "address"
        }
      ],
      "name": "revokeRole",
      "outputs": [],
      "stateMutability": "nonpayable",
      "type": "function"
    },
    {
      "inputs": [
        {
          "internalType": "address",
          "name": "to",
          "type": "address"
        },
        {
          "internalType": "uint256",
          "name": "tokenId",
          "type": "uint256"
        },
        {
          "internalType": "string",
          "name": "uri",
          "type": "string"
        }
      ],
      "name": "safeMint",
      "outputs": [],
      "stateMutability": "nonpayable",
      "type": "function"
    },
    {
      "inputs": [
        {
          "internalType": "address",
          "name": "from",
          "type": "address"
        },
        {
          "internalType": "address",
          "name": "to",
          "type": "address"
        },
        {
          "internalType": "uint256",
          "name": "tokenId",
          "type": "uint256"
        }
      ],
      "name": "safeTransferFrom",
      "outputs": [],
      "stateMutability": "nonpayable",
      "type": "function"
    },
    {
      "inputs": [
        {
          "internalType": "address",
          "name": "from",
          "type": "address"
        },
        {
          "internalType": "address",
          "name": "to",
          "type": "address"
        },
        {
          "internalType": "uint256",
          "name": "tokenId",
          "type": "uint256"
        },
        {
          "internalType": "bytes",
          "name": "data",
          "type": "bytes"
        }
      ],
      "name": "safeTransferFrom",
      "outputs": [],
      "stateMutability": "nonpayable",
      "type": "function"
    },
    {
      "inputs": [
        {
          "internalType": "address",
          "name": "operator",
          "type": "address"
        },
        {
          "internalType": "bool",
          "name": "approved",
          "type": "bool"
        }
      ],
      "name": "setApprovalForAll",
      "outputs": [],
      "stateMutability": "nonpayable",
      "type": "function"
    },
    {
      "inputs": [
        {
          "internalType": "bytes4",
          "name": "interfaceId",
          "type": "bytes4"
        }
      ],
      "name": "supportsInterface",
      "outputs": [
        {
          "internalType": "bool",
          "name": "",
          "type": "bool"
        }
      ],
      "stateMutability": "view",
      "type": "function"
    },
    {
      "inputs": [],
      "name": "symbol",
      "outputs": [
        {
          "internalType": "string",
          "name": "",
          "type": "string"
        }
      ],
      "stateMutability": "view",
      "type": "function"
    },
    {
      "inputs": [
        {
          "internalType": "uint256",
          "name": "tokenId",
          "type": "uint256"
        }
      ],
      "name": "tokenURI",
      "outputs": [
        {
          "internalType": "string",
          "name": "",
          "type": "string"
        }
      ],
      "stateMutability": "view",
      "type": "function"
    },
    {
      "inputs": [
        {
          "internalType": "address",
          "name": "from",
          "type": "address"
        },
        {
          "internalType": "address",
          "name": "to",
          "type": "address"
        },
        {
          "internalType": "uint256",
          "name": "tokenId",
          "type": "uint256"
        }
      ],
      "name": "transferFrom",
      "outputs": [],
      "stateMutability": "nonpayable",
      "type": "function"
    }
  ],
  "bytecode": "0x60806040523480156200001157600080fd5b506040516200338a3803806200338a8339818101604052810190620000379190620002c7565b6040518060400160405280601281526020017f436c6561724f726967696e4e6574776f726b00000000000000000000000000008152506040518060400160405280600381526020017f434f4e00000000000000000000000000000000000000000000000000000000008152508160009081620000b4919062000573565b508060019081620000c6919062000573565b505050620000de6000801b82620000e660201b60201c565b50506200065a565b6000620000fa8383620001ea60201b60201c565b620001df5760016007600085815260200190815260200160002060000160008473ffffffffffffffffffffffffffffffffffffffff1673ffffffffffffffffffffffffffffffffffffffff16815260200190815260200160002060006101000a81548160ff0219169083151502179055506200017b6200025560201b60201c565b73ffffffffffffffffffffffffffffffffffffffff168273ffffffffffffffffffffffffffffffffffffffff16847f2f8788117e7eff1d82e926ec794901d17c78024a50270940304540a733656f0d60405160405180910390a460019050620001e4565b600090505b92915050565b60006007600084815260200190815260200160002060000160008373ffffffffffffffffffffffffffffffffffffffff1673ffffffffffffffffffffffffffffffffffffffff16815260200190815260200160002060009054906101000a900460ff16905092915050565b600033905090565b600080fd5b600073ffffffffffffffffffffffffffffffffffffffff82169050919050565b60006200028f8262000262565b9050919050565b620002a18162000282565b8114620002ad57600080fd5b50565b600081519050620002c18162000296565b92915050565b600060208284031215620002e057620002df6200025d565b5b6000620002f084828501620002b0565b91505092915050565b600081519050919050565b7f4e487b7100000000000000000000000000000000000000000000000000000000600052604160045260246000fd5b7f4e487b7100000000000000000000000000000000000000000000000000000000600052602260045260246000fd5b600060028204905060018216806200037b57607f821691505b60208210810362000391576200039062000333565b5b50919050565b60008190508160005260206000209050919050565b60006020601f8301049050919050565b600082821b905092915050565b600060088302620003fb7fffffffffffffffffffffffffffffffffffffffffffffffffffffffffffffffff82620003bc565b620004078683620003bc565b95508019841693508086168417925050509392505050565b6000819050919050565b6000819050919050565b6000620004546200044e62000448846200041f565b62000429565b6200041f565b9050919050565b6000819050919050565b620004708362000433565b620004886200047f826200045b565b848454620003c9565b825550505050565b600090565b6200049f62000490565b620004ac81848462000465565b505050565b5b81811015620004d457620004c860008262000495565b600181019050620004b2565b5050565b601f8211156200052357620004ed8162000397565b620004f884620003ac565b8101602085101562000508578190505b620005206200051785620003ac565b830182620004b1565b50505b505050565b600082821c905092915050565b6000620005486000198460080262000528565b1980831691505092915050565b600062000563838362000535565b9150826002028217905092915050565b6200057e82620002f9565b67ffffffffffffffff8111156200059a576200059962000304565b5b620005a6825462000362565b620005b3828285620004d8565b600060209050601f831160018114620005eb5760008415620005d6578287015190505b620005e2858262000555565b86555062000652565b601f198416620005fb8662000397565b60005b828110156200062557848901518255600182019150602085019450602081019050620005fe565b8683101562000645578489015162000641601f89168262000535565b8355505b6001600288020188555050505b505050505050565b612d20806200066a6000396000f3fe608060405234801561001057600080fd5b50600436106101735760003560e01c806342966c68116100de578063a217fddf11610097578063c87b56dd11610071578063c87b56dd1461045a578063cd279c7c1461048a578063d547741f146104a6578063e985e9c5146104c257610173565b8063a217fddf14610404578063a22cb46514610422578063b88d4fde1461043e57610173565b806342966c681461031e578063634513ca1461033a5780636352211e1461035657806370a082311461038657806391d14854146103b657806395d89b41146103e657610173565b806323b872dd1161013057806323b872dd1461024e578063248a9ca31461026a5780632813d19d1461029a5780632f2ff15d146102ca57806336568abe146102e657806342842e0e1461030257610173565b806301ffc9a71461017857806306fdde03146101a8578063081812fc146101c6578063095ea7b3146101f65780630c0b6691146102125780631c9ee11a14610230575b600080fd5b610192600480360381019061018d9190612006565b6104f2565b60405161019f919061204e565b60405180910390f35b6101b0610504565b6040516101bd91906120f9565b60405180910390f35b6101e060048036038101906101db9190612151565b610596565b6040516101ed91906121bf565b60405180910390f35b610210600480360381019061020b9190612206565b6105b2565b005b61021a6105c8565b6040516102279190612304565b60405180910390f35b610238610664565b604051610245919061233f565b60405180910390f35b6102686004803603810190610263919061235a565b610688565b005b610284600480360381019061027f91906123d9565b61078a565b604051610291919061233f565b60405180910390f35b6102b460048036038101906102af9190612151565b6107aa565b6040516102c191906121bf565b60405180910390f35b6102e460048036038101906102df9190612406565b6107e9565b005b61030060048036038101906102fb9190612406565b61080b565b005b61031c6004803603810190610317919061235a565b610886565b005b61033860048036038101906103339190612151565b6108a6565b005b610354600480360381019061034f9190612446565b6108bd565b005b610370600480360381019061036b9190612151565b610931565b60405161037d91906121bf565b60405180910390f35b6103a0600480360381019061039b9190612446565b610943565b6040516103ad9190612482565b60405180910390f35b6103d060048036038101906103cb9190612406565b6109fd565b6040516103dd919061204e565b60405180910390f35b6103ee610a68565b6040516103fb91906120f9565b60405180910390f35b61040c610afa565b604051610419919061233f565b60405180910390f35b61043c600480360381019061043791906124c9565b610b01565b005b6104586004803603810190610453919061263e565b610b17565b005b610474600480360381019061046f9190612151565b610b34565b60405161048191906120f9565b60405180910390f35b6104a4600480360381019061049f9190612762565b610b46565b005b6104c060048036038101906104bb9190612406565b610b8a565b005b6104dc60048036038101906104d791906127d1565b610bac565b6040516104e9919061204e565b60405180910390f35b60006104fd82610c40565b9050919050565b60606000805461051390612840565b80601f016020809104026020016040519081016040528092919081815260200182805461053f90612840565b801561058c5780601f106105615761010080835404028352916020019161058c565b820191906000526020600020905b81548152906001019060200180831161056f57829003601f168201915b5050505050905090565b60006105a182610cba565b506105ab82610d42565b9050919050565b6105c482826105bf610d7f565b610d87565b5050565b60606000801b6105d781610d99565b600880548060200260200160405190810160405280929190818152602001828054801561065957602002820191906000526020600020905b8160009054906101000a900473ffffffffffffffffffffffffffffffffffffffff1673ffffffffffffffffffffffffffffffffffffffff168152602001906001019080831161060f575b505050505091505090565b7f9e1688b53537f356172ce07f39e129155063957163c5f9462d4d9e55b228b06c81565b600073ffffffffffffffffffffffffffffffffffffffff168273ffffffffffffffffffffffffffffffffffffffff16036106fa5760006040517f64a0ae920000000000000000000000000000000000000000000000000000000081526004016106f191906121bf565b60405180910390fd5b600061070e8383610709610d7f565b610dad565b90508373ffffffffffffffffffffffffffffffffffffffff168173ffffffffffffffffffffffffffffffffffffffff1614610784578382826040517f64283d7b00000000000000000000000000000000000000000000000000000000815260040161077b93929190612871565b60405180910390fd5b50505050565b600060076000838152602001908152602001600020600101549050919050565b600881815481106107ba57600080fd5b906000526020600020016000915054906101000a900473ffffffffffffffffffffffffffffffffffffffff1681565b6107f28261078a565b6107fb81610d99565b6108058383610fc7565b50505050565b610813610d7f565b73ffffffffffffffffffffffffffffffffffffffff168173ffffffffffffffffffffffffffffffffffffffff1614610877576040517f6697b23200000000000000000000000000000000000000000000000000000000815260040160405180910390fd5b61088182826110b9565b505050565b6108a183838360405180602001604052806000815250610b17565b505050565b6108b96000826108b4610d7f565b610dad565b5050565b6000801b6108ca81610d99565b6008829080600181540180825580915050600190039060005260206000200160009091909190916101000a81548173ffffffffffffffffffffffffffffffffffffffff021916908373ffffffffffffffffffffffffffffffffffffffff1602179055505050565b600061093c82610cba565b9050919050565b60008073ffffffffffffffffffffffffffffffffffffffff168273ffffffffffffffffffffffffffffffffffffffff16036109b65760006040517f89c62b640000000000000000000000000000000000000000000000000000000081526004016109ad91906121bf565b60405180910390fd5b600360008373ffffffffffffffffffffffffffffffffffffffff1673ffffffffffffffffffffffffffffffffffffffff168152602001908152602001600020549050919050565b60006007600084815260200190815260200160002060000160008373ffffffffffffffffffffffffffffffffffffffff1673ffffffffffffffffffffffffffffffffffffffff16815260200190815260200160002060009054906101000a900460ff16905092915050565b606060018054610a7790612840565b80601f0160208091040260200160405190810160405280929190818152602001828054610aa390612840565b8015610af05780601f10610ac557610100808354040283529160200191610af0565b820191906000526020600020905b815481529060010190602001808311610ad357829003601f168201915b5050505050905090565b6000801b81565b610b13610b0c610d7f565b83836111ac565b5050565b610b22848484610688565b610b2e8484848461131b565b50505050565b6060610b3f826114d2565b9050919050565b7f9e1688b53537f356172ce07f39e129155063957163c5f9462d4d9e55b228b06c610b7081610d99565b610b7a84846115e5565b610b848383611603565b50505050565b610b938261078a565b610b9c81610d99565b610ba683836110b9565b50505050565b6000600560008473ffffffffffffffffffffffffffffffffffffffff1673ffffffffffffffffffffffffffffffffffffffff16815260200190815260200160002060008373ffffffffffffffffffffffffffffffffffffffff1673ffffffffffffffffffffffffffffffffffffffff16815260200190815260200160002060009054906101000a900460ff16905092915050565b60007f7965db0b000000000000000000000000000000000000000000000000000000007bffffffffffffffffffffffffffffffffffffffffffffffffffffffff1916827bffffffffffffffffffffffffffffffffffffffffffffffffffffffff19161480610cb35750610cb28261165f565b5b9050919050565b600080610cc6836116c0565b9050600073ffffffffffffffffffffffffffffffffffffffff168173ffffffffffffffffffffffffffffffffffffffff1603610d3957826040517f7e273289000000000000000000000000000000000000000000000000000000008152600401610d309190612482565b60405180910390fd5b80915050919050565b60006004600083815260200190815260200160002060009054906101000a900473ffffffffffffffffffffffffffffffffffffffff169050919050565b600033905090565b610d9483838360016116fd565b505050565b610daa81610da5610d7f565b6118c2565b50565b600080610db9846116c0565b9050600073ffffffffffffffffffffffffffffffffffffffff168373ffffffffffffffffffffffffffffffffffffffff1614610dfb57610dfa818486611913565b5b600073ffffffffffffffffffffffffffffffffffffffff168173ffffffffffffffffffffffffffffffffffffffff1614610e8c57610e3d6000856000806116fd565b6001600360008373ffffffffffffffffffffffffffffffffffffffff1673ffffffffffffffffffffffffffffffffffffffff168152602001908152602001600020600082825403925050819055505b600073ffffffffffffffffffffffffffffffffffffffff168573ffffffffffffffffffffffffffffffffffffffff1614610f0f576001600360008773ffffffffffffffffffffffffffffffffffffffff1673ffffffffffffffffffffffffffffffffffffffff168152602001908152602001600020600082825401925050819055505b846002600086815260200190815260200160002060006101000a81548173ffffffffffffffffffffffffffffffffffffffff021916908373ffffffffffffffffffffffffffffffffffffffff160217905550838573ffffffffffffffffffffffffffffffffffffffff168273ffffffffffffffffffffffffffffffffffffffff167fddf252ad1be2c89b69c2b068fc378daa952ba7f163c4a11628f55a4df523b3ef60405160405180910390a4809150509392505050565b6000610fd383836109fd565b6110ae5760016007600085815260200190815260200160002060000160008473ffffffffffffffffffffffffffffffffffffffff1673ffffffffffffffffffffffffffffffffffffffff16815260200190815260200160002060006101000a81548160ff02191690831515021790555061104b610d7f565b73ffffffffffffffffffffffffffffffffffffffff168273ffffffffffffffffffffffffffffffffffffffff16847f2f8788117e7eff1d82e926ec794901d17c78024a50270940304540a733656f0d60405160405180910390a4600190506110b3565b600090505b92915050565b60006110c583836109fd565b156111a15760006007600085815260200190815260200160002060000160008473ffffffffffffffffffffffffffffffffffffffff1673ffffffffffffffffffffffffffffffffffffffff16815260200190815260200160002060006101000a81548160ff02191690831515021790555061113e610d7f565b73ffffffffffffffffffffffffffffffffffffffff168273ffffffffffffffffffffffffffffffffffffffff16847ff6391f5c32d9c69d2a47ea670b442974b53935d1edc7fd64eb21e047a839171b60405160405180910390a4600190506111a6565b600090505b92915050565b600073ffffffffffffffffffffffffffffffffffffffff168273ffffffffffffffffffffffffffffffffffffffff160361121d57816040517f5b08ba1800000000000000000000000000000000000000000000000000000000815260040161121491906121bf565b60405180910390fd5b80600560008573ffffffffffffffffffffffffffffffffffffffff1673ffffffffffffffffffffffffffffffffffffffff16815260200190815260200160002060008473ffffffffffffffffffffffffffffffffffffffff1673ffffffffffffffffffffffffffffffffffffffff16815260200190815260200160002060006101000a81548160ff0219169083151502179055508173ffffffffffffffffffffffffffffffffffffffff168373ffffffffffffffffffffffffffffffffffffffff167f17307eab39ab6107e8899845ad3d59bd9653f200f220920489ca2b5937696c318360405161130e919061204e565b60405180910390a3505050565b60008373ffffffffffffffffffffffffffffffffffffffff163b11156114cc578273ffffffffffffffffffffffffffffffffffffffff1663150b7a0261135f610d7f565b8685856040518563ffffffff1660e01b815260040161138194939291906128fd565b6020604051808303816000875af19250505080156113bd57506040513d601f19601f820116820180604052508101906113ba919061295e565b60015b611441573d80600081146113ed576040519150601f19603f3d011682016040523d82523d6000602084013e6113f2565b606091505b50600081510361143957836040517f64a0ae9200000000000000000000000000000000000000000000000000000000815260040161143091906121bf565b60405180910390fd5b805181602001fd5b63150b7a0260e01b7bffffffffffffffffffffffffffffffffffffffffffffffffffffffff1916817bffffffffffffffffffffffffffffffffffffffffffffffffffffffff1916146114ca57836040517f64a0ae920000000000000000000000000000000000000000000000000000000081526004016114c191906121bf565b60405180910390fd5b505b50505050565b60606114dd82610cba565b5060006006600084815260200190815260200160002080546114fe90612840565b80601f016020809104026020016040519081016040528092919081815260200182805461152a90612840565b80156115775780601f1061154c57610100808354040283529160200191611577565b820191906000526020600020905b81548152906001019060200180831161155a57829003601f168201915b5050505050905060006115886119d7565b9050600081510361159d5781925050506115e0565b6000825111156115d25780826040516020016115ba9291906129c7565b604051602081830303815290604052925050506115e0565b6115db846119ee565b925050505b919050565b6115ff828260405180602001604052806000815250611a57565b5050565b806006600084815260200190815260200160002090816116239190612b97565b507ff8e1a15aba9398e019f0b49df1a4fde98ee17ae345cb5f6b5e2c27f5033e8ce7826040516116539190612482565b60405180910390a15050565b6000634906490660e01b7bffffffffffffffffffffffffffffffffffffffffffffffffffffffff1916827bffffffffffffffffffffffffffffffffffffffffffffffffffffffff191614806116b957506116b882611a73565b5b9050919050565b60006002600083815260200190815260200160002060009054906101000a900473ffffffffffffffffffffffffffffffffffffffff169050919050565b80806117365750600073ffffffffffffffffffffffffffffffffffffffff168273ffffffffffffffffffffffffffffffffffffffff1614155b1561186a57600061174684610cba565b9050600073ffffffffffffffffffffffffffffffffffffffff168373ffffffffffffffffffffffffffffffffffffffff16141580156117b157508273ffffffffffffffffffffffffffffffffffffffff168173ffffffffffffffffffffffffffffffffffffffff1614155b80156117c457506117c28184610bac565b155b1561180657826040517fa9fbf51f0000000000000000000000000000000000000000000000000000000081526004016117fd91906121bf565b60405180910390fd5b811561186857838573ffffffffffffffffffffffffffffffffffffffff168273ffffffffffffffffffffffffffffffffffffffff167f8c5be1e5ebec7d5bd14f71427d1e84f3dd0314c0f7b2291e5b200ac8c7c3b92560405160405180910390a45b505b836004600085815260200190815260200160002060006101000a81548173ffffffffffffffffffffffffffffffffffffffff021916908373ffffffffffffffffffffffffffffffffffffffff16021790555050505050565b6118cc82826109fd565b61190f5780826040517fe2517d3f000000000000000000000000000000000000000000000000000000008152600401611906929190612c69565b60405180910390fd5b5050565b61191e838383611b55565b6119d257600073ffffffffffffffffffffffffffffffffffffffff168373ffffffffffffffffffffffffffffffffffffffff160361199357806040517f7e27328900000000000000000000000000000000000000000000000000000000815260040161198a9190612482565b60405180910390fd5b81816040517f177e802f0000000000000000000000000000000000000000000000000000000081526004016119c9929190612c92565b60405180910390fd5b505050565b606060405180602001604052806000815250905090565b60606119f982610cba565b506000611a046119d7565b90506000815111611a245760405180602001604052806000815250611a4f565b80611a2e84611c16565b604051602001611a3f9291906129c7565b6040516020818303038152906040525b915050919050565b611a618383611ce4565b611a6e600084848461131b565b505050565b60007f80ac58cd000000000000000000000000000000000000000000000000000000007bffffffffffffffffffffffffffffffffffffffffffffffffffffffff1916827bffffffffffffffffffffffffffffffffffffffffffffffffffffffff19161480611b3e57507f5b5e139f000000000000000000000000000000000000000000000000000000007bffffffffffffffffffffffffffffffffffffffffffffffffffffffff1916827bffffffffffffffffffffffffffffffffffffffffffffffffffffffff1916145b80611b4e5750611b4d82611ddd565b5b9050919050565b60008073ffffffffffffffffffffffffffffffffffffffff168373ffffffffffffffffffffffffffffffffffffffff1614158015611c0d57508273ffffffffffffffffffffffffffffffffffffffff168473ffffffffffffffffffffffffffffffffffffffff161480611bce5750611bcd8484610bac565b5b80611c0c57508273ffffffffffffffffffffffffffffffffffffffff16611bf483610d42565b73ffffffffffffffffffffffffffffffffffffffff16145b5b90509392505050565b606060006001611c2584611e47565b01905060008167ffffffffffffffff811115611c4457611c43612513565b5b6040519080825280601f01601f191660200182016040528015611c765781602001600182028036833780820191505090505b509050600082602001820190505b600115611cd9578080600190039150507f3031323334353637383961626364656600000000000000000000000000000000600a86061a8153600a8581611ccd57611ccc612cbb565b5b04945060008503611c84575b819350505050919050565b600073ffffffffffffffffffffffffffffffffffffffff168273ffffffffffffffffffffffffffffffffffffffff1603611d565760006040517f64a0ae92000000000000000000000000000000000000000000000000000000008152600401611d4d91906121bf565b60405180910390fd5b6000611d6483836000610dad565b9050600073ffffffffffffffffffffffffffffffffffffffff168173ffffffffffffffffffffffffffffffffffffffff1614611dd85760006040517f73c6ac6e000000000000000000000000000000000000000000000000000000008152600401611dcf91906121bf565b60405180910390fd5b505050565b60007f01ffc9a7000000000000000000000000000000000000000000000000000000007bffffffffffffffffffffffffffffffffffffffffffffffffffffffff1916827bffffffffffffffffffffffffffffffffffffffffffffffffffffffff1916149050919050565b600080600090507a184f03e93ff9f4daa797ed6e38ed64bf6a1f0100000000000000008310611ea5577a184f03e93ff9f4daa797ed6e38ed64bf6a1f0100000000000000008381611e9b57611e9a612cbb565b5b0492506040810190505b6d04ee2d6d415b85acef81000000008310611ee2576d04ee2d6d415b85acef81000000008381611ed857611ed7612cbb565b5b0492506020810190505b662386f26fc100008310611f1157662386f26fc100008381611f0757611f06612cbb565b5b0492506010810190505b6305f5e1008310611f3a576305f5e1008381611f3057611f2f612cbb565b5b0492506008810190505b6127108310611f5f576127108381611f5557611f54612cbb565b5b0492506004810190505b60648310611f825760648381611f7857611f77612cbb565b5b0492506002810190505b600a8310611f91576001810190505b80915050919050565b6000604051905090565b600080fd5b600080fd5b60007fffffffff0000000000000000000000000000000000000000000000000000000082169050919050565b611fe381611fae565b8114611fee57600080fd5b50565b60008135905061200081611fda565b92915050565b60006020828403121561201c5761201b611fa4565b5b600061202a84828501611ff1565b91505092915050565b60008115159050919050565b61204881612033565b82525050565b6000602082019050612063600083018461203f565b92915050565b600081519050919050565b600082825260208201905092915050565b60005b838110156120a3578082015181840152602081019050612088565b60008484015250505050565b6000601f19601f8301169050919050565b60006120cb82612069565b6120d58185612074565b93506120e5818560208601612085565b6120ee816120af565b840191505092915050565b6000602082019050818103600083015261211381846120c0565b905092915050565b6000819050919050565b61212e8161211b565b811461213957600080fd5b50565b60008135905061214b81612125565b92915050565b60006020828403121561216757612166611fa4565b5b60006121758482850161213c565b91505092915050565b600073ffffffffffffffffffffffffffffffffffffffff82169050919050565b60006121a98261217e565b9050919050565b6121b98161219e565b82525050565b60006020820190506121d460008301846121b0565b92915050565b6121e38161219e565b81146121ee57600080fd5b50565b600081359050612200816121da565b92915050565b6000806040838503121561221d5761221c611fa4565b5b600061222b858286016121f1565b925050602061223c8582860161213c565b9150509250929050565b600081519050919050565b600082825260208201905092915050565b6000819050602082019050919050565b61227b8161219e565b82525050565b600061228d8383612272565b60208301905092915050565b6000602082019050919050565b60006122b182612246565b6122bb8185612251565b93506122c683612262565b8060005b838110156122f75781516122de8882612281565b97506122e983612299565b9250506001810190506122ca565b5085935050505092915050565b6000602082019050818103600083015261231e81846122a6565b905092915050565b6000819050919050565b61233981612326565b82525050565b60006020820190506123546000830184612330565b92915050565b60008060006060848603121561237357612372611fa4565b5b6000612381868287016121f1565b9350506020612392868287016121f1565b92505060406123a38682870161213c565b9150509250925092565b6123b681612326565b81146123c157600080fd5b50565b6000813590506123d3816123ad565b92915050565b6000602082840312156123ef576123ee611fa4565b5b60006123fd848285016123c4565b91505092915050565b6000806040838503121561241d5761241c611fa4565b5b600061242b858286016123c4565b925050602061243c858286016121f1565b9150509250929050565b60006020828403121561245c5761245b611fa4565b5b600061246a848285016121f1565b91505092915050565b61247c8161211b565b82525050565b60006020820190506124976000830184612473565b92915050565b6124a681612033565b81146124b157600080fd5b50565b6000813590506124c38161249d565b92915050565b600080604083850312156124e0576124df611fa4565b5b60006124ee858286016121f1565b92505060206124ff858286016124b4565b9150509250929050565b600080fd5b600080fd5b7f4e487b7100000000000000000000000000000000000000000000000000000000600052604160045260246000fd5b61254b826120af565b810181811067ffffffffffffffff8211171561256a57612569612513565b5b80604052505050565b600061257d611f9a565b90506125898282612542565b919050565b600067ffffffffffffffff8211156125a9576125a8612513565b5b6125b2826120af565b9050602081019050919050565b82818337600083830152505050565b60006125e16125dc8461258e565b612573565b9050828152602081018484840111156125fd576125fc61250e565b5b6126088482856125bf565b509392505050565b600082601f83011261262557612624612509565b5b81356126358482602086016125ce565b91505092915050565b6000806000806080858703121561265857612657611fa4565b5b6000612666878288016121f1565b9450506020612677878288016121f1565b93505060406126888782880161213c565b925050606085013567ffffffffffffffff8111156126a9576126a8611fa9565b5b6126b587828801612610565b91505092959194509250565b600067ffffffffffffffff8211156126dc576126db612513565b5b6126e5826120af565b9050602081019050919050565b6000612705612700846126c1565b612573565b9050828152602081018484840111156127215761272061250e565b5b61272c8482856125bf565b509392505050565b600082601f83011261274957612748612509565b5b81356127598482602086016126f2565b91505092915050565b60008060006060848603121561277b5761277a611fa4565b5b6000612789868287016121f1565b935050602061279a8682870161213c565b925050604084013567ffffffffffffffff8111156127bb576127ba611fa9565b5b6127c786828701612734565b9150509250925092565b600080604083850312156127e8576127e7611fa4565b5b60006127f6858286016121f1565b9250506020612807858286016121f1565b9150509250929050565b7f4e487b7100000000000000000000000000000000000000000000000000000000600052602260045260246000fd5b6000600282049050600182168061285857607f821691505b60208210810361286b5761286a612811565b5b50919050565b600060608201905061288660008301866121b0565b6128936020830185612473565b6128a060408301846121b0565b949350505050565b600081519050919050565b600082825260208201905092915050565b60006128cf826128a8565b6128d981856128b3565b93506128e9818560208601612085565b6128f2816120af565b840191505092915050565b600060808201905061291260008301876121b0565b61291f60208301866121b0565b61292c6040830185612473565b818103606083015261293e81846128c4565b905095945050505050565b60008151905061295881611fda565b92915050565b60006020828403121561297457612973611fa4565b5b600061298284828501612949565b91505092915050565b600081905092915050565b60006129a182612069565b6129ab818561298b565b93506129bb818560208601612085565b80840191505092915050565b60006129d38285612996565b91506129df8284612996565b91508190509392505050565b60008190508160005260206000209050919050565b60006020601f8301049050919050565b600082821b905092915050565b600060088302612a4d7fffffffffffffffffffffffffffffffffffffffffffffffffffffffffffffffff82612a10565b612a578683612a10565b95508019841693508086168417925050509392505050565b6000819050919050565b6000612a94612a8f612a8a8461211b565b612a6f565b61211b565b9050919050565b6000819050919050565b612aae83612a79565b612ac2612aba82612a9b565b848454612a1d565b825550505050565b600090565b612ad7612aca565b612ae2818484612aa5565b505050565b5b81811015612b0657612afb600082612acf565b600181019050612ae8565b5050565b601f821115612b4b57612b1c816129eb565b612b2584612a00565b81016020851015612b34578190505b612b48612b4085612a00565b830182612ae7565b50505b505050565b600082821c905092915050565b6000612b6e60001984600802612b50565b1980831691505092915050565b6000612b878383612b5d565b9150826002028217905092915050565b612ba082612069565b67ffffffffffffffff811115612bb957612bb8612513565b5b612bc38254612840565b612bce828285612b0a565b600060209050601f831160018114612c015760008415612bef578287015190505b612bf98582612b7b565b865550612c61565b601f198416612c0f866129eb565b60005b82811015612c3757848901518255600182019150602085019450602081019050612c12565b86831015612c545784890151612c50601f891682612b5d565b8355505b6001600288020188555050505b505050505050565b6000604082019050612c7e60008301856121b0565b612c8b6020830184612330565b9392505050565b6000604082019050612ca760008301856121b0565b612cb46020830184612473565b9392505050565b7f4e487b7100000000000000000000000000000000000000000000000000000000600052601260045260246000fdfea26469706673582212201b50343136d4dd04402c6e832c2e3939550cb969d56614c83509a3f07f7e92ba64736f6c63430008140033",
  "linkReferences": {},
  "deployedLinkReferences": {}
}