{
  "_format": "hh-sol-artifact-1",
  "contractName": "ClearOriginNetwork",
  "sourceName": "contracts/ClearOriginNetwork.sol",
  "abi": [
    {
      "inputs": [
        {
          "internalType": "address",
          "name": "defaultAdmin",
          "type": "address"
        }
      ],
      "stateMutability": "nonpayable",
      "type": "constructor"
    },
    {
      "inputs": [],
      "name": "AccessControlBadConfirmation",
      "type": "error"
    },
    {
      "inputs": [
        {
          "internalType": "address",
          "name": "account",
          "type": "address"
        },
        {
          "internalType": "bytes32",
          "name": "neededRole",
          "type": "bytes32"
        }
      ],
      "name": "AccessControlUnauthorizedAccount",
      "type": "error"
    },
    {
      "inputs": [],
      "name": "ERC721EnumerableForbiddenBatchMint",
      "type": "error"
    },
    {
      "inputs": [
        {
          "internalType": "address",
          "name": "sender",
          "type": "address"
        },
        {
          "internalType": "uint256",
          "name": "tokenId",
          "type": "uint256"
        },
        {
          "internalType": "address",
          "name": "owner",
          "type": "address"
        }
      ],
      "name": "ERC721IncorrectOwner",
      "type": "error"
    },
    {
      "inputs": [
        {
          "internalType": "address",
          "name": "operator",
          "type": "address"
        },
        {
          "internalType": "uint256",
          "name": "tokenId",
          "type": "uint256"
        }
      ],
      "name": "ERC721InsufficientApproval",
      "type": "error"
    },
    {
      "inputs": [
        {
          "internalType": "address",
          "name": "approver",
          "type": "address"
        }
      ],
      "name": "ERC721InvalidApprover",
      "type": "error"
    },
    {
      "inputs": [
        {
          "internalType": "address",
          "name": "operator",
          "type": "address"
        }
      ],
      "name": "ERC721InvalidOperator",
      "type": "error"
    },
    {
      "inputs": [
        {
          "internalType": "address",
          "name": "owner",
          "type": "address"
        }
      ],
      "name": "ERC721InvalidOwner",
      "type": "error"
    },
    {
      "inputs": [
        {
          "internalType": "address",
          "name": "receiver",
          "type": "address"
        }
      ],
      "name": "ERC721InvalidReceiver",
      "type": "error"
    },
    {
      "inputs": [
        {
          "internalType": "address",
          "name": "sender",
          "type": "address"
        }
      ],
      "name": "ERC721InvalidSender",
      "type": "error"
    },
    {
      "inputs": [
        {
          "internalType": "uint256",
          "name": "tokenId",
          "type": "uint256"
        }
      ],
      "name": "ERC721NonexistentToken",
      "type": "error"
    },
    {
      "inputs": [
        {
          "internalType": "address",
          "name": "owner",
          "type": "address"
        },
        {
          "internalType": "uint256",
          "name": "index",
          "type": "uint256"
        }
      ],
      "name": "ERC721OutOfBoundsIndex",
      "type": "error"
    },
    {
      "anonymous": false,
      "inputs": [
        {
          "indexed": true,
          "internalType": "address",
          "name": "owner",
          "type": "address"
        },
        {
          "indexed": true,
          "internalType": "address",
          "name": "approved",
          "type": "address"
        },
        {
          "indexed": true,
          "internalType": "uint256",
          "name": "tokenId",
          "type": "uint256"
        }
      ],
      "name": "Approval",
      "type": "event"
    },
    {
      "anonymous": false,
      "inputs": [
        {
          "indexed": true,
          "internalType": "address",
          "name": "owner",
          "type": "address"
        },
        {
          "indexed": true,
          "internalType": "address",
          "name": "operator",
          "type": "address"
        },
        {
          "indexed": false,
          "internalType": "bool",
          "name": "approved",
          "type": "bool"
        }
      ],
      "name": "ApprovalForAll",
      "type": "event"
    },
    {
      "anonymous": false,
      "inputs": [
        {
          "indexed": false,
          "internalType": "uint256",
          "name": "_fromTokenId",
          "type": "uint256"
        },
        {
          "indexed": false,
          "internalType": "uint256",
          "name": "_toTokenId",
          "type": "uint256"
        }
      ],
      "name": "BatchMetadataUpdate",
      "type": "event"
    },
    {
      "anonymous": false,
      "inputs": [
        {
          "indexed": false,
          "internalType": "uint256",
          "name": "_tokenId",
          "type": "uint256"
        }
      ],
      "name": "MetadataUpdate",
      "type": "event"
    },
    {
      "anonymous": false,
      "inputs": [
        {
          "indexed": true,
          "internalType": "bytes32",
          "name": "role",
          "type": "bytes32"
        },
        {
          "indexed": true,
          "internalType": "bytes32",
          "name": "previousAdminRole",
          "type": "bytes32"
        },
        {
          "indexed": true,
          "internalType": "bytes32",
          "name": "newAdminRole",
          "type": "bytes32"
        }
      ],
      "name": "RoleAdminChanged",
      "type": "event"
    },
    {
      "anonymous": false,
      "inputs": [
        {
          "indexed": true,
          "internalType": "bytes32",
          "name": "role",
          "type": "bytes32"
        },
        {
          "indexed": true,
          "internalType": "address",
          "name": "account",
          "type": "address"
        },
        {
          "indexed": true,
          "internalType": "address",
          "name": "sender",
          "type": "address"
        }
      ],
      "name": "RoleGranted",
      "type": "event"
    },
    {
      "anonymous": false,
      "inputs": [
        {
          "indexed": true,
          "internalType": "bytes32",
          "name": "role",
          "type": "bytes32"
        },
        {
          "indexed": true,
          "internalType": "address",
          "name": "account",
          "type": "address"
        },
        {
          "indexed": true,
          "internalType": "address",
          "name": "sender",
          "type": "address"
        }
      ],
      "name": "RoleRevoked",
      "type": "event"
    },
    {
      "anonymous": false,
      "inputs": [
        {
          "indexed": true,
          "internalType": "address",
          "name": "from",
          "type": "address"
        },
        {
          "indexed": true,
          "internalType": "address",
          "name": "to",
          "type": "address"
        },
        {
          "indexed": true,
          "internalType": "uint256",
          "name": "tokenId",
          "type": "uint256"
        }
      ],
      "name": "Transfer",
      "type": "event"
    },
    {
      "inputs": [],
      "name": "COMPANY_ROLE",
      "outputs": [
        {
          "internalType": "bytes32",
          "name": "",
          "type": "bytes32"
        }
      ],
      "stateMutability": "view",
      "type": "function"
    },
    {
      "inputs": [],
      "name": "DEFAULT_ADMIN_ROLE",
      "outputs": [
        {
          "internalType": "bytes32",
          "name": "",
          "type": "bytes32"
        }
      ],
      "stateMutability": "view",
      "type": "function"
    },
    {
      "inputs": [
        {
          "internalType": "bytes32",
          "name": "_companyName",
          "type": "bytes32"
        },
        {
          "internalType": "address",
          "name": "_companyAddress",
          "type": "address"
        },
        {
          "internalType": "bytes32[]",
          "name": "_companyProducts",
          "type": "bytes32[]"
        }
      ],
      "name": "addCompany",
      "outputs": [],
      "stateMutability": "nonpayable",
      "type": "function"
    },
    {
      "inputs": [
        {
          "internalType": "address",
          "name": "_companyAddress",
          "type": "address"
        },
        {
          "internalType": "bytes32",
          "name": "_product",
          "type": "bytes32"
        }
      ],
      "name": "addProduct",
      "outputs": [],
      "stateMutability": "nonpayable",
      "type": "function"
    },
    {
      "inputs": [
        {
          "internalType": "address",
          "name": "_companyAddress",
          "type": "address"
        },
        {
          "internalType": "bytes32[]",
          "name": "_products",
          "type": "bytes32[]"
        }
      ],
      "name": "addProducts",
      "outputs": [],
      "stateMutability": "nonpayable",
      "type": "function"
    },
    {
      "inputs": [
        {
          "internalType": "address",
          "name": "to",
          "type": "address"
        },
        {
          "internalType": "uint256",
          "name": "tokenId",
          "type": "uint256"
        }
      ],
      "name": "approve",
      "outputs": [],
      "stateMutability": "nonpayable",
      "type": "function"
    },
    {
      "inputs": [
        {
          "internalType": "address",
          "name": "owner",
          "type": "address"
        }
      ],
      "name": "balanceOf",
      "outputs": [
        {
          "internalType": "uint256",
          "name": "",
          "type": "uint256"
        }
      ],
      "stateMutability": "view",
      "type": "function"
    },
    {
      "inputs": [
        {
          "internalType": "uint256",
          "name": "tokenId",
          "type": "uint256"
        }
      ],
      "name": "burn",
      "outputs": [],
      "stateMutability": "nonpayable",
      "type": "function"
    },
    {
      "inputs": [
        {
          "internalType": "uint256",
          "name": "tokenId",
          "type": "uint256"
        }
      ],
      "name": "getApproved",
      "outputs": [
        {
          "internalType": "address",
          "name": "",
          "type": "address"
        }
      ],
      "stateMutability": "view",
      "type": "function"
    },
    {
      "inputs": [],
      "name": "getCompanies",
      "outputs": [
        {
          "internalType": "bytes32[]",
          "name": "",
          "type": "bytes32[]"
        },
        {
          "internalType": "address[]",
          "name": "",
          "type": "address[]"
        },
        {
          "internalType": "bytes32[][]",
          "name": "",
          "type": "bytes32[][]"
        }
      ],
      "stateMutability": "view",
      "type": "function"
    },
    {
      "inputs": [
        {
          "internalType": "string",
          "name": "_product",
          "type": "string"
        }
      ],
      "name": "getCompaniesWithProduct",
      "outputs": [
        {
          "internalType": "address[]",
          "name": "",
          "type": "address[]"
        }
      ],
      "stateMutability": "view",
      "type": "function"
    },
    {
      "inputs": [
        {
          "internalType": "address",
          "name": "_companyAddress",
          "type": "address"
        }
      ],
      "name": "getCompanyProducts",
      "outputs": [
        {
          "internalType": "bytes32[]",
          "name": "",
          "type": "bytes32[]"
        }
      ],
      "stateMutability": "view",
      "type": "function"
    },
    {
      "inputs": [
        {
          "internalType": "uint256",
          "name": "tokenId",
          "type": "uint256"
        }
      ],
      "name": "getDelivery",
      "outputs": [
        {
          "internalType": "bytes32[]",
          "name": "",
          "type": "bytes32[]"
        },
        {
          "internalType": "uint8[]",
          "name": "",
          "type": "uint8[]"
        }
      ],
      "stateMutability": "view",
      "type": "function"
    },
    {
      "inputs": [
        {
          "internalType": "bytes32",
          "name": "role",
          "type": "bytes32"
        }
      ],
      "name": "getRoleAdmin",
      "outputs": [
        {
          "internalType": "bytes32",
          "name": "",
          "type": "bytes32"
        }
      ],
      "stateMutability": "view",
      "type": "function"
    },
    {
      "inputs": [
        {
          "internalType": "bytes32",
          "name": "role",
          "type": "bytes32"
        },
        {
          "internalType": "address",
          "name": "account",
          "type": "address"
        }
      ],
      "name": "grantRole",
      "outputs": [],
      "stateMutability": "nonpayable",
      "type": "function"
    },
    {
      "inputs": [
        {
          "internalType": "address",
          "name": "_companyAddress",
          "type": "address"
        },
        {
          "internalType": "string",
          "name": "_product",
          "type": "string"
        }
      ],
      "name": "hasProduct",
      "outputs": [
        {
          "internalType": "bool",
          "name": "",
          "type": "bool"
        }
      ],
      "stateMutability": "view",
      "type": "function"
    },
    {
      "inputs": [
        {
          "internalType": "bytes32",
          "name": "role",
          "type": "bytes32"
        },
        {
          "internalType": "address",
          "name": "account",
          "type": "address"
        }
      ],
      "name": "hasRole",
      "outputs": [
        {
          "internalType": "bool",
          "name": "",
          "type": "bool"
        }
      ],
      "stateMutability": "view",
      "type": "function"
    },
    {
      "inputs": [
        {
          "internalType": "address",
          "name": "owner",
          "type": "address"
        },
        {
          "internalType": "address",
          "name": "operator",
          "type": "address"
        }
      ],
      "name": "isApprovedForAll",
      "outputs": [
        {
          "internalType": "bool",
          "name": "",
          "type": "bool"
        }
      ],
      "stateMutability": "view",
      "type": "function"
    },
    {
      "inputs": [],
      "name": "name",
      "outputs": [
        {
          "internalType": "string",
          "name": "",
          "type": "string"
        }
      ],
      "stateMutability": "view",
      "type": "function"
    },
    {
      "inputs": [
        {
          "internalType": "uint256",
          "name": "tokenId",
          "type": "uint256"
        }
      ],
      "name": "ownerOf",
      "outputs": [
        {
          "internalType": "address",
          "name": "",
          "type": "address"
        }
      ],
      "stateMutability": "view",
      "type": "function"
    },
    {
      "inputs": [
        {
          "internalType": "bytes32",
          "name": "role",
          "type": "bytes32"
        },
        {
          "internalType": "address",
          "name": "callerConfirmation",
          "type": "address"
        }
      ],
      "name": "renounceRole",
      "outputs": [],
      "stateMutability": "nonpayable",
      "type": "function"
    },
    {
      "inputs": [
        {
          "internalType": "bytes32",
          "name": "role",
          "type": "bytes32"
        },
        {
          "internalType": "address",
          "name": "account",
          "type": "address"
        }
      ],
      "name": "revokeRole",
      "outputs": [],
      "stateMutability": "nonpayable",
      "type": "function"
    },
    {
      "inputs": [
        {
          "internalType": "bytes32[]",
          "name": "_deliveryProducts",
          "type": "bytes32[]"
        },
        {
          "internalType": "uint8[]",
          "name": "numberOfItems",
          "type": "uint8[]"
        }
      ],
      "name": "safeMint",
      "outputs": [],
      "stateMutability": "nonpayable",
      "type": "function"
    },
    {
      "inputs": [
        {
          "internalType": "address",
          "name": "from",
          "type": "address"
        },
        {
          "internalType": "address",
          "name": "to",
          "type": "address"
        },
        {
          "internalType": "uint256",
          "name": "tokenId",
          "type": "uint256"
        }
      ],
      "name": "safeTransferFrom",
      "outputs": [],
      "stateMutability": "nonpayable",
      "type": "function"
    },
    {
      "inputs": [
        {
          "internalType": "address",
          "name": "from",
          "type": "address"
        },
        {
          "internalType": "address",
          "name": "to",
          "type": "address"
        },
        {
          "internalType": "uint256",
          "name": "tokenId",
          "type": "uint256"
        },
        {
          "internalType": "bytes",
          "name": "data",
          "type": "bytes"
        }
      ],
      "name": "safeTransferFrom",
      "outputs": [],
      "stateMutability": "nonpayable",
      "type": "function"
    },
    {
      "inputs": [
        {
          "internalType": "address",
          "name": "operator",
          "type": "address"
        },
        {
          "internalType": "bool",
          "name": "approved",
          "type": "bool"
        }
      ],
      "name": "setApprovalForAll",
      "outputs": [],
      "stateMutability": "nonpayable",
      "type": "function"
    },
    {
      "inputs": [
        {
          "internalType": "bytes4",
          "name": "interfaceId",
          "type": "bytes4"
        }
      ],
      "name": "supportsInterface",
      "outputs": [
        {
          "internalType": "bool",
          "name": "",
          "type": "bool"
        }
      ],
      "stateMutability": "view",
      "type": "function"
    },
    {
      "inputs": [],
      "name": "symbol",
      "outputs": [
        {
          "internalType": "string",
          "name": "",
          "type": "string"
        }
      ],
      "stateMutability": "view",
      "type": "function"
    },
    {
      "inputs": [
        {
          "internalType": "uint256",
          "name": "index",
          "type": "uint256"
        }
      ],
      "name": "tokenByIndex",
      "outputs": [
        {
          "internalType": "uint256",
          "name": "",
          "type": "uint256"
        }
      ],
      "stateMutability": "view",
      "type": "function"
    },
    {
      "inputs": [
        {
          "internalType": "address",
          "name": "owner",
          "type": "address"
        },
        {
          "internalType": "uint256",
          "name": "index",
          "type": "uint256"
        }
      ],
      "name": "tokenOfOwnerByIndex",
      "outputs": [
        {
          "internalType": "uint256",
          "name": "",
          "type": "uint256"
        }
      ],
      "stateMutability": "view",
      "type": "function"
    },
    {
      "inputs": [
        {
          "internalType": "uint256",
          "name": "tokenId",
          "type": "uint256"
        }
      ],
      "name": "tokenURI",
      "outputs": [
        {
          "internalType": "string",
          "name": "",
          "type": "string"
        }
      ],
      "stateMutability": "view",
      "type": "function"
    },
    {
      "inputs": [],
      "name": "totalSupply",
      "outputs": [
        {
          "internalType": "uint256",
          "name": "",
          "type": "uint256"
        }
      ],
      "stateMutability": "view",
      "type": "function"
    },
    {
      "inputs": [
        {
          "internalType": "address",
          "name": "from",
          "type": "address"
        },
        {
          "internalType": "address",
          "name": "to",
          "type": "address"
        },
        {
          "internalType": "uint256",
          "name": "tokenId",
          "type": "uint256"
        }
      ],
      "name": "transferFrom",
      "outputs": [],
      "stateMutability": "nonpayable",
      "type": "function"
    },
    {
      "inputs": [
        {
          "internalType": "address",
          "name": "from",
          "type": "address"
        },
        {
          "internalType": "address",
          "name": "to",
          "type": "address"
        },
        {
          "internalType": "uint256",
          "name": "tokenId",
          "type": "uint256"
        }
      ],
      "name": "transferNFT",
      "outputs": [],
      "stateMutability": "nonpayable",
      "type": "function"
    }
  ],
  "bytecode": "0x60806040523480156200001157600080fd5b5060405162004da938038062004da98339818101604052810190620000379190620002c7565b6040518060400160405280601281526020017f436c6561724f726967696e4e6574776f726b00000000000000000000000000008152506040518060400160405280600381526020017f434f4e00000000000000000000000000000000000000000000000000000000008152508160009081620000b4919062000573565b508060019081620000c6919062000573565b505050620000de6000801b82620000e660201b60201c565b50506200065a565b6000620000fa8383620001ea60201b60201c565b620001df5760016007600085815260200190815260200160002060000160008473ffffffffffffffffffffffffffffffffffffffff1673ffffffffffffffffffffffffffffffffffffffff16815260200190815260200160002060006101000a81548160ff0219169083151502179055506200017b6200025560201b60201c565b73ffffffffffffffffffffffffffffffffffffffff168273ffffffffffffffffffffffffffffffffffffffff16847f2f8788117e7eff1d82e926ec794901d17c78024a50270940304540a733656f0d60405160405180910390a460019050620001e4565b600090505b92915050565b60006007600084815260200190815260200160002060000160008373ffffffffffffffffffffffffffffffffffffffff1673ffffffffffffffffffffffffffffffffffffffff16815260200190815260200160002060009054906101000a900460ff16905092915050565b600033905090565b600080fd5b600073ffffffffffffffffffffffffffffffffffffffff82169050919050565b60006200028f8262000262565b9050919050565b620002a18162000282565b8114620002ad57600080fd5b50565b600081519050620002c18162000296565b92915050565b600060208284031215620002e057620002df6200025d565b5b6000620002f084828501620002b0565b91505092915050565b600081519050919050565b7f4e487b7100000000000000000000000000000000000000000000000000000000600052604160045260246000fd5b7f4e487b7100000000000000000000000000000000000000000000000000000000600052602260045260246000fd5b600060028204905060018216806200037b57607f821691505b60208210810362000391576200039062000333565b5b50919050565b60008190508160005260206000209050919050565b60006020601f8301049050919050565b600082821b905092915050565b600060088302620003fb7fffffffffffffffffffffffffffffffffffffffffffffffffffffffffffffffff82620003bc565b620004078683620003bc565b95508019841693508086168417925050509392505050565b6000819050919050565b6000819050919050565b6000620004546200044e62000448846200041f565b62000429565b6200041f565b9050919050565b6000819050919050565b620004708362000433565b620004886200047f826200045b565b848454620003c9565b825550505050565b600090565b6200049f62000490565b620004ac81848462000465565b505050565b5b81811015620004d457620004c860008262000495565b600181019050620004b2565b5050565b601f8211156200052357620004ed8162000397565b620004f884620003ac565b8101602085101562000508578190505b620005206200051785620003ac565b830182620004b1565b50505b505050565b600082821c905092915050565b6000620005486000198460080262000528565b1980831691505092915050565b600062000563838362000535565b9150826002028217905092915050565b6200057e82620002f9565b67ffffffffffffffff8111156200059a576200059962000304565b5b620005a6825462000362565b620005b3828285620004d8565b600060209050601f831160018114620005eb5760008415620005d6578287015190505b620005e2858262000555565b86555062000652565b601f198416620005fb8662000397565b60005b828110156200062557848901518255600182019150602085019450602081019050620005fe565b8683101562000645578489015162000641601f89168262000535565b8355505b6001600288020188555050505b505050505050565b61473f806200066a6000396000f3fe608060405234801561001057600080fd5b50600436106102065760003560e01c80634f6ccce71161011a578063a217fddf116100ad578063d547741f1161007c578063d547741f14610621578063d58e7e721461063d578063de8211a914610659578063e845e5d81461068a578063e985e9c5146106ba57610206565b8063a217fddf1461059b578063a22cb465146105b9578063b88d4fde146105d5578063c87b56dd146105f157610206565b806370a08231116100e957806370a08231146104ed5780637955aab91461051d57806391d148541461054d57806395d89b411461057d57610206565b80634f6ccce7146104555780636352211e1461048557806369e9cae1146104b557806369fcba8f146104d157610206565b806323b872dd1161019d5780632f745c591161016c5780632f745c59146103b5578063316fd1b1146103e557806336568abe1461040157806342842e0e1461041d57806342966c681461043957610206565b806323b872dd1461031d578063248a9ca3146103395780632eb6908d146103695780632f2ff15d1461039957610206565b80630c0b6691116101d95780630c0b6691146102a55780631435c3dc146102c557806318160ddd146102e15780631c9ee11a146102ff57610206565b806301ffc9a71461020b57806306fdde031461023b578063081812fc14610259578063095ea7b314610289575b600080fd5b6102256004803603810190610220919061337a565b6106ea565b60405161023291906133c2565b60405180910390f35b6102436106fc565b604051610250919061346d565b60405180910390f35b610273600480360381019061026e91906134c5565b61078e565b6040516102809190613533565b60405180910390f35b6102a3600480360381019061029e919061357a565b6107aa565b005b6102ad6107c0565b6040516102bc93929190613871565b60405180910390f35b6102df60048036038101906102da9190613a31565b610aee565b005b6102e9610cf6565b6040516102f69190613aaf565b60405180910390f35b610307610d03565b6040516103149190613ad9565b60405180910390f35b61033760048036038101906103329190613af4565b610d27565b005b610353600480360381019061034e9190613b47565b610e29565b6040516103609190613ad9565b60405180910390f35b610383600480360381019061037e9190613b74565b610e49565b6040516103909190613ba1565b60405180910390f35b6103b360048036038101906103ae9190613bc3565b610ee3565b005b6103cf60048036038101906103ca919061357a565b610f05565b6040516103dc9190613aaf565b60405180910390f35b6103ff60048036038101906103fa9190613c03565b610fae565b005b61041b60048036038101906104169190613bc3565b61105b565b005b61043760048036038101906104329190613af4565b6110d6565b005b610453600480360381019061044e91906134c5565b6110f6565b005b61046f600480360381019061046a91906134c5565b61110d565b60405161047c9190613aaf565b60405180910390f35b61049f600480360381019061049a91906134c5565b611183565b6040516104ac9190613533565b60405180910390f35b6104cf60048036038101906104ca9190613af4565b611195565b005b6104eb60048036038101906104e69190613d5b565b61121b565b005b61050760048036038101906105029190613b74565b61131a565b6040516105149190613aaf565b60405180910390f35b61053760048036038101906105329190613e88565b6113d4565b6040516105449190613ed1565b60405180910390f35b61056760048036038101906105629190613bc3565b6115bc565b60405161057491906133c2565b60405180910390f35b610585611627565b604051610592919061346d565b60405180910390f35b6105a36116b9565b6040516105b09190613ad9565b60405180910390f35b6105d360048036038101906105ce9190613f1f565b6116c0565b005b6105ef60048036038101906105ea9190614000565b6116d6565b005b61060b600480360381019061060691906134c5565b6116f3565b604051610618919061346d565b60405180910390f35b61063b60048036038101906106369190613bc3565b611705565b005b61065760048036038101906106529190614083565b611727565b005b610673600480360381019061066e91906134c5565b61179a565b604051610681929190614181565b60405180910390f35b6106a4600480360381019061069f91906141b8565b61196b565b6040516106b191906133c2565b60405180910390f35b6106d460048036038101906106cf9190614214565b611a5f565b6040516106e191906133c2565b60405180910390f35b60006106f582611af3565b9050919050565b60606000805461070b90614283565b80601f016020809104026020016040519081016040528092919081815260200182805461073790614283565b80156107845780601f1061075957610100808354040283529160200191610784565b820191906000526020600020905b81548152906001019060200180831161076757829003601f168201915b5050505050905090565b600061079982611b6d565b506107a382611bf5565b9050919050565b6107bc82826107b7611c32565b611c3a565b5050565b60608060606000600f8054905067ffffffffffffffff8111156107e6576107e56138ee565b5b6040519080825280602002602001820160405280156108145781602001602082028036833780820191505090505b5090506000600f8054905067ffffffffffffffff811115610838576108376138ee565b5b6040519080825280602002602001820160405280156108665781602001602082028036833780820191505090505b5090506000600f8054905067ffffffffffffffff81111561088a576108896138ee565b5b6040519080825280602002602001820160405280156108bd57816020015b60608152602001906001900390816108a85790505b50905060005b600f80549050811015610adc576000600d6000600f84815481106108ea576108e96142b4565b5b9060005260206000200160009054906101000a900473ffffffffffffffffffffffffffffffffffffffff1673ffffffffffffffffffffffffffffffffffffffff1673ffffffffffffffffffffffffffffffffffffffff168152602001908152602001600020604051806080016040529081600082015481526020016001820160009054906101000a900473ffffffffffffffffffffffffffffffffffffffff1673ffffffffffffffffffffffffffffffffffffffff1673ffffffffffffffffffffffffffffffffffffffff16815260200160028201805480602002602001604051908101604052809291908181526020018280548015610a0957602002820191906000526020600020905b8154815260200190600101908083116109f5575b505050505081526020016003820160009054906101000a900460ff16151515158152505090508060000151858381518110610a4757610a466142b4565b5b6020026020010181815250508060200151848381518110610a6b57610a6a6142b4565b5b602002602001019073ffffffffffffffffffffffffffffffffffffffff16908173ffffffffffffffffffffffffffffffffffffffff16815250508060400151838381518110610abd57610abc6142b4565b5b6020026020010181905250508080610ad490614312565b9150506108c3565b50828282955095509550505050909192565b60001515600d60008473ffffffffffffffffffffffffffffffffffffffff1673ffffffffffffffffffffffffffffffffffffffff16815260200190815260200160002060030160009054906101000a900460ff16151514610b84576040517f08c379a0000000000000000000000000000000000000000000000000000000008152600401610b7b906143cc565b60405180910390fd5b60405180608001604052808481526020018373ffffffffffffffffffffffffffffffffffffffff16815260200182815260200160011515815250600d60008473ffffffffffffffffffffffffffffffffffffffff1673ffffffffffffffffffffffffffffffffffffffff1681526020019081526020016000206000820151816000015560208201518160010160006101000a81548173ffffffffffffffffffffffffffffffffffffffff021916908373ffffffffffffffffffffffffffffffffffffffff1602179055506040820151816002019080519060200190610c6a9291906132a4565b5060608201518160030160006101000a81548160ff021916908315150217905550905050600f829080600181540180825580915050600190039060005260206000200160009091909190916101000a81548173ffffffffffffffffffffffffffffffffffffffff021916908373ffffffffffffffffffffffffffffffffffffffff160217905550505050565b6000600a80549050905090565b7f9e1688b53537f356172ce07f39e129155063957163c5f9462d4d9e55b228b06c81565b600073ffffffffffffffffffffffffffffffffffffffff168273ffffffffffffffffffffffffffffffffffffffff1603610d995760006040517f64a0ae92000000000000000000000000000000000000000000000000000000008152600401610d909190613533565b60405180910390fd5b6000610dad8383610da8611c32565b611c4c565b90508373ffffffffffffffffffffffffffffffffffffffff168173ffffffffffffffffffffffffffffffffffffffff1614610e23578382826040517f64283d7b000000000000000000000000000000000000000000000000000000008152600401610e1a939291906143ec565b60405180910390fd5b50505050565b600060076000838152602001908152602001600020600101549050919050565b6060600d60008373ffffffffffffffffffffffffffffffffffffffff1673ffffffffffffffffffffffffffffffffffffffff168152602001908152602001600020600201805480602002602001604051908101604052809291908181526020018280548015610ed757602002820191906000526020600020905b815481526020019060010190808311610ec3575b50505050509050919050565b610eec82610e29565b610ef581611c62565b610eff8383611c76565b50505050565b6000610f108361131a565b8210610f555782826040517fa57d13dc000000000000000000000000000000000000000000000000000000008152600401610f4c929190614423565b60405180910390fd5b600860008473ffffffffffffffffffffffffffffffffffffffff1673ffffffffffffffffffffffffffffffffffffffff168152602001908152602001600020600083815260200190815260200160002054905092915050565b6000600d60008473ffffffffffffffffffffffffffffffffffffffff1673ffffffffffffffffffffffffffffffffffffffff168152602001908152602001600020905060005b82518110156110555781600201838281518110611014576110136142b4565b5b60200260200101519080600181540180825580915050600190039060005260206000200160009091909190915055808061104d90614312565b915050610ff4565b50505050565b611063611c32565b73ffffffffffffffffffffffffffffffffffffffff168173ffffffffffffffffffffffffffffffffffffffff16146110c7576040517f6697b23200000000000000000000000000000000000000000000000000000000815260040160405180910390fd5b6110d18282611d68565b505050565b6110f1838383604051806020016040528060008152506116d6565b505050565b611109600082611104611c32565b611c4c565b5050565b6000611117610cf6565b821061115d576000826040517fa57d13dc000000000000000000000000000000000000000000000000000000008152600401611154929190614423565b60405180910390fd5b600a8281548110611171576111706142b4565b5b90600052602060002001549050919050565b600061118e82611b6d565b9050919050565b8273ffffffffffffffffffffffffffffffffffffffff166111b582611183565b73ffffffffffffffffffffffffffffffffffffffff161461120b576040517f08c379a000000000000000000000000000000000000000000000000000000000815260040161120290614498565b60405180910390fd5b6112168383836110d6565b505050565b6000600c600081548092919061123090614312565b9190505590506112403382611e5b565b60005b835181101561131457600e6000838152602001908152602001600020604051806040016040528086848151811061127d5761127c6142b4565b5b6020026020010151815260200185848151811061129d5761129c6142b4565b5b602002602001015160ff1681525090806001815401808255809150506001900390600052602060002090600202016000909190919091506000820151816000015560208201518160010160006101000a81548160ff021916908360ff1602179055505050808061130c90614312565b915050611243565b50505050565b60008073ffffffffffffffffffffffffffffffffffffffff168273ffffffffffffffffffffffffffffffffffffffff160361138d5760006040517f89c62b640000000000000000000000000000000000000000000000000000000081526004016113849190613533565b60405180910390fd5b600360008373ffffffffffffffffffffffffffffffffffffffff1673ffffffffffffffffffffffffffffffffffffffff168152602001908152602001600020549050919050565b60606000805b600f805490508110156114565761142f600f82815481106113fe576113fd6142b4565b5b9060005260206000200160009054906101000a900473ffffffffffffffffffffffffffffffffffffffff168561196b565b1561144357818061143f90614312565b9250505b808061144e90614312565b9150506113da565b5060008167ffffffffffffffff811115611473576114726138ee565b5b6040519080825280602002602001820160405280156114a15781602001602082028036833780820191505090505b5090506000805b600f805490508110156115b0576114fd600f82815481106114cc576114cb6142b4565b5b9060005260206000200160009054906101000a900473ffffffffffffffffffffffffffffffffffffffff168761196b565b1561159d57600f8181548110611516576115156142b4565b5b9060005260206000200160009054906101000a900473ffffffffffffffffffffffffffffffffffffffff16838381518110611554576115536142b4565b5b602002602001019073ffffffffffffffffffffffffffffffffffffffff16908173ffffffffffffffffffffffffffffffffffffffff1681525050818061159990614312565b9250505b80806115a890614312565b9150506114a8565b50819350505050919050565b60006007600084815260200190815260200160002060000160008373ffffffffffffffffffffffffffffffffffffffff1673ffffffffffffffffffffffffffffffffffffffff16815260200190815260200160002060009054906101000a900460ff16905092915050565b60606001805461163690614283565b80601f016020809104026020016040519081016040528092919081815260200182805461166290614283565b80156116af5780601f10611684576101008083540402835291602001916116af565b820191906000526020600020905b81548152906001019060200180831161169257829003601f168201915b5050505050905090565b6000801b81565b6116d26116cb611c32565b8383611e79565b5050565b6116e1848484610d27565b6116ed84848484611fe8565b50505050565b60606116fe8261219f565b9050919050565b61170e82610e29565b61171781611c62565b6117218383611d68565b50505050565b6000600d60008473ffffffffffffffffffffffffffffffffffffffff1673ffffffffffffffffffffffffffffffffffffffff168152602001908152602001600020905080600201829080600181540180825580915050600190039060005260206000200160009091909190915055505050565b6060806000600e6000858152602001908152602001600020805480602002602001604051908101604052809291908181526020016000905b8282101561182b5783829060005260206000209060020201604051806040016040529081600082015481526020016001820160009054906101000a900460ff1660ff1660ff1681525050815260200190600101906117d2565b5050505090506000815167ffffffffffffffff81111561184e5761184d6138ee565b5b60405190808252806020026020018201604052801561187c5781602001602082028036833780820191505090505b5090506000825167ffffffffffffffff81111561189c5761189b6138ee565b5b6040519080825280602002602001820160405280156118ca5781602001602082028036833780820191505090505b50905060005b835181101561195c5760008482815181106118ee576118ed6142b4565b5b6020026020010151905080600001518483815181106119105761190f6142b4565b5b6020026020010181815250508060200151838381518110611934576119336142b4565b5b602002602001019060ff16908160ff168152505050808061195490614312565b9150506118d0565b50818194509450505050915091565b600080600d60008573ffffffffffffffffffffffffffffffffffffffff1673ffffffffffffffffffffffffffffffffffffffff168152602001908152602001600020905060005b8160020180549050811015611a5257836040516020016119d291906144f4565b604051602081830303815290604052805190602001208260020182815481106119fe576119fd6142b4565b5b9060005260206000200154604051602001611a19919061452c565b6040516020818303038152906040528051906020012003611a3f57600192505050611a59565b8080611a4a90614312565b9150506119b2565b5060009150505b92915050565b6000600560008473ffffffffffffffffffffffffffffffffffffffff1673ffffffffffffffffffffffffffffffffffffffff16815260200190815260200160002060008373ffffffffffffffffffffffffffffffffffffffff1673ffffffffffffffffffffffffffffffffffffffff16815260200190815260200160002060009054906101000a900460ff16905092915050565b60007f780e9d63000000000000000000000000000000000000000000000000000000007bffffffffffffffffffffffffffffffffffffffffffffffffffffffff1916827bffffffffffffffffffffffffffffffffffffffffffffffffffffffff19161480611b665750611b65826122b2565b5b9050919050565b600080611b798361232c565b9050600073ffffffffffffffffffffffffffffffffffffffff168173ffffffffffffffffffffffffffffffffffffffff1603611bec57826040517f7e273289000000000000000000000000000000000000000000000000000000008152600401611be39190613aaf565b60405180910390fd5b80915050919050565b60006004600083815260200190815260200160002060009054906101000a900473ffffffffffffffffffffffffffffffffffffffff169050919050565b600033905090565b611c478383836001612369565b505050565b6000611c5984848461252e565b90509392505050565b611c7381611c6e611c32565b61264b565b50565b6000611c8283836115bc565b611d5d5760016007600085815260200190815260200160002060000160008473ffffffffffffffffffffffffffffffffffffffff1673ffffffffffffffffffffffffffffffffffffffff16815260200190815260200160002060006101000a81548160ff021916908315150217905550611cfa611c32565b73ffffffffffffffffffffffffffffffffffffffff168273ffffffffffffffffffffffffffffffffffffffff16847f2f8788117e7eff1d82e926ec794901d17c78024a50270940304540a733656f0d60405160405180910390a460019050611d62565b600090505b92915050565b6000611d7483836115bc565b15611e505760006007600085815260200190815260200160002060000160008473ffffffffffffffffffffffffffffffffffffffff1673ffffffffffffffffffffffffffffffffffffffff16815260200190815260200160002060006101000a81548160ff021916908315150217905550611ded611c32565b73ffffffffffffffffffffffffffffffffffffffff168273ffffffffffffffffffffffffffffffffffffffff16847ff6391f5c32d9c69d2a47ea670b442974b53935d1edc7fd64eb21e047a839171b60405160405180910390a460019050611e55565b600090505b92915050565b611e7582826040518060200160405280600081525061269c565b5050565b600073ffffffffffffffffffffffffffffffffffffffff168273ffffffffffffffffffffffffffffffffffffffff1603611eea57816040517f5b08ba18000000000000000000000000000000000000000000000000000000008152600401611ee19190613533565b60405180910390fd5b80600560008573ffffffffffffffffffffffffffffffffffffffff1673ffffffffffffffffffffffffffffffffffffffff16815260200190815260200160002060008473ffffffffffffffffffffffffffffffffffffffff1673ffffffffffffffffffffffffffffffffffffffff16815260200190815260200160002060006101000a81548160ff0219169083151502179055508173ffffffffffffffffffffffffffffffffffffffff168373ffffffffffffffffffffffffffffffffffffffff167f17307eab39ab6107e8899845ad3d59bd9653f200f220920489ca2b5937696c3183604051611fdb91906133c2565b60405180910390a3505050565b60008373ffffffffffffffffffffffffffffffffffffffff163b1115612199578273ffffffffffffffffffffffffffffffffffffffff1663150b7a0261202c611c32565b8685856040518563ffffffff1660e01b815260040161204e949392919061459c565b6020604051808303816000875af192505050801561208a57506040513d601f19601f8201168201806040525081019061208791906145fd565b60015b61210e573d80600081146120ba576040519150601f19603f3d011682016040523d82523d6000602084013e6120bf565b606091505b50600081510361210657836040517f64a0ae920000000000000000000000000000000000000000000000000000000081526004016120fd9190613533565b60405180910390fd5b805181602001fd5b63150b7a0260e01b7bffffffffffffffffffffffffffffffffffffffffffffffffffffffff1916817bffffffffffffffffffffffffffffffffffffffffffffffffffffffff19161461219757836040517f64a0ae9200000000000000000000000000000000000000000000000000000000815260040161218e9190613533565b60405180910390fd5b505b50505050565b60606121aa82611b6d565b5060006006600084815260200190815260200160002080546121cb90614283565b80601f01602080910402602001604051908101604052809291908181526020018280546121f790614283565b80156122445780601f1061221957610100808354040283529160200191612244565b820191906000526020600020905b81548152906001019060200180831161222757829003601f168201915b5050505050905060006122556126b8565b9050600081510361226a5781925050506122ad565b60008251111561229f57808260405160200161228792919061462a565b604051602081830303815290604052925050506122ad565b6122a8846126cf565b925050505b919050565b60007f7965db0b000000000000000000000000000000000000000000000000000000007bffffffffffffffffffffffffffffffffffffffffffffffffffffffff1916827bffffffffffffffffffffffffffffffffffffffffffffffffffffffff19161480612325575061232482612738565b5b9050919050565b60006002600083815260200190815260200160002060009054906101000a900473ffffffffffffffffffffffffffffffffffffffff169050919050565b80806123a25750600073ffffffffffffffffffffffffffffffffffffffff168273ffffffffffffffffffffffffffffffffffffffff1614155b156124d65760006123b284611b6d565b9050600073ffffffffffffffffffffffffffffffffffffffff168373ffffffffffffffffffffffffffffffffffffffff161415801561241d57508273ffffffffffffffffffffffffffffffffffffffff168173ffffffffffffffffffffffffffffffffffffffff1614155b8015612430575061242e8184611a5f565b155b1561247257826040517fa9fbf51f0000000000000000000000000000000000000000000000000000000081526004016124699190613533565b60405180910390fd5b81156124d457838573ffffffffffffffffffffffffffffffffffffffff168273ffffffffffffffffffffffffffffffffffffffff167f8c5be1e5ebec7d5bd14f71427d1e84f3dd0314c0f7b2291e5b200ac8c7c3b92560405160405180910390a45b505b836004600085815260200190815260200160002060006101000a81548173ffffffffffffffffffffffffffffffffffffffff021916908373ffffffffffffffffffffffffffffffffffffffff16021790555050505050565b60008061253c858585612799565b9050600073ffffffffffffffffffffffffffffffffffffffff168173ffffffffffffffffffffffffffffffffffffffff16036125805761257b846129b3565b6125bf565b8473ffffffffffffffffffffffffffffffffffffffff168173ffffffffffffffffffffffffffffffffffffffff16146125be576125bd81856129fc565b5b5b600073ffffffffffffffffffffffffffffffffffffffff168573ffffffffffffffffffffffffffffffffffffffff1603612601576125fc84612b5d565b612640565b8473ffffffffffffffffffffffffffffffffffffffff168173ffffffffffffffffffffffffffffffffffffffff161461263f5761263e8585612c2e565b5b5b809150509392505050565b61265582826115bc565b6126985780826040517fe2517d3f00000000000000000000000000000000000000000000000000000000815260040161268f92919061464e565b60405180910390fd5b5050565b6126a68383612cb9565b6126b36000848484611fe8565b505050565b606060405180602001604052806000815250905090565b60606126da82611b6d565b5060006126e56126b8565b905060008151116127055760405180602001604052806000815250612730565b8061270f84612db2565b60405160200161272092919061462a565b6040516020818303038152906040525b915050919050565b6000634906490660e01b7bffffffffffffffffffffffffffffffffffffffffffffffffffffffff1916827bffffffffffffffffffffffffffffffffffffffffffffffffffffffff19161480612792575061279182612e80565b5b9050919050565b6000806127a58461232c565b9050600073ffffffffffffffffffffffffffffffffffffffff168373ffffffffffffffffffffffffffffffffffffffff16146127e7576127e6818486612f62565b5b600073ffffffffffffffffffffffffffffffffffffffff168173ffffffffffffffffffffffffffffffffffffffff161461287857612829600085600080612369565b6001600360008373ffffffffffffffffffffffffffffffffffffffff1673ffffffffffffffffffffffffffffffffffffffff168152602001908152602001600020600082825403925050819055505b600073ffffffffffffffffffffffffffffffffffffffff168573ffffffffffffffffffffffffffffffffffffffff16146128fb576001600360008773ffffffffffffffffffffffffffffffffffffffff1673ffffffffffffffffffffffffffffffffffffffff168152602001908152602001600020600082825401925050819055505b846002600086815260200190815260200160002060006101000a81548173ffffffffffffffffffffffffffffffffffffffff021916908373ffffffffffffffffffffffffffffffffffffffff160217905550838573ffffffffffffffffffffffffffffffffffffffff168273ffffffffffffffffffffffffffffffffffffffff167fddf252ad1be2c89b69c2b068fc378daa952ba7f163c4a11628f55a4df523b3ef60405160405180910390a4809150509392505050565b600a80549050600b600083815260200190815260200160002081905550600a81908060018154018082558091505060019003906000526020600020016000909190919091505550565b6000612a078361131a565b9050600060096000848152602001908152602001600020549050818114612aec576000600860008673ffffffffffffffffffffffffffffffffffffffff1673ffffffffffffffffffffffffffffffffffffffff168152602001908152602001600020600084815260200190815260200160002054905080600860008773ffffffffffffffffffffffffffffffffffffffff1673ffffffffffffffffffffffffffffffffffffffff168152602001908152602001600020600084815260200190815260200160002081905550816009600083815260200190815260200160002081905550505b6009600084815260200190815260200160002060009055600860008573ffffffffffffffffffffffffffffffffffffffff1673ffffffffffffffffffffffffffffffffffffffff16815260200190815260200160002060008381526020019081526020016000206000905550505050565b60006001600a80549050612b719190614677565b90506000600b60008481526020019081526020016000205490506000600a8381548110612ba157612ba06142b4565b5b9060005260206000200154905080600a8381548110612bc357612bc26142b4565b5b906000526020600020018190555081600b600083815260200190815260200160002081905550600b600085815260200190815260200160002060009055600a805480612c1257612c116146ab565b5b6001900381819060005260206000200160009055905550505050565b60006001612c3b8461131a565b612c459190614677565b905081600860008573ffffffffffffffffffffffffffffffffffffffff1673ffffffffffffffffffffffffffffffffffffffff168152602001908152602001600020600083815260200190815260200160002081905550806009600084815260200190815260200160002081905550505050565b600073ffffffffffffffffffffffffffffffffffffffff168273ffffffffffffffffffffffffffffffffffffffff1603612d2b5760006040517f64a0ae92000000000000000000000000000000000000000000000000000000008152600401612d229190613533565b60405180910390fd5b6000612d3983836000611c4c565b9050600073ffffffffffffffffffffffffffffffffffffffff168173ffffffffffffffffffffffffffffffffffffffff1614612dad5760006040517f73c6ac6e000000000000000000000000000000000000000000000000000000008152600401612da49190613533565b60405180910390fd5b505050565b606060006001612dc184613026565b01905060008167ffffffffffffffff811115612de057612ddf6138ee565b5b6040519080825280601f01601f191660200182016040528015612e125781602001600182028036833780820191505090505b509050600082602001820190505b600115612e75578080600190039150507f3031323334353637383961626364656600000000000000000000000000000000600a86061a8153600a8581612e6957612e686146da565b5b04945060008503612e20575b819350505050919050565b60007f80ac58cd000000000000000000000000000000000000000000000000000000007bffffffffffffffffffffffffffffffffffffffffffffffffffffffff1916827bffffffffffffffffffffffffffffffffffffffffffffffffffffffff19161480612f4b57507f5b5e139f000000000000000000000000000000000000000000000000000000007bffffffffffffffffffffffffffffffffffffffffffffffffffffffff1916827bffffffffffffffffffffffffffffffffffffffffffffffffffffffff1916145b80612f5b5750612f5a82613179565b5b9050919050565b612f6d8383836131e3565b61302157600073ffffffffffffffffffffffffffffffffffffffff168373ffffffffffffffffffffffffffffffffffffffff1603612fe257806040517f7e273289000000000000000000000000000000000000000000000000000000008152600401612fd99190613aaf565b60405180910390fd5b81816040517f177e802f000000000000000000000000000000000000000000000000000000008152600401613018929190614423565b60405180910390fd5b505050565b600080600090507a184f03e93ff9f4daa797ed6e38ed64bf6a1f0100000000000000008310613084577a184f03e93ff9f4daa797ed6e38ed64bf6a1f010000000000000000838161307a576130796146da565b5b0492506040810190505b6d04ee2d6d415b85acef810000000083106130c1576d04ee2d6d415b85acef810000000083816130b7576130b66146da565b5b0492506020810190505b662386f26fc1000083106130f057662386f26fc1000083816130e6576130e56146da565b5b0492506010810190505b6305f5e1008310613119576305f5e100838161310f5761310e6146da565b5b0492506008810190505b612710831061313e576127108381613134576131336146da565b5b0492506004810190505b606483106131615760648381613157576131566146da565b5b0492506002810190505b600a8310613170576001810190505b80915050919050565b60007f01ffc9a7000000000000000000000000000000000000000000000000000000007bffffffffffffffffffffffffffffffffffffffffffffffffffffffff1916827bffffffffffffffffffffffffffffffffffffffffffffffffffffffff1916149050919050565b60008073ffffffffffffffffffffffffffffffffffffffff168373ffffffffffffffffffffffffffffffffffffffff161415801561329b57508273ffffffffffffffffffffffffffffffffffffffff168473ffffffffffffffffffffffffffffffffffffffff16148061325c575061325b8484611a5f565b5b8061329a57508273ffffffffffffffffffffffffffffffffffffffff1661328283611bf5565b73ffffffffffffffffffffffffffffffffffffffff16145b5b90509392505050565b8280548282559060005260206000209081019282156132e0579160200282015b828111156132df5782518255916020019190600101906132c4565b5b5090506132ed91906132f1565b5090565b5b8082111561330a5760008160009055506001016132f2565b5090565b6000604051905090565b600080fd5b600080fd5b60007fffffffff0000000000000000000000000000000000000000000000000000000082169050919050565b61335781613322565b811461336257600080fd5b50565b6000813590506133748161334e565b92915050565b6000602082840312156133905761338f613318565b5b600061339e84828501613365565b91505092915050565b60008115159050919050565b6133bc816133a7565b82525050565b60006020820190506133d760008301846133b3565b92915050565b600081519050919050565b600082825260208201905092915050565b60005b838110156134175780820151818401526020810190506133fc565b60008484015250505050565b6000601f19601f8301169050919050565b600061343f826133dd565b61344981856133e8565b93506134598185602086016133f9565b61346281613423565b840191505092915050565b600060208201905081810360008301526134878184613434565b905092915050565b6000819050919050565b6134a28161348f565b81146134ad57600080fd5b50565b6000813590506134bf81613499565b92915050565b6000602082840312156134db576134da613318565b5b60006134e9848285016134b0565b91505092915050565b600073ffffffffffffffffffffffffffffffffffffffff82169050919050565b600061351d826134f2565b9050919050565b61352d81613512565b82525050565b60006020820190506135486000830184613524565b92915050565b61355781613512565b811461356257600080fd5b50565b6000813590506135748161354e565b92915050565b6000806040838503121561359157613590613318565b5b600061359f85828601613565565b92505060206135b0858286016134b0565b9150509250929050565b600081519050919050565b600082825260208201905092915050565b6000819050602082019050919050565b6000819050919050565b6135f9816135e6565b82525050565b600061360b83836135f0565b60208301905092915050565b6000602082019050919050565b600061362f826135ba565b61363981856135c5565b9350613644836135d6565b8060005b8381101561367557815161365c88826135ff565b975061366783613617565b925050600181019050613648565b5085935050505092915050565b600081519050919050565b600082825260208201905092915050565b6000819050602082019050919050565b6136b781613512565b82525050565b60006136c983836136ae565b60208301905092915050565b6000602082019050919050565b60006136ed82613682565b6136f7818561368d565b93506137028361369e565b8060005b8381101561373357815161371a88826136bd565b9750613725836136d5565b925050600181019050613706565b5085935050505092915050565b600081519050919050565b600082825260208201905092915050565b6000819050602082019050919050565b600082825260208201905092915050565b6000613788826135ba565b613792818561376c565b935061379d836135d6565b8060005b838110156137ce5781516137b588826135ff565b97506137c083613617565b9250506001810190506137a1565b5085935050505092915050565b60006137e7838361377d565b905092915050565b6000602082019050919050565b600061380782613740565b613811818561374b565b9350836020820285016138238561375c565b8060005b8581101561385f578484038952815161384085826137db565b945061384b836137ef565b925060208a01995050600181019050613827565b50829750879550505050505092915050565b6000606082019050818103600083015261388b8186613624565b9050818103602083015261389f81856136e2565b905081810360408301526138b381846137fc565b9050949350505050565b6138c6816135e6565b81146138d157600080fd5b50565b6000813590506138e3816138bd565b92915050565b600080fd5b7f4e487b7100000000000000000000000000000000000000000000000000000000600052604160045260246000fd5b61392682613423565b810181811067ffffffffffffffff82111715613945576139446138ee565b5b80604052505050565b600061395861330e565b9050613964828261391d565b919050565b600067ffffffffffffffff821115613984576139836138ee565b5b602082029050602081019050919050565b600080fd5b60006139ad6139a884613969565b61394e565b905080838252602082019050602084028301858111156139d0576139cf613995565b5b835b818110156139f957806139e588826138d4565b8452602084019350506020810190506139d2565b5050509392505050565b600082601f830112613a1857613a176138e9565b5b8135613a2884826020860161399a565b91505092915050565b600080600060608486031215613a4a57613a49613318565b5b6000613a58868287016138d4565b9350506020613a6986828701613565565b925050604084013567ffffffffffffffff811115613a8a57613a8961331d565b5b613a9686828701613a03565b9150509250925092565b613aa98161348f565b82525050565b6000602082019050613ac46000830184613aa0565b92915050565b613ad3816135e6565b82525050565b6000602082019050613aee6000830184613aca565b92915050565b600080600060608486031215613b0d57613b0c613318565b5b6000613b1b86828701613565565b9350506020613b2c86828701613565565b9250506040613b3d868287016134b0565b9150509250925092565b600060208284031215613b5d57613b5c613318565b5b6000613b6b848285016138d4565b91505092915050565b600060208284031215613b8a57613b89613318565b5b6000613b9884828501613565565b91505092915050565b60006020820190508181036000830152613bbb8184613624565b905092915050565b60008060408385031215613bda57613bd9613318565b5b6000613be8858286016138d4565b9250506020613bf985828601613565565b9150509250929050565b60008060408385031215613c1a57613c19613318565b5b6000613c2885828601613565565b925050602083013567ffffffffffffffff811115613c4957613c4861331d565b5b613c5585828601613a03565b9150509250929050565b600067ffffffffffffffff821115613c7a57613c796138ee565b5b602082029050602081019050919050565b600060ff82169050919050565b613ca181613c8b565b8114613cac57600080fd5b50565b600081359050613cbe81613c98565b92915050565b6000613cd7613cd284613c5f565b61394e565b90508083825260208201905060208402830185811115613cfa57613cf9613995565b5b835b81811015613d235780613d0f8882613caf565b845260208401935050602081019050613cfc565b5050509392505050565b600082601f830112613d4257613d416138e9565b5b8135613d52848260208601613cc4565b91505092915050565b60008060408385031215613d7257613d71613318565b5b600083013567ffffffffffffffff811115613d9057613d8f61331d565b5b613d9c85828601613a03565b925050602083013567ffffffffffffffff811115613dbd57613dbc61331d565b5b613dc985828601613d2d565b9150509250929050565b600080fd5b600067ffffffffffffffff821115613df357613df26138ee565b5b613dfc82613423565b9050602081019050919050565b82818337600083830152505050565b6000613e2b613e2684613dd8565b61394e565b905082815260208101848484011115613e4757613e46613dd3565b5b613e52848285613e09565b509392505050565b600082601f830112613e6f57613e6e6138e9565b5b8135613e7f848260208601613e18565b91505092915050565b600060208284031215613e9e57613e9d613318565b5b600082013567ffffffffffffffff811115613ebc57613ebb61331d565b5b613ec884828501613e5a565b91505092915050565b60006020820190508181036000830152613eeb81846136e2565b905092915050565b613efc816133a7565b8114613f0757600080fd5b50565b600081359050613f1981613ef3565b92915050565b60008060408385031215613f3657613f35613318565b5b6000613f4485828601613565565b9250506020613f5585828601613f0a565b9150509250929050565b600067ffffffffffffffff821115613f7a57613f796138ee565b5b613f8382613423565b9050602081019050919050565b6000613fa3613f9e84613f5f565b61394e565b905082815260208101848484011115613fbf57613fbe613dd3565b5b613fca848285613e09565b509392505050565b600082601f830112613fe757613fe66138e9565b5b8135613ff7848260208601613f90565b91505092915050565b6000806000806080858703121561401a57614019613318565b5b600061402887828801613565565b945050602061403987828801613565565b935050604061404a878288016134b0565b925050606085013567ffffffffffffffff81111561406b5761406a61331d565b5b61407787828801613fd2565b91505092959194509250565b6000806040838503121561409a57614099613318565b5b60006140a885828601613565565b92505060206140b9858286016138d4565b9150509250929050565b600081519050919050565b600082825260208201905092915050565b6000819050602082019050919050565b6140f881613c8b565b82525050565b600061410a83836140ef565b60208301905092915050565b6000602082019050919050565b600061412e826140c3565b61413881856140ce565b9350614143836140df565b8060005b8381101561417457815161415b88826140fe565b975061416683614116565b925050600181019050614147565b5085935050505092915050565b6000604082019050818103600083015261419b8185613624565b905081810360208301526141af8184614123565b90509392505050565b600080604083850312156141cf576141ce613318565b5b60006141dd85828601613565565b925050602083013567ffffffffffffffff8111156141fe576141fd61331d565b5b61420a85828601613e5a565b9150509250929050565b6000806040838503121561422b5761422a613318565b5b600061423985828601613565565b925050602061424a85828601613565565b9150509250929050565b7f4e487b7100000000000000000000000000000000000000000000000000000000600052602260045260246000fd5b6000600282049050600182168061429b57607f821691505b6020821081036142ae576142ad614254565b5b50919050565b7f4e487b7100000000000000000000000000000000000000000000000000000000600052603260045260246000fd5b7f4e487b7100000000000000000000000000000000000000000000000000000000600052601160045260246000fd5b600061431d8261348f565b91507fffffffffffffffffffffffffffffffffffffffffffffffffffffffffffffffff820361434f5761434e6142e3565b5b600182019050919050565b7f57616c6c6574206164647265737320697320616c72656164792061737369676e60008201527f6564000000000000000000000000000000000000000000000000000000000000602082015250565b60006143b66022836133e8565b91506143c18261435a565b604082019050919050565b600060208201905081810360008301526143e5816143a9565b9050919050565b60006060820190506144016000830186613524565b61440e6020830185613aa0565b61441b6040830184613524565b949350505050565b60006040820190506144386000830185613524565b6144456020830184613aa0565b9392505050565b7f546f6b656e206e6f74206f776e65642062792074686520616464726573730000600082015250565b6000614482601e836133e8565b915061448d8261444c565b602082019050919050565b600060208201905081810360008301526144b181614475565b9050919050565b600081905092915050565b60006144ce826133dd565b6144d881856144b8565b93506144e88185602086016133f9565b80840191505092915050565b600061450082846144c3565b915081905092915050565b6000819050919050565b614526614521826135e6565b61450b565b82525050565b60006145388284614515565b60208201915081905092915050565b600081519050919050565b600082825260208201905092915050565b600061456e82614547565b6145788185614552565b93506145888185602086016133f9565b61459181613423565b840191505092915050565b60006080820190506145b16000830187613524565b6145be6020830186613524565b6145cb6040830185613aa0565b81810360608301526145dd8184614563565b905095945050505050565b6000815190506145f78161334e565b92915050565b60006020828403121561461357614612613318565b5b6000614621848285016145e8565b91505092915050565b600061463682856144c3565b915061464282846144c3565b91508190509392505050565b60006040820190506146636000830185613524565b6146706020830184613aca565b9392505050565b60006146828261348f565b915061468d8361348f565b92508282039050818111156146a5576146a46142e3565b5b92915050565b7f4e487b7100000000000000000000000000000000000000000000000000000000600052603160045260246000fd5b7f4e487b7100000000000000000000000000000000000000000000000000000000600052601260045260246000fdfea2646970667358221220dd27a20a4f7e46b317a626a3d6608994d40a1e50df85fcaf3a495cfd3008deb464736f6c63430008140033",
  "linkReferences": {},
  "deployedLinkReferences": {}
}